:100000005FEF00F0FF00FF00D9CF02F0DACF03F07E
:100010009EA22CD00001E82BA00EE75D0F0EE85940
:1000200024E3A00EE75F0F0EE85BE94BEA2B8B940D
:10003000410EE95D030EEA5903E3016A012A01D08A
:10004000016AD8900136D89001348B12E80E000175
:10005000E95D030EEA5909E3CF2B000ED023D1232B
:10006000D223E80EE95F030EEA5B9E929EAA11D0AE
:10007000000E0001DC25D96EDA6A010EDA22AECF5D
:10008000DFFFDC290F0BDE6FDD51DE19D8A4DEC0E7
:10009000DCF09EB89DA80ED05C50B30FD96EDA6A22
:1000A000DF50AD6E5C2A0F0E5C165B505C18D8B446
:1000B0009D989E9803C0DAFF02C0D9FF1100DBEFC4
:1000C00011F0FF00FF00FF00FF00FF00FF00FF0036
:10050000000000803F1872313FF0FD753E47586390
:100510003D58951D3C82C4AE3AA8782139EF9380AE
:1005200037A092A7354656153400000000C4FF7F5F
:100530003F80EFFFBE90E1A93EEC8276BE82AD2BFC
:100540003E0E3CC3BD87D1133D4178D3BB2D204324
:100550002028556E69743A204629202D002D204C04
:100560002028556E69743A204829202D00706C654A
:1005700061736520776169742E2E2E00496E647553
:1005800063746976697479200043616C6962726191
:1005900074696E6700436170616369747920004C0F
:1005A000432D6D6574657220000D0A4343616C3DF7
:1005B00000202020202020000D0A46313D000D0A99
:1005C00046323D000D0A46333D00467265713D00DE
:1005D00043696E3D007661723D005243343D002D0B
:1005E0002A2D000D0A006D46006E4600704600750B
:1005F00046006D48006E480075480000000E086A0D
:10060000F3EC12F07C0E43EC13F075EC0DF036C0F9
:1006100093F037C094F093C03BF094C03CF0CCEC26
:1006200013F03BC0C7F03CC0C8F03DC0C9F03EC0AD
:10063000CAF0DFC004F0E0C005F0E1C006F0E2C09F
:1006400007F0C7C008F0C8C009F0C9C00AF0CAC0A6
:100650000BF001EC12F008E2DFC0C7F0E0C0C8F018
:10066000E1C0C9F0E2C0CAF0C3C048F0C4C049F05C
:10067000C5C04AF0C6C04BF0C3C044F0C4C045F08A
:10068000C5C046F0C6C047F095EC12F044C076F005
:1006900045C077F046C078F047C079F076C048F0A2
:1006A00077C049F078C04AF079C04BF0DFC021F044
:1006B000E0C022F0E1C023F0E2C024F0DFC01DF072
:1006C000E0C01EF0E1C01FF0E2C020F0B3EC08F083
:1006D0001DC044F01EC045F01FC046F020C047F0CA
:1006E00095EC12F044C087F045C088F046C089F010
:1006F00047C08AF0C7C021F0C8C022F0C9C023F0AB
:10070000CAC024F0C7C01DF0C8C01EF0C9C01FF089
:10071000CAC020F0B3EC08F01DC048F01EC049F07C
:100720001FC04AF020C04BF0DFC021F0E0C022F033
:10073000E1C023F0E2C024F0DFC01DF0E0C01EF0F5
:10074000E1C01FF0E2C020F0B3EC08F01DC044F09F
:100750001EC045F01FC046F020C047F095EC12F0D7
:1007600044C08BF045C08CF046C08DF047C08EF081
:1007700087C021F088C022F089C023F08AC024F00D
:100780008BC01DF08CC01EF08DC01FF08EC020F0FD
:10079000B3EC08F01DC08FF01EC090F01FC091F0A8
:1007A00020C092F08FC01DF090C01EF091C01FF0CD
:1007B00092C020F0000E216E400E226E1C0E236EA1
:1007C000460E246EB3EC08F01DC06EF01EC06FF034
:1007D0001FC070F020C071F0DFC021F0E0C022F037
:1007E000E1C023F0E2C024F0DFC01DF0E0C01EF045
:1007F000E1C01FF0E2C020F0B3EC08F01DC07AF0B9
:100800001EC07BF01FC07CF020C07DF0C3C021F073
:10081000C4C022F0C5C023F0C6C024F07AC01DF0C9
:100820007BC01EF07CC01FF07DC020F0B3EC08F050
:100830001DC087F01EC088F01FC089F020C08AF05C
:10084000C3C021F0C4C022F0C5C023F0C6C024F04C
:1008500087C01DF088C01EF089C01FF08AC020F03C
:10086000B3EC08F01DC08BF01EC08CF01FC08DF0E3
:1008700020C08EF0C7C021F0C8C022F0C9C023F04C
:10088000CAC024F08BC01DF08CC01EF08DC01FF0BC
:100890008EC020F0B3EC08F01DC08FF01EC090F0A9
:1008A0001FC091F020C092F0C7C021F0C8C022F054
:1008B000C9C023F0CAC024F08FC01DF090C01EF044
:1008C00091C01FF092C020F0B3EC08F01DC07EF084
:1008D0001EC07FF01FC080F020C081F0E3C021F077
:1008E000E4C022F0E5C023F0E6C024F07EC01DF095
:1008F0007FC01EF080C01FF081C020F0B3EC08F074
:100900001DC082F01EC083F01FC084F020C085F09F
:1009100082C01DF083C01EF084C01FF085C020F08F
:10092000E60E216EE90E226E1D0E236E420E246E1F
:10093000B3EC08F01DC072F01EC073F01FC074F05D
:1009400020C075F072C012F073C013F074C014F0C0
:1009500075C015F06EC00EF06FC00FF070C010F0D3
:1009600071C011F085EC0FF00EC01DF00FC01EF02D
:1009700010C01FF011C020F0A90E216E5F0E226E74
:10098000630E236E580E246EB3EC08F01DC095F074
:100990001EC096F01FC097F020C098F0046AC00EE9
:1009A000056E790E066E440E076E95C008F096C06F
:1009B00009F097C00AF098C00BF001EC12F07AE24F
:1009C000800E046EE50E056E730E066E490E076E00
:1009D00095C008F096C009F097C00AF098C00BF0D7
:1009E00001EC12F04CE21F0E046E2E0E056E6E0E20
:1009F000066E4E0E076E95C008F096C009F097C0BF
:100A00000AF098C00BF001EC12F01DE295C00EF058
:100A100096C00FF097C010F098C011F0280E126E1B
:100A20006B0E136E6E0E146E4E0E156E85EC0FF07F
:100A30000EC095F00FC096F010C097F011C098F05E
:100A40000001866B3AD095C00EF096C00FF097C0AB
:100A500010F098C011F0000E126E240E136E740E7A
:100A6000146E490E156E85EC0FF00EC095F00FC098
:100A700096F010C097F011C098F0010E1CD095C0F0
:100A80000EF096C00FF097C010F098C011F0000E55
:100A9000126E136E7A0E146E440E156E85EC0FF006
:100AA0000EC095F00FC096F010C097F011C098F0EE
:100AB000020E01D0030E0001866F95C01DF096C096
:100AC0001EF097C01FF098C020F0000E216E226E1D
:100AD000C80E236E420E246EB3EC08F01DC095F0D4
:100AE0001EC096F01FC097F020C098F095C064F02B
:100AF00096C065F097C066F098C067F082EC10F081
:100B000064C093F065C094F093C036F094C037F0A1
:100B10004EEC11F000018651B7EC13F01200000EFC
:100B2000086AF3EC12F0950E43EC13F075EC0DF03F
:100B300036C02EF137C02FF12EC13BF02FC13CF053
:100B4000CCEC13F03BC0C7F03CC0C8F03DC0C9F0CE
:100B50003EC0CAF0D50E27EC14F02EC136F02FC1DE
:100B600037F0386A396A0FEC13F0B80E27EC14F03E
:100B7000DFC09DF0E0C09EF0E1C09FF0E2C0A0F0B9
:100B800060EC0AF0200EF4EC13F0DFC036F0E0C0A9
:100B900037F0E1C038F0E2C039F00FEC13F0BE0ED0
:100BA00027EC14F0C3C09DF0C4C09EF0C5C09FF0F8
:100BB000C6C0A0F060EC0AF0200EF4EC13F0C3C045
:100BC00036F0C4C037F0C5C038F0C6C039F00FECFD
:100BD00013F0C40E27EC14F0C7C09DF0C8C09EF0FF
:100BE000C9C09FF0CAC0A0F060EC0AF0200EF4EC7F
:100BF00013F0C7C036F0C8C037F0C9C038F0CAC05B
:100C000039F00FEC13F0A90E27EC14F0E3C09DF0BF
:100C1000E4C09EF0E5C09FF0E6C0A0F060EC0AF0F2
:100C2000200EF4EC13F0E3C036F0E4C037F0E5C07A
:100C300038F0E6C039F00FEC13F0E30E27EC14F0B7
:100C4000DFC004F0E0C005F0E1C006F0E2C007F04C
:100C5000C7C008F0C8C009F0C9C00AF0CAC00BF08C
:100C600001EC12F008E2DFC0C7F0E0C0C8F0E1C05C
:100C7000C9F0E2C0CAF0C7C021F0C8C022F0C9C0A4
:100C800023F0CAC024F0C7C01DF0C8C01EF0C9C000
:100C90001FF0CAC020F0B3EC08F01DC048F01EC021
:100CA00049F01FC04AF020C04BF0DFC021F0E0C087
:100CB00022F0E1C023F0E2C024F0DFC01DF0E0C06C
:100CC0001EF0E1C01FF0E2C020F0B3EC08F01DC040
:100CD00044F01EC045F01FC046F020C047F095EC20
:100CE00012F044C021F145C022F146C023F147C0B3
:100CF00024F1C3C021F0C4C022F0C5C023F0C6C097
:100D000024F021C11DF022C11EF023C11FF024C117
:100D100020F0B3EC08F01DC025F11EC026F11FC065
:100D200027F120C028F1C3C021F0C4C022F0C5C003
:100D300023F0C6C024F025C11DF026C11EF027C136
:100D40001FF028C120F0B3EC08F01DC029F11EC02F
:100D50002AF11FC02BF120C02CF129C11DF02AC19E
:100D60001EF02BC11FF02CC120F0E3C021F0E4C025
:100D700022F0E5C023F0E6C024F0B3EC08F01DC07B
:100D800030F11EC031F11FC032F120C033F1D00E5E
:100D900027EC14F030C19DF031C19EF032C19FF0BC
:100DA00033C1A0F060EC0AF0200EF4EC13F030C177
:100DB00036F031C137F032C138F033C139F00FECC1
:100DC00013F0E30E27EC14F0046AC00E056E790EE2
:100DD000066E440E076E30C108F031C109F032C111
:100DE0000AF033C10BF001EC12F079E2800E046ED0
:100DF000E50E056E730E066E490E076E30C108F0E3
:100E000031C109F032C10AF033C10BF001EC12F02C
:100E10004BE21F0E046E2E0E056E6E0E066E4E0E0B
:100E2000076E30C108F031C109F032C10AF033C198
:100E30000BF001EC12F01CE230C10EF031C10FF0EA
:100E400032C110F033C111F0280E126E6B0E136E0A
:100E50006E0E146E4E0E156E85EC0FF00EC030F156
:100E60000FC031F110C032F111C033F1040E38D08F
:100E700030C10EF031C10FF032C110F033C111F0AA
:100E8000000E126E240E136E740E146E490E156E43
:100E900085EC0FF00EC030F10FC031F110C032F10F
:100EA00011C033F1050E1CD030C10EF031C10FF06E
:100EB00032C110F033C111F0000E126E136E7A0EB3
:100EC000146E440E156E85EC0FF00EC030F10FC09D
:100ED00031F110C032F111C033F1060E01D0070E0E
:100EE00001012D6F30C11DF031C11EF032C11FF064
:100EF00033C120F0000E216E226EC80E236E420E0A
:100F0000246EB3EC08F01DC030F11EC031F11FC0DB
:100F100032F120C033F130C164F031C165F032C12B
:100F200066F033C167F082EC10F064C02EF165C04A
:100F30002FF12EC136F02FC137F04EEC11F0010128
:100F40002D51B7EC13F0120000017D517E117F117D
:100F5000801108E1000E7D6F7E6F800E7F6F3F0E67
:100F6000806F3F0C180E046E720E056E310E066E09
:100F7000440E076E7DC008F07EC009F07FC00AF005
:100F800080C00BF001EC12F007E200017D697E6980
:100F90007F0E7F6F806F7F0C7DC004F07EC005F0F8
:100FA0007FC006F080C007F0870E086E480E096EFD
:100FB0003A0E0A6EC40E0B6E01EC12F006E200014E
:100FC0007D6B7E6B7F6B806B12000001010E80AF2A
:100FD000000E876F875112E07DC004F07EC005F0DF
:100FE0007FC006F080C007F017EC14F004C07DF05D
:100FF00005C07EF006C07FF007C080F07DC01DF008
:101000007EC01EF07FC01FF080C020F03B0E216E1E
:10101000AA0E226EB80E236E3F0E246EB3EC08F0BB
:101020001DC07DF01EC07EF01FC07FF020C080F08C
:101030007DC073F07EC074F07FC075F080C076F024
:10104000F7EC0CF073C081F074C082F075C083F0CF
:1010500076C084F081C064F082C065F083C066F021
:1010600084C067F082EC10F064C085F065C086F043
:101070007DC044F07EC045F07FC046F080C047F0A0
:1010800085C00EF086C00FF0D6EC12F00EC048F00E
:101090000FC049F010C04AF011C04BF095EC12F0AF
:1010A00044C07DF045C07EF046C07FF047C080F070
:1010B0007DC044F07EC045F07FC046F080C047F060
:1010C000010E486E4A6A090E496E2BEC0FF044C0BF
:1010D00050F045C051F046C052F047C053F085C0B3
:1010E00054F086C055F031EC10F050C07DF051C086
:1010F0007EF052C07FF053C080F0000187512AE09B
:101100007D290EE17E290CE17F0E7F1909E17F0E1A
:101110008019D8A405D07D6B7E6B7F6B806B12002D
:10112000000E0E6E0F6E800E106E3F0E116E7DC0A3
:1011300012F07EC013F07FC014F080C015F085EC73
:101140000FF00EC07DF00FC07EF010C07FF011C018
:1011500080F012007DC07DF07EC07EF07FC07FF009
:1011600080C080F012001F342034326E325005E10E
:101170001D6A1E6A1F6A206A120023342434336EEB
:10118000335005E11D6A1E6A1F6A206A120033503F
:101190007B0F322620C033F02450331A800E3316D2
:1011A0001F8E238E246A206A1D502102F4CFF3FF84
:1011B000F46AF3CF34F0F4CF35F0366A376A1D5055
:1011C0002202F3CF25F0F4CF26F0276A1E50210229
:1011D000F3502524286EF4502620296E000E272077
:1011E0002A6E28502B6E29502C6E2A502D6E2E6A96
:1011F0002B5034262C5035222D5036222E5037229B
:101200003550346E3650356E3750366E376A1D5055
:101210002302F3CF25F0F4CF26F0276A1E502202D6
:10122000F3502524286EF4502620296E000E272026
:101230002A6E1F502102F35028242B6EF4502920CF
:101240002C6E000E2A202D6E2B502E6E2C502F6EE1
:101250002D50306E316A2E5034262F5035223050AA
:101260003622315037221F502202F3CF25F0F4CF1F
:1012700026F0276A340E286E296A2828D96E000EB7
:101280002920DA6E2550DE262650DE222750DE2267
:101290001E502302F3CF25F0F4CF26F0276A340E38
:1012A000286E296A2828D96E000E2920DA6E25506A
:1012B000DE262650DE222750DE221F502302F3CFE7
:1012C00025F0F4CF26F0276A340E286E296A020E24
:1012D0002824D96E000E2920DA6E2550DE262650ED
:1012E000DE222750DE2237AE06D0D8903732363293
:1012F00035323432322AD8903732363235323432BF
:1013000034C004F035C005F036C006F037C007F031
:1013100032C008F033C009F0C8EC0EF004C01DF074
:1013200005C01EF006C01FF007C020F01200986B29
:10133000885189118A118B1114E1046A056A066AC1
:10134000076A8CC008F08DC009F08EC00AF08FC00B
:101350000BF001EC12F00001886B896B8A6B8B6BD0
:1013600012008C518D118E118F1108E1000E886FC3
:10137000896F800E8A6F3F0E8B6F3F0C8BAF43D00F
:101380008CC064F08DC065F08EC066F08FC067F0D1
:1013900082EC10F064C099F065C09AF066C09BF0D2
:1013A00067C09CF099C00EF09AC00FF09BC010F07F
:1013B0009CC011F073EC13F000018C510E1809E180
:1013C0008D510F1806E18E51101803E18F5111183D
:1013D00005E0886B896B8A6B8B6B12009951010B4E
:1013E000986F88C004F089C005F08AC006F08BC0F1
:1013F00007F017EC14F004C088F005C089F006C0AF
:101400008AF007C08BF088C050F089C051F08AC0C4
:1014100052F08BC053F0DAEC0BF050C090F051C09A
:1014200091F052C092F053C093F090C01DF091C063
:101430001EF092C01FF093C020F08CC021F08DC030
:1014400022F08EC023F08FC024F0B3EC08F01DC052
:1014500094F01EC095F01FC096F020C097F094C085
:101460007DF095C07EF096C07FF097C080F0A4EC30
:1014700007F07DC088F07EC089F07FC08AF080C010
:101480008BF00001985113E088C004F089C005F08A
:101490008AC006F08BC007F017EC14F004C088F087
:1014A00005C089F006C08AF007C08BF0120088C022
:1014B00088F089C089F08AC08AF08BC08BF0120056
:1014C0009DC056F09EC057F09FC058F0A0C059F084
:1014D00086EC11F056C064F057C065F058C066F055
:1014E00059C067F082EC10F064C0AFF065C0B0F096
:1014F0009BD0AFC00EF0B0C00FF0D6EC12F00EC013
:10150000A1F00FC0A2F010C0A3F011C0A4F0000120
:10151000886B896B200E8A6F410E8B6FA1C08CF097
:10152000A2C08DF0A3C08EF0A4C08FF097EC09F09C
:1015300088C0A9F089C0AAF08AC0ABF08BC0ACF01B
:10154000A9C012F0AAC013F0ABC014F0ACC015F0E3
:101550009DC00EF09EC00FF09FC010F0A0C011F013
:1015600085EC0FF00EC073F00FC074F010C075F072
:1015700011C076F0F7EC0CF073C0A5F074C0A6F0C3
:1015800075C0A7F076C0A8F0A5C064F0A6C065F04D
:10159000A7C066F0A8C067F082EC10F064C0ADF0A0
:1015A00065C0AEF09DC044F09EC045F09FC046F0BF
:1015B000A0C047F0A9C021F0AAC022F0ABC023F020
:1015C000ACC024F0ADC00EF0AEC00FF0D6EC12F0FF
:1015D0000EC01DF00FC01EF010C01FF011C020F093
:1015E000B3EC08F01DC048F01EC049F01FC04AF01F
:1015F00020C04BF095EC12F044C09DF045C09EF029
:1016000046C09FF047C0A0F00001AD51300FB3ECD1
:1016100011F00001AF51B01103E12E0EB3EC11F047
:101620000001AF07D8A0B007046A056A066A340E45
:10163000076E9DC008F09EC009F09FC00AF0A0C0D0
:101640000BF001EC12F0D8B0120053D73A343B340F
:10165000436E3E343F34426E435009E04250435C97
:101660000FE24350425C406E200E406409D03CC003
:1016700038F03DC039F03EC03AF03FC03BF01200B8
:10168000425009E04350425C0FE24250435C406EDE
:10169000200E406409D038C038F039C039F03AC063
:1016A0003AF03BC03BF01200060E416E3BBE418E4D
:1016B0003FBE418C3A8E3B6A3E8E3F6A4250435C4D
:1016C0001AE2D8903C363D363E363F36420643500D
:1016D00042180DE0410641C040F0070E401607E0F9
:1016E000F0D7D8903B323A3239323832432A42501E
:1016F00043181DE0F6D74350425C19E2D8903836C3
:1017000039363A363B364306435042180DE041061F
:1017100041C040F0070E401607E0F0D7D8903F32A6
:101720003E323D323C32422A42504318F7E141AE4C
:1017300009D0381E391E3A1E3B1E382A000E3922A7
:101740003A223B2241AC09D03C1E3D1E3E1E3F1EAC
:101750003C2A000E3D223E223F22416A38503C2660
:1017600039503D223A503E223B503F223FAE0BD0F3
:101770003C1E3D1E3E1E3F1E3C2A000E3D223E22C8
:101780003F22010E416E3CC004F03DC005F03EC05A
:1017900006F03FC007F043C008F041C009F0C8ECB4
:1017A0000EF004C038F005C039F006C03AF007C0AA
:1017B0003BF0120053AE05D0506A516A526A536A28
:1017C0001200505051105210531005E1506A516AE6
:1017D000526A536A1200216A226A236A400E246EFA
:1017E000540E086E50C004F051C005F052C006F00F
:1017F00053C007F012EC11F004C01DF005C01EF03C
:1018000006C01FF007C020F0B3EC08F01DC038F090
:101810001EC039F01FC03AF020C03BF0000E3C6EF5
:101820003D6E800E3E6EBF0E3F6E26EC0BF038C054
:1018300050F039C051F03AC052F03BC053F054065A
:10184000D8A0550650C044F051C045F052C046F0F3
:1018500053C047F0290E486E4A6A080E496E2BECB9
:101860000FF044C050F045C051F046C052F047C0A0
:1018700053F0180E216E720E226E310E236E3F0E43
:10188000246E54C00EF055C00FF0D6EC12F00EC00E
:101890001DF00FC01EF010C01FF011C020F0B3ECFF
:1018A00008F01DC038F01EC039F01FC03AF020C04B
:1018B0003BF050C03CF051C03DF052C03EF053C030
:1018C0003FF026EC0BF038C050F039C051F03AC070
:1018D00052F03BC053F012000001CF6BD06BD16BC4
:1018E000D26BCFC0CBF0D0C0CCF0D1C0CDF0D2C045
:1018F000CEF0CBC0E9F0CCC0EAF0E9C0E7F0EAC036
:10190000E8F0EF69E36BE46B7A0EE56F440EE66F87
:10191000CF0E926E680ED1EC10F0F19EBB0E946E5D
:1019200094948B948B84800E5CEC13F0010EA1ECEC
:1019300013F0010E086E020E5BEC0EF09488949A80
:101940008B9A320E89EC14F08B8A320E89EC14F0EB
:101950008B9A320E89EC14F08B8A320E89EC14F0DB
:101960008B9AE1EC13F0C00EF212000E086AF3EC51
:1019700012F09F0E2AEC13F0E3C09DF0E4C09EF03D
:10198000E5C09FF0E6C0A0F060EC0AF0C80E89EC5C
:1019900014F0E9EC0DF063EC14F0010E82A8000ED7
:1019A0000001B26FEF51B2190DE0EF515D0ED8A4F6
:1019B0004D0EB16FB15127EC14F0E30E27EC14F08B
:1019C000B2C0EFF00001EF5103E08FEC05F002D060
:1019D000FEEC02F0010E47EC14F01E0E89EC14F040
:1019E000000E47EC14F0140E89EC14F0D6D773C037
:1019F00004F074C005F075C006F076C007F07B0EE9
:101A0000086E12EC11F000017CAF0FD076AF08D059
:101A1000000E736F746F800E756FBF0E766FBF0C04
:101A2000736B746B756B766B12007C5103E11D0E4A
:101A30007B5D09E373C073F074C074F075C075F01A
:101A400076C076F0120073C064F074C065F075C0A3
:101A500066F076C067F082EC10F064C06EF065C08E
:101A60006FF066C070F067C071F071EC12F06EC07C
:101A700077F06FC078F070C079F071C07AF073C001
:101A800004F074C005F075C006F076C007F077C0AA
:101A900008F078C009F079C00AF07AC00BF001ECC8
:101AA00012F01AE277C038F078C039F079C03AF015
:101AB0007AC03BF0000E3C6E3D6E800E3E6EBF0E57
:101AC0003F6E26EC0BF038C073F039C074F03AC0AA
:101AD00075F03BC076F0120077C073F078C074F0F8
:101AE00079C075F07AC076F01200F2949298680E80
:101AF000386EE40EE82EFED7382EFCD700D0D66A1A
:101B0000D76A340E386EF20EE82EFED7382EFCD788
:101B1000340E386EF20EE82EFED7382EFCD7340E77
:101B2000386EF20EE82EFED7382EFCD7340E386E03
:101B3000F20EE82EFED7382EFCD7340E386EF20E99
:101B4000E82EFED7382EFCD7340E386EF20EE82E73
:101B5000FED7382EFCD7340E386EF20EE82EFED7A4
:101B6000382EFCD7340E386EF20EE82EFED7382E03
:101B7000FCD7340E386EF20EE82EFED7382EFCD786
:101B8000340E386EF20EE82EFED7382EFCD792882F
:101B900027EC12F004C039F005C03AF0010E086ECF
:101BA000000EF3EC12F080EC14F0CA0E37EC14F0D7
:101BB00039C00BF03AC00CF00A0E0D6E050E0E6E19
:101BC000DDEC0FF08AEC13F039C036F03AC037F094
:101BD000120063EC14F0000E086AF3EC12F0890EA8
:101BE00043EC13F0010E086E000EF3EC12F0E30E5E
:101BF00027EC14F06D0E43EC13F08B9A75EC0DF09E
:101C000036C03BF037C03CF0CCEC13F03BC0DFF00B
:101C10003CC0E0F03DC0E1F03EC0E2F0320E89ECA5
:101C200014F075EC0DF036C03BF037C03CF0CCEC56
:101C300013F03BC0DFF03CC0E0F03DC0E1F03EC03F
:101C4000E2F08B8A75EC0DF036C03BF037C03CF00B
:101C5000CCEC13F03BC0C3F03CC0C4F03DC0C5F0B9
:101C60003EC0C6F0320E89EC14F075EC0DF036C0B3
:101C70003BF037C03CF0CCEC13F03BC0C3F03CC0B1
:101C8000C4F03DC0C5F03EC0C6F08B9A086A0B0E8A
:101C9000F3EC12F03F6A010E056E3D0E55EC14F0A8
:101CA0001C0E89EC14F03F2A050E3F64F4D7E30EB6
:101CB00027EC14F012000A6E010E0A6401D05A8655
:101CC0000AC0DAF0085003E00A04D8B45A844E0E71
:101CD000096EEB0EE82EFED7092EFCD700F08A9491
:101CE0008A965AB81BD0030E06EC14F01A0E096E31
:101CF000F80EE82EFED7092EFCD700D0030E06EC16
:101D000014F0C80EE82EFED7030E06EC14F0C80E31
:101D1000E82EFED7020E06EC14F01CD05A50200913
:101D200079EC14F01A0E096EF80EE82EFED7092E83
:101D3000FCD700D05A50200979EC14F01A0E096E25
:101D4000F80EE82EFED7092EFCD700D05A502009F5
:101D500079EC14F05A50200979EC14F0040E0001CB
:101D6000D96FD951080979EC14F0010E79EC14F00F
:101D70000B0E096E620EE82EFED7092EFCD700D09E
:101D8000020E0001DB6FDB51040979EC14F0120044
:101D9000085005E004500510061007100BE1046A16
:101DA000056A066A076A1200082AD89007320632C6
:101DB000053204320A6A0B6A0C6AFE0E07140D6EB5
:101DC0000A500B100C100D100CE0EED7082A042A54
:101DD000000E052206220722D8900732063205326D
:101DE00004320A6A0B6A0C6A07500D6E0A500B1017
:101DF0000C100D1007E0EAD70806D8900436053617
:101E00000636073606BE03D0020E0860F5D708B0C6
:101E100002D07F0E0616D890083208C00AF00B6A6E
:101E20000C6A0D6A0AC00DF00C6A0B6A0A6A0A5045
:101E300004120B5005120C5006120D5007120950D7
:101E4000D8A4078E04C004F005C005F006C006F053
:101E500007C007F012004950040D4850F3244B6EA0
:101E60004BC0F6FF0900F5CF4CF00900F5CF4DF05F
:101E70000900F5CF4EF00A00F5CF4FF03AD04CC034
:101E800021F04DC022F04EC023F04FC024F044C0DA
:101E90001DF045C01EF046C01FF047C020F0B3EC57
:101EA00008F01DC038F01EC039F01FC03AF020C045
:101EB0003BF04906D8A04A064950040D4850F32487
:101EC0004B6E4BC0F6FF0900F5CF3CF00900F5CF93
:101ED0003DF00900F5CF3EF00A00F5CF3FF026ECCB
:101EE0000BF038C04CF039C04DF03AC04EF03BC05A
:101EF0004FF049504A10C3E14CC044F04DC045F08A
:101F00004EC046F04FC047F01200103411341B6E23
:101F10001B5005E10E6A0F6A106A116A1200143430
:101F200015341C6E1C5005E10E6A0F6A106A116AA6
:101F300012001C50890F1B5E11C01CF015501C1A9A
:101F4000800E1C16108E116A148E156A200E1A6EE1
:101F5000D890163617361836193612500E5C1350B4
:101F60000F58145010581550115809E312500E5EB6
:101F700013500F5A1450105A1550115A1680D890F9
:101F80000E360F36103611361A2EE2D716C004F070
:101F900017C005F018C006F019C007F01BC008F004
:101FA0001CC009F0C8EC0EF004C00EF005C00FF024
:101FB00006C010F007C011F01200356A200E336E13
:101FC0000EAE03D00E6C300E336E0BC004F00CC09E
:101FD00005F00DC006F0076AB7EC12F00450346E3D
:101FE000090E346402D0370E01D0300E3424316E25
:101FF000326A000E32223550110FD96EDA6A31C0C2
:10200000DFFF352A0BC004F00CC005F00DC006F050
:10201000076A4CEC12F004C00BF005C00CF00B503A
:102020000C1004E0D2D73350B3EC11F00E060E289A
:102030000F6E3550800A106E0F50800A105CF3E36B
:102040003550800A7F0FD8A0120035C00FF00F0660
:102050000F50110FD96EDA6ADF50B3EC11F035066C
:10206000EFD7505051105210531005E1506A516A89
:10207000526A536A120053507F0B566E576AD890BB
:10208000563657365650542657505522010E52AEEA
:10209000000E5426000E552255AE05D0506A516AE6
:1020A000526A536A120055BE10D055040EE353AE67
:1020B00006D0506851687F0E526E5368FF0C50680E
:1020C00051687F0E526E536E7F0C55345530576EEB
:1020D0005430566E5318800B5618536E54C056F039
:1020E000010E561656325632525056187F0B56185D
:1020F000526E50C050F051C051F052C052F053C017
:1021000053F012000001663567356D6F6D5105E1C2
:10211000646B656B666B676B120064C068F065C0CA
:1021200069F066C06AF067C06BF0200E05D0D890E9
:102130006B336A3369336833E82EF9D768516C6FB3
:10214000668F676B960E6D5F6DAF0CD06D51800A18
:10215000970FDEE3D89067336633653364336D3FA2
:10216000F9D70CD01F0E6D6507D0D2D7D890643741
:102170006537663767376D076D51F8E16C5108E0D8
:10218000671F661F651F646D000E65236623672346
:1021900064C064F065C065F066C066F067C067F053
:1021A00012000F6E0F500F0B0E6ED66AD76A0FBA61
:1021B00003D0046A056A03D0056A200E046E045039
:1021C000D5120FB803D0066A076A03D0076A100E4B
:1021D000066E0650D5120FBC03D0086A096A03D0F8
:1021E000096A400E086E0850D5120E5003E10A68C5
:1021F0000B6803D00B68F70E0A6E0A50D516F80E5E
:10220000D5160E5003E00E04070BD512F29C0FBE3C
:1022100003D00C6A0D6A03D00D6A200E0C6E0C50B0
:10222000F212120004500510061007100BE10850BE
:10223000D96EDA6A000EDE6ADD6A046A056A066A29
:10224000076A120007507F0B096E0A6AD890093698
:102250000A360850D96EDA6A09C0DEFF0AC0DDFF0F
:102260000850D96EDA6A010E06AE000EDE12000EBC
:10227000DD120850D96EDA6A820EDE26FF0EDD22EC
:102280000750800B3F09076E069E04C004F005C08E
:1022900005F006C006F007C007F01200086A090E34
:1022A000F3EC12F0B20E2AEC13F0086A090EF3EC0C
:1022B00012F036C004F037C005F0076A640E066EEF
:1022C0004CEC12F004C038F005C039F038C00BF007
:1022D00039C00CF00A0E0D6E0E6ADDEC0FF036C040
:1022E00004F037C005F0076A640E066EB7EC12F012
:1022F00004C03AF005C03BF03AC00BF03BC00CF014
:102300000A0E0D6E0E6ADDEC0FF0120056C050F092
:1023100057C051F058C052F059C053F0DAEC0BF0EE
:1023200050C060F051C061F052C062F053C063F021
:1023300060C01DF061C01EF062C01FF063C020F0DD
:10234000D90E216E5B0E226EDE0E236E3E0E246EC3
:10235000B3EC08F01DC056F01EC057F01FC058F077
:1023600020C059F01200066E100E046E056A0101BD
:1023700020390F0B045E000E055A05BE000C0550F7
:1023800003E10404D8A0120020390F0B046E056A83
:10239000100E0424D96E010E0520DA6E06C0DFFF90
:1023A00020390F0B046E042A043A205104180F0B35
:1023B0000418206F120001EE00F0210EEE6AE8060C
:1023C000FDE100EEB3F0300EEE6AE806FDE15C6A76
:1023D0005B6A5A6A0C0EF66E290EF76E000EF86EE6
:1023E00000EEEBF010EE05F00900F5CFEEFFE55042
:1023F000E150FAE1000EF86E050EF76E00016CEF89
:102400000CF007AE09D0046C051ED8B0052A061ED4
:10241000D8B0062A800E07560BAE09D0086C091EEC
:10242000D8B0092A0A1ED8B00A2A800E0B56800E90
:10243000071A0B1A0850045C095005580A50065830
:102440000B50075802E2D8901200D8801200D6CF65
:1024500008F0096A0A6AD58AD58800F000F0D59894
:1024600000F000F0094A0A2A0850D618D71002E1F5
:102470000A04F2E30850076E066A0950065E0A5025
:10248000075A000E0624096E010E07200A6E09C0C5
:1024900004F00AC005F01200096A0A6A0650071023
:1024A0001BE0010E086E04D0D89006360736082AC5
:1024B00007AEFAD7D89009360A360650045C0750A2
:1024C000055805E30650045E0750055A0980D89068
:1024D00007320632082EEED709C004F00AC005F014
:1024E0001200726B71AF0AD0711F701F6F1F6E6D7B
:1024F000000E6F2370237123010E726F6EC004F003
:102500006FC005F070C006F071C007F0960E086E3F
:1025100072C009F0C8EC0EF004C06EF005C06FF098
:1025200006C070F007C071F01200485049104A1000
:102530004B1002E0800E4B1A44C038F045C039F011
:1025400046C03AF047C03BF048C03CF049C03DF0BF
:102550004AC03EF04BC03FF026EC0BF038C044F0D0
:1025600039C045F03AC046F03BC047F01200065073
:10257000071017E0010E086E04D0D8900636073613
:10258000082A07AEFAD70650045C0750055804E342
:102590000650045E0750055AD89007320632082EBE
:1025A000F2D704C004F005C005F01200126A0FAEA5
:1025B00005D00E6C0F1ED8B00F2A122A0EC004F0E0
:1025C0000FC005F0066A076A960E086E12C009F081
:1025D000C8EC0EF004C00EF005C00FF006C010F0FD
:1025E00007C011F01200096EEBC00AF0ECC00BF04E
:1025F000EDC00CF0EEC00DF00001DA0506E1140E9E
:102600000B6E280E0C6E3C0E0D6E08500A0FD96E24
:10261000DA6ADF500924800979EC14F01200300ED8
:10262000B3EC11F0780EB3EC11F038C00BF039C0F8
:102630000CF0100E0D6EFC0E0E6EDDEC0FF036C0C1
:102640000BF037C00CF0100E0D6EFC0E0E6EDDECB4
:102650000FF01200096E086A0CD0010E056E0950C9
:102660000824076E07C0F6FF0800F55055EC14F07B
:10267000082A09500824076E07C0F6FF0800F55025
:10268000D8B41200EAD70B6E096A0A6A0BD00B5055
:102690000924086E08C0F6FF0800F5506FEC14F02E
:1026A000094A0A2A0B500924086E08C0F6FF0800E0
:1026B000F550D8B41200EBD7076E07500F0B056E1C
:1026C000800ECA16CA500550030BCA12CC6ACA84BF
:1026D0009E9207AE03D0046A042A01D0046AD890FF
:1026E00004349D6E12000EC004F00FC005F010C03F
:1026F00006F011C007F0960E086E000E096EC8ECC9
:102700000EF004C00EF005C00FF006C010F007C0B8
:1027100011F01200076A0AD0100E0724D96EDA6A87
:10272000010EDA22DF50F4EC13F0072A0101203900
:102730000F0B066E0650075CEFE3E30E27EC14F078
:102740001200046E0001D96B045004E1066A100EF9
:10275000056E02D0056A066A05C05AF0DA6BDB6BBB
:1027600093948A9493968A960F0E8A161200086A9A
:102770000E0EF3EC12F0086A010120390F0B0E6EF9
:1027800020510F0B0F6E0E500F5C100FF3EC12F078
:10279000E30E27EC14F012003BC004F03CC005F03F
:1027A000066A076A960E086E000E096EC8EC0EF0F7
:1027B00004C03BF005C03CF006C03DF007C03EF051
:1027C0001200949C948EAC84190EAF6EAC9CAB9CA2
:1027D000AC98AB8EAB889D98AC8AF28C5C6A5B6AD5
:1027E0000001DD6BDC6B1200046E5B280F0B5C18C4
:1027F000FCE0F29E5B50B30FD96EDA6A04C0DFFFD3
:102800005B280F0B5B6E9D88F28E1200046E0F0E1C
:102810008A160438F00B8A128A86050EE82EFED737
:1028200000F08A96850EE82EFED700F012000450C4
:1028300005100610071002E0800E071A04C004F00D
:1028400005C005F006C006F007C007F01200056ECF
:1028500007D005C0F6FF0800F550F4EC13F0052A88
:1028600005C0F6FF0800F550D8B41200F2D7076E85
:1028700007D007C0F6FF0800F550B3EC11F0072AA7
:1028800007C0F6FF0800F550D8B41200F2D70E6E5C
:10289000010E086E000EF3EC12F00E5003E0DF0E96
:1028A0002AEF13F0B40E2AEF13F0066E055002E083
:1028B0008A8401D08A9406380F0B06EC14F0065077
:1028C00006EC14F01200010E79EC14F00B0E086EF9
:1028D000620EE82EFED7082EFCD700D01200076E3D
:1028E000010E056E075055EC14F00750F4EC13F090
:1028F0001200076E000E056E075055EC14F0120022
:10290000F00E010120170F0E201712000040145482
:10291000FF001200FF00FF00FF00FF00FF00FF00AC
:020000040020DA
:08000000FFFFFFFFFFFFFFFF00
:020000040030CA
:0E000000000C1E1EFF8280FF034003600340C1
:00000001FF
