:102000000AEF10F0FF00FF00D9CF02F0DACF03F0A3
:1020100021ED1CF060EF1FF0000000803F187231CE
:102020003FF0FD753E4758633D58951D3C82C4AE58
:102030003AA8782139EF938037A092A735465615F4
:102040003400000000C4FF7F3F80EFFFBE90E1A995
:102050003EEC8276BE82AD2B3E0E3CC3BD87D113D3
:102060003D4178D3BB706C6561736520776169749D
:102070002E2E2E00496E647563746976697479201A
:102080000043616C6962726174696E67004C432D34
:102090006D657465722000436170616369747920B5
:1020A000000D0A4343616C3D0020202020202000C9
:1020B0002E2E2E0D0A000D0A46313D000D0A463225
:1020C0003D000D0A46333D00467265713D005243A6
:1020D000343D0043696E3D007661723D002D2A2D2E
:1020E000006D46006E46007046007546006D480063
:1020F0006E48007548000000000E086A9CEC20F055
:10210000740EECEC20F050EC1AF036C093F037C0AF
:1021100094F093C03BF094C03CF05EEC21F03BC0E7
:10212000B5F03CC0B6F03DC0B7F03EC0B8F0DEC080
:1021300004F0DFC005F0E0C006F0E1C007F0B5C074
:1021400008F0B6C009F0B7C00AF0B8C00BF086ECD2
:102150001FF008E2DEC0B5F0DFC0B6F0E0C0B7F0B7
:10216000E1C0B8F0B1C048F0B2C049F0B3C04AF025
:10217000B4C04BF0B1C044F0B2C045F0B3C046F0BB
:10218000B4C047F03EEC20F044C076F045C077F094
:1021900046C078F047C079F076C048F077C049F083
:1021A00078C04AF079C04BF0DEC021F0DFC022F0E9
:1021B000E0C023F0E1C024F0DEC01DF0DFC01EF05F
:1021C000E0C01FF0E1C020F02BEC16F01DC044F081
:1021D0001EC045F01FC046F020C047F03EEC20F086
:1021E00044C087F045C088F046C089F047C08AF0F7
:1021F000B5C021F0B6C022F0B7C023F0B8C024F0BB
:10220000B5C01DF0B6C01EF0B7C01FF0B8C020F0BA
:102210002BEC16F01DC048F01EC049F01FC04AF05C
:1022200020C04BF0DEC021F0DFC022F0E0C023F080
:10223000E1C024F0DEC01DF0DFC01EF0E0C01FF0E2
:10224000E1C020F02BEC16F01DC044F01EC045F09C
:102250001FC046F020C047F03EEC20F044C08BF099
:1022600045C08CF046C08DF047C08EF087C021F08D
:1022700088C022F089C023F08AC024F08BC01DF0F2
:102280008CC01EF08DC01FF08EC020F02BEC16F01D
:102290001DC08FF01EC090F01FC091F020C092F0C2
:1022A0008FC01DF090C01EF091C01FF092C020F0B2
:1022B000000E216E400E226E1C0E236E460E246E02
:1022C0002BEC16F01DC06EF01EC06FF01FC070F03A
:1022D00020C071F0DEC021F0DFC022F0E0C023F0AA
:1022E000E1C024F0DEC01DF0DFC01EF0E0C01FF032
:1022F000E1C020F02BEC16F01DC07AF01EC07BF080
:102300001FC07CF020C07DF0B1C021F0B2C022F02F
:10231000B3C023F0B4C024F07AC01DF07BC01EF01F
:102320007CC01FF07DC020F02BEC16F01DC087F0A4
:102330001EC088F01FC089F020C08AF0B1C021F013
:10234000B2C022F0B3C023F0B4C024F087C01DF0A7
:1023500088C01EF089C01FF08AC020F02BEC16F058
:102360001DC08BF01EC08CF01FC08DF020C08EF001
:10237000B5C021F0B6C022F0B7C023F0B8C024F039
:102380008BC01DF08CC01EF08DC01FF08EC020F0E1
:102390002BEC16F01DC08FF01EC090F01FC091F006
:1023A00020C092F0B5C021F0B6C022F0B7C023F033
:1023B000B8C024F08FC01DF090C01EF091C01FF077
:1023C00092C020F02BEC16F01DC07EF01EC07FF0F6
:1023D0001FC080F020C081F0E2C021F0E3C022F0F5
:1023E000E4C023F0E5C024F07EC01DF07FC01EF0E5
:1023F00080C01FF081C020F02BEC16F01DC082F0D1
:102400001EC083F01FC084F020C085F082C01DF084
:1024100083C01EF084C01FF085C020F0E60E216E40
:10242000E90E226E1D0E236E420E246E2BEC16F06A
:102430001DC072F01EC073F01FC074F020C075F094
:1024400072C012F073C013F074C014F075C015F0B0
:102450006EC00EF06FC00FF070C010F071C011F0C0
:102460009AEC1DF00EC01DF00FC01EF010C01FF042
:1024700011C020F0A90E216E5F0E226E630E236E36
:10248000580E246E2BEC16F01DC095F01EC096F071
:102490001FC097F020C098F0046AC00E056E790E38
:1024A000066E440E076E95C008F096C009F097C0FE
:1024B0000AF098C00BF086EC1FF07AE2800E046EF2
:1024C000E50E056E730E066E490E076E95C008F098
:1024D00096C009F097C00AF098C00BF086EC1FF088
:1024E0004CE21F0E046E2E0E056E6E0E066E4E0E24
:1024F000076E95C008F096C009F097C00AF098C022
:102500000BF086EC1FF01DE295C00EF096C00FF0A8
:1025100097C010F098C011F0280E126E6B0E136E5B
:102520006E0E146E4E0E156E9AEC1DF00EC095F0E8
:102530000FC096F010C097F011C098F00001866BA4
:102540003AD095C00EF096C00FF097C010F098C02A
:1025500011F0000E126E240E136E740E146E490EDE
:10256000156E9AEC1DF00EC095F00FC096F010C0DD
:1025700097F011C098F0010E1CD095C00EF096C0D7
:102580000FF097C010F098C011F0000E126E136E8D
:102590007A0E146E440E156E9AEC1DF00EC095F076
:1025A0000FC096F010C097F011C098F0020E01D045
:1025B000030E0001866F95C01DF096C01EF097C0F7
:1025C0001FF098C020F0000E216E226EC80E236E00
:1025D000420E246E2BEC16F01DC095F01EC096F036
:1025E0001FC097F020C098F095C064F096C065F0C9
:1025F00097C066F098C067F0EDEC1DF064C093F0F2
:1026000065C094F093C036F094C037F0C4EC1EF06F
:102610000001865149EC21F01200000E086A9CEC82
:1026200020F0970EECEC20F050EC1AF036C02DF1B3
:1026300037C02EF12DC13BF02EC13CF05EEC21F0F5
:102640003BC0B5F03CC0B6F03DC0B7F03EC0B8F0FE
:10265000D80ECBEC21F02DC136F02EC137F0386A00
:10266000396AB8EC20F0B60ECBEC21F0DEC09DF05C
:10267000DFC09EF0E0C09FF0E1C0A0F00AEC17F0D0
:10268000200E73EC21F0DEC036F0DFC037F0E0C082
:1026900038F0E1C039F0B8EC20F0BC0ECBEC21F002
:1026A000B1C09DF0B2C09EF0B3C09FF0B4C0A0F026
:1026B0000AEC17F0200E73EC21F0B1C036F0B2C076
:1026C00037F0B3C038F0B4C039F0B8EC20F0C20E27
:1026D000CBEC21F0B5C09DF0B6C09EF0B7C09FF026
:1026E000B8C0A0F00AEC17F0200E73EC21F0B5C0D2
:1026F00036F0B6C037F0B7C038F0B8C039F0B8EC33
:1027000020F0A10ECBEC21F0E2C09DF0E3C09EF0E2
:10271000E4C09FF0E5C0A0F00AEC17F0200E73ECC7
:1027200021F0E2C036F0E3C037F0E4C038F0E5C095
:1027300039F0B8EC20F0B30ECBEC21F0DEC004F0A1
:10274000DFC005F0E0C006F0E1C007F0B5C008F05A
:10275000B6C009F0B7C00AF0B8C00BF086EC1FF0A5
:1027600008E2DEC0B5F0DFC0B6F0E0C0B7F0E1C00F
:10277000B8F0B5C021F0B6C022F0B7C023F0B8C0A1
:1027800024F0B5C01DF0B6C01EF0B7C01FF0B8C031
:1027900020F02BEC16F01DC048F01EC049F01FC001
:1027A0004AF020C04BF0DEC021F0DFC022F0E0C0D4
:1027B00023F0E1C024F0DEC01DF0DFC01EF0E0C059
:1027C0001FF0E1C020F02BEC16F01DC044F01EC03D
:1027D00045F01FC046F020C047F03EEC20F044C05A
:1027E00020F145C021F146C022F147C023F1B1C01C
:1027F00021F0B2C022F0B3C023F0B4C024F020C155
:102800001DF021C11EF022C11FF023C120F02BECCE
:1028100016F01DC024F11EC025F11FC026F120C0F6
:1028200027F1B1C021F0B2C022F0B3C023F0B4C090
:1028300024F024C11DF025C11EF026C11FF027C1C0
:1028400020F02BEC16F01DC028F11EC029F11FC08E
:102850002AF120C02BF128C11DF029C11EF02AC188
:102860001FF02BC120F0E2C021F0E3C022F0E4C051
:1028700023F0E5C024F02BEC16F01DC02FF11EC094
:1028800030F11FC031F120C032F1D30ECBEC21F07A
:102890002FC19DF030C19EF031C19FF032C1A0F038
:1028A0000AEC17F0200E73EC21F02FC136F030C186
:1028B00037F031C138F032C139F0B8EC20F0B30E46
:1028C000CBEC21F0046AC00E056E790E066E440E44
:1028D000076E2FC108F030C109F031C10AF032C1D2
:1028E0000BF086EC1FF079E2800E046EE50E056EAB
:1028F000730E066E490E076E2FC108F030C109F045
:1029000031C10AF032C10BF086EC1FF04BE21F0E12
:10291000046E2E0E056E6E0E066E4E0E076E2FC1E5
:1029200008F030C109F031C10AF032C10BF086EC79
:102930001FF01CE22FC10EF030C10FF031C110F0BA
:1029400032C111F0280E126E6B0E136E6E0E146EE5
:102950004E0E156E9AEC1DF00EC02FF10FC030F127
:1029600010C031F111C032F1040E38D02FC10EF079
:1029700030C10FF031C110F032C111F0000E126EF3
:10298000240E136E740E146E490E156E9AEC1DF023
:102990000EC02FF10FC030F110C031F111C032F173
:1029A000050E1CD02FC10EF030C10FF031C110F058
:1029B00032C111F0000E126E136E7A0E146E440EB8
:1029C000156E9AEC1DF00EC02FF10FC030F110C043
:1029D00031F111C032F1060E01D0070E01012C6F4A
:1029E0002FC11DF030C11EF031C11FF032C120F0E7
:1029F000000E216E226EC80E236E420E246E2BEC4A
:102A000016F01DC02FF11EC030F11FC031F120C0E3
:102A100032F12FC164F030C165F031C166F032C1CE
:102A200067F0EDEC1DF064C02DF165C02EF12DC1F5
:102A300036F02EC137F0C4EC1EF001012C5149ECE8
:102A400021F0120000017D517E117F11801106E1FD
:102A50007D6B7E6B800E7F6F3F0E18D0180E046E5C
:102A6000720E056E310E066E440E076E7DC008F0C4
:102A70007EC009F07FC00AF080C00BF086EC1FF02A
:102A800007E200017D697E697F0E7F6F806FE2D073
:102A90007DC004F07EC005F07FC006F080C007F066
:102AA000870E086E480E096E3A0E0A6EC40E0B6E43
:102AB00086EC1FF002E20001A6D00001010E80AFFB
:102AC000000E876F875112E07DC004F07EC005F0D4
:102AD0007FC006F080C007F0ABEC21F004C07DF0B1
:102AE00005C07EF006C07FF007C080F07DC01DF0FD
:102AF0007EC01EF07FC01FF080C020F03B0E216E14
:102B0000AA0E226EB80E236E3F0E246E2BEC16F02A
:102B10001DC07DF01EC07EF01FC07FF020C080F081
:102B20007DC073F07EC074F07FC075F080C076F019
:102B3000D3EC19F073C081F074C082F075C083F0DB
:102B400076C084F081C064F082C065F083C066F016
:102B500084C067F0EDEC1DF064C085F065C086F0C0
:102B60007DC044F07EC045F07FC046F080C047F095
:102B700085C00EF086C00FF07FEC20F00EC048F04C
:102B80000FC049F010C04AF011C04BF03EEC20F0ED
:102B900044C07DF045C07EF046C07FF047C080F065
:102BA0007DC044F07EC045F07FC046F080C047F055
:102BB000190E486E4A6A090E496EECEC1CF044C0CE
:102BC00050F045C051F046C052F047C053F085C0A8
:102BD00054F086C055F03CEC1EF050C07DF051C062
:102BE0007EF052C07FF053C080F0000187512AE090
:102BF0007D290EE17E290CE17F0E7F1909E17F0E10
:102C00008019D8A405D07D6B7E6B7F6B806B22D042
:102C1000000E0E6E0F6E800E106E3F0E116E7DC098
:102C200012F07EC013F07FC014F080C015F09AEC53
:102C30001DF00EC07DF00FC07EF010C07FF011C0FF
:102C400080F008D07DC07DF07EC07EF07FC07FF038
:102C500080C080F012001F342034326E325005E004
:102C600023342434336E335005E11D6A1E6A1F6A13
:102C7000206ACFD033507B0F322620C033F024504F
:102C8000331A800E33161F8E238E246A206A1D503D
:102C90002102F4CFF3FFF46AF3CF34F0F4CF35F030
:102CA000366A376A1D502202F3CF25F0F4CF26F0A2
:102CB000276A1E502102F3502524286EF450262046
:102CC000296E000E27202A6E28502B6E29502C6E5C
:102CD0002A502D6E2E6A2B5034262C5035222D5022
:102CE00036222E5037223550346E3650356E3750DE
:102CF000366E376A1D502302F3CF25F0F4CF26F04D
:102D0000276A1E502202F3502524286EF4502620F4
:102D1000296E000E27202A6E1F502102F35028240E
:102D20002B6EF45029202C6E000E2A202D6E2B5075
:102D30002E6E2C502F6E2D50306E316A2E50342650
:102D40002F50352230503622315037221F50220268
:102D5000F3CF25F0F4CF26F0276A340E286E296AC7
:102D60002828D96E000E2920DA6E2550DE2626503E
:102D7000DE222750DE221E502302F3CF25F0F4CFAF
:102D800026F0276A340E286E296A2828D96E000E8C
:102D90002920DA6E2550DE262650DE222750DE223C
:102DA0001F502302F3CF25F0F4CF26F0276A340E0C
:102DB000286E296A020E2824D96E000E2920DA6EA8
:102DC0002550DE262650DE222750DE2237AE06D0E2
:102DD000D8903732363235323432322AD8903732C0
:102DE00036323532343234C004F035C005F036C0E6
:102DF00006F037C007F032C008F033C009F089ECA4
:102E00001CF004C01DF005C01EF006C01FF007C076
:102E100020F012009DC056F09EC057F09FC058F0A1
:102E2000A0C059F033EC1FF056C064F057C065F0F5
:102E300058C066F059C067F0EDEC1DF064C0AFF00B
:102E400065C0B0F099D0AFC00EF0B0C00FF07FEC0D
:102E500020F00EC0A1F00FC0A2F010C0A3F011C06E
:102E6000A4F00001886B896B200E8A6F410E8B6F76
:102E7000A1C08CF0A2C08DF0A3C08EF0A4C08FF0D2
:102E8000CEEC17F088C0A9F089C0AAF08AC0ABF0D8
:102E90008BC0ACF0A9C012F0AAC013F0ABC014F004
:102EA000ACC015F09DC00EF09EC00FF09FC010F09A
:102EB000A0C011F09AEC1DF00EC073F00FC074F0BA
:102EC00010C075F011C076F0D3EC19F073C0A5F006
:102ED00074C0A6F075C0A7F076C0A8F0A5C064F0D5
:102EE000A6C065F0A7C066F0A8C067F0EDEC1DF0C5
:102EF00064C0ADF065C0AEF09DC044F09EC045F02A
:102F00009FC046F0A0C047F0A9C021F0AAC022F09F
:102F1000ABC023F0ACC024F0ADC00EF0AEC00FF0DB
:102F20007FEC20F00EC01DF00FC01EF010C01FF08F
:102F300011C020F02BEC16F01DC048F01EC049F067
:102F40001FC04AF020C04BF03EEC20F044C09DF082
:102F500045C09EF046C09FF047C0A0F00001AD51B3
:102F6000300F1AEC20F0AF51B01103E12E0E1AEC25
:102F700020F0AF07D8A0B007046A056A066A340ECD
:102F8000076E9DC008F09EC009F09FC00AF0A0C067
:102F90000BF086EC1FF0D8B0120055D7986B885113
:102FA00089118A118B1110E1046A056A066A076AA1
:102FB0008CC008F08DC009F08EC00AF08FC00BF0F5
:102FC00086EC1FF0000137D08C518D118E118F11BE
:102FD00007E1886B896B800E8A6F3F0E8B6FA1D0E3
:102FE0008BAF43D08CC064F08DC065F08EC066F0AE
:102FF0008FC067F0EDEC1DF064C099F065C09AF0E9
:1030000066C09BF067C09CF099C00EF09AC00FF0AC
:103010009BC010F09CC011F01CEC21F000018C5101
:103020000E1809E18D510F1806E18E51101803E1B9
:103030008F51111805E0886B896B8A6B8B6B71D08F
:103040009951010B986F88C004F089C005F08AC0BF
:1030500006F08BC007F0ABEC21F004C088F005C08F
:1030600089F006C08AF007C08BF088C050F089C094
:1030700051F08AC052F08BC053F046EC19F050C0AA
:1030800090F051C091F052C092F053C093F090C0B4
:103090001DF091C01EF092C01FF093C020F08CC0B4
:1030A00021F08DC022F08EC023F08FC024F02BECD5
:1030B00016F01DC094F01EC095F01FC096F020C001
:1030C00097F094C07DF095C07EF096C07FF097C0D9
:1030D00080F022EC15F07DC088F07EC089F07FC0C2
:1030E0008AF080C08BF00001985113E088C004F092
:1030F00089C005F08AC006F08BC007F0ABEC21F068
:1031000004C088F005C089F006C08AF007C08BF0C3
:1031100008D088C088F089C089F08AC08AF08BC046
:103120008BF012003A343B34436E3E343F34426EEF
:10313000435009E04250435C0FE24350425C406E12
:10314000200E406409D03CC038F03DC039F03EC08C
:103150003AF03FC03BF099D0425009E04350425C06
:103160000FE24250435C406E200E406409D038C0EC
:1031700038F039C039F03AC03AF03BC03BF085D066
:10318000060E416E3BBE418E3FBE418C3A8E3B6A7D
:103190003E8E3F6A4250435C1AE2D8903C363D3640
:1031A0003E363F364206435042180DE0410641C0CC
:1031B00040F0070E401607E0F0D7D8903B323A3285
:1031C00039323832432A425043181DE0F6D7435073
:1031D000425C19E2D890383639363A363B364306E7
:1031E000435042180DE0410641C040F0070E401622
:1031F00007E0F0D7D8903F323E323D323C32422A8F
:1032000042504318F7E141AE09D0381E391E3A1E2C
:103210003B1E382A000E39223A223B2241AC09D00B
:103220003C1E3D1E3E1E3F1E3C2A000E3D223E22FD
:103230003F22416A38503C2639503D223A503E22C6
:103240003B503F223FAE0BD03C1E3D1E3E1E3F1E5C
:103250003C2A000E3D223E223F22010E416E3CC020
:1032600004F03DC005F03EC006F03FC007F043C08B
:1032700008F041C009F089EC1CF004C038F005C02A
:1032800039F006C03AF007C03BF0120053BE05D03B
:10329000505051105210531005E1506A516A526A51
:1032A000536A80D0216A226A236A400E246E540E2B
:1032B000086E50C004F051C005F052C006F053C073
:1032C00007F088EC1EF004C01DF005C01EF006C01B
:1032D0001FF007C020F02BEC16F01DC038F01EC008
:1032E00039F01FC03AF020C03BF0000E3C6E3D6E3E
:1032F000800E3E6EBF0E3F6E92EC18F038C050F05C
:1033000039C051F03AC052F03BC053F05406D8A037
:10331000550650C044F051C045F052C046F053C06D
:1033200047F0410E486E4A6A080E496EECEC1CF0FC
:1033300044C050F045C051F046C052F047C053F071
:10334000180E216E720E226E310E236E3F0E246E09
:1033500054C00EF055C00FF07FEC20F00EC01DF0F1
:103360000FC01EF010C01FF011C020F02BEC16F0A3
:103370001DC038F01EC039F01FC03AF020C03BF02D
:1033800050C03CF051C03DF052C03EF053C03FF041
:1033900092EC18F038C050F039C051F03AC052F0F9
:1033A0003BC053F0120073C004F074C005F075C048
:1033B00006F076C007F07B0E086E88EC1EF0000168
:1033C0007CAF0ED076AF07D0736B746B800E756FC9
:1033D000BF0E766F64D0736B746B756B766B5FD05A
:1033E0007C5103E11D0E7B5D09E373C073F074C073
:1033F00074F075C075F076C076F051D073C064F08B
:1034000074C065F075C066F076C067F0EDEC1DF035
:1034100064C06EF065C06FF066C070F067C071F098
:10342000F6EC1FF06EC077F06FC078F070C079F0E6
:1034300071C07AF073C004F074C005F075C006F076
:1034400076C007F077C008F078C009F079C00AF0BC
:103450007AC00BF086EC1FF01AE277C038F078C023
:1034600039F079C03AF07AC03BF0000E3C6E3D6E08
:10347000800E3E6EBF0E3F6E92EC18F038C073F0B7
:1034800039C074F03AC075F03BC076F008D077C010
:1034900073F078C074F079C075F07AC076F01200DD
:1034A000F2949298820E386EDE0EE82EFED7382EF9
:1034B000FCD7D66AD76A8B928B82410E386EEE0E9D
:1034C000E82EFED7382EFCD700D0410E386EEE0E17
:1034D000E82EFED7382EFCD700D0410E386EEE0E07
:1034E000E82EFED7382EFCD700D0410E386EEE0EF7
:1034F000E82EFED7382EFCD700D0410E386EEE0EE7
:10350000E82EFED7382EFCD700D0410E386EEE0ED6
:10351000E82EFED7382EFCD700D0410E386EEE0EC6
:10352000E82EFED7382EFCD700D0410E386EEE0EB6
:10353000E82EFED7382EFCD700D0410E386EEE0EA6
:10354000E82EFED7382EFCD700D0410E386EEE0E96
:10355000E82EFED7382EFCD700D08B928B50928865
:10356000ACEC1FF004C039F005C03AF0010E086E53
:10357000000E9CEC20F0C80EECEC20F039C00BF0F3
:103580003AC00CF00A0E0D6E050E0E6E46EC1DF0E4
:1035900039C036F03AC037F012000001BD6BBE6B87
:1035A000BF6BC06BBDC0B9F0BEC0BAF0BFC0BBF04E
:1035B000C0C0BCF0B9C0E8F0BAC0E9F0E8C0E6F0BD
:1035C000E9C0E7F0E26BE36B7A0EE46F440EE56F5F
:1035D000CF0E926E440EFCEC1EF0F19E94928B92F4
:1035E0008B82800E05EC21F0B50E9416010E33ECA3
:1035F00021F0010E086E020EB6EC1BF09480949A36
:103600008B94320E07EC22F08B84320E07EC22F002
:103610008B94320E07EC22F08B84320E07EC22F0F2
:103620008B9487EC21F0C00EF212000E086A9CEC1D
:1036300020F08D0ED3EC20F0E2C09DF0E3C09EF0B0
:10364000E4C09FF0E5C0A0F00AEC17F0C80E07EC4C
:1036500022F044EC1BF0E9EC21F0B00ECBEC21F0B1
:1036600082A003D00DEC13F002D07CEC10F0010E20
:10367000BBEC21F01E0E07EC22F0000EBBEC21F09B
:10368000140E07EC22F0E9D7E9EC21F0000E086AED
:103690009CEC20F0810EECEC20F0010E086E000E88
:1036A0009CEC20F0B30ECBEC21F0650EECEC20F09E
:1036B0008B9450EC1AF036C03BF037C03CF05EEC17
:1036C00021F03BC0DEF03CC0DFF03DC0E0F03EC08A
:1036D000E1F0320E07EC22F050EC1AF036C03BF06D
:1036E00037C03CF05EEC21F03BC0DEF03CC0DFF0C8
:1036F0003DC0E0F03EC0E1F08B8450EC1AF036C0E3
:103700003BF037C03CF05EEC21F03BC0B1F03CC078
:10371000B2F03DC0B3F03EC0B4F0320E07EC22F080
:1037200050EC1AF036C03BF037C03CF05EEC21F0B4
:103730003BC0B1F03CC0B2F03DC0B3F03EC0B4F00D
:103740008B94086A0B0E9CEC20F03F6A010E056E0C
:103750003D0EDBEC21F01C0E07EC22F03F2A050E9B
:103760003F64F4D7B30ECBEC21F012000A6E010EC9
:103770000A6401D05A860AC0C8F0085003E00A045F
:10378000D8B45A84620E096E660EE82EFED7092E52
:10379000FCD78A948A965AB81BD0030E9AEC21F073
:1037A000210E096E760EE82EFED7092EFCD700D02A
:1037B000030E9AEC21F0FA0EE82EFED7030E9AECD7
:1037C00021F0FA0EE82EFED7020E9AEC21F01CD062
:1037D0005A502009FEEC21F0210E096E760EE82EDB
:1037E000FED7092EFCD700D05A502009FEEC21F05C
:1037F000210E096E760EE82EFED7092EFCD700D0DA
:103800005A502009FEEC21F05A502009FEEC21F01C
:10381000040E0001C76FC7510809FEEC21F0010E2C
:10382000FEEC21F00D0E096EFC0EE82EFED7092EDF
:10383000FCD7020E0001C96FC9510409FEEC21F04A
:10384000120006009EA23AD00001E72B880EE65D2A
:10385000130EE75932E3880EE65F130EE75BE84B81
:10386000E92BB92B000EBA23BB23BC238B92C65184
:1038700003E1C90EC55D03E3016A012A01D0016AB3
:10388000D89001348B12900E0001C55D010EC6590F
:1038900004E3900EC55F010EC65BC54BC62BE80E58
:1038A000E85D030EE95909E3BD2B000EBE23BF23DB
:1038B000C023E80EE85F030EE95B9E929EAA11D03A
:1038C000000E0001CA25D96EDA6A010EDA22AECFE7
:1038D000DFFFCA290F0BCC6FCB51CC19D8A4CCC0B9
:1038E000CAF09EB89DA810D0100E5C24D96EDA6A7A
:1038F000010EDA22DF50AD6E5C2A0F0E5C165B50B3
:103900005C18D8B49D989E9803C0DAFF02C0D9FF16
:103910001100085005E004500510061007100BE1D7
:10392000046A056A066A076A56D0082AD8900732E0
:103930000632053204320A6A0B6A0C6AFE0E07145C
:103940000D6E0A500B100C100D100CE0EED7082A6B
:10395000042A000E052206220722D89007320632DA
:10396000053204320A6A0B6A0C6A07500D6E0A505F
:103970000B100C100D1007E0EAD70806D89004369B
:1039800005360636073606BE03D0020E0860F5D7A8
:1039900008B002D07F0E0616D890083208C00AF090
:1039A0000B6A0C6A0D6A0AC00DF00C6A0B6A0A6A8F
:1039B0000A5004120B5005120C5006120D5007123B
:1039C0000950D8A4078E04C004F005C005F006C055
:1039D00006F007C007F012004950040D4850F324C8
:1039E0004B6E4BC0F6FF0900F5CF4CF00900F5CF48
:1039F0004DF00900F5CF4EF00A00F5CF4FF03AD068
:103A00004CC021F04DC022F04EC023F04FC024F036
:103A100044C01DF045C01EF046C01FF047C020F056
:103A20002BEC16F01DC038F01EC039F01FC03AF064
:103A300020C03BF04906D8A04A064950040D485022
:103A4000F3244B6E4BC0F6FF0900F5CF3CF00900A4
:103A5000F5CF3DF00900F5CF3EF00A00F5CF3FF07D
:103A600092EC18F038C04CF039C04DF03AC04EF02E
:103A70003BC04FF049504A10C3E14CC044F04DC028
:103A800045F04EC046F04FC047F01200356A200E98
:103A9000336E0EAE03D00E6C300E336E0BC004F0DE
:103AA0000CC005F00DC006F0076A60EC20F0045071
:103AB000346E090E346402D0370E01D0300E342437
:103AC000316E326A000E32223550110FD96EDA6A29
:103AD00031C0DFFF352A0BC004F00CC005F00DC06B
:103AE00006F0076AD1EC1FF004C00BF005C00CF023
:103AF0000B500C1004E0D2D733501AEC20F00E0615
:103B00000E280F6E3550800A106E0F50800A105C20
:103B1000F3E33550800A7F0F0CE335C00FF00F063A
:103B20000F50110FD96EDA6ADF501AEC20F035060B
:103B3000F0D71200103411341B6E1B5005E0143402
:103B400015341C6E1C5005E10E6A0F6A106A116A6A
:103B500043D01C50890F1B5E11C01CF015501C1A5D
:103B6000800E1C16108E116A148E156A200E1A6EA5
:103B7000D890163617361836193612500E5C135078
:103B80000F58145010581550115809E312500E5E7A
:103B900013500F5A1450105A1550115A1680D890BD
:103BA0000E360F36103611361A2EE2D716C004F034
:103BB00017C005F018C006F019C007F01BC008F0C8
:103BC0001CC009F089EC1CF004C00EF005C00FF019
:103BD00006C010F007C011F012000001663567350D
:103BE0006D6F6D5105E1646B656B666B676B43D000
:103BF00064C068F065C069F066C06AF067C06BF0C9
:103C0000200E05D0D8906B336A3369336833E82EC1
:103C1000F9D768516C6F668F676B960E6D5F6DAFED
:103C20000CD06D51800A970FDEE3D890673366336E
:103C3000653364336D3FF9D70CD01F0E6D6507D027
:103C4000D2D7D89064376537663767376D076D51BF
:103C5000F8E16C5108E0671F661F651F646D000E78
:103C600065236623672364C064F065C065F066C0A1
:103C700066F067C067F01200505051105210531098
:103C800013E053507F0B566E576AD890563657360E
:103C90005650542657505522010E52AE000E54264F
:103CA000000E552255AE05D0506A516A526A536AC9
:103CB0002ED055BE10D055040EE353AE06D050683A
:103CC00051687F0E526EFF0E04D0506851687F0E0F
:103CD000526E536E1CD055345530576E5430566E5C
:103CE0005318800B5618536E54C056F0010E5616DA
:103CF00056325632525056187F0B5618526E50C0DC
:103D000050F051C051F052C052F053C053F0120065
:103D100004500510061007100BE10850D96EDA6A3E
:103D2000000EDE6ADD6A046A056A066A076A2BD03D
:103D300007507F0B096E0A6AD89009360A36085078
:103D4000D96EDA6A09C0DEFF0AC0DDFF0850D96EFD
:103D5000DA6A010E06AE000EDE12000EDD12085009
:103D6000D96EDA6A820EDE26FF0EDD220750800B46
:103D70003F09076E069E04C004F005C005F006C0AA
:103D800006F007C007F01200086A090E9CEC20F04C
:103D9000AA0ED3EC20F0086A090E9CEC20F036C085
:103DA00004F037C005F0076A640E066ED1EC1FF010
:103DB00004C038F005C039F038C00BF039C00CF041
:103DC0000A0E0D6E0E6A46EC1DF036C004F037C0C8
:103DD00005F0076A640E066E60EC20F004C03AF04D
:103DE00005C03BF03AC00BF03BC00CF00A0E0D6E64
:103DF0000E6A46EC1DF012000D6E0D500F0B0C6E8E
:103E0000D66AD76A0DBC03D0046A056A03D0056A76
:103E1000200E046E0450D5120DB803D0066A076A4E
:103E200003D0076A100E066E0650D5120C5003E13F
:103E30000868096803D00968F70E086E0850D5169F
:103E4000F80ED5160C5003E00C04070BD512F29CAB
:103E50000DBE03D00A6A0B6A03D00B6A200E0A6EED
:103E60000A50F212120056C050F057C051F058C01C
:103E700052F059C053F046EC19F050C060F051C0F8
:103E800061F052C062F053C063F060C01DF061C0C9
:103E90001EF062C01FF063C020F0D90E216E5B0ED1
:103EA000226EDE0E236E3E0E246E2BEC16F01DC02D
:103EB00056F01EC057F01FC058F020C059F0120035
:103EC00001EE00F0200EEE6AE806FDE100EEB1F032
:103ED000310EEE6AE806FDE15C6A5B6A5A6A0A0E18
:103EE000F66E440EF76E000EF86E00EEEAF010EE7D
:103EF00004F00900F5CFEEFFE550E150FAE1000EC5
:103F0000F86E200EF76E0001CDEF1AF007AE09D063
:103F1000046C051ED8B0052A061ED8B0062A800EED
:103F200007560BAE09D0086C091ED8B0092A0A1E24
:103F3000D8B00A2A800E0B56800E071A0B1A0850AA
:103F4000045C095005580A5006580B50075802E205
:103F5000D89001D0D8801200D6CF08F0096A0A6A3A
:103F6000D58AD58800F000F0D59800F000F0094A15
:103F70000A2A0850D618D71002E10A04F2E30850C2
:103F8000076E066A0950065E0A50075A000E06249C
:103F9000096E010E07200A6E09C004F00AC005F080
:103FA0001200096A0A6A065007101BE0010E086E2B
:103FB00004D0D89006360736082A07AEFAD7D8902C
:103FC00009360A360650045C0750055805E30650CA
:103FD000045E0750055A0980D89007320632082E31
:103FE000EED709C004F00AC005F01200726B71AF81
:103FF0000AD0711F701F6F1F6E6D000E6F2370232C
:104000007123010E726F6EC004F06FC005F070C0B6
:1040100006F071C007F0960E086E72C009F089ECC8
:104020001CF004C06EF005C06FF006C070F007C051
:1040300071F01200066E100E046E056A0001DD3983
:104040000F0B045E000E055A05BE17D0055002E1A5
:10405000040413E3DD390F0B046E0450CD0FD96E49
:10406000DA6A06C0DFFFDD390F0B046E042A043A5A
:10407000DD5104180F0B0418DD6F12004850491071
:104080004A104B1002E0800E4B1A44C038F045C075
:1040900039F046C03AF047C03BF048C03CF049C058
:1040A0003DF04AC03EF04BC03FF092EC18F038C0F3
:1040B00044F039C045F03AC046F03BC047F012002A
:1040C0000650071017E0010E086E04D0D89006368F
:1040D0000736082A07AEFAD70650045C0750055881
:1040E00004E30650045E0750055AD89007320632A2
:1040F000082EF2D704C004F005C005F01200126AC1
:104100000FAE05D00E6C0F1ED8B00F2A122A0EC0AB
:1041100004F00FC005F0066A076A960E086E12C01A
:1041200009F089EC1CF004C00EF005C00FF006C0C9
:1041300010F007C011F01200096EEAC00AF0EBC0DF
:104140000BF0ECC00CF0EDC00DF00001C80506E16D
:10415000140E0B6E280E0C6E3C0E0D6E08500A0FDE
:10416000D96EDA6ADF5009248009FEEC21F01200D2
:10417000300E1AEC20F0780E1AEC20F038C00BF05C
:1041800039C00CF0100E0D6EFC0E0E6E46EC1DF0DC
:1041900036C00BF037C00CF0100E0D6EFC0E0E6E1C
:1041A00046EC1DF01200096E086A0CD0010E056E77
:1041B00009500824076E07C0F6FF0800F550DBEC35
:1041C00021F0082A09500824076E07C0F6FF0800EE
:1041D000F550D8B41200EAD70B6E096A0A6A0BD000
:1041E0000B500924086E08C0F6FF0800F550F4ECE7
:1041F00021F0094A0A2A0B500924086E08C0F6FF6C
:104200000800F550D8B41200EBD7076E07500F0B1B
:10421000056E800ECA16CA500550030BCA12CC6A2E
:10422000CA849E9207AE03D0046A042A01D0046AAD
:10423000D89004349D6E12000EC004F00FC005F03B
:1042400010C006F011C007F0960E086E000E096E41
:1042500089EC1CF004C00EF005C00FF006C010F091
:1042600007C011F01200046E0001C76B045004E196
:10427000066A100E056E02D0056A066A05C05AF07D
:10428000C86BC96B93948A9493968A960F0E8A167C
:104290001200086A0E0E9CEC20F0086A0001DD395D
:1042A0000F0B0E6EDD510F0B0F6E0E500F5C100FCB
:1042B0009CEC20F0B30ECBEC21F012003BC004F0DC
:1042C0003CC005F0066A076A960E086E000E096E7D
:1042D00089EC1CF004C03BF005C03CF006C03DF08A
:1042E00007C03EF01200046E5B280F0B5C18FCE068
:1042F000F29E100E5B24D96EDA6A010EDA2204C037
:10430000DFFF5B280F0B5B6E9D88F28E1200948C92
:104310008B8EAC841F0EAF6EAC9CAB9CAC98AB8EFE
:10432000AB889D98AC8AF28C5C6A5B6A0001CB6BAF
:10433000CA6B1200046E0F0E8A160438F00B8A1234
:104340008A86060EE82EFED700D08A96A60EE82EA4
:10435000FED700D01200045005100610071002E02E
:10436000800E071A04C004F005C005F006C006F070
:1043700007C007F012000E6E010E086E000E9CECD6
:1043800020F00E5004E0DD0ED3EC20F003D0AC0E94
:10439000D3EC20F01200056E07D005C0F6FF080030
:1043A000F55073EC21F0052A05C0F6FF0800F55022
:1043B000D8B41200F2D7066E055002E08A8401D00C
:1043C0008A9406380F0B9AEC21F006509AEC21F0F3
:1043D0001200010EFEEC21F00D0E086EFC0EE82E10
:1043E000FED7082EFCD71200076E010E056E07508F
:1043F000DBEC21F0075073EC21F01200076E000E89
:10440000056E0750DBEC21F012000040145412003E
:020000040020DA
:08000000FFFFFFFFFFFFFFFF00
:020000040030CA
:0E000000004C3E1EFF8101FF0FC00F800F401D
:00000001FF
