:040000000AEF00F013
:10000800D9CF02F0DACF03F09BED0FF06DEF12F0CD
:10080000000000803F1872313FF0FD753E4758638D
:100810003D58951D3C82C4AE3AA8782139EF9380AB
:1008200037A092A7354656153400000000C4FF7F5C
:100830003F80EFFFBE90E1A93EEC8276BE82AD2BF9
:100840003E0E3CC3BD87D1133D4178D3BB2D204321
:100850002028556E69743A204629202D002D204C01
:100860002028556E69743A204829202D00706C6547
:1008700061736520776169742E2E2E00496E647550
:1008800063746976697479200043616C696272618E
:1008900074696E67004C432D6D657465722000436A
:1008A0006170616369747920000D0A4343616C3D96
:1008B00000202020202020000D0A46313D000D0A96
:1008C00046323D000D0A46333D00467265713D00DB
:1008D0005243343D0043696E3D007661723D002D08
:1008E0002A2D006D46006E46007046007546006D6C
:1008F00048006E48007548000D0A0000000E086AA6
:10090000A9EC13F07C0E37EC14F08CEC0DF036C033
:1009100087F037C088F087C03BF088C03CF04CECD3
:1009200014F03BC0BEF03CC0BFF03DC0C0F03EC0C4
:10093000C1F070EC08F093EC12F008E2E7C0BEF0F2
:10094000E8C0BFF0E9C0C0F0EAC0C1F0BAC03CF0F6
:10095000BBC03DF0BCC03EF0BDC03FF0BAC038F0F7
:10096000BBC039F0BCC03AF0BDC03BF04BEC13F05B
:1009700038C06AF039C06BF03AC06CF03BC06DF023
:100980006AC03CF06BC03DF06CC03EF06DC03FF003
:10099000CAD93EEC0FF01DC038F01EC039F01FC0A0
:1009A0003AF020C03BF04BEC13F038C07BF039C07C
:1009B0007CF03AC07DF03BC07EF05FEC08F03EEC8E
:1009C0000FF01DC03CF01EC03DF01FC03EF020C027
:1009D0003FF0A9D93EEC0FF01DC038F01EC039F031
:1009E0001FC03AF020C03BF04BEC13F038C07FF052
:1009F00039C080F03AC081F03BC082F07BC021F06A
:100A00007CC022F07DC023F07EC024F07FC01DF0AA
:100A100080C01EF081C01FF082C020F03EEC0FF0BD
:100A20001DC083F01EC084F01FC085F020C086F07A
:100A300083C01DF084C01EF085C01FF086C020F06A
:100A4000000E216E400E226E1C0E236E460E246E8A
:100A50003EEC0FF01DC062F01EC063F01FC064F0DA
:100A600020C065F060D93EEC0FF01DC06EF01EC0D6
:100A70006FF01FC070F020C071F0BAC021F0BBC091
:100A800022F0BCC023F0BDC024F06EC01DF06FC0CA
:100A90001EF070C01FF071C020F03EEC0FF01DC0C2
:100AA0007BF01EC07CF01FC07DF020C07EF0BAC07D
:100AB00021F0BBC022F0BCC023F0BDC024F07BC03D
:100AC0001DF07CC01EF07DC01FF07EC020F03EEC0B
:100AD0000FF01DC07FF01EC080F01FC081F020C04D
:100AE00082F0BEC021F0BFC022F0C0C023F0C1C060
:100AF00024F07FC01DF080C01EF081C01FF082C0B6
:100B000020F03EEC0FF01DC083F01EC084F01FC02B
:100B100085F020C086F0BEC021F0BFC022F0C0C06A
:100B200023F0C1C024F083C01DF084C01EF085C036
:100B30001FF086C020F03EEC0FF01DC072F01EC00A
:100B400073F01FC074F020C075F0EBC021F0ECC052
:100B500022F0EDC023F0EEC024F072C01DF073C08F
:100B60001EF074C01FF075C020F03EEC0FF01DC0E9
:100B700076F01EC077F01FC078F020C079F076C004
:100B80001DF077C01EF078C01FF079C020F0E60E8F
:100B9000216EE90E226E1D0E236E420E246E3EEC77
:100BA0000FF01DC066F01EC067F01FC068F020C0C7
:100BB00069F066C012F067C013F068C014F069C035
:100BC00015F062C00EF063C00FF064C010F065C095
:100BD00011F09EEC10F00EC01DF00FC01EF010C002
:100BE0001FF011C020F0A90E216E5F0E226E630E61
:100BF000236E580E246E3EEC0FF01DC089F01EC00F
:100C00008AF01FC08BF020C08CF0AFEC08F089C0D8
:100C100008F08AC009F08BC00AF08CC00BF093EC8E
:100C200012F052E295EC08F089C008F08AC009F091
:100C30008BC00AF08CC00BF093EC12F033E29EEC08
:100C400008F089C008F08AC009F08BC00AF08CC097
:100C50000BF093EC12F017E289C00EF08AC00FF08F
:100C60008BC010F08CC011F08CEC08F09EEC10F0F2
:100C70000EC089F00FC08AF010C08BF011C08CF04C
:100C800000017A6B24D060D8B7EC08F09EEC10F02D
:100C90000EC089F00FC08AF010C08BF011C08CF02C
:100CA000010E13D051D8136E7A0E146E440E156EC9
:100CB0009EEC10F00EC089F00FC08AF010C08BF0CF
:100CC00011C08CF0020E01D0030E00017A6F89C0B2
:100CD0001DF08AC01EF08BC01FF08CC020F0A7EC66
:100CE00008F03EEC0FF01DC089F01EC08AF01FC056
:100CF0008BF020C08CF089C052F08AC053F08BC0BA
:100D000054F08CC055F0F1EC10F052C087F053C095
:100D100088F087C036F088C037F009EC12F0000187
:100D20007A5161EF14F0E7C021F0E8C022F0E9C089
:100D300023F0EAC024F0E7C01DF0E8C01EF0E9C0CF
:100D40001FF0EAC020F0120089C00EF08AC00FF038
:100D50008BC010F08CC011F0000E126E000C000E53
:100D6000086AA9EC13F09F0E37EC14F08CEC0DF030
:100D700036C0B2F037C0B3F0B2C03BF0B3C03CF005
:100D80004CEC14F03BC0BEF03CC0BFF03DC0C0F026
:100D90003EC0C1F0DA0EE1EC14F0B2C036F0B3C0E0
:100DA00037F0386A396AC4EC13F0B80EE1EC14F08D
:100DB000E7C091F0E8C092F0E9C093F0EAC094F087
:100DC000C6EC09F0200E89EC14F0E7C036F0E8C05C
:100DD00037F0E9C038F0EAC039F0C4EC13F0BE0EC9
:100DE000E1EC14F0BAC091F0BBC092F0BCC093F03B
:100DF000BDC094F0C6EC09F0200E89EC14F0BAC026
:100E000036F0BBC037F0BCC038F0BDC039F0C4EC20
:100E100013F0C40EE1EC14F0BEC091F0BFC092F02C
:100E2000C0C093F0C1C094F0C6EC09F0200E89EC6C
:100E300014F0BEC036F0BFC037F0C0C038F0C1C03B
:100E400039F0C4EC13F0A90EE1EC14F0EBC091F012
:100E5000ECC092F0EDC093F0EEC094F0C6EC09F057
:100E6000200E89EC14F0EBC036F0ECC037F0EDC08A
:100E700038F0EEC039F0C4EC13F0F80EE1EC14F0E9
:100E80002FD993EC12F008E2E7C0BEF0E8C0BFF043
:100E9000E9C0C0F0EAC0C1F012D93EEC0FF01DC0AD
:100EA0003CF01EC03DF01FC03EF020C03FF093EC70
:100EB00006F03EEC0FF01DC038F01EC039F01FC028
:100EC0003AF020C03BF04BEC13F038C0A5F039C02D
:100ED000A6F03AC0A7F03BC0A8F0BAC021F0BBC052
:100EE00022F0BCC023F0BDC024F0A5C01DF0A6C0F8
:100EF0001EF0A7C01FF0A8C020F03EEC0FF01DC0F0
:100F0000A9F01EC0AAF01FC0ABF020C0ACF0BAC060
:100F100021F0BBC022F0BCC023F0BDC024F0A9C0AA
:100F20001DF0AAC01EF0ABC01FF0ACC020F03EEC1C
:100F30000FF01DC0ADF01EC0AEF01FC0AFF020C05E
:100F4000B0F0ADC01DF0AEC01EF0AFC01FF0B0C01D
:100F500020F0EBC021F0ECC022F0EDC023F0EEC099
:100F600024F03EEC0FF01DC0B4F01EC0B5F01FC061
:100F7000B6F020C0B7F0D50EE1EC14F0B4C091F09B
:100F8000B5C092F0B6C093F0B7C094F0C6EC09F0CB
:100F9000200E89EC14F0B4C036F0B5C037F0B6C0FE
:100FA00038F0B7C039F0C4EC13F0F80EE1EC14F0EF
:100FB000D6D8B4C008F0B5C009F0B6C00AF0B7C0C2
:100FC0000BF093EC12F04DE2B0D8B4C008F0B5C00D
:100FD00009F0B6C00AF0B7C00BF093EC12F02FE2A4
:100FE000ADD8B4C008F0B5C009F0B6C00AF0B7C0BB
:100FF0000BF093EC12F015E2B4C00EF0B5C00FF098
:10100000B6C010F0B7C011F087D89EEC10F00EC03B
:10101000B4F00FC0B5F010C0B6F011C0B7F0040EB8
:1010200021D06FD8A4D89EEC10F00EC0B4F00FC041
:10103000B5F010C0B6F011C0B7F0050E13D061D8EE
:10104000136E7A0E146E440E156E9EEC10F00EC0E8
:10105000B4F00FC0B5F010C0B6F011C0B7F0060E76
:1010600001D0070E0001B16FB4C01DF0B5C01EF075
:10107000B6C01FF0B7C020F06AD83EEC0FF01DC01C
:10108000B4F01EC0B5F01FC0B6F020C0B7F0B4C0B9
:1010900052F0B5C053F0B6C054F0B7C055F0F1EC03
:1010A00010F052C0B2F053C0B3F0B2C036F0B3C0CB
:1010B00037F009EC12F00001B15161EF14F0BEC03D
:1010C00021F0BFC022F0C0C023F0C1C024F0BEC0D8
:1010D0001DF0BFC01EF0C0C01FF0C1C020F0120044
:1010E000E7C004F0E8C005F0E9C006F0EAC007F088
:1010F000BEC008F0BFC009F0C0C00AF0C1C00BF00C
:101100001200B4C00EF0B5C00FF0B6C010F0B7C0FA
:1011100011F0000E126E000C280E126E6B0E136E84
:101120006E0E146E4E0E156E4E0C800E046EE50E95
:10113000056E730E066E490E076E490C1F0E046E87
:101140002E0E056E6E0E066E4E0E076E4E0C000EC7
:10115000216E226EC80E236E420E246E420C046A6B
:10116000C00E056E790E066E440E076E440C240EFA
:10117000136E740E146E490E156E490C00017151F8
:1011800072117311741106E1716B726B800E736FC3
:101190003F0E18D0180E046E720E056E310E066EDC
:1011A000440E076E71C008F072C009F073C00AF0F7
:1011B00074C00BF093EC12F007E2000171697269E0
:1011C0007F0E736F746FE1D071C004F072C005F0D0
:1011D00073C006F074C007F0870E086E480E096EE3
:1011E0003A0E0A6EC40E0B6E93EC12F002E200018E
:1011F000A5D00001010E74AF000E7B6F7B5112E091
:1012000071C004F072C005F073C006F074C007F03E
:10121000D1EC14F004C071F005C072F006C073F098
:1012200007C074F071C01DF072C01EF073C01FF0D3
:1012300074C020F03B0E216EAA0E226EB80E236EF3
:101240003F0E246E3EEC0FF01DC071F01EC072F018
:101250001FC073F020C074F071C067F072C068F0F6
:1012600073C069F074C06AF014EC0DF067C075F0DB
:1012700068C076F069C077F06AC078F075C052F047
:1012800076C053F077C054F078C055F0F1EC10F010
:1012900052C079F053C07AF071C038F072C039F0A2
:1012A00073C03AF074C03BF079C00EF07AC00FF012
:1012B0008CEC13F00EC03CF00FC03DF010C03EF0BF
:1012C00011C03FF04BEC13F038C071F039C072F030
:1012D0003AC073F03BC074F071C038F072C039F09E
:1012E00073C03AF074C03BF0010E3C6E3E6A090ECA
:1012F0003D6EF5EC0FF038C044F039C045F03AC00F
:1013000046F03BC047F079C048F07AC049F040EC65
:1013100011F044C071F045C072F046C073F047C090
:1013200074F000017B5129E071290DE172290BE174
:101330007F0E731908E17F0E741905E1716B726BF2
:10134000736B746B22D0000E0E6E0F6E800E106EDB
:101350003F0E116E71C012F072C013F073C014F022
:1013600074C015F09EEC10F00EC071F00FC072F05A
:1013700010C073F011C074F008D071C071F072C069
:1013800072F073C073F074C074F0120091C04AF030
:1013900092C04BF093C04CF094C04DF040EC12F072
:1013A0004AC052F04BC053F04CC054F04DC055F001
:1013B000F1EC10F052C0A3F053C0A4F099D0A3C038
:1013C0000EF0A4C00FF08CEC13F00EC095F00FC01F
:1013D00096F010C097F011C098F000017C6B7D6B07
:1013E000200E7E6F410E7F6F95C080F096C081F019
:1013F00097C082F098C083F08AEC0AF07CC09DF020
:101400007DC09EF07EC09FF07FC0A0F09DC012F016
:101410009EC013F09FC014F0A0C015F091C00EF054
:1014200092C00FF093C010F094C011F09EEC10F039
:101430000EC067F00FC068F010C069F011C06AF00C
:1014400014EC0DF067C099F068C09AF069C09BF089
:101450006AC09CF099C052F09AC053F09BC054F0FF
:101460009CC055F0F1EC10F052C0A1F053C0A2F0B6
:1014700091C038F092C039F093C03AF094C03BF07C
:101480009DC021F09EC022F09FC023F0A0C024F098
:10149000A1C00EF0A2C00FF08CEC13F00EC01DF036
:1014A0000FC01EF010C01FF011C020F03EEC0FF076
:1014B0001DC03CF01EC03DF01FC03EF020C03FF0FC
:1014C0004BEC13F038C091F039C092F03AC093F071
:1014D0003BC094F00001A151300F27EC13F0A35151
:1014E000A41103E12E0E27EC13F0A307D8A0A40744
:1014F000046A056A066A340E076E91C008F092C04D
:1015000009F093C00AF094C00BF093EC12F0D8B03D
:10151000120055D78C6B7C517D117E117F1110E12B
:10152000046A056A066A076A80C008F081C009F08B
:1015300082C00AF083C00BF093EC12F0000137D0A8
:10154000805181118211831107E17C6B7D6B800ECC
:101550007E6F3F0E7F6FA1D07FAF43D080C052F02F
:1015600081C053F082C054F083C055F0F1EC10F00C
:1015700052C08DF053C08EF054C08FF055C090F023
:101580008DC00EF08EC00FF08FC010F090C011F023
:10159000F5EC13F0000180510E1809E181510F188C
:1015A00006E18251101803E18351111805E07C6BAC
:1015B0007D6B7E6B7F6B71D08D51010B8C6F7CC00E
:1015C00004F07DC005F07EC006F07FC007F0D1ECCE
:1015D00014F004C07CF005C07DF006C07EF007C0AA
:1015E0007FF07CC044F07DC045F07EC046F07FC0F7
:1015F00047F0FBEC0BF044C084F045C085F046C0DA
:1016000086F047C087F084C01DF085C01EF086C0FC
:101610001FF087C020F080C021F081C022F082C07E
:1016200023F083C024F03EEC0FF01DC088F01EC0F4
:1016300089F01FC08AF020C08BF088C071F089C08B
:1016400072F08AC073F08BC074F0BEEC08F071C009
:101650007CF072C07DF073C07EF074C07FF000013A
:101660008C5113E07CC004F07DC005F07EC006F014
:101670007FC007F0D1EC14F004C07CF005C07DF011
:1016800006C07EF007C07FF008D07CC07CF07DC033
:101690007DF07EC07EF07FC07FF012002E342F34AC
:1016A000376E32343334366E375009E03650375C9B
:1016B0000FE23750365C346E200E346409D030C0EF
:1016C0002CF031C02DF032C02EF033C02FF088D076
:1016D000365009E03750365C0FE23650375C346ED6
:1016E000200E346409D02CC02CF02DC02DF02EC05B
:1016F0002EF02FC02FF074D0060E356E2FBE358E13
:1017000033BE358C2E8E2F6A328E336A3650375C5C
:101710001AE2D89030363136323633363606375004
:1017200036180DE0350635C034F0070E341607E0E4
:10173000F0D7D8902F322E322D322C32372A365015
:1017400037181DE0F6D73750365C19E2D8902C36A2
:101750002D362E362F363706375036180DE0350623
:1017600035C034F0070E341607E0F0D7D890333286
:10177000323231323032362A36503718F7E135AE50
:1017800009D02C1E2D1E2E1E2F1E2C2A000E2D229F
:101790002E222F2235BC25D8356A2C5030262D50CC
:1017A00031222E5032222F50332233AE03D019D89B
:1017B000010E356E30C004F031C005F032C006F0C5
:1017C00033C007F037C008F035C009F0DDEC0EF08B
:1017D00004C02CF005C02DF006C02EF007C02FF07D
:1017E0001200301E311E321E331E302A000E3122EE
:1017F00032223322000C47BE05D04450451046101B
:10180000471005E1446A456A466A476A7AD0216A08
:10181000226A236A400E246E480E086E44C004F00B
:1018200045C005F046C006F047C007F0CDEC11F00A
:1018300004C01DF005C01EF006C01FF007C020F058
:101840003EEC0FF01DC02CF01EC02DF01FC02EF07E
:1018500020C02FF057D84EEC0BF02CC044F02DC018
:1018600045F02EC046F02FC047F04806D8A04906E4
:1018700044C038F045C039F046C03AF047C03BF0AC
:10188000290E3C6E3E6A080E3D6EF5EC0FF038C036
:1018900044F039C045F03AC046F03BC047F0180E5E
:1018A000216E720E226E310E236E3F0E246E48C0E2
:1018B0000EF049C00FF08CEC13F00EC01DF00FC0FD
:1018C0001EF010C01FF011C020F03EEC0FF01DC044
:1018D0002CF01EC02DF01FC02EF020C02FF044C0F1
:1018E00030F045C031F046C032F047C033F04EEC26
:1018F0000BF02CC044F02DC045F02EC046F02FC098
:1019000047F01200000E306E316E800E326EBF0E48
:10191000336EBF0C0001C66BC76BC86BC96BC6C00A
:10192000C2F0C7C0C3F0C8C0C4F0C9C0C5F0C2C0CF
:10193000F1F0C3C0F2F0F1C0EFF0F2C0F0F0F769DF
:10194000EB6BEC6B7A0EED6F440EEE6FCF0E926E7A
:10195000680E8CEC11F0F19EBB0E946E94948B94F7
:101960008B84800EDEEC13F0010E0CEC14F0010EF3
:10197000086E020E71EC0EF09480949A8B94320EE5
:1019800030EC15F08B84320E30EC15F08B94320E67
:1019900030EC15F08B84320E30EC15F08B949DEC0E
:1019A00014F0C00EF212000E086AA9EC13F0950EA6
:1019B00022EC14F0EBC091F0ECC092F0EDC093F08B
:1019C000EEC094F0C6EC09F0C80E30EC15F000EC57
:1019D0000EF00CEC15F0010E82A0000E0001B96FA4
:1019E000F7190DE0F7515D0ED8A44D0EB86FB85140
:1019F000E1EC14F0F80EE1EC14F0B9C0F7F00001DE
:101A0000F75103E0AFEC06F002D07EEC04F0010EDB
:101A1000C1EC14F01E0E30EC15F0000EC1EC14F009
:101A2000140E30EC15F0D7D767C004F068C005F08D
:101A300069C006F06AC007F06F0E086ECDEC11F0B9
:101A4000000170AF0ED06AAF07D0676B686B800E75
:101A5000696FBF0E6A6F5FD0676B686B696B6A6B8B
:101A60005AD0705103E11D0E6F5D09E367C067F046
:101A700068C068F069C069F06AC06AF04CD067C09D
:101A800052F068C053F069C054F06AC055F0F1ECF0
:101A900010F052C062F053C063F054C064F055C0FF
:101AA00065F003EC13F062C06BF063C06CF064C0CF
:101AB0006DF065C06EF067C004F068C005F069C0E5
:101AC00006F06AC007F06BC008F06CC009F06DC08A
:101AD0000AF06EC00BF093EC12F015E26BC02CF024
:101AE0006CC02DF06DC02EF06EC02FF082EC0CF0AB
:101AF0004EEC0BF02CC067F02DC068F02EC069F0E2
:101B00002FC06AF008D06BC067F06CC068F06DC081
:101B100069F06EC06AF01200F2949298680E386E06
:101B2000E40EE82EFED7382EFCD700D0D66AD76A4E
:101B3000340E386EF20EE82EFED7382EFCD7340E57
:101B4000386EF20EE82EFED7382EFCD7340E386EE3
:101B5000F20EE82EFED7382EFCD7340E386EF20E79
:101B6000E82EFED7382EFCD7340E386EF20EE82E53
:101B7000FED7382EFCD7340E386EF20EE82EFED784
:101B8000382EFCD7340E386EF20EE82EFED7382EE3
:101B9000FCD7340E386EF20EE82EFED7382EFCD766
:101BA000340E386EF20EE82EFED7382EFCD7340EE7
:101BB000386EF20EE82EFED7382EFCD79288B9EC9C
:101BC00012F004C039F005C03AF0010E086E000EA4
:101BD000A9EC13F021EC15F0CA0EF0EC14F039C0AA
:101BE0000BF03AC00CF00A0E0D6E050E0E6E4AECAC
:101BF00010F075EC14F039C036F03AC037F012002E
:101C00000CEC15F0000E086AA9EC13F0890E37EC05
:101C100014F0010E086E000EA9EC13F0F80EE1ECC2
:101C200014F06D0E37EC14F08B948CEC0DF036C084
:101C30003BF037C03CF04CEC14F03BC0E7F03CC04C
:101C4000E8F03DC0E9F03EC0EAF0320E30EC15F0AD
:101C50008CEC0DF036C03BF037C03CF04CEC14F08F
:101C60003BC0E7F03CC0E8F03DC0E9F03EC0EAF020
:101C70008B848CEC0DF036C03BF037C03CF04CEC64
:101C800014F03BC0BAF03CC0BBF03DC0BCF03EC05D
:101C9000BDF0320E30EC15F08CEC0DF036C03BF0A0
:101CA00037C03CF04CEC14F03BC0BAF03CC0BBF089
:101CB0003DC0BCF03EC0BDF08B94086A0B0EA9EC91
:101CC00013F03F6A010E056E3D0EFFEC14F01C0E82
:101CD00030EC15F03F2A050E3F64F4D7F80EE1EF23
:101CE00014F00A6E010E0A6401D05A860AC0D1F0BF
:101CF000085003E00A04D8B45A844E0E096EEB0E65
:101D0000E82EFED7092EFCD700F08A948A965AB89E
:101D10001BD0030EB0EC14F01A0E096EF80EE82E6C
:101D2000FED7092EFCD700D0030EB0EC14F0C80E7D
:101D3000E82EFED7030EB0EC14F0C80EE82EFED746
:101D4000020EB0EC14F01CD05A50200927EC15F00C
:101D50001A0E096EF80EE82EFED7092EFCD700D019
:101D60005A50200927EC15F01A0E096EF80EE82ECD
:101D7000FED7092EFCD700D05A50200927EC15F0C9
:101D80005A50200927EC15F0040E0001D06FD051F5
:101D9000080927EC15F0010E27EC15F00B0E096E63
:101DA000620EE82EFED7092EFCD700D0020E0001ED
:101DB000D26FD251040927EF15F0085005E0045006
:101DC00005100610071007E1046A056A066A076A2B
:101DD0004ED0082A4DD80A6A0B6A0C6AFE0E071408
:101DE0000D6E0A500B100C100D1008E0F2D7082AE7
:101DF000042A000E0522062207223AD80A6A0B6A34
:101E00000C6A07500D6E0A500B100C100D1007E0F5
:101E1000EED70806D890043605360636073606BED5
:101E200003D0020E0860F5D708B002D07F0E061668
:101E3000D890083208C00AF00B6A0C6A0D6A0AC012
:101E40000DF00C6A0B6A0A6A0A5004120B50051254
:101E50000C5006120D5007120950D8A4078E04C06A
:101E600004F005C005F006C006F007C007F0120038
:101E7000D890073206320532043212001F34203463
:101E8000256E255005E0233424342B6E2B5005E1BC
:101E90001D6A1E6A1F6A206A3DD02B507B0F2526C3
:101EA00020C02BF024502B1A800E2B161F8E238E51
:101EB000000E2416266A276A286A296A070E2A6EE7
:101EC0001DB029D831D821362236233624362A2E81
:101ED000F7D7110E2A6E1DB01ED826D82932283207
:101EE000273226322A2EF7D726C004F027C005F065
:101EF00028C006F029C007F025C008F02BC009F063
:101F0000DDEC0EF004C01DF005C01EF006C01FF091
:101F100007C020F0120021502626225027222350ED
:101F20002822245029221200D89020321F321E323B
:101F30001D32D890120006009EA22CD00001F02B7A
:101F4000A00EEF5D0F0EF05924E3A00EEF5F0F0E11
:101F5000F05BF14BF22B8B94410EF15D030EF259C5
:101F600003E3016A012A01D0016AD8900136D890B2
:101F700001348B12E80E0001F15D030EF25909E302
:101F8000C62B000EC723C823C923E80EF15F030E3A
:101F9000F25B9E929EAA11D0000E0001D325D96E4D
:101FA000DA6A010EDA22AECFDFFFD3290F0BD56F2D
:101FB000D451D519D8A4D5C0D3F09EB89DA810D0BF
:101FC000100E5C24D96EDA6A010EDA22DF50AD6E93
:101FD0005C2A0F0E5C165B505C18D8B49D989E98D6
:101FE00003C0DAFF02C0D9FF11004BD8F5CF40F093
:101FF0000900F5CF41F00900F5CF42F00A00F5CF16
:1020000043F033D040C021F041C022F042C023F061
:1020100043C024F038C01DF039C01EF03AC01FF094
:102020003BC020F03EEC0FF01DC02CF01EC02DF088
:102030001FC02EF020C02FF03D06D8A03E0621D8AC
:10204000F5CF30F00900F5CF31F00900F5CF32F0CF
:102050000A00F5CF33F04EEC0BF02CC040F02DC051
:1020600041F02EC042F02FC043F03D503E10CAE177
:1020700040C038F041C039F042C03AF043C03BF0B4
:1020800012003D50040D3C50F3243F6E3FC0F6FF5C
:1020900009001200356A200E336E0EAE03D00E6CAE
:1020A000300E336E0BC004F00CC005F00DC006F00E
:1020B000076A6DEC13F00450346E090E346402D0DC
:1020C000370E01D0300E3424316E326A000E3222C7
:1020D0003550110FD96EDA6A31C0DFFF352A0BC0D7
:1020E00004F00CC005F00DC006F0076ADEEC12F03B
:1020F00004C00BF005C00CF00B500C1004E0D2D75C
:10210000335027EC13F00E060E280F6E3550800A60
:10211000106E0F50800A105CF3E33550800A7F0F79
:102120000CE335C00FF00F060F50110FD96EDA6AAD
:10213000DF5027EC13F03506F0D7120010341134BD
:102140001B6E1B5005E0143415341C6E1C5005E149
:102150000E6A0F6A106A116A43D01C50890F1B5E09
:1021600011C01CF015501C1A800E1C16108E116A1E
:10217000148E156A200E1A6ED89016361736183639
:10218000193612500E5C13500F5814501058155039
:10219000115809E312500E5E13500F5A1450105A82
:1021A0001550115A1680D8900E360F36103611364B
:1021B0001A2EE2D716C004F017C005F018C006F0BA
:1021C00019C007F01BC008F01CC009F0DDEC0EF0D0
:1021D00004C00EF005C00FF006C010F007C011F0EB
:1021E0001200543455340001616F615105E1526AA7
:1021F000536A546A556A43D052C056F053C057F0E0
:1022000054C058F055C059F0200E05D0D89059321E
:10221000583257325632E82EF9D75650606F548EE6
:10222000556A960E615F61AF0CD06151800A970FBD
:10223000DEE3D8905532543253325232613FF9D7EF
:102240000CD01F0E616507D0D2D7D89052365336C6
:102250005436553661076151F8E1605108E0551E6A
:10226000541E531E526C000E53225422552252C04B
:1022700052F053C053F054C054F055C055F0120002
:10228000445045104610471013E047507F0B4A6EEC
:102290004B6AD8904A364B364A5048264B50492212
:1022A000010E46AE000E4826000E492249AE05D06A
:1022B000446A456A466A476A2ED049BE10D049042E
:1022C0000EE347AE06D0446845687F0E466EFF0EAB
:1022D00004D0446845687F0E466E476E1CD0493472
:1022E00049304B6E48304A6E4718800B4A18476E8B
:1022F00048C04AF0010E4A164A324A3246504A183D
:102300007F0B4A18466E44C044F045C045F046C0B5
:1023100046F047C047F012000F6E0F500F0B0E6EC5
:10232000D66AD76A0FBA03D0046A056A03D0056A71
:10233000200E046E0450D5120FB803D0066A076A47
:1023400003D0076A100E066E0650D5120FBC03D0DC
:10235000086A096A03D0096A400E086E0850D5124F
:102360000E5003E10A680B6803D00B68F70E0A6E83
:102370000A50D516F80ED5160E5003E00E04070BC2
:10238000D512F29C0FBE03D00C6A0D6A03D00D6A01
:10239000200E0C6E0C50F2121200045005100610A4
:1023A00007100BE10850D96EDA6A000EDE6ADD6AAA
:1023B000046A056A066A076A2BD007507F0B096E0C
:1023C0000A6AD89009360A360850D96EDA6A09C006
:1023D000DEFF0AC0DDFF0850D96EDA6A010E06AED4
:1023E000000EDE12000EDD120850D96EDA6A820E7F
:1023F000DE26FF0EDD220750800B3F09076E069E8A
:1024000004C004F005C005F006C006F007C007F0E0
:102410001200086A090EA9EC13F0B20E22EC14F0B7
:10242000086A090EA9EC13F036C004F037C005F0B5
:10243000076A640E066EDEEC12F004C038F005C0C8
:1024400039F038C00BF039C00CF00A0E0D6E0E6A70
:102450004AEC10F036C004F037C005F0076A640E8D
:10246000066E6DEC13F004C03AF005C03BF03AC0C4
:102470000BF03BC00CF00A0E0D6E0E6A4AEF10F026
:102480004AC044F04BC045F04CC046F04DC047F048
:10249000FBEC0BF044C04EF045C04FF046C050F08E
:1024A00047C051F04EC01DF04FC01EF050C01FF08D
:1024B00051C020F0D90E216E5B0E226EDE0E236E0F
:1024C0003E0E246E3EEC0FF01DC04AF01EC04BF0D5
:1024D0001FC04CF020C04DF0120001EE00F0200EA5
:1024E000EE6AE806FDE100EEBAF0310EEE6AE806AB
:1024F000FDE15C6A5B6A5A6A5A0EF66E2A0EF76E46
:10250000000EF86E00EEF3F010EE05F00900F5CFC6
:10251000EEFFE550E150FAE1000EF86E080EF76E9E
:1025200000018AEF0CF007AE09D0046C051ED8B08C
:10253000052A061ED8B0062A800E07560BAE09D013
:10254000086C091ED8B0092A0A1ED8B00A2A800EC3
:102550000B56800E071A0B1A0850045C09500558D8
:102560000A5006580B50075802E2D89001D0D88084
:102570001200D6CF08F0096A0A6AD58AD58800F019
:1025800000F0D59800F000F0094A0A2A0850D61841
:10259000D71002E10A04F2E30850076E066A0950F8
:1025A000065E0A50075A000E0624096E010E072027
:1025B0000A6E09C004F00AC005F01200086A096A30
:1025C000065007101BE0010E0A6E04D0D8900636A4
:1025D00007360A2A07AEFAD7D890083609360650C9
:1025E000045C0750055805E30650045E0750055A81
:1025F0000880D890073206320A2EEED708C004F0C1
:1026000009C005F01200666B65AF0AD0651F641F34
:10261000631F626D000E632364236523010E666FE2
:1026200062C004F063C005F064C006F065C007F046
:10263000960E086E66C009F0DDEC0EF004C062F084
:1026400005C063F006C064F007C065F01200066EB6
:10265000100E046E056A0001E6390F0B045E000ED1
:10266000055A05BE17D0055002E1040413E3E6390C
:102670000F0B046E0450D60FD96EDA6A06C0DFFF66
:10268000E6390F0B046E042A043AE65104180F0BC6
:102690000418E66F12003C503D103E103F1002E05F
:1026A000800E3F1A38C02CF039C02DF03AC02EF001
:1026B0003BC02FF03CC030F03DC031F03EC032F0A6
:1026C0003FC033F04EEC0BF02CC038F02DC039F089
:1026D0002EC03AF02FC03BF012000650071017E052
:1026E000010E086E04D0D89006360736082A07AEC9
:1026F000FAD70650045C0750055804E30650045E00
:102700000750055AD89007320632082EF2D704C077
:1027100004F005C005F01200126A0FAE05D00E6C71
:102720000F1ED8B00F2A122A0EC004F00FC005F0F9
:10273000066A076A960E086E12C009F0DDEC0EF00C
:1027400004C00EF005C00FF006C010F007C011F075
:102750001200096EF3C00AF0F4C00BF0F5C00CF0E3
:10276000F6C00DF00001D10506E1140E0B6E280E27
:102770000C6E3C0E0D6E08500A0FD96EDA6ADF50EF
:102780000924800927EF15F0300E27EC13F0780E9E
:1027900027EC13F038C00BF039C00CF0100E0D6EA2
:1027A000FC0E0E6E4AEC10F036C00BF037C00CF089
:1027B000100E0D6EFC0E0E6E4AEF10F0076E0750F5
:1027C0000F0B056E800ECA16CA500550030BCA12B5
:1027D000CC6ACA849E9207AE03D0046A042A01D050
:1027E000046AD89004349D6E12000EC004F00FC02D
:1027F00005F010C006F011C007F0960E086E000E2E
:10280000096EDDEC0EF004C00EF005C00FF006C03E
:1028100010F007C011F01200046E0001D06B0450DC
:1028200004E1066A100E056E02D0056A066A05C04C
:102830005AF0D16BD26B93948A9493968A960F0E2A
:102840008A160F0C096E086A06D0010E056E07D8AD
:10285000FFEC14F0082A03D8D8B41200F6D70950B8
:102860000824076E07C0F6FF0800F55012000B6E33
:10287000096A0A6A05D008D818EC15F0094A0A2A2C
:1028800003D8D8B41200F7D70B500924086E08C03B
:10289000F6FF0800F55012003BC004F03CC005F004
:1028A000066A076A960E086E000E096EDDEC0EF0E1
:1028B00004C03BF005C03CF006C03DF007C03EF050
:1028C0001200086A0E0EA9EC13F0086A0001E6393E
:1028D0000F0B0E6EE6510F0B0F6E0E500F5C100FAC
:1028E000A9EC13F0F80EE1EF14F0076A08D00750D6
:1028F000D60FD96EDA6ADF5089EC14F0072A00018E
:10290000E6390F0B066E0650075CF1E3F80EE1EFB7
:1029100014F0046E5B280F0B5C18FCE0F29E100EA6
:102920005B24D96EDA6A010EDA2204C0DFFF5B286D
:102930000F0B5B6E9D88F28E1200949C948EAC847B
:10294000190EAF6EAC9CAB9CAC98AB8EAB889D98CF
:10295000AC8AF28C5C6A5B6A0001D46BD36B1200A8
:10296000046E0F0E8A160438F00B8A128A86050E42
:10297000E82EFED700F08A96850EE82EFED700F0EE
:1029800012000E6E010E086E000EA9EC13F00E5030
:1029900004E0DF0E22EC14F003D0B40E22EC14F0AD
:1029A0001200045005100610071002E0800E071AEE
:1029B00004C004F005C005F006C006F007C007F02B
:1029C0001200056E04D007D889EC14F0052A03D84C
:1029D000D8B41200F8D705C0F6FF0800F550120071
:1029E000076E04D007D827EC13F0072A03D8D8B411
:1029F0001200F8D707C0F6FF0800F5501200066E67
:102A0000055002E08A8401D08A9406380F0BB0EC9E
:102A100014F00650B0EF14F0010E27EC15F00B0E79
:102A2000086E620EE82EFED7082EFCD700D01200EA
:102A3000076E010E056E0750FFEC14F0075089EF8A
:102A400014F0F00E0001E6170F0EE6170F0C076EDC
:102A5000000E056E0750FFEF14F000401454FF0005
:022A6000120062
:020000040020DA
:08000000FFFFFFFFFFFFFFFF00
:020000040030CA
:0E000000000C1E1EFF8380FF0FC00FE00F409C
:00000001FF
