:0600000000F00BEF00F020
:10000800FFFFE9CF6EF1EACF6FF19DEF0DF0FFFF33
:1000180000EE47F0780EF66E060EF76E10EE03F05F
:1000280020EC00F000EE00F0470EEE6AE806FDE175
:10003800000EF86E46EF0CF00900F5CFEEFFE55024
:0A004800E150FAE1E250F8E1120085
:10060000000000803F1872313FF0FD753E4758638F
:100610003D58951D3C82C4AE3AA8782139EF9380AD
:1006200037A092A7354656153400000000C4FF7F5E
:100630003F80EFFFBE90E1A93EEC8276BE82AD2BFB
:100640003E0E3CC3BD87D1133D4178D3BB0D0A4359
:1006500043616C3D000D0A46313D000D0A46333DB5
:10066000000D0A46323D002E2E2E0D0A0043696E03
:100670003D007661723D00002A261F00FFFF50EC0E
:100680000FF01EC110F11FC111F110C11EF111C1F7
:100690001FF13EEC12F01EC10CF01FC10DF020C185
:1006A0000EF021C10FF00CC047F10DC048F10EC093
:1006B00049F10FC04AF108C043F109C044F10AC032
:1006C00045F10BC046F181EC11F008E208C00CF0D6
:1006D00009C00DF00AC00EF00BC00FF008C059F1B0
:1006E00009C05AF10AC05BF10BC05CF108C055F1BA
:1006F00009C056F10AC057F10BC058F12FEC0DF0AC
:1007000055C100F156C101F157C102F158C103F1C1
:100710000CC059F10DC05AF10EC05BF10FC05CF175
:100720000CC055F10DC056F10EC057F10FC058F175
:100730002FEC0DF055C104F156C105F157C106F17A
:1007400058C107F108C059F109C05AF10AC05BF15C
:100750000BC05CF108C055F109C056F10AC057F151
:100760000BC058F12FEC0DF055C108F156C109F13D
:1007700057C10AF158C10BF104C143F105C144F15D
:1007800006C145F107C146F108C13FF109C140F179
:100790000AC141F10BC142F160EC12F03FC10CF112
:1007A00040C10DF141C10EF142C10FF110C043F142
:1007B00011C044F112C045F113C046F110C03FF121
:1007C00011C040F112C041F113C042F160EC12F0CF
:1007D0003FC143F140C144F141C145F142C146F13D
:1007E00000C13FF101C140F102C141F103C142F139
:1007F00060EC12F03FC159F140C15AF141C15BF1C7
:1008000042C15CF10CC155F10DC156F10EC157F159
:100810000FC158F12FEC0DF0596B400E5A6F1C0EA2
:100820005B6F460E5C6F2FEC0DF055C116F156C193
:1008300017F157C118F158C119F108C059F109C091
:100840005AF10AC05BF10BC05CF108C055F109C058
:1008500056F10AC057F10BC058F12FEC0DF010C043
:1008600059F111C05AF112C05BF113C05CF12FECC9
:100870000DF010C059F111C05AF112C05BF113C054
:100880005CF12FEC0DF00CC059F10DC05AF10EC007
:100890005BF10FC05CF12FEC0DF00CC059F10DC0F5
:1008A0005AF10EC05BF10FC05CF12FEC0DF000C0EF
:1008B00059F101C05AF102C05BF103C05CF12FECA9
:1008C0000DF0E60E596FE90E5A6F1D0E5B6F420E6A
:1008D0005C6F2FEC0DF055C112F156C113F157C1E9
:1008E00014F158C115F112C13DF113C13EF114C10B
:1008F0003FF115C140F116C139F117C13AF118C1E4
:100900003BF119C13CF1FFEC0DF039C155F13AC191
:1009100056F13BC157F13CC158F1A90E596F5F0E1A
:100920005A6F630E5B6F580E5C6F2FEC0DF055C164
:100930001AF156C11BF157C11CF158C11DF11AC162
:1009400047F11BC148F11CC149F11DC14AF1436B7C
:10095000C00E446F790E456F440E466F81EC11F066
:1009600053E21AC147F11BC148F11CC149F11DC135
:100970004AF1800E436FE50E446F730E456F490ECA
:10098000466F81EC11F032E21AC147F11BC148F108
:100990001CC149F11DC14AF11F0E436F2E0E446F59
:1009A0006E0E456F4E0E466F81EC11F010E2280E70
:1009B000206F6B0E216F6E0E226F4E0E236F1A0E7C
:1009C0001E6F010E1F6F19EC12F0E16A20D0206B30
:1009D000240E216F740E226F490E236F1A0E1E6FA4
:1009E000010E1F6F19EC12F0010E0FD0206B216B5E
:1009F0007A0E226F440E236F1A0E1E6F010E1F6FA8
:100A000019EC12F0020E01D0030EFFFFE16EFFFFA2
:100A10003B6B3C6BC80E3D6F420E3E6F1A0E396F3A
:100A2000010E3A6FCFEC11F01AC143F11BC144F132
:100A30001CC145F11DC146F102EC0FF043C110F19C
:100A400044C111F110C11EF111C11FF112EC13F0DC
:100A5000E1500FEF13F0FFFFFFFF50EC0FF01EC14E
:100A600008F11FC109F108C11EF109C11FF13EECD7
:100A700012F01EC10CF01FC10DF020C10EF021C1FB
:100A80000FF00001A00E476E250E486E720EB7ECF7
:100A900012F0010108C10EF109C10FF1106B116BC9
:100AA00069EC10F0550EB7EC12F008C00EF109C059
:100AB0000FF10AC010F10BC011F1E9EC07F0200EA4
:100AC000D0EC12F008C00EF109C00FF10AC010F10D
:100AD0000BC011F169EC10F0610EB7EC12F010C010
:100AE0000EF111C00FF112C010F113C011F1E9ECB9
:100AF00007F0200ED0EC12F010C00EF111C00FF173
:100B000012C010F113C011F169EC10F05B0EB7ECDC
:100B100012F00CC00EF10DC00FF10EC010F10FC09D
:100B200011F1E9EC07F0200ED0EC12F00CC00EF140
:100B30000DC00FF10EC010F10FC011F169EC10F0F3
:100B40004D0EB7EC12F000C00EF101C00FF102C063
:100B500010F103C011F1E9EC07F0200ED0EC12F017
:100B600000C00EF101C00FF102C010F103C011F17D
:100B700069EC10F06A0EB7EC12F000010A0E476E35
:100B8000260E486E0CC047F10DC048F10EC049F169
:100B90000FC04AF108C043F109C044F10AC045F151
:100BA0000BC046F181EC11F008E208C00CF009C05E
:100BB0000DF00AC00EF00BC00FF00CC059F10DC0C3
:100BC0005AF10EC05BF10FC05CF10CC055F10DC0C5
:100BD00056F10EC057F10FC058F12FEC0DF055C172
:100BE00000F156C101F157C102F158C103F108C02B
:100BF00059F109C05AF10AC05BF10BC05CF108C0A1
:100C000055F109C056F10AC057F10BC058F12FEC4D
:100C10000DF055C104F156C105F157C106F158C197
:100C200007F100C143F101C144F102C145F103C123
:100C300046F104C13FF105C140F106C141F107C1D0
:100C400042F160EC12F03FC155F140C156F141C193
:100C500057F142C158F110C059F111C05AF112C0F8
:100C60005BF113C05CF12FEC0DF010C059F111C015
:100C70005AF112C05BF113C05CF12FEC0DF000C013
:100C800059F101C05AF102C05BF103C05CF12FECD5
:100C90000DF055C10AF156C10BF157C10CF158C105
:100CA0000DF16D0EB7EC12F00AC10EF10BC10FF190
:100CB0000CC110F10DC111F1E9EC07F0200ED0ECE0
:100CC00012F00AC10EF10BC10FF10CC110F10DC1F0
:100CD00011F169EC10F06A0EB7EC12F00AC147F19D
:100CE0000BC148F10CC149F10DC14AF1436BC00E73
:100CF000446F790E456F440E466F81EC11F053E25C
:100D00000AC147F10BC148F10CC149F10DC14AF1CB
:100D1000800E436FE50E446F730E456F490E466FAC
:100D200081EC11F032E20AC147F10BC148F10CC16C
:100D300049F10DC14AF11F0E436F2E0E446F6E0E26
:100D4000456F4E0E466F81EC11F010E2280E206FB9
:100D50006B0E216F6E0E226F4E0E236F0A0E1E6FEA
:100D6000010E1F6F19EC12F0040E1ED0206B240E22
:100D7000216F740E226F490E236F0A0E1E6F010E33
:100D80001F6F19EC12F0050E0FD0206B216B7A0E3D
:100D9000226F440E236F0A0E1E6F010E1F6F19EC97
:100DA00012F0060E01D0070EFFFFE16E3B6B3C6BAD
:100DB000C80E3D6F420E3E6F0A0E396F010E3A6F3C
:100DC000CFEC11F00AC143F10BC144F10CC145F164
:100DD0000DC146F102EC0FF043C108F144C109F125
:100DE00008C11EF109C11FF112EC13F0E1500FEF21
:100DF00013F0FFFFFFFF01EE2FF0EE50EE10EE10AC
:100E0000EE1006E12F6B306B800E316F3F0E17D066
:100E10002FC147F130C148F131C149F132C14AF126
:100E2000180E436F720E446F310E456F440E466FBD
:100E300081EC11F007E22F6930697F0E316FFFFFFF
:100E4000326FC4D0870E476F480E486F3A0E496F15
:100E5000C40E4A6F2FC143F130C144F131C145F195
:100E600032C146F181EC11F001E293D032AF02D0F1
:100E7000010E02D0FFFF000EFFFFE16EE15012E015
:100E80002FC14DF130C14EF131C14FF132C150F19E
:100E9000F9EC12F04DC12FF14EC130F14FC131F1DB
:100EA00050C132F13B0E3B6FAA0E3C6FB80E3D6F46
:100EB0003F0E3E6F2F0E396F010E3A6FCFEC11F0DF
:100EC0002FC139F130C13AF131C13BF132C13CF1AE
:100ED00053EC0BF039C143F13AC144F13BC145F148
:100EE0003CC146F102EC0FF043C137F144C138F187
:100EF00037C145F138C146F1E5EC0FF045C133F19A
:100F000046C134F147C135F148C136F133C13BF137
:100F100034C13CF135C13DF136C13EF12F0E396F80
:100F2000010E3A6FF4EC11F0090E4A6F4B6B010E93
:100F3000496F2FC145F130C146F131C147F132C18E
:100F400048F1BDEC0CF045C139F146C13AF147C159
:100F50003BF148C13CF137C13DF138C13EF1B2EC43
:100F60000EF039C12FF13AC130F13BC131F13CC132
:100F700032F1E1502BE001EE2FF0FF0EEE18FF0EE4
:100F8000D8B4EE187F0ED8B4EE187F0ED8B4EE1891
:100F900005E12F6B306B316B326B18D02FC13DF1F7
:100FA00030C13EF131C13FF132C140F1396B3A6B92
:100FB000800E3B6F3F0E3C6FFFEC0DF039C12FF1FF
:100FC0003AC130F13BC131F13CC132F1FFFF1200B7
:100FD000FFFFFFFF0EC122F10FC123F110C124F169
:100FE00011C125F1A8EC11F022C143F123C144F154
:100FF00024C145F125C146F102EC0FF043C11CF1BB
:1010000044C11DF1FFFF0EC147F10FC148F110C1EE
:1010100049F111C14AF1436B446B456B340E466F85
:1010200081EC11F001E3A5D01CC145F11DC146F1D1
:10103000E5EC0FF045C126F146C127F147C128F183
:1010400048C129F1226B236B200E246F410E256FBE
:1010500026EC0AF022C11EF123C11FF124C120F1A8
:1010600025C121F11EC13DF11FC13EF120C13FF15B
:1010700021C140F10EC139F10FC13AF110C13BF16C
:1010800011C13CF1FFEC0DF039C139F13AC13AF12F
:101090003BC13BF13CC13CF153EC0BF039C143F196
:1010A0003AC144F13BC145F13CC146F102EC0FF0BD
:1010B00043C11AF144C11BF11AC145F11BC146F1EC
:1010C000E5EC0FF045C112F146C113F147C114F12F
:1010D00048C115F112C155F113C156F114C157F1B0
:1010E00015C158F11EC159F11FC15AF120C15BF160
:1010F00021C15CF12FEC0DF055C116F156C117F16D
:1011000057C118F158C119F116C13BF117C13CF193
:1011100018C13DF119C13EF10E0E396F010E3A6F43
:10112000F4EC11F001D80ED0FFFF0500FA6E475025
:10113000FD6E4850FE6EF850FF6EFA501A51300F97
:101140001200FFFFFFFF1D511C110EE101D80CD052
:10115000FFFF0500FA6E4750FD6E4850FE6EF850D6
:10116000FF6EFA502E0CFFFFFFFF1C07D8A01D07D3
:1011700049D71200FFFFFFFF5E0E656F010E666F1D
:10118000550E636F010E646F9DEC10F0F46E5E6798
:1011900009D059C155F15AC156F15BC157F15CC133
:1011A00058F19DD0FFFF5D0E656F010E666F590E01
:1011B000636F010E646F9DEC10F0D96E5D5101E11B
:1011C00081D0060EE96E5D515E6128D05E515D5D95
:1011D0005F6F210E5F5D09E3556B566B576B586B64
:1011E0005DC15EF1D9CFF4FF40D0FFFFD8905937F1
:1011F0005A375B375C375D075D515E190AE0E92EAF
:10120000F4D707D0FFFFD8905833573356335533B0
:101210005E2BFFFF5D515E63F5D727D0FFFF5E5168
:101220005D1923E05D515E5D5F6F210E5F5D05E33B
:10123000596B5A6B5B6B5C6B18D0FFFFD8905537BE
:101240005637573758375E075D515E190AE0E92E69
:10125000F4D707D0FFFFD8905C335B335A33593350
:101260005D2BFFFF5D515E63F5D7FFFFF45009E092
:10127000551F561F571F581F552B000E5623572317
:101280005823D95009E0591F5A1F5B1F5C1F592B67
:10129000000E5A235B235C23F46A595155275A5197
:1012A00056235B5157235C51582358AF0BD0551F21
:1012B000561F571F581F552B000E562357235823D0
:1012C000010EF46EFFFF5EC165F1550E636F010EF6
:1012D000646FCDEC0BF0F45002E0800E581BFFFF62
:1012E0001200FFFFFFFF32BF07D001EE2FF0EE50DC
:1012F000EE10EE10EE1006E1FFFF2F6B306B316B3E
:10130000326BA1D0430E496F010E4A6F2FC145F1D8
:1013100030C146F131C147F132C148F12AEC10F039
:1013200045C133F146C134F147C135F148C136F109
:10133000596B5A6B5B6B400E5C6F33C155F134C116
:1013400056F135C157F136C158F12FEC0DF055C1AA
:1013500037F156C138F157C139F158C13AF1596BDB
:101360005A6B800E5B6FBF0E5C6F37C155F138C191
:1013700056F139C157F13AC158F1BBEC08F055C1EB
:101380002FF156C130F157C131F158C132F1430745
:10139000D8A04407080E4A6F4B6B290E496F2FC126
:1013A00045F130C146F131C147F132C148F1BDECE0
:1013B0000CF045C12FF146C130F147C131F148C1B0
:1013C00032F143C145F144C146F1E5EC0FF045C1AE
:1013D0003BF146C13CF147C13DF148C13EF13BC143
:1013E00055F13CC156F13DC157F13EC158F1180EBF
:1013F000596F720E5A6F310E5B6F3F0E5C6F2FECA0
:101400000DF055C13FF156C140F157C141F158C1EE
:1014100042F12FC159F130C15AF131C15BF132C1F2
:101420005CF13FC155F140C156F141C157F142C194
:1014300058F1BBEC08F055C12FF156C130F157C13E
:1014400031F158C132F1FFFF1200FFFFFFFF2A6B9D
:1014500001EE22F0EE50EE10EE10EE1010E126C17B
:1014600047F127C148F128C149F129C14AF1000ECD
:10147000436B446B456B466B81EC11F038D001EE49
:1014800026F0EE50EE10EE10EE1007E1226B236B0B
:10149000800E246F3F0E256F88D025AF43D026C124
:1014A00043F127C144F128C145F129C146F102ECBD
:1014B0000FF043C12BF144C12CF145C12DF146C1C0
:1014C0002EF12BC12FF12CC130F12DC131F12EC1E4
:1014D00032F159EC11F02951321908E12851311932
:1014E00005E12751301902E126512F1906E0FFFFCF
:1014F000226B236B246B256B58D02B51010B2A6F69
:1015000022C14DF123C14EF124C14FF125C150F14B
:10151000F9EC12F04DC122F14EC123F14FC124F17B
:1015200050C125F1FFFF22C12FF123C130F124C1A9
:1015300031F125C132F172EC09F02FC155F130C102
:1015400056F131C157F132C158F126C159F127C1C5
:101550005AF128C15BF129C15CF12FEC0DF055C1A6
:101560002FF156C130F157C131F158C132F1FAECC7
:1015700006F02FC122F130C123F131C124F132C173
:1015800025F12A5112E022C14DF123C14EF124C1AF
:101590004FF125C150F1F9EC12F04DC122F14EC1CD
:1015A00023F14FC124F150C125F1FFFF1200FFFFCD
:1015B000FFFF196B200E186F15AF03D0156D300E9D
:1015C000186FFFFF14C13DF13E6B12C13BF113C117
:1015D0003CF17FEC12F03B51E16E370F166F176B49
:1015E000000E17230A0EE16006D0300EE124166FBC
:1015F000176B000E1723FFFF1A0E1925E96EEA6A12
:10160000010EEA2216C1EFFF192B14C13DF13E6B0A
:1016100012C13BF113C13CF12FEC11F03BC112F1AF
:101620003CC113F11351121110E0CBD701D80DD0EA
:10163000FFFF0500FA6E4750FD6E4850FE6EF850F1
:10164000FF6EFA5018511200FFFFFFFF1951800A78
:101650003A6F15071529800A3A5DE8E31951800AA7
:101660007F0F1FE301D817D0FFFF0500FA6E475028
:10167000FD6E4850FE6EF850FF6EFA5019C13AF1F7
:10168000FF0E3A271A0E3A25E96EEA6A010EEA229F
:10169000EF501200FFFFFFFF19071951800A7F0F5B
:1016A000E1E21200FFFFFFFF3D0E496F010E4A6F9E
:1016B00039C145F13AC146F13BC147F13CC148F15E
:1016C0002AEC10F03EAF0FD03CAF07D0396B3A6B2D
:1016D000800E3B6FBF0E3C6F5DD0FFFF396B3A6BE6
:1016E0003B6B3C6B57D0FFFF1D0E3D5D000E3E591E
:1016F00001E350D039C143F13AC144F13BC145F156
:101700003CC146F102EC0FF043C143F144C144F146
:1017100045C145F146C146F19BEC0FF043C13FF195
:1017200044C140F145C141F146C142F13FC147F1D9
:1017300040C148F141C149F142C14AF139C143F1C7
:101740003AC144F13BC145F13CC146F181EC11F095
:1017500019E2596B5A6B800E5B6FBF0E5C6F3FC115
:1017600055F140C156F141C157F142C158F1BBECAE
:1017700008F055C139F156C13AF157C13BF158C192
:101780003CF108D03FC139F140C13AF141C13BF1D0
:1017900042C13CF1FFFF1200FFFFFFFF63C1E9FF01
:1017A00064C1EAFFEECF66F1EECF67F1EECF68F1EC
:1017B000EECF69F1655105E0695166116711681155
:1017C00011E163C1E9FF64C1EAFF000EEE6AEE6A4F
:1017D000EE6AED6A58D0FFFF652BD8906933683305
:1017E000673366336A6B6B6B6C6BFE0E69156D6FDE
:1017F0006D516A116B116C110DE0EDD7FFFF652B78
:10180000662B000E672368236923D89069336833F9
:10181000673366336A6B6B6B6C6B69516D6F6D51BF
:101820006A116B116C1108E0E9D7FFFF6507D890CA
:10183000663767376837693768AFF7D765B102D061
:101840007F0E6817FFFFD890653365C16AF16B6B37
:101850006C6B6D6B6AC16DF16C6B6B6B6A6B6A5113
:1018600066136B5167136C5168136D51691363C133
:10187000E9FF64C1EAFF66C1EEFF67C1EEFF68C120
:10188000EEFF69C1EEFFFFFF1200FFFFFFFF3F6A9F
:10189000406A416A426A3FC034F040C035F041C0FE
:1018A00036F042C037F034C004F035C005F004C053
:1018B00006F005C007F0006A016A7A0E026E440E57
:1018C000036ECF0E926ED58AD588F18E949682964D
:1018D000C69A800ED1EC10F09492949694809484E1
:1018E0009488949A829A320E0101006F000E016B67
:1018F00000EC11F0828A320E006F000E016B00ECDA
:1019000011F0829A320E006F000E016B00EC11F0A4
:10191000828A320E006F000E016B00EC11F0829A89
:10192000E5EC12F0949CF28CF28EC80E006F000E63
:10193000016B00EC11F05EEC0EF0FFFF670EB7ECF0
:1019400012F082A803D02CEC05F003D0FFFF3EEC90
:1019500003F0FFFF010E0CEC13F01E0E006F000EE3
:10196000016B00EC11F0000E0CEC13F0140E006F84
:10197000000E016B00EC11F0E0D7FFFF4A51040D9F
:101980004951F324546F54C1F6FF060EF76E090057
:10199000FFFFF5CF50F10900FFFFF5CF51F109002E
:1019A000FFFFF5CF52F10A00FFFFF5CF53F1FFFF24
:1019B0004B514A114AE050C159F151C15AF152C13B
:1019C0005BF153C15CF145C155F146C156F147C1C8
:1019D00057F148C158F12FEC0DF055C14CF156C1EB
:1019E0004DF157C14EF158C14FF14A07D8A04B07EE
:1019F00001014A51040D4951F324546F54C1F6FFBB
:101A0000060EF76E0900FFFFF5CF59F10900FFFF41
:101A1000F5CF5AF10900FFFFF5CF5BF10A00FFFF98
:101A2000F5CF5CF14CC155F14DC156F14EC157F1A6
:101A30004FC158F1BBEC08F055C150F156C151F1FE
:101A400057C152F158C153F1B2D750C145F151C1FC
:101A500046F152C147F153C148F11200FFFFFFFFA9
:101A60005F6B606B616B626B5D0E656F010E666F25
:101A7000550E636F010E646F9DEC10F0D96E5E0E13
:101A8000656F010E666F590E636F010E646F9DECFA
:101A900010F0D91A5E5146E05D6701D043D0FFFFD8
:101AA0005E517B0F5D27070E5E6FFFFF55A108D0CB
:101AB00059515F275A5160235B5161235C51622366
:101AC000FFFFD8905833573356335533D890593792
:101AD0005A375B375C375E2FE8D7110E5E6FFFFF1A
:101AE00055A108D059515F275A5160235B5161239A
:101AF0005C516223FFFFD890583357335633553328
:101B0000D8906233613360335F335E2FE8D75DC1B5
:101B100065F15F0E636F010E646FCDEC0BF0D95071
:101B2000D8A4628FFFFF5FC155F160C156F161C15A
:101B300057F162C158F11200FFFFFFFF9EA234D09F
:101B4000072A880E065C130E07582DE3880E065EE2
:101B5000130E075A044A052A342A000E352236226B
:101B60003722C90E385C000E395802E2828601D055
:101B70008296FFFF900E385C010E395804E3900EF8
:101B8000385E010E395A384A392AE80E045C030ED1
:101B9000055809E33F2A000E402241224222E80E66
:101BA000045E030E055A9E92FFFF9EAA0ED03B5084
:101BB000240FE96EEA6AAECFEFFF3B280F0B3D6EB4
:101BC0003D503E18D8A43DC03BF0FFFF9EB89DA8F5
:101BD0000FD03C50140FE96EEA6AEF50AD6E3C2A0C
:101BE0000F0E3C163A503C6201D09D98FFFF9E9824
:101BF000FFFF6FC1EAFF6EC1E9FF1100FFFFFFFFAA
:101C0000436B446B456B466B420E656F010E666F0E
:101C1000390E636F010E646F9DEC10F0D96E426750
:101C200001D041D0FFFF410E656F010E666F3D0E82
:101C3000636F010E646F9DEC10F0F46E416701D08C
:101C400032D0FFFF4151890F425FF450D91A200E64
:101C5000E96EFFFFD89043374437453746373D514B
:101C6000395D3E513A593F513B5940513C5909E386
:101C70003D51395F3E513A5B3F513B5B40513C5BCC
:101C80004381D89039373A373B373C37E92EE1D793
:101C900042C165F1430E636F010E646FCDEC0BF032
:101CA000D950D8A4468FFFFF43C139F144C13AF15E
:101CB00045C13BF146C13CF11200FFFFFFFF829A94
:101CC00050EC0FF01EC11EF11FC11FF13EEC12F0CF
:101CD0001EC108F01FC109F020C10AF021C10BF09C
:101CE000320E006F000E016B00EC11F050EC0FF0A3
:101CF0001EC11EF11FC11FF13EEC12F01EC108F003
:101D00001FC109F020C10AF021C10BF0828A50ECFA
:101D10000FF01EC11EF11FC11FF13EEC12F01EC1DB
:101D200010F01FC111F020C112F021C113F0320ECA
:101D3000006F000E016B00EC11F050EC0FF01EC1B3
:101D40001EF11FC11FF13EEC12F01EC110F01FC1A9
:101D500011F020C112F021C113F0829A6A0EB7EF80
:101D600012F0FFFFFFFF01EE39F0EE50EE10EE1023
:101D7000EE1015E001013C517F0B3F6FD8903F35CD
:101D8000406F416B413740513D2741513E233B3528
:101D9000E836010B3D27000E3E233EAF05D0396BE0
:101DA0003A6B3B6B3C6B2BD0FFFF3E51800A7F0FA1
:101DB000000ED8B43D5D0DE339693A697F0E3B6F83
:101DC0003CAF02D0FF0E02D0FFFF7F0EFFFF3C6F43
:101DD00016D03E353E31406F3D313F6F01013C51E1
:101DE0003F19800B3F193C6F3DC13FF1010E3F177A
:101DF0003F333F333B513F197F0B3F193B6FFFFF91
:101E00001200FFFFFFFF470E656F010E666F430E66
:101E1000636F010E646F9DEC10F0D96E43C148F101
:101E200044C149F145C14AF146C14BF1960E475FA5
:101E300047AF0DD04751800A970F0DE3FFFFD890B1
:101E40004B334A3349334833473FF8D713D0FFFF6A
:101E50001F0E47650CD0436B446B456B466B1DD022
:101E6000FFFFD890483749374A374B374707FFFFBE
:101E70004767F6D7FFFFD95008E04B1F4A1F491F9D
:101E8000486D000E49234A234B2348C143F149C101
:101E900044F14AC145F14BC146F1FFFF1200FFFF7B
:101EA000FFFFF2949298620E206F760EFFFFE82EED
:101EB000FDD7202FFBD70400D66AD76AD96AFFFF67
:101EC000310E0101206FBA0EFFFFE82EFDD7202F43
:101ED000FBD700D00400D92A090ED964F0D7928824
:101EE000D6CFE1FFF36AF46A05D0000EF35C010E71
:101EF000F4580DE2FFFFD58800F000F0D59800F00F
:101F000000F0F34AF42AE150D618D710EEE0E15081
:101F10000101216F206BF350205FF450215B000E14
:101F20002025F36E010E2121F46EF3CF1EF1F4CFC4
:101F30001FF11200FFFFFFFF4651431144114511ED
:101F400005E1436B446B456B466B3CD0D96A46AFA9
:101F50000AD0461F451F441F436D000E44234523EE
:101F60004623010ED96EFFFF960EF36E43C147F173
:101F700044C148F145C149F146C14AF1F3CF65F189
:101F8000470E636F010E646FCDEC0BF0D95012E079
:101F900047C14DF148C14EF149C14FF14AC150F11D
:101FA000F9EC12F04DC147F14EC148F14FC149F172
:101FB00050C14AF147C143F148C144F149C145F11B
:101FC0004AC146F1FFFF1200FFFFFFFF46514511D6
:101FD00005E1456B466B476B486B39D045C149F10C
:101FE00046C14AF1000E4ABFFF0E4B6F4C6F46AF21
:101FF00008D04C1F4B1F4A1F496D000E4A234B232C
:102000004C23FFFF960E656F490E636F010E646FE0
:10201000CDEC0BF046AF12D049C14DF14AC14EF1A3
:102020004BC14FF14CC150F1F9EC12F04DC149F1E7
:102030004EC14AF14FC14BF150C14CF1FFFF49C1B4
:1020400045F14AC146F14BC147F14CC148F1FFFF90
:102050001200FFFFFFFF01EE45F0EE50EE10EE1014
:10206000EE100CE149C1E9FF4AC1EAFF000EEE6A39
:10207000ED6A456B466B476B486B28D001014851B0
:102080007F0B4B6FD8904B354C6F4D6B4D3749C123
:10209000E9FF4AC1EAFF4CC1EEFF4DC1EDFF4735F4
:1020A000E836010B49C1E9FF4AC1EAFFEE12000E12
:1020B000ED1249C1E9FF4AC1EAFF820EEE26FF0E8A
:1020C000ED224851800B3F09486F479FFFFF1200E8
:1020D000FFFFFFFF01D80CD0FFFF0500FA6E47504D
:1020E000FD6E4850FE6EF850FF6EFA50300CFFFF48
:1020F000FFFF01D80CD0FFFF0500FA6E4750FD6EC0
:102100004850FE6EF850FF6EFA50780CFFFFFFFF4C
:10211000FC0E156F100E146F10C112F111C113F1E6
:10212000D8EC0AF0FC0E156F100E146F0EC112F1F0
:102130000FC113F1D8EF0AF0FFFFFFFF63C1E9FF02
:1021400064C1EAFFEECF67F1EECF68F1EECF69F13F
:10215000EECF6AF1010169356A35F36E65C1E9FFB9
:1021600066C1EAFFF3CFEFFFF36605D0676B686BDC
:10217000696B6A6B06D0FFFFF36A698F6ABFF32A47
:102180006A6BFFFF63C1E9FF64C1EAFF67C1EEFF4D
:1021900068C1EEFF69C1EEFF6AC1EEFFF3501200A5
:1021A000FFFFFFFFE8CFE1FFE1500F0BD96EE96AB7
:1021B000CA96CA98CA9AD9CF00F1D89001010033C3
:1021C0000031D8A001D0CA80D8B001D0CA90D9CFF0
:1021D00000F1D8900033D89000330031D8A001D05E
:1021E000CA82D8B001D0CA92CC6ACA849E92E1AEAB
:1021F00002D09D8202D0FFFF9D92FFFF1200FFFFE1
:10220000FFFF010ED96EF29E34C002F135C003F11A
:1022100036C004F137C005F1F28E0A0E086F000EC9
:10222000096B00C106F101C107F19EEC12F00651E5
:10223000022707510323000E04230523FFFFF29E0C
:102240000251345C03513558045136580551375802
:10225000D8B0D96AF28ED966F1D71200FFFFFFFF1E
:10226000F36AF46A3E513D111EE0010ED96EFFFF84
:10227000D8903EBF06D03D373E37D92AF8D7FFFF6A
:10228000D890FFFFF336F4363D513B5D3E513C594B
:1022900005E33D513B5F3E513C5BF380D8903E33BC
:1022A0003D33D92EECD7F3CF3BF1F4CF3CF1120004
:1022B000FFFFFFFF32512F113011311105E12F6B5C
:1022C000306B316B326B1AD0960ED96E2FC133F151
:1022D00030C134F131C135F132C136F1D9CF65F1B8
:1022E000330E636F010E646FCDEC0BF033C12FF131
:1022F00034C130F135C131F136C132F1FFFF120086
:10230000FFFFFFFF010146AF09D0436D441FD8B066
:10231000442B451FD8B0452B800E4657FFFF4AAFD0
:1023200009D0476D481FD8B0482B491FD8B0492B5A
:10233000800E4A57FFFF800E461B4A1B4751435DE4
:1023400048514459495145594A5146591200FFFFD5
:10235000FFFF22C12FF123C130F124C131F125C18A
:1023600032F172EC09F02FC155F130C156F131C193
:1023700057F132C158F1D90E596F5B0E5A6FDE0E0C
:102380005B6F3E0E5C6F2FEC0DF055C122F156C114
:1023900023F157C124F158C125F11200FFFFFFFFBF
:1023A0003BC159F13CC15AF13DC15BF13EC15CF109
:1023B00039C1E9FF3AC1EAFFEECF55F1EECF56F150
:1023C000EECF57F1EECF58F12FEC0DF039C1E9FF08
:1023D0003AC1EAFF55C1EEFF56C1EEFF57C1EEFF0D
:1023E00058C1EDFF1200FFFFFFFF3BC143F13CC1AD
:1023F00044F13DC145F13EC146F139C1E9FF3AC161
:10240000EAFFEECF3FF1EECF40F1EECF41F1EECF5C
:1024100042F160EC12F039C1E9FF3AC1EAFF3FC175
:10242000EEFF40C1EEFF41C1EEFF42C1EDFF1200E1
:10243000FFFFFFFF20C13DF121C13EF122C13FF16D
:1024400023C140F11EC1E9FF1FC1EAFFEECF39F100
:10245000EECF3AF1EECF3BF1EECF3CF1FFEC0DF0D9
:102460001EC1E9FF1FC1EAFF39C1EEFF3AC1EEFF0D
:102470003BC1EEFF3CC1EDFF1200FFFFFFFF1F510C
:102480001E1105E11E6B1F6B206B216B16D01EC148
:1024900022F11FC123F1246B256B960E656F220E6E
:1024A000636F010E646FCDEC0BF022C11EF123C1EE
:1024B0001FF124C120F125C121F1FFFF1200FFFF10
:1024C000FFFF800E461B43C159F144C15AF145C17B
:1024D0005BF146C15CF13FC155F140C156F141C1CC
:1024E00057F142C158F1BBEC08F055C13FF156C15C
:1024F00040F157C141F158C142F11200FFFFFFFF07
:102500003E513D1119E0010ED96EFFFF3EBF05D0CF
:10251000D8903D373E37D92AF8D7FFFF3D513B5D74
:102520003E513C5904E33D513B5F3E513C5BD890EA
:102530003E333D33D92EF1D71200FFFFFFFFF36A80
:10254000F46A06A104D00851F3260951F422FFFFD2
:10255000D89008370937D89007330633075106114A
:10256000F0E1F3CF06F1F4CF07F11200FFFFFFFF18
:10257000E8CFE1FFFFFFE1CFF6FF060EF76E0800A0
:10258000FFFFF5500BE0E1CFF6FF060EF76E0800F7
:10259000FFFFF550D0EC12F0E12AECD71200FFFF5C
:1025A000FFFFE8CFD9FF3A280F0B3C18FCE0F29E62
:1025B0003A50140FE96EEA6AD9CFEFFF3A280F0BB1
:1025C0003A6E9D88F28E1200FFFFFFFF948C828E80
:1025D000AC841F0EAF6EAC9CAB9CAC98AB8EAB8842
:1025E0009D98AC8AF28C3C6A3A6A3E6A3B6A120059
:1025F000FFFFFFFF01EE4DF0EE50EE10EE10EE107B
:1026000002E0800E501B1200FFFFFFFFE8CFE1FF4A
:10261000E150D0EF12F0FFFFFFFF1200FFFFFFFFBE
:102620001200FFFFFFFF1200FFFFFFFF1200FFFF7E
:020000040030CA
:0A000000FF260A0EFF0181FF0FC06A
:00000001FF
