:0600000000F04EEF00F0DD
:10000800FFFF73829EA242D0000E0001CF27D02BA3
:10001800D123D223D251D11105E1880ECF5D130E21
:10002800D05933E3880ECF5F130ED05B000ED15B3F
:10003800D25BA44BA52BA24BA32B8B94D6C001F06B
:10004800D7C002F0046A060E036E3EEC10F00150B1
:10005800A25D0250A35903E2086A082A01D0086A7F
:10006800FFFFD8900836D89008348B12E80E0001AC
:10007800A45D030EA55909E3992B000E9A239B232F
:100088009C23E80EA45F030EA55B9E92FFFF73926C
:080098001100FFFFE6EF0FF07D
:100600000000803F72313FFE753E58633D951D3CB2
:10061000C5AE3A79213994803793A7355615340001
:10062000000000803FF0FFBEE2A93E8376BEAE2B05
:100630003E3CC3BDD2133D78D3BB706C656173651E
:1006400020776169742E2E2E00496E64756374697B
:1006500076697479200043616C6962726174696EB5
:100660006700436170616369747920004C432D6DAC
:1006700065746572200020202020202000467265CD
:10068000713D005243343D002D2A2D006D46006E11
:1006900046007046007546006D48006E480075487B
:1006A0000000FFFF000E0D6A63EC11F0490E0E6EA4
:1006B00080EC11F0FEEC09F03BC0C4F03CC0C5F08A
:1006C000C4C040F0C5C041F0FFEC11F040C06AF07A
:1006D00041C06BF042C06CF06FC009F070C00AF00E
:1006E00071C00BF06AC00CF06BC00DF06CC00EF066
:1006F000B5EC0FF006E26FC06AF070C06BF071C02D
:100700006CF09DC033F09EC034F09FC035F09DC0AA
:1007100030F09EC031F09FC032F046EC11F030C096
:10072000AEF031C0AFF032C0B0F0AEC033F0AFC009
:1007300034F0B0C035F06FC024F070C025F071C047
:1007400026F06FC021F070C022F071C023F06CEC75
:100750000BF021C030F022C031F023C032F046EC63
:1007600011F030C0BBF031C0BCF032C0BDF06AC087
:1007700024F06BC025F06CC026F06AC021F06BC07D
:1007800022F06CC023F06CEC0BF021C033F022C0DF
:1007900034F023C035F06FC024F070C025F071C074
:1007A00026F06FC021F070C022F071C023F06CEC15
:1007B0000BF021C030F022C031F023C032F046EC03
:1007C00011F030C0BEF031C0BFF032C0C0F0BBC0CD
:1007D00024F0BCC025F0BDC026F0BEC021F0BFC0D3
:1007E00022F0C0C023F06CEC0BF021C0C1F022C09D
:1007F000C2F023C0C3F0C1C021F0C2C022F0C3C008
:1008000023F0400E246E1C0E256E460E266E6CECF8
:100810000BF021C0A8F022C0A9F023C0AAF06FC03D
:1008200024F070C025F071C026F06FC021F070C0B8
:1008300022F071C023F06CEC0BF021C0B1F022C0AB
:10084000B2F023C0B3F09DC024F09EC025F09FC03D
:1008500026F0B1C021F0B2C022F0B3C023F06CEC9E
:100860000BF021C0BBF022C0BCF023C0BDF09DC086
:1008700024F09EC025F09FC026F0BBC021F0BCC074
:1008800022F0BDC023F06CEC0BF021C0BEF022C002
:10089000BFF023C0C0F06AC024F06BC025F06CC06C
:1008A00026F0BEC021F0BFC022F0C0C023F06CEC27
:1008B0000BF021C0C1F022C0C2F023C0C3F06AC057
:1008C00024F06BC025F06CC026F0C1C021F0C2C07E
:1008D00022F0C3C023F06CEC0BF021C0B4F022C0B6
:1008E000B5F023C0B6F0D3C024F0D4C025F0D5C0F5
:1008F00026F0B4C021F0B5C022F0B6C023F06CECF5
:100900000BF021C0B7F022C0B8F023C0B9F0B7C0D7
:1009100021F0B8C022F0B9C023F0EA0E246E1D0EFB
:10092000256E420E266E6CEC0BF021C0ABF022C09F
:10093000ACF023C0ADF0ABC014F0ACC015F0ADC04E
:1009400016F0A8C011F0A9C012F0AAC013F014EC60
:100950000DF011C021F012C022F013C023F0600E80
:10096000246E630E256E580E266E6CEC0BF021C0C3
:10097000C6F022C0C7F023C0C8F0C00E096E790EC1
:100980000A6E440E0B6EC6C00CF0C7C00DF0C8C096
:100990000EF0B5EC0FF060E2E60E096E730E0A6E13
:1009A000490E0B6EC6C00CF0C7C00DF0C8C00EF0EB
:1009B000B5EC0FF03CE22E0E096E6E0E0A6E4E0E76
:1009C0000B6EC6C00CF0C7C00DF0C8C00EF0B5EC81
:1009D0000FF017E2C6C011F0C7C012F0C8C013F084
:1009E0006B0E146E6E0E156E4E0E166E14EC0DF030
:1009F00011C0C6F012C0C7F013C0C8F00001BA6B36
:100A00002FD0C6C011F0C7C012F0C8C013F0240E1A
:100A1000146E740E156E490E166E14EC0DF011C0A6
:100A2000C6F012C0C7F013C0C8F0010E16D0C6C081
:100A300011F0C7C012F0C8C013F0146A7A0E156E18
:100A4000440E166E14EC0DF011C0C6F012C0C7F0C3
:100A500013C0C8F0020E01D0030EFFFF0001BA6FF1
:100A6000FFFFC6C021F0C7C022F0C8C023F0246A2F
:100A7000C80E256E420E266E6CEC0BF021C0C6F03F
:100A800022C0C7F023C0C8F0C6C045F0C7C046F0BA
:100A9000C8C047F0AEEC0CF045C0C4F046C0C5F08D
:100AA000C4C03BF0C5C03CF045EC0FF00001BA51AA
:100AB00013EF12F0FFFFFFFF000E0D6A63EC11F061
:100AC000620E0E6E80EC11F0FEEC09F03BC05EF0A1
:100AD0003CC05FF05EC040F05FC041F0FFEC11F041
:100AE00040C06AF041C06BF042C06CF06FC009F0CA
:100AF00070C00AF071C00BF06AC00CF06BC00DF052
:100B00006CC00EF0B5EC0FF006E26FC06AF070C07A
:100B10006BF071C06CF06AC024F06BC025F06CC043
:100B200026F06AC021F06BC022F06CC023F06CECA0
:100B30000BF021C033F022C034F023C035F06FC079
:100B400024F070C025F071C026F06FC021F070C095
:100B500022F071C023F06CEC0BF021C030F022C009
:100B600031F023C032F046EC11F030C054F031C007
:100B700055F032C056F09DC024F09EC025F09FC0B5
:100B800026F054C021F055C022F056C023F06CEC82
:100B90000BF021C057F022C058F023C059F09DC07F
:100BA00024F09EC025F09FC026F057C021F058C009
:100BB00022F059C023F06CEC0BF021C05AF022C097
:100BC0005BF023C05CF05AC021F05BC022F05CC037
:100BD00023F0D3C024F0D4C025F0D5C026F06CECAF
:100BE0000BF021C060F022C061F023C062F0C00EA3
:100BF000096E790E0A6E440E0B6E60C00CF061C077
:100C00000DF062C00EF0B5EC0FF05FE2E60E096E7B
:100C1000730E0A6E490E0B6E60C00CF061C00DF0D1
:100C200062C00EF0B5EC0FF03BE22E0E096E6E0EB8
:100C30000A6E4E0E0B6E60C00CF061C00DF062C00B
:100C40000EF0B5EC0FF016E260C011F061C012F0CA
:100C500062C013F06B0E146E6E0E156E4E0E166E95
:100C600014EC0DF011C060F012C061F013C062F01E
:100C7000040E2CD060C011F061C012F062C013F0FD
:100C8000240E146E740E156E490E166E14EC0DF0D3
:100C900011C060F012C061F013C062F0050E16D0F2
:100CA00060C011F061C012F062C013F0146A7A0ED5
:100CB000156E440E166E14EC0DF011C060F012C0EB
:100CC00061F013C062F0060E01D0070EFFFF5D6EEB
:100CD00060C021F061C022F062C023F0246AC80E17
:100CE000256E420E266E6CEC0BF021C060F022C027
:100CF00061F023C062F060C045F061C046F062C0A0
:100D000047F0AEEC0CF045C05EF046C05FF05EC050
:100D10003BF05FC03CF045EC0FF05D5013EF12F07C
:100D2000FFFFFFFF66506710681005E1666A800EDE
:100D3000676E3F0E12D0720E096E310E0A6E440EAF
:100D40000B6E66C00CF067C00DF068C00EF0B5EC1D
:100D50000FF006E266687F0E676EFFFF686EB6D022
:100D600066C009F067C00AF068C00BF0490E0C6E4F
:100D70003A0E0D6EC40E0E6EB5EC0FF001E287D088
:100D8000010E68AE000E0001AD6FAD510EE066C001
:100D900009F067C00AF068C00BF05CEC12F009C003
:100DA00066F00AC067F00BC068F066C021F067C04B
:100DB00022F068C023F0AA0E246EB80E256E3F0EF6
:100DC000266E6CEC0BF021C066F022C067F023C0E9
:100DD00068F066C05EF067C05FF068C060F0DCEC91
:100DE0000BF05EC0A8F05FC0A9F060C0AAF0A8C078
:100DF00045F0A9C046F0AAC047F0AEEC0CF045C0E3
:100E0000ABF046C0ACF066C030F067C031F068C0EF
:100E100032F0ABC011F0ACC012F028EC11F011C0F0
:100E200033F012C034F013C035F046EC11F030C08E
:100E300066F031C067F032C068F066C030F067C05D
:100E400031F068C032F0010E336E356A090E346E2F
:100E5000CDEC0DF030C03AF031C03BF032C03CF088
:100E6000ABC03DF0ACC03EF06FEC0EF03AC066F0A7
:100E70003BC067F03CC068F00001AD5121E066283E
:100E80000BE17F0E671808E17F0E681805E1FFFF90
:100E9000666A676A686A1AD0116A800E126E3F0E1F
:100EA000136E66C014F067C015F068C016F014EC3D
:100EB0000DF011C066F012C067F013C068F006D0E4
:100EC00066C066F067C067F068C068F0FFFF120098
:100ED000FFFFFFFF17C01BF01C6A1D6A16341B368C
:100EE00001E31C801B50206E1AC01BF01C6A1D6A97
:100EF00019341B3601E31C801B501F6E205009E083
:100F00001F50205C0DE220501F5C1B6E180E1B64EE
:100F100007D018C015F019C016F01AC017F08FD0FE
:100F2000FFFF1F5009E020501F5C0DE21F50205CA6
:100F30001B6E180E1B6407D015C015F016C016F0F6
:100F400017C017F07CD0FFFF060E1E6E17BE1E8E58
:100F50001ABE1E8C168E176A198E1A6A1F50205CD4
:100F60001AE2FFFFD890183619361A361F0620509D
:100F70001F180DE01E061EC01BF0070E1B1607E013
:100F8000F0D7FFFFD890173216321532202A1F50A3
:100F900020181CE0F6D720501F5C18E2FFFFD89005
:100FA000153616361736200620501F180CE01E0680
:100FB0001EC01BF0070E1B1606E0F0D7D8901A32A1
:100FC000193218321F2A1F502018F8E11EAE07D020
:100FD000151E161E171E152A000E16221722FFFFB9
:100FE0001EAC07D0181E191E1A1E182A000E192230
:100FF0001A22FFFF1E6A1550182616501922175084
:101000001A221AAE09D0181E191E1A1E182A000E0E
:1010100019221A22010E1E6EFFFF18C009F019C016
:101020000AF01AC00BF020C00CF01EC00DF0BEEC90
:101030000EF009C015F00AC016F00BC017F0FFFF44
:101040001200FFFFFFFFBFC03FF0C0C040F0C1C0B3
:1010500041F0DFEC10F03FC045F040C046F041C029
:1010600047F0AEEC0CF045C0CDF046C0CEF07ED0DF
:10107000CDC011F0CEC012F028EC11F011C0C2F0BA
:1010800012C0C3F013C0C4F00001AE6B200EAF6FEE
:10109000410EB06FC2C0B1F0C3C0B2F0C4C0B3F073
:1010A000C7EC08F0AEC0C8F0AFC0C9F0B0C0CAF01D
:1010B000C8C014F0C9C015F0CAC016F0BFC011F006
:1010C000C0C012F0C1C013F014EC0DF011C05EF0FE
:1010D00012C05FF013C060F0DCEC0BF05EC0C5F036
:1010E0005FC0C6F060C0C7F0C5C045F0C6C046F0DE
:1010F000C7C047F0AEEC0CF045C0CBF046C0CCF01A
:10110000BFC030F0C0C031F0C1C032F0C8C024F060
:10111000C9C025F0CAC026F0CBC011F0CCC012F077
:1011200028EC11F011C021F012C022F013C023F0FE
:101130006CEC0BF021C033F022C034F023C035F04A
:1011400046EC11F030C0BFF031C0C0F032C0C1F089
:101150000001CB51300FB8EC10F0CD51CE1103E1AE
:101160002E0EB8EC10F0CD07D8A0CE07FFFF096A0D
:101170000A6A380E0B6EBFC00CF0C0C00DF0C1C0C3
:101180000EF0B5EC0FF001E273D71200FFFFFFFF86
:10119000BA6BAE51AF11B0110DE1096A0A6A0B6A60
:1011A000B1C00CF0B2C00DF0B3C00EF0B5EC0FF052
:1011B000000130D0B151B211B31106E1AE6B800E17
:1011C000AF6F3F0EB06F85D0B0AF3AD0B1C045F031
:1011D000B2C046F0B3C047F0AEEC0CF045C0BBF077
:1011E00046C0BCF047C0BDF048C0BEF0BBC011F067
:1011F000BCC012F0BDC013F0BEC014F068EC10F01B
:101200000001B151111806E1B251121803E1B351B6
:10121000131805E0FFFFAE6BAF6BB06B5AD0BB513C
:10122000010BBA6FAEC009F0AFC00AF0B0C00BF04E
:101230005CEC12F009C0AEF00AC0AFF00BC0B0F029
:10124000FFFFAEC03AF0AFC03BF0B0C03CF0F6ECF0
:101250000AF03AC0B4F03BC0B5F03CC0B6F0B4C040
:1012600021F0B5C022F0B6C023F0B1C024F0B2C066
:1012700025F0B3C026F06CEC0BF021C0B7F022C013
:10128000B8F023C0B9F0B7C066F0B8C067F0B9C015
:1012900068F091EC06F066C0AEF067C0AFF068C0D1
:1012A000B0F00001BA510FE0AEC009F0AFC00AF0D3
:1012B000B0C00BF05CEC12F009C0AEF00AC0AFF0A9
:1012C0000BC0B0F006D0AEC0AEF0AFC0AFF0B0C053
:1012D000B0F0FFFF1200FFFFFFFF0001996B9A6B58
:1012E0009B6B9C6B99C095F09AC096F09BC097F051
:1012F0009CC098F095C0A4F096C0A5F0A4C0CFF013
:10130000A5C0D0F0D16BD26B7268D36B7A0ED46F5C
:10131000440ED56FA26BA36B010ED76FF40ED66F80
:10132000CF0E926E0F0E9316680E20EC0EF0840E08
:101330009CEC11F0F19EB30E946E828694948B9483
:101340008B84800E9CEC11F0010ED1EC11F0010E9B
:101350000D6E020E80EC0AF09488949A8B9A320EED
:101360009BEC12F08B8A320E9BEC12F08B9A320EB1
:101370009BEC12F08B8A320E9BEC12F08B9AC00E13
:10138000F212000E0D6A63EC11F06C0E0D6EB7ECEC
:1013900011F0D3C0BFF0D4C0C0F0D5C0C1F022EC72
:1013A00008F0050E9BEC12F047EC0CF06BEC12F021
:1013B000FFFF010E82A8000E696E721802E069C07C
:1013C00072F00001D651A25DD751A35902E3A26B7E
:1013D000A36B725003E05BEC05F002D051EC03F01C
:1013E000FFFF010EEAEC11F01E0E9BEC12F0000E56
:1013F000EAEC11F0140E9BEC12F0DAD7FFFFF29436
:101400009298620E3D6E760EFFFFE82EFDD73D2EC0
:10141000FBD700D0D66AD76A310E3D6EBB0EFFFFF8
:10142000E82EFDD73D2EFBD7310E3D6EBB0EFFFFE4
:10143000E82EFDD73D2EFBD7310E3D6EBB0EFFFFD4
:10144000E82EFDD73D2EFBD7310E3D6EBB0EFFFFC4
:10145000E82EFDD73D2EFBD7310E3D6EBB0EFFFFB4
:10146000E82EFDD73D2EFBD7310E3D6EBB0EFFFFA4
:10147000E82EFDD73D2EFBD7310E3D6EBB0EFFFF94
:10148000E82EFDD73D2EFBD7310E3D6EBB0EFFFF84
:10149000E82EFDD73D2EFBD7310E3D6EBB0EFFFF74
:1014A000E82EFDD73D2EFBD7310E3D6EBB0EFFFF64
:1014B000E82EFDD73D2EFBD7928891EC10F009C0A5
:1014C0003EF00AC03FF0010E0D6E000E63EC11F00D
:1014D00082EC12F07D0E0C6E26EC12F03EC010F085
:1014E0003FC011F00A0E126E050E136E73EC0DF074
:1014F00098EC12F03EC03BF03FC03CF01200FFFF02
:10150000FFFF0F6E010E0F6401D06E86FFFF0FC04C
:10151000A6F00D5003E00F0401E16E844A0E0E6E3A
:10152000180EFFFFE82EFDD70E2EFBD700D08A94B1
:101530008A966EB81FD0030E39EC12F0190E0E6E9B
:101540005D0EFFFFE82EFDD70E2EFBD7030E39EC04
:1015500012F0BB0EFFFFE82EFDD700D0030E39ECD2
:1015600012F0BB0EFFFFE82EFDD700D0020E39ECC3
:1015700012F01DD0FFFF6E5020098AEC12F0190EF8
:101580000E6E5D0EFFFFE82EFDD70E2EFBD76E50C0
:1015900020098AEC12F0190E0E6E5D0EFFFFE82E88
:1015A000FDD70E2EFBD76E5020098AEC12F0FFFFFC
:1015B0006E5020098AEC12F0040E6D6E6D50080911
:1015C0008AEC12F0010E8AEC12F00A0E0E6EBE0EBC
:1015D000FFFFE82EFDD70E2EFBD700D0020E000134
:1015E000A76FA75104098AEF12F0FFFFFFFF3CBE6F
:1015F00004D03A503B103C1005E1FFFF3A6A3B6AC9
:101600003C6A67D0246A256A400E266E3D0E0C6E39
:101610003AC009F03BC00AF03CC00BF00AEC0FF0F6
:1016200009C021F00AC022F00BC023F06CEC0BF0D3
:1016300021C015F022C016F023C017F0186A800EE2
:10164000196EBF0E1A6E69EC07F015C03AF016C09D
:101650003BF017C03CF03D06D8A03E063AC030F043
:101660003BC031F03CC032F01F0E336E356A080EBD
:10167000346ECDEC0DF030C03AF031C03BF032C0EA
:101680003CF0720E246E310E256E3F0E266E3DC06C
:1016900011F03EC012F028EC11F011C021F012C080
:1016A00022F013C023F06CEC0BF021C015F022C027
:1016B00016F023C017F03AC018F03BC019F03CC038
:1016C0001AF069EC07F015C03AF016C03BF017C0ED
:1016D0003CF0FFFF1200FFFFFFFF23C027F0286A46
:1016E000296A2234273601E3288027502A6E2A509F
:1016F00001E10CD026C027F0286A296A2534273654
:1017000001E3288027502F6E2F5005E1FFFF216A4B
:10171000226A236A4ED02F507B0F2A2623C02FF037
:1017200026502F1A800E2F16228E258E000E26167A
:101730002B6A2C6A2D6A070E2E6EFFFF21A006D0A1
:1017400024502B2625502C2226502D22FFFFD890E6
:10175000233222322132D8902436253626362E2EB8
:10176000ECD7090E2E6EFFFF21A006D024502B26A9
:1017700025502C2226502D22FFFFD89023322232D2
:101780002132D8902D322C322B322E2EECD72BC07A
:1017900009F02CC00AF02DC00BF02AC00CF02FC0AD
:1017A0000DF0BEEC0EF009C021F00AC022F00BC013
:1017B00023F0FFFF1200FFFFFFFF5EC009F05FC0D4
:1017C0000AF060C00BF0640E0C6E0AEC0FF065AE10
:1017D0000DD060AE06D05E6A800E5F6EBF0E606E8A
:1017E00053D0FFFF5E6A5F6A606A4ED0FFFF6550AC
:1017F00003E1150E645C07E35EC05EF05FC05FF05E
:1018000060C060F041D05EC045F05FC046F060C08F
:1018100047F0AEEC0CF045C054F046C055F047C060
:1018200056F048C057F07FEC0FF054C061F055C03F
:1018300062F056C063F05EC009F05FC00AF060C09D
:101840000BF061C00CF062C00DF063C00EF0B5EC9F
:101850000FF014E261C015F062C016F063C017F01B
:10186000186A800E196EBF0E1A6E69EC07F015C06B
:101870005EF016C05FF017C060F006D061C05EF089
:1018800062C05FF063C060F0FFFF1200FFFFFFFF68
:101890006BEC12F0000E0D6A63EC11F0560E0E6E3A
:1018A00080EC11F0010E0D6E000E63EC11F03A0E9B
:1018B0000E6E80EC11F08B9AFEEC09F03BC040F00C
:1018C0003CC041F0FFEC11F040C06FF041C070F03F
:1018D00042C071F0320E9BEC12F0FEEC09F03BC0FE
:1018E00040F03CC041F0FFEC11F040C06FF041C04F
:1018F00070F042C071F08B8AFEEC09F03BC040F002
:101900003CC041F0FFEC11F040C09DF041C09EF0A2
:1019100042C09FF0320E9BEC12F0FEEC09F03BC08F
:1019200040F03CC041F0FFEC11F040C09DF041C0E0
:101930009EF042C09FF08B9A0D6A0B0E63EC11F083
:10194000436AFFFF3D0E7AEC12F01C0E9BEC12F086
:10195000432A050E4364F5D7050CFFFFFFFF47C080
:1019600049F04A6A4B6A4634493601E34A80495095
:10197000536E535006E1FFFF456A466A476A486A5C
:1019800050D0170E496E45C04AF046C04BF047C0D4
:101990004CF049284D6E05D0FFFFD8904C324B32A9
:1019A0004A32FFFF4D2EF8D74A504E6E468E476A98
:1019B00045504F6E4650506E4750516E526A8E0ED3
:1019C000535E53AE0DD05350800A8F0FD4E3FFFF08
:1019D000D8905232513250324F32533EF8D70ED057
:1019E000FFFF170E536407D0C6D7D8904F36503636
:1019F000513652365306FFFF5350F7E1FFFF4E506A
:101A000008E0521E511E501E4F6C000E50225122F3
:101A100052224FC045F050C046F051C047F052C06E
:101A200048F0FFFF1200FFFFFFFF13C017F0186A16
:101A3000196A1234173601E3188017501E6E1E50B3
:101A400001E10CD016C017F0186A196A1534173660
:101A500001E3188017501F6E1F5005E1FFFF116A48
:101A6000126A136A3DD01B6A1C6A1D6A1F50890FD7
:101A70001E5E13C01FF016501F1A800E1F16128E06
:101A8000136A158E166A180E1A6EFFFFD8901B3651
:101A90001C361D361450115C155012581650135830
:101AA00007E31450115E1550125A1650135A1B803A
:101AB000D8901136123613361A2EE7D71BC009F00C
:101AC0001CC00AF01DC00BF01EC00CF01FC00DF0B2
:101AD000BEEC0EF009C011F00AC012F00BC013F0FA
:101AE000FFFF1200FFFFFFFF3A6A200E386E13AEB1
:101AF00003D0136C300E386EFFFF10C009F011C018
:101B00000AF012C00BF00C6A04EC11F00950396EA7
:101B1000090E396402D0370E02D0FFFF300EFFFFEE
:101B20003924366E376A000E37223A50160FD96EB6
:101B3000DA6A36C0DFFF3A2A10C009F011C00AF095
:101B400012C00BF00C6A14EC10F009C010F00AC0BF
:101B500011F01050111004E0CFD73850B8EC10F04D
:101B600013061328146E3A50800A156E1450800A1A
:101B7000155CF3E3FFFF3A50800A7F0F0CE33AC095
:101B800014F014061450160FD96EDA6ADF50B8EC50
:101B900010F03A06EFD71200FFFFFFFF3450030D9D
:101BA0003350F324366E36C0F6FF0900FFFFF5CF41
:101BB00037F00900FFFFF5CF38F00A00FFFFF5CF3F
:101BC00039F032D037C024F038C025F039C026F0C3
:101BD00030C021F031C022F032C023F06CEC0BF0A9
:101BE00021C015F022C016F023C017F03406D8A08B
:101BF00035063450030D3350F324366E36C0F6FFED
:101C00000900FFFFF5CF18F00900FFFFF5CF19F02D
:101C10000A00FFFFF5CF1AF069EC07F015C037F0A6
:101C200016C038F017C039F0FFFF34503510CAE144
:101C300037C030F038C031F039C032F01200FFFF49
:101C4000FFFF136E13500F0B126ED66AD76A13BCC8
:101C500003D00A6A0B6A04D0FFFF0B6A400E0A6EBB
:101C6000FFFF0A50D51213BA03D00C6A0D6A04D0D4
:101C7000FFFF0D6A200E0C6EFFFF0C50D51213B83B
:101C800003D00E6A0F6A04D0FFFF0F6A100E0E6EAB
:101C9000FFFF0E50D512125003E11068116803D0F7
:101CA0001168F70E106EFFFF1050D516F80ED516FE
:101CB000125003E01204070BD512F29413AE03D0B6
:101CC000096A092A02D0FFFF096AFFFF093A09469B
:101CD000F2500918DF0B0918F26E1200FFFFFFFF28
:101CE0003A503B103C1001E113D03C507F0B3F6E4B
:101CF000406AD8903F3640363F503D2640503E2205
:101D0000010E3BAE000E3D26000E3E223EAE05D03B
:101D1000FFFF3A6A3B6A3C6A2ED0FFFF3EBE10D0FE
:101D20003E040EE33CAE06D03A687F0E3B6EFF0EDB
:101D30003C6821D0FFFF3A687F0E3B6E3C6E1BD0A3
:101D4000FFFF3E343E30406E3D303F6E3C18800B0E
:101D50003F183C6E3DC03FF0010E3F163F323F3210
:101D60003B503F187F0B3F183B6E3AC03AF03BC0E8
:101D70003BF03CC03CF0FFFF1200FFFFFFFF0C50A8
:101D800004E009500A100B100AE1096A0A6A0B6A9A
:101D90003ED0FFFF0C2AD8900B320A3209320E6A6D
:101DA0000F6AFE0E0B14106E0E500F1010100BE089
:101DB000F0D7FFFF0C2A092A000E0A220B22D89026
:101DC0000B320A3209320E6A0F6A0B50106E0E5037
:101DD0000F10101007E0EDD7FFFF0C06D890093662
:101DE0000A360B360ABE03D0020E0C60F5D7FFFF91
:101DF0000CA00A9ED8900C320C500B120D5001E032
:101E00000B8E09C009F00AC00AF00BC00BF0FFFFEF
:101E10001200FFFFFFFF09500A100B100AE10C50DF
:101E2000D96EDA6A000EDE6ADD6A096A0A6A0B6A2E
:101E300029D00B507F0B0D6E0E6AD8900D360E36E2
:101E40000C50D96EDA6A0DC0DEFF0EC0DDFF0C50FB
:101E5000D96EDA6A010E0AAE000EDE12000EDD1235
:101E60000C50D96EDA6A820EDE26FF0EDD220B5090
:101E7000800B3F090B6E0A9E09C009F00AC00AF0E8
:101E80000BC00BF0FFFF1200FFFFFFFF0D6A090EF2
:101E900063EC11F0770E0D6EB7EC11F00D6A090EC0
:101EA00063EC11F03BC009F03CC00AF00C6A640E10
:101EB0000B6E14EC10F009C03DF00AC03EF03DC0BE
:101EC00010F03EC011F00A0E126E136A73EC0DF0A2
:101ED0003BC009F03CC00AF00C6A640E0B6E04ECC7
:101EE00011F009C03FF00AC040F03FC010F040C000
:101EF00011F00A0E126E136A73EF0DF0FFFFFFFF71
:101F00005D6A8E0E5C6E57AE11D0571E561E551E62
:101F1000546C000E552256225722010E5D6E06D0DB
:101F2000D89057325632553254325C2AFFFF586AE5
:101F3000596A5A6A57505B6E585059105A105B10C4
:101F4000EFE154C009F055C00AF056C00BF05CC078
:101F50000CF05DC00DF0BEEC0EF009C054F00AC0EC
:101F600055F00BC056F01200FFFFFFFF0BAE0DD077
:101F70000F6A106A800E116E09500F5C096E0A50CC
:101F800010580A6E0B5011580B6EFFFF0EAE0DD09D
:101F90000F6A106A800E116E0C500F5C0C6E0D50A3
:101FA00010580D6E0E5011580E6EFFFF800E0B1A5A
:101FB0000E1A0C50095C0D500A580E500B5802E2D4
:101FC000D89001D0D880FFFF1200FFFF3C0EF66EC4
:101FD000250EF76E000EF86E00EED8F010EE04F04D
:101FE0000900F5CFEEFFE550E150FAE1420EF66E42
:101FF000250EF76E000EF86E0900F5CF72F000EEB8
:1020000080F0280EEE6AE806FDE100EE6AF0080EA8
:10201000EE6AE806FDE173907392000EF86E060E0C
:10202000F76E00016CEF09F0FFFF0E6A0F6A0B50AC
:102030000C101EE0010E0D6E05D0FFFFD8900B3680
:102040000C360D2AFFFF0CAEF8D7FFFFD8900E36E6
:102050000F360B50095C0C500A5805E30B50095E13
:102060000C500A5A0E80D8900C320B320D2EEDD740
:102070000EC009F00FC00AF01200FFFFFFFF056A53
:10208000066A035004101EE0010E076E05D0FFFF24
:10209000D89003360436072AFFFF04AEF8D7FFFFB7
:1020A000D890053606360350015C0450025805E30B
:1020B0000350015E0450025A0580D8900432033266
:1020C000072EEDD705C001F006C002F01200FFFF99
:1020D000FFFF8E0E196E06D0D890143213321232D2
:1020E0001132192AFFFF156A166A176A1450186E02
:1020F0001550161017101810EFE111C009F012C09A
:102100000AF013C00BF019C00CF0000E0D6EBEECFF
:102110000EF009C011F00AC012F00BC013F012004B
:10212000FFFFFFFFD6CF0DF00E6A0F6AD58AD58864
:1021300000F000F0D59800F000F00E4A0F2A0D5084
:10214000D618D71002E10F04F2E30D500C6E0B6AA3
:102150000E500B5E0F500C5A000E0B240E6E010E2B
:102160000C200F6E0EC009F00FC00AF01200FFFF26
:10217000FFFF0B6E100E096E0A6A000190390F0BFB
:10218000095E000E0A5A0ABE17D00A5002E109047D
:1021900013E390390F0B096E0950800FD96EDA6A7C
:1021A0000BC0DFFF90390F0B096E092A093A9051D5
:1021B00009180F0B0918906FFFFF1200FFFFFFFFB8
:1021C0003FC03AF040C03BF041C03CF0F6EC0AF0B2
:1021D0003AC042F03BC043F03CC044F042C021F062
:1021E00043C022F044C023F05C0E246EDE0E256E48
:1021F0003E0E266E6CEC0BF021C03FF022C040F08A
:1022000023C041F01200FFFFFFFF0B500C101AE03B
:10221000010E0D6E05D0FFFFD8900B360C360D2A3F
:10222000FFFF0CAEF8D7FFFF0B50095C0C500A58AB
:1022300004E30B50095E0C500A5AD8900C320B3252
:102240000D2EF1D709C009F00AC00AF01200FFFFF5
:10225000FFFF146A12AE06D0116C121ED8B0122AFB
:10226000010E146EFFFF11C009F012C00AF00B6AD4
:102270008E0E0C6E14C00DF0BEEC0EF009C011F005
:102280000AC012F00BC013F01200FFFFFFFF335023
:102290003410351002E0800E351A30C015F031C010
:1022A00016F032C017F033C018F034C019F035C042
:1022B0001AF069EC07F015C030F016C031F017C005
:1022C00032F01200FFFFFFFF0E6ED8C00FF0D9C032
:1022D00010F0DAC011F0DBC012F00001A60506E133
:1022E000140E106E280E116E3C0E126E0D500F0F54
:1022F000D96EDA6ADF500E2480098AEF12F0FFFFF0
:10230000FFFF106A116A0CD00E5010240F6E0FC020
:10231000F6FF0800FFFFF55092EC12F0104A112A68
:10232000FFFF0E5010240F6E0FC0F6FF0800FFFFD6
:10233000F550EAE11200FFFFFFFF0C6E0C500F0B8F
:102340000A6E800ECA16CA500A50030BCA12CC6A13
:10235000CA849E920CAE03D0096A092A02D0FFFFFC
:10236000096AFFFFD89009349D6E1200FFFFFFFF3E
:102370000F6A0BD00D500F240E6E0EC0F6FF080032
:10238000FFFFF5507AEC12F00F2AFFFF0D500F24DB
:102390000E6E0EC0F6FF0800FFFFF550EBE11200D5
:1023A000FFFFFFFF096E6D6A095004E10B6A100E12
:1023B0000A6E02D00A6A0B6AFFFF0AC06EF00001C3
:1023C000A66BA76B93948A9493968A960F0E8A169F
:1023D0000F0CFFFFFFFF136E010E0D6E000E63EC7E
:1023E00011F0135005E0880E0D6EB7EC11F004D01B
:1023F000790E0D6EB7EC11F0FFFF1200FFFFFFFF2B
:1024000040C009F041C00AF00B6A8E0E0C6E000E3F
:102410000D6EBEEC0EF009C040F00AC041F00BC0DA
:1024200042F01200FFFFFFFF0D6A0E0E63EC11F089
:102430000D6A000190390F0B136E90510F0B146E43
:102440001350145C100F63EF11F0FFFFFFFF08D073
:102450000CC0F6FF0800FFFFF550B8EC10F00C2A96
:10246000FFFF0CC0F6FF0800FFFFF550F1E112007E
:10247000FFFFFFFF096E0F0E8A160938F00B8A1254
:102480008A86050EFFFFE82EFDD78A967D0EFFFF98
:10249000E82EFDD71200FFFFFFFF0B6E0A5002E08F
:1024A0008A8401D08A94FFFF0B380F0B39EC12F0AD
:1024B0000B5039EF12F0FFFFFFFF09500A100B100D
:1024C00002E0800E0B1A09C009F00AC00AF00BC026
:1024D0000BF01200FFFFFFFF010E8AEC12F00A0E54
:1024E0000D6EBE0EFFFFE82EFDD70D2EFBD700D0E0
:1024F0001200FFFFFFFF0C6E010E0A6E0C504CEF36
:1025000012F0FFFFFFFFF00E000190170F0E901763
:102510000F0CFFFFFFFF0C6E000E0A6E0C504CEF0D
:1025200012F0FFFFFFFF0D6E0D507AEF12F0FFFF6C
:10253000FFFF1200FFFFFFFF1200FFFF00401454D7
:03254000FFFFFF9B
:020000040030CA
:0E000000FF260A0EFF0180FF0FC00FE00F4029
:00000001FF
