:0400000006EF00F017
:1000080028EF0FF000EE33F0A20EF66E060EF76E34
:1000180010EE05F01AEC00F000EE00F0330EEE6A78
:10002800E806FDE1000EF86E29EF09F00900F5CFAA
:0E003800EEFFE550E150FAE1E250F8E112006F
:100600000000803F72313FFE753E58633D951D3CB2
:10061000C5AE3A79213994803793A7355615340001
:10062000000000803FF0FFBEE2A93E8376BEAE2B05
:100630003E3CC3BDD2133D78D3BB706C656173651E
:1006400020776169742E2E2E00496E64756374697B
:1006500076697479200043616C6962726174696EB5
:1006600067004C432D6D65746572200043617061B5
:1006700063697479200020202020202000467265C4
:10068000713D005243343D002D2A2D006D46006E11
:1006900046007046007546006D48006E480075487B
:1006A000000000401454FF00000E01011D6BF8EC27
:1006B0000FF0490E3CEC11F0A6EC09F018C10DF159
:1006C00019C10EF10DC118F10EC119F1A4EC10F011
:1006D00018C11BF019C11CF01AC11DF01BC02FF16D
:1006E0001CC030F11DC031F118C02CF119C02DF122
:1006F0001AC02EF156EC0FF006E218C01BF019C01C
:100700001CF01AC01DF018C034F103EC08F055ECD1
:100710000DF031C100F132C101F133C102F118C055
:1007200034F103EC08F055EC0DF031C103F132C1A6
:1007300004F133C105F11BC034F11CC035F11DC0FB
:1007400036F11BC031F11CC032F11DC033F155EC44
:100750000DF031C106F132C107F133C108F106C114
:100760002CF107C12DF108C12EF103C129F104C1FB
:100770002AF105C12BF1F0EC10F029C109F12AC1D1
:100780000AF12BC10BF11EC02CF11FC02DF120C0AE
:100790002EF11EC029F11FC02AF120C02BF1F0EC70
:1007A00010F029C12CF12AC12DF12BC12EF100C16D
:1007B00029F101C12AF102C12BF1F0EC10F029C19D
:1007C00034F12AC135F12BC136F109C131F10AC129
:1007D00032F10BC133F155EC0DF0400E346F1C0EAD
:1007E000356F460E366F55EC0DF031C112F132C146
:1007F00013F133C114F118C034F103EC08F055ECD7
:100800000DF0FCEC07F055EC0DF0FCEC07F055ECAE
:100810000DF0F5EC07F055EC0DF0F5EC07F055ECAC
:100820000DF000C034F101C035F102C036F155ECD5
:100830000DF0EA0E346F1D0E356F420E366F55EC1B
:100840000DF031C10FF132C110F133C111F10FC1FF
:1008500027F110C128F111C129F112C124F113C1EE
:1008600025F114C126F164EC0CF024C131F125C14D
:1008700032F126C133F1600E346F630E356F580EBE
:10088000366F55EC0DF031C115F132C116F133C19F
:1008900017F115C12FF116C130F117C131F1C00E9A
:1008A0002C6F790E2D6F440E2E6F56EC0FF03EE23A
:1008B00015C12FF116C130F117C131F1E60E2C6FC1
:1008C000730E2D6F490E2E6F56EC0FF025E215C1F9
:1008D0002FF116C130F117C131F12E0E2C6F6E0EB3
:1008E0002D6F4E0E2E6F56EC0FF00BE26B0E1A6F43
:1008F0006E0E1B6F4E0EEFEC07F015EC10F00C6B4C
:1009000017D0240E1A6F740E1B6F490EEFEC07F010
:1009100015EC10F0010E0BD01A6B7A0E1B6F440E03
:10092000EFEC07F015EC10F0020E01D0030E0C6F87
:10093000266BC80E276F420E286F150E246F010E0E
:10094000256F4FEC10F015C12CF116C12DF117C118
:100950002EF1A2EC0DF02CC10DF12DC10EF10DC147
:1009600018F10EC119F1C5EC0EF00C512BEF11F07E
:10097000000E01011D6BF8EC0FF06C0E3CEC11F059
:10098000A6EC09F018C104F119C105F104C118F170
:1009900005C119F1A4EC10F018C11BF019C11CF02D
:1009A0001AC11DF01BC02FF11CC030F11DC031F168
:1009B00018C02CF119C02DF11AC02EF156EC0FF011
:1009C00006E218C01BF019C01CF01AC01DF018C0B8
:1009D00034F119C035F11AC036F118C031F119C01F
:1009E00032F11AC033F155EC0DF031C100F132C1D2
:1009F00001F133C102F11BC034F11CC035F11DC03F
:100A000036F11BC031F11CC032F11DC033F155EC81
:100A10000DF031C12CF132C12DF133C12EF100C1E5
:100A200029F101C12AF102C12BF1F0EC10F029C12A
:100A300031F12AC132F12BC133F114EC08F055EC3D
:100A40000DF014EC08F055EC0DF000C034F101C0CD
:100A500035F102C036F155EC0DF031C106F132C16D
:100A600007F133C108F106C12FF107C130F108C108
:100A700031F1C00E2C6F790E2D6F440E2E6F56EC97
:100A80000FF03EE206C12FF107C130F108C131F18C
:100A9000E60E2C6F730E2D6F490E2E6F56EC0FF075
:100AA00025E206C12FF107C130F108C131F12E0E48
:100AB0002C6F6E0E2D6F4E0E2E6F56EC0FF00BE25C
:100AC0006B0E1A6F6E0E1B6F4E0E0EEC08F015ECCF
:100AD00010F0040E16D0240E1A6F740E1B6F490E00
:100AE0000EEC08F015EC10F0050E0BD01A6B7A0E18
:100AF0001B6F440E0EEC08F015EC10F0060E01D042
:100B0000070E036F266BC80E276F420E286F060E66
:100B1000246F010E256F4FEC10F006C12CF107C1B8
:100B20002DF108C12EF1A2EC0DF02CC104F12DC164
:100B300005F104C118F105C119F1C5EC0EF003511E
:100B40002BEF11F01B511C111D1106E11B6B800EC8
:100B50001C6F3F0E1D6F3F0C1BC12FF11CC130F1EC
:100B60001DC131F1720E2C6F310E2D6F440E2E6FA0
:100B700056EC0FF005E21B697F0E1C6F1D6F7F0C9A
:100B8000490E2F6F3A0E306FC40E316F1BC12CF11E
:100B90001CC12DF11DC12EF156EC0FF004E21B6BB0
:100BA0001C6B1D6B12001D51800A800F05E1000EA9
:100BB0001C5D02E1000E1B5D02E2010E01D0000E81
:100BC000216F21510EE01BC137F11CC138F11DC14D
:100BD00039F19DEC11F037C11BF138C11CF139C15D
:100BE0001DF1AA0E266FB80E276F3F0E286F1B0E41
:100BF000246F010E256F4FEC10F01BC124F11CC1B6
:100C000025F11DC126F11BEC0AF024C12CF125C1F0
:100C10002DF126C12EF1A2EC0DF02CC122F12DC137
:100C200023F122C124F123C125F190EC0EF024C15F
:100C30001EF125C11FF126C120F11EC126F11FC1E1
:100C400027F120C128F11B0E246F010E256F6CECDB
:100C500010F0090E286F296B010E276F1BC124F1BC
:100C60001CC125F11DC126F1AFEC0BF024C124F10C
:100C700025C125F126C126F122C127F123C128F182
:100C8000B6EC0CF024C11BF125C11CF126C11DF1ED
:100C9000215121E0FF0E1B197F0ED8B41C197F0EC5
:100CA000D8B41D1904E11B6B1C6B1D6B12001BC11A
:100CB00027F11CC128F11DC129F1246B800E256F7D
:100CC0003F0E266F64EC0CF024C11BF125C11CF112
:100CD00026C11DF112001200380E3E6F010E3F6F4B
:100CE000310E3C6F010E3D6F59EC0EF0D96E386736
:100CF00007D034C131F135C132F136C133F11200C0
:100D0000370E3E6F010E3F6F340E3C6F010E3D6F8C
:100D100059EC0EF0E16E37516BE0060EE96E37517B
:100D2000386122D03851375D396F190E395D08E3CB
:100D3000316B326B336B37C138F1E1CFD9FF34D02F
:100D4000D89034373537363737073751381908E0F8
:100D5000E92EF6D705D0D890333332333133382BE0
:100D600037513863F8D720D0385137191DE0375143
:100D7000385D396F190E395D04E3346B356B366BB2
:100D800013D0D890313732373337380737513819C5
:100D900008E0E92EF6D705D0D89036333533343312
:100DA000372B37513863F8D7D95007E0311F321F3E
:100DB000331F312B000E32233323E15007E0341F61
:100DC000351F361F342B000E35233623D96A345194
:100DD0003127355132233651332333AF09D0311FF8
:100DE000321F331F312B000E32233323010ED96EF5
:100DF00038C13EF1310E3C6F010E3D6FEEEC0AF052
:100E0000D95002E0800E331B120000C110F101C165
:100E100011F102C112F132EC10F010C12CF111C12C
:100E20002DF112C12EF1A2EC0DF02CC10BF12DC150
:100E30000CF100C12FF101C130F102C131F12C6B75
:100E40002D6B340E2E6F56EC0FF0D8B012000BC184
:100E500024F10CC125F190EC0EF024C113F125C151
:100E600014F126C115F1106B200E116F410E126F97
:100E700023EC08F010C10DF111C10EF112C10FF1F8
:100E80000DC127F10EC128F10FC129F100C124F1D4
:100E900001C125F102C126F164EC0CF024C124F15A
:100EA00025C125F126C126F11BEC0AF024C12CF145
:100EB00025C12DF126C12EF1A2EC0DF02CC109F1B6
:100EC0002DC10AF109C124F10AC125F190EC0EF0FF
:100ED00024C103F125C104F126C105F103C131F19B
:100EE00004C132F105C133F10DC134F10EC135F148
:100EF0000FC136F155EC0DF031C106F132C107F1E9
:100F000033C108F106C126F107C127F108C128F154
:100F1000000E246F010E256F6CEC10F00951300F9C
:100F2000ACEC0FF00C510B1103E12E0EACEC0FF0FA
:100F30000B07D8A00C077DD73CC1E9FF3DC1EAFFF4
:100F4000EC52EC52D890ED32ED32EF321200E1CF9C
:100F5000F6FF060EF76E0800F550120034513927DF
:100F600035513A2336513B23120039C131F13AC190
:100F700032F13BC133F11200410E01011C6FEE0E44
:100F80001200F45018251A6F1AC1F6FF060EF76EFC
:100F90000800F55012002C6B2D6B2E6B2F6B12007E
:100FA00037C110F138C111F139C112F1120010C16D
:100FB00037F111C138F112C139F11200210E0101CE
:100FC000016F760E12002CC124F12DC125F12EC126
:100FD00026F1120018C118F119C119F112001C6F85
:100FE000150E186F010E196F12001BC034F11CC0D2
:100FF00035F11DC036F112001EC034F11FC035F1AD
:1010000020C036F1120019C035F11AC036F118C0EF
:1010100031F119C032F11AC033F112001C6F060E03
:10102000186F010E196F12001EC034F11FC035F188
:1010300020C036F112001A6F1AC1F6FF060EF76EC5
:101040000800F5501200166B10511111121110E129
:1010500013C12FF114C130F115C131F1000E2C6B09
:101060002D6B2E6B56EC0FF0106B116B126B120088
:1010700013511411151106E1106B800E116F3F0E04
:10108000126F3F0C1251800A800F05E1000E115DB6
:1010900002E1000E105D30E213C12CF114C12DF1FC
:1010A00015C12EF1A2EC0DF02CC117F12DC118F1D4
:1010B0002EC119F12FC11AF117C11BF118C11CF172
:1010C00019C11DF11AC11EF1F7EC0EF015511D19D1
:1010D00005E114511C1902E113511B1904E0106BB6
:1010E000116B126B12001751010B166FD7EC07F042
:1010F0009DEC11F0D0EC07F010C11BF111C11CF1F7
:1011000012C11DF1A9EC08F01BC131F11CC132F173
:101110001DC133F113C134F114C135F115C136F1DC
:1011200055EC0DF031C11BF132C11CF133C11DF181
:10113000A2EC05F01BC110F11CC111F11DC112F18F
:10114000165106E0D7EC07F09DEC11F0D0EF07F058
:1011500012001D51800A800F05E1000E1C5D02E1A6
:10116000000E1B5D04E21B6B1C6B1D6B12001B5100
:101170001C111D1104E11B6B1C6B1D6B12001E0E5C
:101180002F6F010E306F1BC12CF11CC12DF11DC141
:101190002EF121EC0EF02CC131F12DC132F12EC116
:1011A00033F1346B356B400E366F55EC0DF031C1B9
:1011B00031F132C132F133C133F1346B800E356F0E
:1011C000BF0E366F6CEC06F031C11BF132C11CF161
:1011D00033C11DF11E07D8A01F07080E286F296B09
:1011E0001F0E276F1BC124F11CC125F11DC126F163
:1011F000AFEC0BF024C11BF125C11CF126C11DF180
:101200001EC124F11FC125F190EC0EF024C131F173
:1012100025C132F126C133F1720E346F310E356FB4
:101220003F0E366F55EC0DF031C131F132C132F164
:1012300033C133F11BC134F11CC135F11DC136F18D
:101240006CEC06F031C11BF132C11CF133C11DF150
:101250001200256A266A276A286A25C02FF026C050
:1012600030F027C031F028C032F02FC003F030C07A
:1012700004F003C005F004C006F03768006A7A0E77
:10128000016E440E026ECF0E926E0F0E9316680E14
:10129000E6EC0DF0F18EBB0E946E94948B948B84DF
:1012A000800EBFEC10F0010E4DEC11F0010E006F3E
:1012B000020E85EC0AF09488949A8B9A320EB6EC62
:1012C00011F08B8A320EB6EC11F08B9A320EB6EC1E
:1012D00011F08B8A320EB6EC11F08B9AC00EF2121E
:1012E000000E01011D6BF8EC0FF0620E07EC11F01F
:1012F00000C000F101C001F102C002F105EC07F0ED
:10130000050EB6EC11F054EC0BF07CEC11F082A859
:1013100002D0010E01D0000ED96ED9503718D8A4D2
:10132000D9CF37F0375003E0B8EC04F002D054ECDA
:1013300003F0010E5EEC11F01E0EB6EC11F0000E83
:101340005EEC11F0140EB6EC11F0E1D7F294929825
:10135000820E1C6FDD0EE82EFED71C2FFCD700D0AE
:10136000D66AD76ABCEC07F0E82EFED71C2FFCD754
:101370000400BCEC07F0E82EFED71C2FFCD70400BD
:10138000BCEC07F0E82EFED71C2FFCD70400BCEC09
:1013900007F0E82EFED71C2FFCD70400BCEC07F0AA
:1013A000E82EFED71C2FFCD70400BCEC07F0E82E7B
:1013B000FED71C2FFCD70400BCEC07F0E82EFED7AC
:1013C0001C2FFCD70400BCEC07F0E82EFED71C2F26
:1013D000FCD70400BCEC07F0E82EFED71C2FFCD78E
:1013E0000400BCEC07F0E82EFED71C2FFCD704004D
:1013F000928882EC0FF01DC11AF11EC11BF1010E83
:101400001D6F000EF8EC0FF0B0EC11F07D0E89ECC2
:1014100011F0050E0101206F0A0E1F6F1AC11DF198
:101420001BC11EF10AEC0CF0B5EC11F01AC118F159
:101430001BC119F11200270E2F6F010E306F24C14E
:101440002CF125C12DF126C12EF121EC0EF028AF93
:1014500014D02651800A800F05E1000E255D02E1BF
:10146000000E245D06E2246B800E256FBF0E266FF2
:10147000BF0C246B256B266B1200150E275D000E2A
:10148000285901E3120024C12CF125C12DF126C1F8
:101490002EF1A2EC0DF02CC12CF12DC12DF12EC19D
:1014A0002EF12FC12FF107EC0DF02CC129F12DC128
:1014B0002AF12EC12BF129C12FF12AC130F12BC104
:1014C00031F124C12CF125C12DF126C12EF156ECAC
:1014D0000FF014E2346B800E356FBF0E366F29C1EA
:1014E00031F12AC132F12BC133F16CEC06F031C17C
:1014F00024F132C125F133C126F1120029C124F1B2
:101500002AC125F12BC126F11200E8CFD9FF010E27
:10151000D96401D02186D9CF24F0005103E0D90449
:10152000D8B42184620E016F650EE82EFED7012F1C
:10153000FCD700D08A948A9621B81AD0030E19ECF1
:1015400011F0DEEC07F0E82EFED7012FFCD70400E7
:10155000030E19EC11F0FA0EE82EFED7030E19EC6B
:1015600011F0FA0EE82EFED7020E19EC11F01AD087
:1015700021502009A4EC11F0DEEC07F0E82EFED794
:10158000012FFCD7040021502009A4EC11F0DEEC5F
:1015900007F0E82EFED7012FFCD7040021502009C8
:1015A000A4EC11F021502009A4EC11F0040E226EDD
:1015B00022500809A4EC11F0010EA4EC11F00D0E5C
:1015C0000101016FFB0EE82EFED7012FFCD700D0E2
:1015D000020E236E23500409A4EF11F03E513CC1CA
:1015E000E9FF08E03DC1EAFFEE50EE10ED100BE11F
:1015F0003CC1E9FF3DC1EAFFEE6AEE6AED6A000C0C
:101600003E2B9CEC07F03CC1E9FF3DC1EAFFEE52E6
:10161000EE52FE0EED140CE0F3D73E2B3CC1E9FF79
:101620003DC1EAFFEE2A000EEE22ED229CEC07F00F
:101630003CC1E9FF3DC1EAFFEE52EE52FF0EED1450
:101640000AE0EBD73E073CC1E9FF3DC1EAFFD89075
:10165000EE36EE36ED363CC1E9FF3DC1EAFFEECF96
:101660003FF1EECF40F1EECF41F140AFEBD73EB1CD
:101670000AD03CC1E9FF3DC1EAFFFF0EEE167F0E26
:10168000EE16FF0EED16D8903E333E51416F406B83
:101690003F6B3CC1E9FF3DC1EAFF3F51EE124051B3
:1016A000EE124151ED1212007CEC11F0000E01011E
:1016B0001D6BF8EC0FF0560E3CEC11F0010E1D6F97
:1016C000000EF8EC0FF03A0E3CEC11F08B9AA6EC01
:1016D00009F0EAEC07F0A4EC10F018C118F019C1F9
:1016E00019F01AC11AF0320EB6EC11F0A6EC09F09E
:1016F000EAEC07F0A4EC10F018C118F019C119F0C9
:101700001AC11AF08B8AA6EC09F0EAEC07F0A4ECF7
:1017100010F018C11EF019C11FF01AC120F0320ECE
:10172000B6EC11F0A6EC09F0EAEC07F0A4EC10F02E
:1017300018C11EF019C11FF01AC120F08B9A1D6B41
:101740000B0EF8EC0FF0F36A3D0E95EC11F01C0E49
:10175000B6EC11F0F32A050EF364F6D7050C285108
:10176000030D2751F3242D6F2DC1F6FF060EF76EE2
:101770000900F5CF2EF10900F5CF2FF10900F5CFC3
:1017800030F12EC12AF12FC12BF130C12CF129519A
:10179000281139E02AC134F12BC135F12CC136F1C1
:1017A00024C131F125C132F126C133F155EC0DF0E0
:1017B00031C131F132C132F133C133F12807D8A040
:1017C000290701012851030D2751F3242D6F2DC145
:1017D000F6FF060EF76E0900F5CF2EF10900F5CFE2
:1017E0002FF10900F5CF30F12EC134F12FC135F1C1
:1017F00030C136F16CEC06F031C12AF132C12BF167
:1018000033C12CF1C4D72AC124F12BC125F12CC13D
:1018100026F11200E16A200E236F20AF03D0206D65
:10182000300E236F1FC147F1486B1DC145F11EC12A
:1018300046F189EC10F04551E96E370F216F226BAC
:10184000000E22230A0EE96006D0300EE924216F33
:10185000226B000E2223240EE124E96EEA6A010EB7
:10186000EA2221C1EFFFE12A1FC147F1486B1DC1E8
:1018700045F11EC146F1D3EC0FF045C11DF146C143
:101880001EF11E511D1104E0CDD72351ACEC0FF019
:10189000E150800A446F20072029800A445DF5E367
:1018A000E150800A7F0FD8A01200E1CF44F1FF0E73
:1018B0004427240E4425E96EEA6A010EEA22EF501D
:1018C000ACEC0FF0E106ECD72C6B2D6B2E6B2B0ED6
:1018D0003E6F010E3F6F240E3C6F010E3D6F59ECC1
:1018E0000EF0D96E2B6702D0E3EF07F02A0E3E6FA1
:1018F000010E3F6F270E3C6F010E3D6F59EC0EF04D
:10190000E16E2A6702D0E3EF07F02A51890F2B5FBF
:10191000E150D91A180EE16ED8902C372D372E379A
:101920002751245D285125592951265907E327516C
:10193000245F2851255B2951265B2C81D8902437C0
:1019400025372637E12EE8D72BC13EF12C0E3C6F10
:10195000010E3D6FEEEC0AF0D950D8A42E8F2CC1A9
:1019600024F12DC125F12EC126F11200245125119B
:10197000261104E1246B256B266B12000101265110
:101980007F0B296FD89029352A6F2B6B2B372A5163
:1019900027272B5128232535E836010B2727000E52
:1019A000282328AF04D0246B256B266B1200285106
:1019B000800A7F0F000ED8B4275D12E32651800AFB
:1019C000800F05E1000E255D02E1000E245D246913
:1019D0007F0E256F02E22669FF0C7F0E266F7F0CBB
:1019E000283528312A6F2731296F010126512919FD
:1019F000800B2919266F27C129F1010E29172933D8
:101A00002933255129197F0B2919256F12002F51D0
:101A10002C112D112E1104E12C6B2D6B2E6B12004D
:101A2000E16A2FAF0AD02F1F2E1F2D1F2C6D000E25
:101A30002D232E232F23010EE16E8E0ED96E336BD4
:101A4000346B356B2F51366F3651331134113511DC
:101A500007E0D8902F332E332D332C33D92AEFD7EC
:101A60002CC130F12DC131F12EC132F1D9CF3EF16F
:101A7000300E3C6F010E3D6FEEEC0AF0E1500EE0CF
:101A800030C137F131C138F132C139F19DEC11F07B
:101A900037C130F138C131F139C132F130C12CF1E7
:101AA00031C12DF132C12EF11200396B3A6B3B6B13
:101AB000370E3E6F010E3F6F310E3C6F010E3D6FD2
:101AC00059EC0EF0D96E380E3E6F010E3F6F340E9A
:101AD0003C6F010E3D6F59EC0EF0D91A385102E0FF
:101AE000376702D0B5EF07F038517B0F3727070E65
:101AF000386F31B1AEEC07F0D89033333233313335
:101B0000D890343735373637382FF3D7090E386F3A
:101B100031B1AEEC07F0D890333332333133D89053
:101B20003B333A333933382FF3D737C13EF1390ECF
:101B30003C6F010E3D6FEEEC0AF0D950D8A43B8FFC
:101B4000B5EF07F0300E3E6F010E3F6F2C0E3C6F6D
:101B5000010E3D6F59EC0EF0D96E2C51316F2D51A5
:101B6000326F2E51336F346B8E0E305F30AF0ED02C
:101B70003051800A8F0F02E2CBEF07F0D890343358
:101B8000333332333133303FF9D70DD01F0E306548
:101B900008D0CBEF07F0D8903137323733373437AE
:101BA00030073067F8D7D95008E0341F331F321F91
:101BB000316D000E32233323342331C12CF132C175
:101BC0002DF133C12EF134C12FF11200E8CFD9FF2E
:101BD000D9500F0BE16ED66AD76A0101006BD9AC00
:101BE00002D0400E006F0051D512016BD9AA02D06D
:101BF000200E016F0151D512026BD9A802D0100E30
:101C0000026F0251D5120369E15002E0F70E036F33
:101C10000351D516F80ED516E15003E0E104070B89
:101C2000D512F294D9AE02D0010E01D0000E0101FE
:101C3000046F043B0447F2500419DF0B0419F26EE1
:101C400012002C512D112E110BE12FC1E9FF30C1D3
:101C5000EAFF000EEE6AED6A2C6B2D6B2E6B120004
:101C600001012E517F0B316FD8903135326F336BBC
:101C700033372FC1E9FF30C1EAFF32C1EEFF33C174
:101C8000EDFF2D35E836010B2FC1E9FF30C1EAFF2A
:101C9000EE12000EED122FC1E9FF30C1EAFF820EF5
:101CA000EE26FF0EED222E51800B3F092E6F2D9F49
:101CB00012003CC1E9FF3DC1EAFF010EEB34020E08
:101CC000EB34F46E3EC1E9FF3FC1EAFFF4CFEFFF12
:101CD000F46608D03CC1E9FF3DC1EAFFEE6AEE6A56
:101CE000ED6A000CF36A3CC1E9FF3DC1EAFF010E59
:101CF000EB8E3CC1E9FF3DC1EAFFEECF40F1EECFF4
:101D000041F1EECF42F142BFF32A3CC1E9FF3DC1B0
:101D1000EAFFFF0EEE16EE16000EED16F35012005F
:101D20002551241104E1246B256B266B120024C17C
:101D300027F125C128F1296B28BF290725AF06D037
:101D4000291F281F276D000E282329238E0E3E6F82
:101D5000270E3C6F010E3D6FEEEC0AF025AF0ED062
:101D600027C137F128C138F129C139F19DEC11F0B3
:101D700037C127F138C128F139C129F127C124F130
:101D800028C125F129C126F112001D6B090EF8ECBE
:101D90000FF0770E07EC11F01D6B090EF8EC0FF049
:101DA000640E0101476F000E486B18C145F119C15F
:101DB00046F1D3EC0FF045C11DF146C11EF1206B79
:101DC0000A0E1F6F0AEC0CF0640E476F000E486B92
:101DD00018C145F119C146F189EC10F045C11DF15A
:101DE00046C11EF1206B0A0E1F6F0AEF0CF01E5148
:101DF0001B111C111D1104E11B6B1C6B1D6B1200D0
:101E00008E0ED96E226B236B246B1E51256F2551CC
:101E100022112311241107E0D8901E331D331C33E7
:101E20001B33D92AEFD71BC11FF11CC120F11DC1E3
:101E300021F1D9CF3EF11F0E3C6F010E3D6FEEEC4C
:101E40000AF01FC11BF120C11CF121C11DF11200BC
:101E50009EA21100062A880E055C130E065824E384
:101E6000880E055E130E065A034A042A8B94410E0F
:101E7000035C030E045802E3010E01D0000E0101C1
:101E8000496FD8904937D89049358B12E80E035CDA
:101E9000030E045809E3252A000E262227222822B1
:101EA000E80E035E030E045A9E921100000E2EAF40
:101EB0000ED0326B336B800E346F2C51325D2C6F31
:101EC0002D5133592D6F2E5134592E6F000E31AFD5
:101ED0000ED0326F336B800E346F2F51325D2F6F07
:101EE00030513359306F31513459316F000E2C1B42
:101EF000800E2E1B311B2F512C5D30512D5931512D
:101F00002E591200D6CFD9FFF36AF46AD58A05D0CC
:101F1000000EF35C010EF4580CE2D58800F000F0DE
:101F2000D59800F000F0F34AF42AD950D618D7100B
:101F3000EFE0D9500101206F1F6BF3501F5FF45089
:101F4000205B000E1F25F36E010E2021F46EF3CFEF
:101F50001DF1F4CF1EF11200E8CFD9FF100E0101E0
:101F6000456F466B17380F0B455F000E465B4651B9
:101F7000800A800F010ED8B4455DD8A01200173832
:101F80000F0B456F4551070FE96EEA6AD9CFEFFF96
:101F900017380F0B456F452B453B175045190F0B55
:101FA0004519176E1200F36AF46A485147111BE095
:101FB000010ED96ED89048BF05D047374837D92A87
:101FC000F9D7D890F336F4364751455D4851465914
:101FD00005E34751455F4851465BF380D89048334D
:101FE0004733D92EEED7F3CF45F1F4CF46F11200A7
:101FF000E8CFF3FF33C01EF134C01FF135C020F12C
:1020000036C021F1240406E1140E1F6F280E206F44
:102010003C0E216F1E0E1D25E96EEA6A010EEA22B2
:10202000EF50F3248009A4EF11F01AC127F11BC16E
:1020300028F11CC129F118C1E9FF19C1EAFFEECF4F
:1020400024F1EECF25F1EDCF26F164EC0CF018C1B0
:10205000E9FF19C1EAFF24C1EEFF25C1EEFF26C149
:10206000EDFF120010C11BF111C11CF112C11DF1D5
:10207000A9EC08F01BC131F11CC132F11DC133F1D3
:102080005C0E346FDE0E356F3E0E366F55EC0DF084
:1020900031C110F132C111F133C112F1120026C168
:1020A00034F127C135F128C136F124C1E9FF25C13A
:1020B000EAFFEECF31F1EECF32F1EDCF33F155EC57
:1020C0000DF024C1E9FF25C1EAFF31C1EEFF32C1A5
:1020D000EEFF33C1EDFF120026C12CF127C12DF117
:1020E00028C12EF124C1E9FF25C1EAFFEECF29F175
:1020F000EECF2AF1EDCF2BF1F0EC10F024C1E9FF87
:1021000025C1EAFF29C1EEFF2AC1EEFF2BC1EDFF79
:1021100012004851471117E0010ED96E48BF05D093
:10212000D89047374837D92AF9D74751455D4851A4
:10213000465904E34751455F4851465BD8904833C0
:102140004733D92EF2D712001951181104E1186B38
:10215000196B1A6B120018C11BF119C11CF11D6B10
:102160008E0E3E6F1B0E3C6F010E3D6FEEEC0AF0C3
:102170001BC118F11CC119F11DC11AF11200E8CFE1
:10218000D9FFD9500F0BE16EE96A800EBA16BA502A
:10219000E150030BBA12BC6ABA849E92D9AE02D047
:1021A000010E01D0000E0101006FD89000359D6E28
:1021B0001200F36AF46A010131A104D03351F3260D
:1021C0003451F422D89033373437D8903233313306
:1021D00032513111F0E1F3CF31F1F4CF32F112008D
:1021E000800E2E1B2CC134F12DC135F12EC136F1DC
:1021F00029C131F12AC132F12BC133F16CEC06F067
:1022000031C129F132C12AF133C12BF11200E8CFDB
:10221000F3FFF46AF350F42401011BEC08F0D8B486
:102220001200F350F4241BEC08F095EC11F0F42AA2
:10223000F1D7E8CFE9FF0F0E8A16E938F00B8A12C2
:102240008A86060EE82EFED700D08A96A60EE82EC5
:10225000FED700D012001D6B0E0EF8EC0FF001013E
:102260001D6B17380F0B186F17500F0B196F185184
:10227000195D100FF8EF0FF0E8CFF4FF0101186BB4
:10228000196BC1EC07F0D8B41200C1EC07F0ABEC4D
:1022900011F00101184B192BF4D7E8CFD9FF226AAE
:1022A000100E216ED950D8A4216A246A236A93940F
:1022B0008A9493968A960F0E8A160F0CE8CFF4FF35
:1022C000010E01011D6F000EF8EC0FF0F45003E059
:1022D000880E07EF11F0790E07EF11F0E8CFD9FF64
:1022E000225102E08A8401D08A94D9380F0B19EC6C
:1022F00011F0D95019EF11F0010EA4EC11F00D0EF0
:102300000101006FFB0EE82EFED7002FFCD700D096
:102310001200E8CFE1FFA7EC07F0D8B41200A7EC59
:1023200007F0ACEC0FF0E12AF6D7E8CFE1FF010EA1
:102330000101226FE1506EEF11F037513811391160
:1023400002E0800E391B1200E8CFE1FF0101226B91
:10235000E1506EEF11F0E8CFF3FFF35095EF11F07D
:0E236000F00E17160F0E17160F0C12001200BB
:00000001FF
