:040000000CEF00F011
:10000800FACF59F1FBCF5AF1E9CF5BF1A9EF14F020
:1000180000EE6FF0EA0EF66E060EF76E10EE16F0B2
:1000280027EC00F000EE00F010EE6FF020EC00F08E
:10003800000EF86E9FEF0BF0EE6AE550E150FCE120
:10004800E250FAE112000900F5CFEEFFE550E15069
:08005800FAE1E250F8E11200A8
:100600000000803F72313FFE753E58633D951D3CB2
:10061000C5AE3A79213994803793A7355615340001
:10062000000000803FF0FFBEE2A93E8376BEAE2B05
:100630003E3CC3BDD2133D78D3BB2D204C20285562
:100640006E69743A204829202D002D20432028551A
:100650006E69743A204629202D00706C65617365BF
:1006600020776169742E2E2E00496E64756374695B
:1006700076697479200043616C6962726174696E95
:100680006700436170616369747920004C432D6D8C
:100690006574657220000D0A4343616C3D002020A3
:1006A00020202020000D0A46313D00467265713D34
:1006B000000D0A46333D000D0A46323D00524334D8
:1006C0003D0043696E3D007661723D002D2A2D008C
:1006D0006D46006E46007046007546006D48006E1F
:1006E00048007548000D0A000000DD06DC06E20641
:1006F000DF06D006D906D306D60600401454FF26DE
:1007000001010C6F000E01010101246F01010C5168
:1007100001010D6F000E01010101236F01010D5157
:1007200029EC1FF0820E010101011D6F060E01016F
:100730001E6F1BEC1EF01CEC16F01DC107F11EC154
:1007400008F107C11DF108C11EF1E9EC1EF01DC141
:100750002BF01EC12CF01FC12DF0C70E01010101AD
:10076000256F060E0101266F9DEC21F001010101AC
:1007700007C10EF10101010108C10FF101010101E1
:10078000106B0101116BA8EC1EF0A50E0101010117
:10079000256F060E0101266F9DEC21F018C00EF1A9
:1007A00019C00FF11AC010F1E1EC13F001010C6F48
:1007B000200E01010101276F01010C51E0EC20F036
:1007C00018C00EF119C00FF11AC010F11BC011F1C1
:1007D000A8EC1EF0B70E01010101256F060E010104
:1007E000266F9DEC21F02EC00EF12FC00FF130C00E
:1007F00010F1E1EC13F001010C6F200E0101010179
:10080000276F01010C51E0EC20F02EC00EF12FC03B
:100810000FF130C010F131C011F1A8EC1EF0B10E93
:1008200001010101256F060E0101266F9DEC21F0EB
:100830002BC00EF12CC00FF12DC010F1E1EC13F024
:1008400001010C6F200E01010101276F01010C5104
:10085000E0EC20F02BC00EF12CC00FF12DC010F1F8
:100860002EC011F1A8EC1EF0960E01010101256FBA
:10087000060E0101266F9DEC21F000C00EF101C0B3
:100880000FF102C010F1E1EC13F001010C6F200E2A
:1008900001010101276F01010C51E0EC20F000C0C3
:1008A0000EF101C00FF102C010F103C011F1A8EC6C
:1008B0001EF0E50E01010101256F060E0101266FF4
:1008C0009DEC21F02BC03FF12CC040F12DC041F137
:1008D00018C03CF119C03DF11AC03EF117EC1AF0F6
:1008E000D8B075EF04F077EF04F07DEF04F018C096
:1008F0002BF019C02CF01AC02DF018C046F119C009
:1009000047F11AC048F118C043F119C044F11AC0A8
:1009100045F1E9EC0DF043C103F144C104F145C1D7
:1009200005F12BC046F12CC047F12DC048F12BC07A
:1009300043F12CC044F12DC045F1E9EC0DF043C169
:100940003CF144C13DF145C13EF103C139F104C15F
:100950003AF105C13BF17AEC21F039C143F13AC1DA
:1009600044F13BC145F12EC046F12FC047F130C0E4
:1009700048F1E9EC0DF043C143F144C144F145C1F4
:1009800045F12EC046F12FC047F130C048F1E9ECE7
:100990000DF043C143F144C144F145C145F100C0EC
:1009A00046F101C047F102C048F1E9EC0DF043C146
:1009B00009F144C10AF145C10BF1C20E0101010167
:1009C000256F060E0101266F9DEC21F009C10EF185
:1009D0000AC10FF10BC110F1E1EC13F001010C6F32
:1009E000200E01010101276F01010C51E0EC20F004
:1009F00009C10EF10AC10FF10BC110F10CC111F1C7
:100A0000A8EC1EF0E50E01010101256F060E0101A3
:100A1000266F9DEC21F009C13FF10AC140F10BC1E5
:100A200041F1C00E010101013C6F790E010101018C
:100A30003D6F440E010101013E6F17EC1AF0D8B072
:100A400024EF05F026EF05F0C8EF05F009C13FF1EE
:100A50000AC140F10BC141F1E60E010101013C6FF9
:100A6000730E010101013D6F490E010101013E6F4D
:100A700017EC1AF0D8B03FEF05F041EF05F0A4EF06
:100A800005F009C13FF10AC140F10BC141F12E0E41
:100A9000010101013C6F6E0E010101013D6F4E0E1F
:100AA000010101013E6F17EC1AF0D8B05AEF05F0C2
:100AB0005CEF05F080EF05F06B0E01010101376F6F
:100AC0006E0E01010101386F4E0E01010101396FF7
:100AD00009C134F10AC135F10BC136F1C1EC0FF097
:100AE00034C109F135C10AF136C10BF101010C6FB6
:100AF000040E01010101066F01010C51A2EF05F086
:100B0000240E01010101376F740E01010101386FDC
:100B1000490E01010101396F09C134F10AC135F1F2
:100B20000BC136F1C1EC0FF034C109F135C10AF146
:100B300036C10BF101010C6F050E01010101066FB9
:100B400001010C51C6EF05F0000E01010101376FE4
:100B50007A0E01010101386F440E01010101396F64
:100B600009C134F10AC135F10BC136F1C1EC0FF006
:100B700034C109F135C10AF136C10BF101010C6F25
:100B8000060E01010101066F01010C51D0EF05F0C5
:100B900001010C6F070E01010101066F01010C51EB
:100BA000000E01010101466FC80E01010101476FEE
:100BB000420E01010101486F09C143F10AC144F12C
:100BC0000BC145F1E9EC0DF043C109F144C10AF153
:100BD00045C10BF109C13CF10AC13DF10BC13EF128
:100BE00065EC15F03CC107F13DC108F107C11DF1ED
:100BF00008C11EF18EEC1AF006C11DF115EC20F0B3
:100C0000120001011B6F000E01010101246F01019F
:100C10001B5101011C6F000E01010101236F010135
:100C20001C5129EC1FF0690E010101011D6F060E18
:100C300001011E6F1BEC1EF01CEC16F01DC110F123
:100C40001EC111F110C11DF111C11EF1E9EC1EF020
:100C50001DC12BF01EC12CF01FC12DF02BC03FF188
:100C60002CC040F12DC041F118C03CF119C03DF13C
:100C70001AC03EF117EC1AF0D8B041EF06F043EF7E
:100C800006F049EF06F018C02BF019C02CF01AC07E
:100C90002DF018C046F119C047F11AC048F118C02C
:100CA00043F119C044F11AC045F1E9EC0DF043C11C
:100CB00003F144C104F145C105F118C046F119C062
:100CC00047F11AC048F118C043F119C044F11AC0E5
:100CD00045F1E9EC0DF043C106F144C107F145C10E
:100CE00008F12BC046F12CC047F12DC048F12BC0B4
:100CF00043F12CC044F12DC045F1E9EC0DF043C1A6
:100D000009F144C10AF145C10BF109C13CF10AC125
:100D10003DF10BC13EF106C139F107C13AF108C1FD
:100D20003BF17AEC21F039C10CF13AC10DF13BC134
:100D30000EF12EC03CF12FC03DF130C03EF12EC06F
:100D400039F12FC03AF130C03BF17AEC21F039C1D2
:100D50003CF13AC13DF13BC13EF103C139F104C15F
:100D60003AF105C13BF17AEC21F039C146F13AC1C3
:100D700047F13BC148F10CC143F10DC144F10EC133
:100D800045F1E9EC0DF043C143F144C144F145C1E3
:100D900045F1400E01010101466F1C0E01010101E8
:100DA000476F460E01010101486FE9EC0DF043C1A8
:100DB00015F144C116F145C117F118C046F119C02B
:100DC00047F11AC048F118C043F119C044F11AC0E4
:100DD00045F1E9EC0DF043C143F144C144F145C193
:100DE00045F12EC046F12FC047F130C048F1E9EC83
:100DF0000DF043C143F144C144F145C145F12EC05A
:100E000046F12FC047F130C048F1E9EC0DF043C185
:100E100043F144C144F145C145F12BC046F12CC01A
:100E200047F12DC048F1E9EC0DF043C143F144C155
:100E300044F145C145F12BC046F12CC047F12DC00E
:100E400048F1E9EC0DF043C143F144C144F145C11F
:100E500045F100C046F101C047F102C048F1E9EC9C
:100E60000DF043C143F144C144F145C145F1EA0EDF
:100E700001010101466F1D0E01010101476F420E84
:100E800001010101486FE9EC0DF043C112F144C1C9
:100E900013F145C114F112C137F113C138F114C176
:100EA00039F115C134F116C135F117C136F1C1EC74
:100EB0000FF034C143F135C144F136C145F1600E44
:100EC00001010101466F630E01010101476F580ED8
:100ED00001010101486FE9EC0DF043C118F144C173
:100EE00019F145C11AF118C13FF119C140F11AC1F8
:100EF00041F1C00E010101013C6F790E01010101B8
:100F00003D6F440E010101013E6F17EC1AF0D8B09D
:100F10008CEF07F08EEF07F030EF08F018C13FF1CB
:100F200019C140F11AC141F1E60E010101013C6F06
:100F3000730E010101013D6F490E010101013E6F78
:100F400017EC1AF0D8B0A7EF07F0A9EF07F00CEFF5
:100F500008F018C13FF119C140F11AC141F12E0E3C
:100F6000010101013C6F6E0E010101013D6F4E0E4A
:100F7000010101013E6F17EC1AF0D8B0C2EF07F083
:100F8000C4EF07F0E8EF07F06B0E01010101376FC6
:100F90006E0E01010101386F4E0E01010101396F22
:100FA00018C134F119C135F11AC136F1C1EC0FF095
:100FB00034C118F135C119F136C11AF101011B6FA5
:100FC000000E010101010F6F01011B510AEF08F032
:100FD000240E01010101376F740E01010101386F08
:100FE000490E01010101396F18C134F119C135F100
:100FF0001AC136F1C1EC0FF034C118F135C119F145
:1010000036C11AF101011B6F010E010101010F6FC1
:1010100001011B512EEF08F0000E01010101376F95
:101020007A0E01010101386F440E01010101396F8F
:1010300018C134F119C135F11AC136F1C1EC0FF004
:1010400034C118F135C119F136C11AF101011B6F14
:10105000020E010101010F6F01011B5138EF08F071
:1010600001011B6F030E010101010F6F01011B51F3
:10107000000E01010101466FC80E01010101476F19
:10108000420E01010101486F18C143F119C144F139
:101090001AC145F1E9EC0DF043C118F144C119F151
:1010A00045C11AF118C13CF119C13DF11AC13EF117
:1010B00065EC15F03CC110F13DC111F110C11DF1FD
:1010C00011C11EF18EEC1AF00FC11DF115EC20F0CC
:1010D00012006BEF08F001014D0E01010101526F8A
:1010E0000101010E0101536F0101430E01010101D4
:1010F000506F0101010E0101516F14EC1DF001014F
:1011000001014B6F010101014D6789EF08F08BEF81
:1011100008F093EF08F046C143F147C144F148C1DC
:1011200045F139EF0AF001014C0E01010101526F46
:101130000101010E0101536F0101460E0101010180
:10114000506F0101010E0101516F14EC1DF00101FE
:101150000101496F010101014C51D8B4B2EF08F00F
:10116000B4EF08F00EEF0AF001014E6F060E010118
:1011700001014A6F01014E51010101014C51010170
:1011800001014D61C6EF08F0C8EF08F024EF09F047
:10119000010101014D51010101014C5D01014E6F41
:1011A000190E01014E5DD8A0D8EF08F0DAEF08F073
:1011B000ECEF08F0000E01010101436F000E010188
:1011C0000101446F000E01010101456F4CC14DF159
:1011D00049C14BF122EF09F00101D89001014637D6
:1011E0000101473701014837010101014C070101A5
:1011F00001014C51010101014D19D8B402EF09F070
:1012000004EF09F009EF09F0010101014A2FECEFA9
:1012100008F016EF09F00101D890010145330101F2
:10122000443301014333010101014D2B010101014F
:101230004C51010101014D6320EF09F022EF09F04B
:101240000BEF09F087EF09F0010101014D51010198
:1012500001014C19D8B42FEF09F031EF09F087EFF5
:1012600009F0010101014C51010101014D5D010134
:101270004E6F190E01014E5DD8A041EF09F043EF0A
:1012800009F051EF09F0000E01010101466F000E57
:1012900001010101476F000E01010101486F87EF55
:1012A00009F00101D89001014337010144370101E0
:1012B0004537010101014D07010101014C510101B7
:1012C00001014D19D8B467EF09F069EF09F06EEF2D
:1012D00009F0010101014A2F51EF09F07BEF09F0FC
:1012E0000101D89001014833010147330101463320
:1012F000010101014C2B010101014C5101010101CE
:101300004D6385EF09F087EF09F070EF09F00101F7
:1013100001014B51D8B48FEF09F091EF09F0A9EF1B
:1013200009F0FF0E01010101431BFF0E0101010144
:10133000441BFF0E01010101451B010E01010101CA
:101340004327000E010101014423000E01010101A8
:101350004523010101014951D8B4B1EF09F0B3EFC0
:1013600009F0CBEF09F0FF0E01010101461BFF0E52
:1013700001010101471BFF0E01010101481B010E84
:10138000010101014627000E010101014723000E62
:1013900001010101482301014E6F000E010101010D
:1013A0004B6F01014E510101010146510101010143
:1013B00043270101010147510101010144230101BA
:1013C000010148510101010145230101010145AF1E
:1013D000ECEF09F0EEEF09F00EEF0AF0FF0E01015D
:1013E0000101431BFF0E01010101441BFF0E01011E
:1013F0000101451B010E010101014327000E0101FE
:1014000001014423000E01010101452301014E6F3A
:10141000010E010101014B6F01014E514DC152F10D
:101420000101430E01010101506F0101010E010193
:10143000516FD3EC16F0010101014B51D8B423EFE9
:101440000AF025EF0AF031EF0AF0000E0101010168
:10145000431B000E01010101441B800E010101012B
:10146000451B43C143F144C144F145C145F139EF46
:101470000AF01200010101012B5101012C1101019F
:101480002D11D8A446EF0AF048EF0AF056EF0AF003
:10149000000E010101012B6F800E010101012C6F73
:1014A0003F0E010101012D6F9EEF0BF02BC13FF1AB
:1014B0002CC140F12DC141F1720E010101013C6FBF
:1014C000310E010101013D6F440E010101013E6F2A
:1014D00017EC1AF0D8B06FEF0AF071EF0AF083EF53
:1014E0000AF0220E4E6E000E4F6EFF0E010101013A
:1014F0002B6F7F0E010101012C6F7F0E0101010195
:101500002D6F9EEF0BF0490E010101013F6F3A0E66
:1015100001010101406FC40E01010101416F2BC1A6
:101520003CF12CC13DF12DC13EF117EC1AF0D8B0C1
:101530009CEF0AF09EEF0AF0B0EF0AF0220E4E6E1A
:10154000000E4F6E000E010101012B6F000E010114
:1015500001012C6F000E010101012D6F9EEF0BF0B8
:10156000010101012D51800A800F07E1000E0101E8
:101570002C5D03E1000E01012B5DD8A0C2EF0AF043
:10158000C5EF0AF0010EC6EF0AF0000E01010101DD
:10159000316F010101013151D8B4D1EF0AF0D3EF1D
:1015A0000AF0E1EF0AF02BC149F12CC14AF12DC13B
:1015B0004BF157EC21F049C12BF14AC12CF14BC141
:1015C0002DF1AA0E01010101366FB80E01010101D2
:1015D000376F3F0E01010101386F01012B0E010130
:1015E0000101346F0101010E0101356FC0EC21F0E2
:1015F0002BC134F12CC135F12DC136F13AEC18F084
:1016000034C13CF135C13DF136C13EF165EC15F018
:101610003CC132F13DC133F132C134F133C135F156
:1016200073EC1BF034C12EF135C12FF136C130F10E
:101630002EC136F12FC137F130C138F101012B0E27
:1016400001010101346F0101010E0101356FE3EC6D
:1016500021F0090E01010101396F000E01013A6FFD
:10166000010E01010101376F060E0101386F2BC118
:1016700034F12CC135F12DC136F197EC19F034C19C
:1016800034F135C135F136C136F132C137F133C1EC
:1016900038F114EC13F034C12BF135C12CF136C103
:1016A0002DF1010101013151D8B459EF0BF05BEF7D
:1016B0000BF096EF0BF0FF0E010101012B197F0ECD
:1016C000D8B42C197F0ED8B42D19D8A46AEF0BF01A
:1016D0006CEF0BF07AEF0BF0000E010101012B6FA4
:1016E000000E010101012C6F000E010101012D6F9F
:1016F0009EEF0BF02BC137F12CC138F12DC139F120
:10170000000E01010101346F800E01010101356FEE
:101710003F0E01010101366FC1EC0FF034C12BF116
:1017200035C12CF136C12DF19EEF0BF02BC12BF101
:101730002CC12CF12DC12DF19EEF0BF01200000EEB
:101740005B6E000E5C6E000E5D6E000E5E6E5BC02A
:1017500057F05CC058F05DC059F05EC05AF057C0F9
:1017600003F058C004F003C005F004C006F0000107
:1017700000018369000E006E7A0E016E440E026E47
:10178000CF0E926E0101016F680E01010101036F1E
:1017900001010151ECEC18F0F18EBB0E946E9494A3
:1017A0008B948B840101016F800E01010101036F95
:1017B0000101015166EC1FF00101016F010E0101F1
:1017C0000101036F01010151B1EC20F00101016F32
:1017D000010E01010101046F010101510101026FBC
:1017E000020E01010101036F010102516FEC11F0C2
:1017F0009488949A8B9A0101016F320E01010101C4
:10180000066F0101015175EC22F08B8A0101016F15
:10181000320E01010101066F0101015175EC22F048
:101820008B9A0101016F320E01010101066F010166
:10183000015175EC22F08B8A0101016F320E01011A
:101840000101066F0101015175EC22F08B9AA1ECA8
:101850001FF0C00EF2120101016F000E0101010123
:10186000246F010101510101026F000E010101010C
:10187000236F0101025129EC1FF08C0E01010101BF
:10188000216F060E0101226FC9EC1DF000C00EF1A0
:1018900001C00FF102C010F1E1EC13F00101016F82
:1018A000050E01010101066F0101015175EC22F0E5
:1018B000D8EC0EF022EC22F082B861EF0CF064EF6D
:1018C0000CF0010E65EF0CF0000E01010101006F3C
:1018D000010101010051000100018319D8B473EF27
:1018E0000CF075EF0CF09AEF0CF03A0E01010101CB
:1018F000256F060E0101266F000100018351D8B447
:1019000084EF0CF086EF0CF08DEF0CF04A0E010125
:101910000101256F060E0101266F9DEC21F0E50EF9
:1019200001010101256F060E0101266F9DEC21F0DA
:1019300000C183F0000100018351D8B4A2EF0CF084
:10194000A4EF0CF0A8EF0CF080EC03F0AAEF0CF081
:1019500001EC06F00101016F010E01010101036FAD
:101960000101015180EC20F00101016F1E0E010107
:101970000101066F0101015175EC22F00101016FB7
:10198000000E01010101036F0101015180EC20F003
:101990000101016F140E01010101066F01010151E6
:1019A00075EC22F05CEF0CF00CEF00F001012A6FF7
:1019B000000E01010101256F01012A510101010100
:1019C0001F510101201101012111D8A4EAEF0CF0EF
:1019D000ECEF0CF019EF0DF022C13FF123C140F103
:1019E00024C141F1000E010101013C6F000E010113
:1019F00001013D6F000E010101013E6F17EC1AF06D
:101A0000D8A005EF0DF007EF0DF00BEF0DF0210E54
:101A10004E6E000E4F6E000E010101011F6F000E91
:101A200001010101206F000E01010101216FE8EFAA
:101A30000DF00101010122510101231101012411C5
:101A4000D8A425EF0DF027EF0DF035EF0DF0000EC7
:101A5000010101011F6F800E01010101206F3F0E86
:101A600001010101216FE8EF0DF001010101215198
:101A7000800A800F07E1000E0101205D03E1000EE6
:101A800001011F5DD8B047EF0DF049EF0DF0A2EF57
:101A90000DF022C13CF123C13DF124C13EF165ECC2
:101AA00015F03CC126F13DC127F13EC128F13FC1EF
:101AB00029F126C12BF127C12CF128C12DF129C113
:101AC0002EF102EC1BF001010101245101012D193D
:101AD0000BE101010101235101012C1905E1010173
:101AE0000101225101012B19D8B479EF0DF07BEFE0
:101AF0000DF08DEF0DF0210E4E6E000E4F6E000EAC
:101B0000010101011F6F000E01010101206F000E94
:101B100001010101216FE8EF0DF0010101012651E2
:101B2000010B01010101256F1FC149F120C14AF1DB
:101B300021C14BF157EC21F049C11FF14AC120F1FD
:101B40004BC121F11FC12BF120C12CF121C12DF17D
:101B500098EC10F02BC143F12CC144F12DC145F19B
:101B600022C146F123C147F124C148F1E9EC0DF04F
:101B700043C12BF144C12CF145C12DF13AEC0AF0DF
:101B80002BC11FF12CC120F12DC121F10101010157
:101B90002551D8B4CEEF0DF0D0EF0DF0E0EF0DF001
:101BA0001FC149F120C14AF121C14BF157EC21F08D
:101BB00049C11FF14AC120F14BC121F1E8EF0DF0FD
:101BC0001FC11FF120C120F121C121F1E8EF0DF06B
:101BD0001200000E010101014C6F000E0101010114
:101BE0004D6F000E010101014E6F01014A0E01010E
:101BF0000101526F0101010E0101536F0101430EFA
:101C000001010101506F0101010E0101516F14EC3E
:101C10001DF001010101496F01014B0E010101019C
:101C2000526F0101010E0101536F0101460E0101C6
:101C30000101506F0101010E0101516F14EC1DF003
:101C400001010101491B010101014B51D8B42BEFE6
:101C50000EF02DEF0EF036EF0EF0010101014A6794
:101C600034EF0EF036EF0EF03EEF0EF04CC143F1C4
:101C70004DC144F14EC145F1D7EF0EF00101010114
:101C80004B517B0F010101014A2701014F6F070EE4
:101C9000010101014B6F01014F510101010143A1FC
:101CA00054EF0EF056EF0EF068EF0EF00101010157
:101CB0004651010101014C27010101014751010178
:101CC00001014D23010101014851010101014E2390
:101CD0000101D8900101453301014433010143332F
:101CE0000101D8900101463701014737010148370A
:101CF000010101014B2F4DEF0EF001014F6F090E55
:101D0000010101014B6F01014F510101010143A18B
:101D10008CEF0EF08EEF0EF0A0EF0EF0010101013E
:101D20004651010101014C27010101014751010107
:101D300001014D23010101014851010101014E231F
:101D40000101D890010145330101443301014333BE
:101D50000101D89001014E3301014D3301014C3393
:101D6000010101014B2F85EF0EF04AC152F1010133
:101D70004C0E01010101506F0101010E0101516F73
:101D8000D3EC16F0010101014951D8B4CAEF0EF0AD
:101D9000CCEF0EF0CFEF0EF0010101014E8F4CC1E0
:101DA00043F14DC144F14EC145F1D7EF0EF01200A1
:101DB00022EC22F00101046F000E01010101246FE9
:101DC000010104510101056F000E01010101236FA2
:101DD0000101055129EC1FF0760E010101011D6F73
:101DE000060E01011E6F1BEC1EF00101046F010EB7
:101DF00001010101246F010104510101056F000E71
:101E000001010101236F0101055129EC1FF0E50ECD
:101E100001010101256F060E0101266F9DEC21F0E5
:101E20005A0E010101011D6F060E01011E6F1BEC10
:101E30001EF08B9A1CEC16F01DC11DF11EC11EF187
:101E4000E9EC1EF01DC118F01EC119F01FC11AF0F7
:101E50000101046F320E01010101066F01010451FD
:101E600075EC22F01CEC16F01DC11DF11EC11EF117
:101E7000E9EC1EF01DC118F01EC119F01FC11AF0C7
:101E80008B8A1CEC16F01DC11DF11EC11EF1E9EC80
:101E90001EF01DC12EF01EC12FF01FC130F0010138
:101EA000046F320E01010101066F0101045175EC4E
:101EB00022F01CEC16F01DC11DF11EC11EF1E9EC53
:101EC0001EF01DC12EF01EC12FF01FC130F08B9AE5
:101ED0000101046F000E01010101246F0101045191
:101EE0000101056F0B0E01010101236F0101055175
:101EF00029EC1FF00101046F000E01010101036FC5
:101F000001010451050E0101010103658AEF0FF083
:101F10008CEF0FF08EEF0FF0B7EF0FF00101046FB1
:101F2000010E010101012D6F010104510101056F35
:101F30003D0E010101012C6F0101055106EC22F05B
:101F40000101046F1C0E01010101066F0101045122
:101F500075EC22F001010101032B050E01010101C5
:101F60000365B5EF0FF0B7EF0FF08EEF0FF0E50E52
:101F700001010101256F060E0101266F9DEC21F084
:101F80001200000E010101013E6F000E010101016E
:101F90003F6F000E01010101406F01013C0E010184
:101FA0000101526F0101010E0101536F0101340E55
:101FB00001010101506F0101010E0101516F14EC8B
:101FC0001DF0010101013B6F010101013C67EBEFD5
:101FD0000FF0EDEF0FF0F5EF0FF03EC134F13FC120
:101FE00035F140C136F197EF10F001013A0E0101D1
:101FF0000101526F0101010E0101536F0101370E02
:1020000001010101506F0101010E0101516F14EC3A
:102010001DF0010101013D6F010101013A6713EF5C
:1020200010F015EF10F01DEF10F03EC134F13FC17C
:1020300035F140C136F197EF10F0010101013A513D
:10204000890F010101013C5F010101013D510101C5
:1020500001013B1B0101416F180E010101013D6FA0
:10206000010141510101D89001013E3701013F3783
:102070000101403701010101375101010101345DC6
:10208000010101013851010101013559010101012D
:102090003951010101013659D8A051EF10F053EF29
:1020A00010F068EF10F00101010137510101010149
:1020B000345F01010101385101010101355B01016A
:1020C0000101395101010101365B010101013E812C
:1020D0000101D8900101343701013537010136374C
:1020E000010101013D2F32EF10F03CC152F101011D
:1020F0003E0E01010101506F0101010E0101516FFE
:10210000D3EC16F0010101013B51D8B48AEF10F075
:102110008CEF10F08FEF10F001010101408F3EC1F4
:1021200034F13FC135F140C136F197EF10F01200A4
:10213000010101012D51800A800F07E1000E01010C
:102140002C5D03E1000E01012B5DD8B0AAEF10F069
:10215000ACEF10F0BEEF10F0210E4E6E000E4F6E81
:10216000000E010101012B6F000E010101012C6F16
:10217000000E010101012D6F6EEF11F0010101014F
:102180002B5101012C1101012D11D8A4CAEF10F01F
:10219000CCEF10F0DEEF10F0220E4E6E000E4F6E00
:1021A000000E010101012B6F000E010101012C6FD6
:1021B000000E010101012D6F6EEF11F001012E0ED5
:1021C000010101013F6F0101010E0101406F2BC1AF
:1021D0003CF12CC13DF12DC13EF1E2EC1BF03CC1C4
:1021E00043F13DC144F13EC145F1000E0101010141
:1021F000466F000E01010101476F400E0101010110
:10220000486FE9EC0DF043C143F144C144F145C1CD
:1022100045F1000E01010101466F800E010101012F
:10222000476FBF0E01010101486F69EC08F043C11F
:102230002BF144C12CF145C12DF1010101012E0703
:10224000D8A02F07080E01010101396F000E01010E
:102250003A6F1F0E01010101376F060E0101386F41
:102260002BC134F12CC135F12DC136F197EC19F0A9
:1022700034C12BF135C12CF136C12DF12EC134F111
:102280002FC135F173EC1BF034C143F135C144F17A
:1022900036C145F1720E01010101466F310E010197
:1022A0000101476F3F0E01010101486FE9EC0DF09C
:1022B00043C143F144C144F145C145F12BC146F14D
:1022C0002CC147F12DC148F169EC08F043C12BF155
:1022D00044C12CF145C12DF16EEF11F01200010E39
:1022E00001010101036577EF11F079EF11F07AEF49
:1022F00011F0418603C14BF0010101010451D8B432
:1023000084EF11F086EF11F091EF11F0010101015E
:102310000305D8A48EEF11F090EF11F091EF11F0BA
:102320004184750E0101056FE10EE82E95EF11F065
:10233000052F95EF11F08A948A9641B8A2EF11F01B
:10234000A4EF11F0E2EF11F00101056F030E01019E
:1023500001012E6F0101055138EC22F0270E010119
:10236000056FF50EE82EB2EF11F0052FB2EF11F068
:102370000101056F030E010101012E6F01010551DD
:1023800038EC22F0E10E0400E82EC3EF11F0010159
:10239000056F030E010101012E6F0101055138EC9B
:1023A00022F0E10E0400E82ED2EF11F00101056FDA
:1023B000020E010101012E6F0101055138EC22F0DE
:1023C0000BEF12F041502009010101012A6F5BEC73
:1023D00022F0270E0101056FF50EE82EEDEF11F04A
:1023E000052FEDEF11F041502009010101012A6F85
:1023F0005BEC22F0270E0101056FF50EE82EFEEFD3
:1024000011F0052FFEEF11F04150200901010101EB
:102410002A6F5BEC22F041502009010101012A6F73
:102420005BEC22F00101056F040E496E01010551BC
:1024300049500809010101012A6F5BEC22F00101FA
:10244000056F010E010101012A6F010105515BECCD
:1024500022F0100E0101056F940EE82E2DEF12F000
:10246000052F2DEF12F004000101056F020E4A6ED8
:10247000010105514A500409010101012A6F5BEC79
:1024800022F0120001014C6F000E010101012B6FBF
:1024900001014C5101014C6F200E01010101296F16
:1024A00001014C510101010126AF59EF12F05BEF20
:1024B00012F066EF12F001010101266D01014C6F6F
:1024C000300E01010101296F01014C51010101018F
:1024D00025C14FF101010101506B23C14DF124C110
:1024E0004EF171EC1DF0010101014D51010101019D
:1024F0002A6F370E010101012A2501010101276F11
:102500000101286B000E010128230A0E01010101BF
:102510002A618DEF12F08FEF12F09BEF12F0300E68
:10252000010101012A2501010101276F0101286B29
:10253000000E0101282301012C0E010101012B25B0
:10254000E96EEA6A0101010EEA22010127C1EFFFEB
:10255000010101012B2B0101010125C14FF10101F5
:102560000101506B23C14DF124C14EF14EEC1CF022
:102570004DC123F14EC124F1010101012451231168
:10258000D8A4C5EF12F0C7EF12F066EF12F0CDEF4E
:1025900012F029C14DF165EC1EF0010101012B5132
:1025A000800A01014C6F0101010126070101262962
:1025B000800A01014C5DD8A0E0EF12F0E2EF12F0CA
:1025C000C9EF12F0010101012B51800A7F0FD8B031
:1025D000ECEF12F0EEEF12F0F0EF12F013EF13F059
:1025E0002BC14CF1FF0E01014C2701012C0E010102
:1025F0004C25E96EEA6A0101010EEA22EF50010161
:1026000001014D6F65EC1EF0010101012B07010175
:1026100001012B51800A7F0FD8B011EF13F013EF97
:1026200013F0F0EF12F01200010101013451010129
:10263000351101013611D8A420EF13F022EF13F069
:1026400030EF13F0000E01010101346F000E0101A3
:102650000101356F000E01010101366FE0EF13F04B
:10266000010136517F0B0101396FD89001013935D5
:1026700001013A6F01013B6B01013B3701013A5106
:1026800001010101372701013B51010101013823FB
:1026900001013535E836010B0101396F010139516E
:1026A000010101013727000E010138230101010159
:1026B00038AF5DEF13F05FEF13F071EF13F0220E00
:1026C0004E6E000E4F6E000E01010101346F000EC0
:1026D00001010101356F000E01010101366FE0EFCC
:1026E00013F0010101013851800A7F0F000ED8B4A8
:1026F000375DD8A07EEF13F080EF13F0B4EF13F046
:10270000220E4E6E000E4F6E010101013651800AFD
:10271000800F07E1000E0101355D03E1000E0101AC
:10272000345DD8B096EF13F098EF13F0A6EF13F0E6
:10273000FF0E01010101346F7F0E01010101356FB0
:10274000FF0E01010101366FE0EF13F0FF0E0101F2
:102750000101346F7F0E01010101356F7F0E010110
:102760000101366FE0EF13F001010101383501017D
:10277000383101013A6F0101010137310101396F2F
:102780000101365101013919800B39190101366FE8
:1027900037C139F1010E01013917010139333933DC
:1027A00001013551010139197F0B39190101356FCB
:1027B00034C134F135C135F136C136F1E0EF13F0F3
:1027C00012000EC11FF10FC120F110C121F132EC36
:1027D00021F01FC13CF120C13DF121C13EF165EC6A
:1027E00015F03CC119F13DC11AF18DEF14F019C17A
:1027F00034F11AC135F173EC1BF034C122F135C14B
:1028000023F136C124F1000E010101011F6F200EDA
:1028100001010101206F410E01010101216FD6EC80
:102820000CF01FC11BF120C11CF121C11DF11BC106
:1028300037F11CC138F11DC139F10EC134F10FC19E
:1028400035F110C136F1C1EC0FF034C134F135C1AE
:1028500035F136C136F13AEC18F034C13CF135C1EE
:102860003DF136C13EF165EC15F03CC117F13DC1BB
:1028700018F117C134F118C135F173EC1BF034C1F4
:1028800011F135C112F136C113F111C143F112C179
:1028900044F113C145F11BC146F11CC147F11DC1F3
:1028A00048F1E9EC0DF043C114F144C115F145C103
:1028B00016F114C136F115C137F116C138F1010115
:1028C0000E0E01010101346F0101010E0101356F8E
:1028D000E3EC21F0010101011751300F0101010169
:1028E0004D6F65EC1EF0010101011A511911D8A4B8
:1028F0007CEF14F07EEF14F088EF14F001011E6FEE
:102900002E0E010101014D6F01011E5165EC1EF0FB
:10291000010101011907D8A01A070EC13FF10FC12B
:1029200040F110C141F1000E010101013C6F000EA8
:10293000010101013D6F340E010101013E6F17ECF1
:102940001AF0D8A0A6EF14F0A8EF14F0F7EF13F0E8
:102950001200EACF5CF1E1CF5DF1E2CF5EF1D9CFB9
:102960005FF1DACF60F1F3CF61F1F4CF62F1F6CF2E
:1029700063F1F7CF64F1F8CF65F1F5CF66F19EA270
:10298000C4EF14F0C6EF14F008EF15F0010E0626A0
:10299000700E055C170E0658D8A0D1EF14F0D3EFD7
:1029A00014F007EF15F0700E055E170E065A034A75
:1029B000042A8B94410E035C030E0458D8B0E3EF55
:1029C00014F0E6EF14F0010EE7EF14F0000E010131
:1029D000586F0101D89058370101D89058358B12A3
:1029E000E80E035C030E0458D8A0F9EF14F0FBEFD7
:1029F00014F007EF15F0010E5B26000E5C22000EAE
:102A00005D22000E5E22E80E035E030E045A9E92C3
:102A10009EAA0DEF15F00FEF15F025EF15F0310E12
:102A20004324E96EEA6A000EEA22AECFEFFF4328A4
:102A30000F0B486E48504718D8B421EF15F023EF1C
:102A400015F025EF15F048C043F09EA82AEF15F0C9
:102A50002CEF15F048EF15F09DA831EF15F033EF8E
:102A600015F048EF15F01B0E4424E96EEA6A000EDB
:102A7000EA22EF50AD6E442A0F0E441642504462D3
:102A800044EF15F046EF15F047EF15F09D989E982E
:102A900066C1F5FF65C1F8FF64C1F7FF63C1F6FFCA
:102AA00062C1F4FF61C1F3FF60C1DAFF5FC1D9FF0A
:102AB0005EC1E2FF5DC1E1FF5CC1EAFF5BC1E9FF0E
:102AC0005AC1FBFF59C1FAFF11000101410E01017A
:102AD0000101526F0101010E0101536F01013C0E12
:102AE00001010101506F0101010E0101516F14EC50
:102AF0001DF001010101406F010101013C51010183
:102B00000101426F010101013D510101436F0101CA
:102B10003E510101446F0101456B8E0E010101011F
:102B2000415F0101010141AF98EF15F09AEF15F0F7
:102B3000C6EF15F0010101014151800A8F0FD8B095
:102B4000A4EF15F0A6EF15F0B5EF15F0000E01019A
:102B500001013C6F000E01013D6F000E01013E6F4F
:102B6000000E01013F6F1BEF16F00101D89001012B
:102B70004533010144330101433301014233010173
:102B80000101413FB5EF15F0F7EF15F01F0E010100
:102B900001014165CEEF15F0D0EF15F0DFEF15F034
:102BA000000E010101013C6F000E01013D6F000E9E
:102BB00001013E6F000E01013F6F1BEF16F0EEEFBB
:102BC00015F00101D890010142370101433701019D
:102BD00044370101453701010101410701010101AC
:102BE0004167F5EF15F0F7EF15F0E1EF15F0010192
:102BF00001014051D8B4FFEF15F001EF16F011EFCD
:102C000016F001010101451F0101441F0101431F8D
:102C10000101426D000E0101432301014423010122
:102C2000452342C13CF143C13DF144C13EF145C1A0
:102C30003FF11BEF16F01200F29492989C0E0101E6
:102C4000216FD70EE82E22EF16F0212F22EF16F07B
:102C5000000ED66E000ED76E4E0E0101216FEB0EE8
:102C6000E82E30EF16F0212F30EF16F04E0E010156
:102C7000216FEB0EE82E3AEF16F0212F3AEF16F007
:102C80004E0E0101216FEB0EE82E44EF16F0212FBE
:102C900044EF16F04E0E0101216FEB0EE82E4EEFC1
:102CA00016F0212F4EEF16F04E0E0101216FEB0EA4
:102CB000E82E58EF16F0212F58EF16F04E0E0101B6
:102CC000216FEB0EE82E62EF16F0212F62EF16F067
:102CD0004E0E0101216FEB0EE82E6CEF16F0212F46
:102CE0006CEF16F04E0E0101216FEB0EE82E76EF21
:102CF00016F0212F76EF16F04E0E0101216FEB0E2C
:102D0000E82E80EF16F0212F80EF16F04E0E010115
:102D1000216FEB0EE82E8AEF16F0212F8AEF16F0C6
:102D20009288B6EC1CF023C11FF124C120F10101EF
:102D3000216F010E01010101246F010121510101E7
:102D4000226F000E01010101236F0101225129ECC4
:102D50001FF068EC22F0AB0E01010101236F060E9B
:102D60000101246F0DEC21F00101216F050E01011D
:102D70000101266F010121510101226F0A0E01019B
:102D80000101256F010122511FC123F120C124F14E
:102D900042EC12F04FEC20F01FC11DF120C11EF1DA
:102DA000D2EF16F01200010101015251D8B4DBEF4D
:102DB00016F0DDEF16F0EBEF16F050C1E9FF51C150
:102DC000EAFFEE50EE10ED10D8A4E9EF16F0EBEFAD
:102DD00016F0F8EF16F050C1E9FF51C1EAFF000EFE
:102DE000EE6E000EEE6E000EED6EED5287EF17F0F8
:102DF00007EF17F001010101522B50C1E9FF51C14A
:102E0000EAFFEC52EC52D890ED32ED32EF3250C185
:102E1000E9FF51C1EAFFEE52EE52FE0EED14D8A4C6
:102E200014EF17F016EF17F0FAEF16F02EEF17F079
:102E300001010101522B50C1E9FF51C1EAFFEE2A05
:102E4000000EEE22ED22ED5250C1E9FF51C1EAFF22
:102E5000EC52EC52D890ED32ED32EF3250C1E9FF36
:102E600051C1EAFFEE52EE52FF0EED14D8A43BEF33
:102E700017F03DEF17F018EF17F04BEF17F00101C7
:102E80000101520750C1E9FF51C1EAFFD890EE3667
:102E9000EE36ED36ED5250C1E9FF51C1EAFFEECFFB
:102EA00053F1EECF54F1EECF55F1010154AF5BEF8A
:102EB00017F05DEF17F03FEF17F00101010152B17C
:102EC00064EF17F066EF17F071EF17F050C1E9FFEC
:102ED00051C1EAFFFF0EEE167F0EEE16FF0EED1645
:102EE000ED520101D890523301010101525101010B
:102EF000556F546B536B50C1E9FF51C1EAFF01019B
:102F00005351EE125451EE125551ED12ED52120082
:102F100001013F513C113D113E11D8A492EF17F031
:102F200094EF17F0A2EF17F0000E010101013C6FC2
:102F3000000E010101013D6F000E010101013E6F14
:102F400039EF18F00101456F000E01010101406FDA
:102F500001014551010101013FAFB1EF17F0B3EF9E
:102F600017F0CBEF17F0010101013F1F01013E1FD8
:102F700001013D1F01013C6D000E01013D230101D6
:102F80003E2301013F230101456F010E01010101B3
:102F9000406F010145510101456F8E0E0101010194
:102FA000416F01014551E2EF17F00101D890010195
:102FB0003F3301013E3301013D3301013C33010147
:102FC0000101412B000E010101013C150101456F7A
:102FD000000E010101013D150101466F000E0101C6
:102FE00001013E150101476FFF0E010101013F156F
:102FF0000101486F01014851451146114711D8A4FC
:1030000004EF18F006EF18F0D5EF17F03CC142F1CD
:103010003DC143F13EC144F141C152F10101420EB3
:1030200001010101506F0101010E0101516FD3EC4B
:1030300016F0010101014051D8B421EF18F023EF3F
:1030400018F031EF18F042C149F143C14AF144C1CF
:103050004BF157EC21F049C142F14AC143F14BC158
:1030600044F142C13CF143C13DF144C13EF139EF6D
:1030700018F012000101370E010101013F6F01013B
:10308000010E0101406F34C13CF135C13DF136C143
:103090003EF1E2EC1BF00101010138AF52EF18F0F4
:1030A00054EF18F084EF18F0010101013651800A45
:1030B000800F07E1000E0101355D03E1000E010103
:1030C000345DD8B066EF18F068EF18F076EF18F0BE
:1030D000000E01010101346F800E01010101356F05
:1030E000BF0E01010101366FEBEF18F0000E010178
:1030F0000101346F000E01010101356F000E010165
:103100000101366FEBEF18F0150E01010101375D7B
:10311000000E01013859D8A090EF18F092EF18F086
:103120009AEF18F034C134F135C135F136C136F1BA
:10313000EBEF18F034C13CF135C13DF136C13EF141
:1031400065EC15F03CC13CF13DC13DF13EC13EF1A5
:103150003FC13FF188EC17F03CC139F13DC13AF174
:103160003EC13BF139C13FF13AC140F13BC141F1B0
:1031700034C13CF135C13DF136C13EF117EC1AF0D6
:10318000D8B0C5EF18F0C7EF18F0E3EF18F0000E55
:1031900001010101466F800E01010101476FBF0E61
:1031A00001010101486F39C143F13AC144F13BC10A
:1031B00045F169EC08F043C134F144C135F145C132
:1031C00036F1EBEF18F039C134F13AC135F13BC1BA
:1031D00036F1EBEF18F012000101010103510F0B62
:1031E00001010101096F000ED66E000ED76E0101BC
:1031F0000A6F000E01010101046F01010A51010172
:10320000010103AB06EF19F008EF19F010EF19F008
:1032100001010A6F200E01010101046F01010A5131
:10322000010101010451D51201010A6F000E0101D3
:103230000101056F01010A510101010103A923EFF9
:1032400019F025EF19F02DEF19F001010A6F100E9A
:1032500001010101056F01010A510101010105513F
:10326000D51201010A6F000E01010101066F010173
:103270000A510101010103AD40EF19F042EF19F0CD
:103280004AEF19F001010A6F400E01010101066FBA
:1032900001010A51010101010651D512010101018B
:1032A0000769010101010951D8B459EF19F05BEF29
:1032B00019F063EF19F001010A6FF70E0101010126
:1032C000076F01010A51010101010751D516F80EDE
:1032D000D516010101010951D8B471EF19F073EF4E
:1032E00019F078EF19F0010101010905070BD5125A
:1032F000F29C01010A6F000E01010101086F01013A
:103300000A510101010103AF88EF19F08AEF19F0AA
:1033100092EF19F001010A6F200E01010101086FFF
:1033200001010A51010101010851F21212000101CB
:1033300001013951030DF35001010101372501014C
:103340003E6FE86AF3BEE86801010101382101011E
:103350003F6F3EC1F6FF3FC1F7FF0900F5CF40F1D7
:103360000900F5CF41F10900F5CF42F140C13BF131
:1033700041C13CF142C13DF103EF1AF03BC146F1BE
:103380003CC147F13DC148F134C143F135C144F17D
:1033900036C145F1E9EC0DF043C143F144C144F1BC
:1033A00045C145F1010101013907D8A03A070101E2
:1033B0003951030DF35001010101372501013E6F21
:1033C000E86AF3BEE86801010101382101013F6F9D
:1033D0003EC1F6FF3FC1F7FF0900F5CF40F10900FC
:1033E000F5CF41F10900F5CF42F140C146F141C1AD
:1033F00047F142C148F169EC08F043C13BF144C1D7
:103400003CF145C13DF1010101013A513911D8A406
:103410000CEF1AF00EEF1AF0BEEF19F03BC134F1C9
:103420003CC135F13DC136F116EF1AF01200010131
:1034300001013EAF1EEF1AF020EF1AF03CEF1AF038
:10344000000E426F000E436F800E446F01010101B8
:103450003C510101425D010101013C6F010101018B
:103460003D510101435901013D6F010101013E51EF
:103470000101445901013E6F0101010141AF43EFD8
:103480001AF045EF1AF061EF1AF0000E426F000ECD
:10349000436F800E446F010101013F510101425D04
:1034A000010101013F6F0101010140510101435937
:1034B0000101406F01010101415101014459010124
:1034C000416F000E010101013C1B000E01010101D1
:1034D0003D1B800E010101013E1B000E0101010197
:1034E0003F1B000E01010101401B800E0101010183
:1034F000411B010101013F51010101013C5D01013D
:1035000001014051010101013D59010101014151F8
:10351000010101013E598DEF1AF0120001011F6FE8
:10352000000E01010101246F01011F510101206FF3
:10353000090E01010101236F0101205129EC1FF047
:103540009F0E01010101216F060E0101226FC9ECDE
:103550001DF001011F6F000E01010101246F010127
:103560001F510101206F090E01010101236F0101AB
:10357000205129EC1FF0640E010101014F6F000E74
:103580000101506F1DC14DF11EC14EF14EEC1CF0FA
:103590004DC123F14EC124F101011F6F000E010145
:1035A0000101266F01011F510101206F0A0E010167
:1035B0000101256F0101205142EC12F0640E01015E
:1035C00001014F6F000E0101506F1DC14DF11EC171
:1035D0004EF171EC1DF04DC123F14EC124F10101FA
:1035E0001F6F000E01010101266F01011F51010132
:1035F000206F0A0E01010101256F0101205142ECEB
:1036000012F0120001012E512B112C112D11D8A4F2
:103610000CEF1BF00EEF1BF01CEF1BF0000E010176
:1036200001012B6F000E010101012C6F000E010141
:1036300001012D6F72EF1BF00101336F8E0E01013E
:1036400001012F6F0101335133EF1BF00101D890BD
:1036500001012E3301012D3301012C3301012B33E4
:10366000010101012F2B000E010101012B150101A8
:10367000336F000E010101012C150101346F000EA2
:10368000010101012D150101356FFF0E010101013D
:103690002E150101366F01013651331134113511E8
:1036A000D8A455EF1BF057EF1BF026EF1BF02BC1F2
:1036B00030F12CC131F12DC132F12FC152F1010194
:1036C000300E01010101506F0101010E0101516F26
:1036D000D3EC16F030C12BF131C12CF132C12DF1F8
:1036E00072EF1BF012000101010135513411D8A411
:1036F0007CEF1BF07EEF1BF08CEF1BF0000E010146
:103700000101346F000E01010101356F000E01014E
:103710000101366FE1EF1BF00101010134C137F106
:103720000101010135C138F101010101396B0101CC
:1037300038BF39070101010135AFA1EF1BF0A3EF3D
:103740001BF0AFEF1BF001010101391F0101381F10
:103750000101376D000E01013823010139230101F8
:103760003A6F8E0E01010101526F01013A510101C0
:10377000370E01010101506F0101010E0101516F6E
:10378000D3EC16F00101010135AFC9EF1BF0CBEF0F
:103790001BF0D9EF1BF037C149F138C14AF139C1EB
:1037A0004BF157EC21F049C137F14AC138F14BC117
:1037B00039F137C134F138C135F139C136F1E1EFB2
:1037C0001BF01200010101013C5101013D110101F9
:1037D0003E11D8A4EEEF1BF0F0EF1BF006EF1CF04B
:1037E0003FC1E9FF40C1EAFF000EEE6E000EED6E34
:1037F000000E010101013C6F000E010101013D6F4E
:10380000000E010101013E6F4DEF1CF001013E5120
:103810007F0B0101416FD890010141350101426FD9
:103820000101436B010143373FC1E9FF40C1EAFF9A
:1038300042C1EEFF43C1EDFF01013D35E836010B0A
:103840000101416F010141513FC1E9FF40C1EAFF60
:10385000EE12000EED123FC1E9FF40C1EAFF820EF9
:10386000EE26FF0EED2201013E8101013E830101A2
:103870003E8501013E8701013E8901013E8B010128
:103880003E9D0B000E0001013D9F3CC13CF13DC13E
:103890003DF13EC13EF14DEF1CF01200000E010162
:1038A0000101526F000E0101536F010101015051DE
:1038B0004F11D8B45EEF1CF060EF1CF0AFEF1CF0BE
:1038C0000101546F010E01010101516F01015451B9
:1038D00073EF1CF00101D89001014F3701015037FF
:1038E00001010101512B0101010150AF7AEF1CF0E0
:1038F0007CEF1CF06AEF1CF00101D89001015237F7
:1039000001015337010101014F51010101014D5DD9
:10391000010101015051010101014E59D8A093EF5D
:103920001CF095EF1CF0A4EF1CF0010101014F51B8
:10393000010101014D5F010101015051010101012E
:103940004E5B0101010152810101D8900101503308
:1039500001014F3301010101512F7CEF1CF052C1D5
:103960004DF153C14EF1B5EF1CF01200D6CF25F149
:10397000000E01010101266F000E0101276FD58A9B
:10398000D58800F000F0D59800F000F001010101A9
:10399000264B272B010125C128F10101296BD750A6
:1039A0000101291903E1D65001012819D8A4DBEF40
:1039B0001CF0DDEF1CF0EBEF1CF0000E010101012B
:1039C000265D010E01012759D8A0E9EF1CF0EBEFAD
:1039D0001CF0C0EF1CF0000E0101286F010E296FD2
:1039E0000101010126510101285F01010101275157
:1039F0000101295B01010101255101012B6F2A6B96
:103A00000101285101012A2501010101266F01014F
:103A1000295101012B210101276F26C123F127C163
:103A200024F113EF1DF0120050C1E9FF51C1EAFF6C
:103A3000010EEB34020EEB3401010101546F52C14F
:103A4000E9FF53C1EAFF010154C1EFFF0101010188
:103A500054672DEF1DF02FEF1DF03DEF1DF050C10D
:103A6000E9FF51C1EAFF000EEE6E000EEE6E000E91
:103A7000ED6EED52000E70EF1DF00101556F000E5E
:103A800001010101546F0101555150C1E9FF51C1BC
:103A9000EAFF010EEB8E50C1E9FF51C1EAFFEECF04
:103AA00055F1EECF56F1EECF57F1010157AF5BEF75
:103AB0001DF05DEF1DF060EF1DF001010101542BC1
:103AC00050C1E9FF51C1EAFFFF0EEE16FF0EEE16E0
:103AD000000EED16ED5201010101545170EF1DF081
:103AE00012000101010150514F11D8B47AEF1DF0BD
:103AF0007CEF1DF0C2EF1DF00101526F010E0101BC
:103B00000101516F010152518FEF1DF00101D89059
:103B100001014F370101503701010101512B010112
:103B2000010150AF96EF1DF098EF1DF086EF1DF0EC
:103B3000010101014F51010101014D5D010101012F
:103B40005051010101014E59D8A0A9EF1DF0ABEF72
:103B50001DF0B7EF1DF0010101014F5101010101FD
:103B60004D5F010101015051010101014E5B010155
:103B7000D8900101503301014F3301010101512F50
:103B800098EF1DF04DC14DF14EC14EF1C8EF1DF043
:103B900012000101246F000E01010101236F0101D8
:103BA0002451FAEF1DF00101246F010E0101010102
:103BB0002D6F010124510101010123510101010176
:103BC00021250101256FE86A0101010123BFE86891
:103BD0000101010122210101266F25C1F6FF26C145
:103BE000F7FF08000101F5CF2CF106EC22F00101EE
:103BF0000101232B010101012351010101012125B3
:103C00000101246FE86A0101010123BFE868010195
:103C1000010122210101256F24C1F6FF25C1F7FF13
:103C20000800F5500009D8A418EF1EF01AEF1EF096
:103C3000D3EF1DF01200000E010101011F6F000EF5
:103C40000101206F44EF1EF0010101011F5101012C
:103C500001011D250101216FE86A010101011FBF5A
:103C6000E868010101011E210101226F21C1F6FF57
:103C700022C1F7FF08000101F5CF23F14AEC22F041
:103C8000010101011F4B202B010101011F51010105
:103C900001011D250101216FE86A010101011FBF1A
:103CA000E868010101011E210101226F21C1F6FF17
:103CB00022C1F7FF0800F5500009D8A462EF1EF0FA
:103CC00064EF1EF024EF1EF01200100E01014E6F83
:103CD0004F6B17380F0B0101506F0101505101015B
:103CE0004E5F000E4F5B01014F51800A800F010EA5
:103CF000D8B44E5DD8B07FEF1EF081EF1EF083EF99
:103D00001EF0A7EF1EF017380F0B01014E6F070EC4
:103D100001014E25E96EEA6A000EEA2201014DC159
:103D2000EFFF010E01014E6F17380F0B01014F6FAE
:103D300001014E5101014F2701014F3B1750010175
:103D40004F190F0B01014F19176EA7EF1EF012004C
:103D50000101126F300E010101014D6F010112517D
:103D600065EC1EF00101126F780E010101014D6F2B
:103D70000101125165EC1EF00101126FFC0E0101F0
:103D80000101266F010112510101136F100E010193
:103D90000101256F0101135110C123F111C124F15B
:103DA00042EC12F00101126FFC0E01010101266FBD
:103DB000010112510101136F100E01010101256F64
:103DC000010113510EC123F10FC124F142EC12F095
:103DD0001200010101011E511D11D8A4F2EF1EF0C5
:103DE000F4EF1EF002EF1FF0000E010101011D6F44
:103DF000000E010101011E6F000E010101011F6F84
:103E000028EF1FF0010101011DC120F10101010195
:103E10001EC121F101010101226B0101236F8E0EF0
:103E200001010101526F010123510101200E010125
:103E30000101506F0101010E0101516FD3EC16F029
:103E400020C11DF121C11EF122C11FF128EF1FF079
:103E500012007FC025F180C026F181C027F182C009
:103E600028F14B04D8A437EF1FF039EF1FF051EFC2
:103E70001FF00101296F140E01010101266F0101DC
:103E800029510101296F280E01010101276F01014C
:103E900029510101296F3C0E01010101286F010127
:103EA00029510101250E010101012425E96EEA6A6B
:103EB0000101010EEA22EF500101010123258009D1
:103EC000010101012A6F5BEC22F0120001010101E6
:103ED00003510F0B01010101056F0101066F000E77
:103EE00001010101046F01010651800EBA1604C1DF
:103EF00006F10F0E010106170101D89006370101E6
:103F0000D89006370101D8900635BA120101010197
:103F10000551030BBA12000EBC6EBA849E920101C9
:103F2000010103BF96EF1FF099EF1FF0010E9AEF0A
:103F30001FF0000E0101066F0101D89006359D6E3D
:103F40001200949C948E010E556E000E566E84C025
:103F5000AFFF000E00010001656F000E0001666FEB
:103F6000000E000100016B6F000E00016C6F000E6F
:103F700000010001636F000E0001646F010E00017B
:103F800000016D6F000E00016E6F010E516E000E8C
:103F9000526E9D98010E00010001676F000E000136
:103FA000686FF28C000E446E44C042F042C047F08D
:103FB00047C043F01200000E01010101476F000EDF
:103FC0000101486F0101010143A1E9EF1FF0EBEF8F
:103FD0001FF0F7EF1FF0010101014551010101013F
:103FE0004727010101014651010101014823010157
:103FF000D89001014537010146370101D8900101F0
:104000004433010143330101010144514311D8A458
:104010000CEF20F00EEF20F0E2EF1FF047C143F16C
:1040200048C144F114EF20F0120001011E6F000E90
:1040300001010101246F01011E5101011F6F0E0ECC
:1040400001010101236F01011F5129EC1FF0010142
:104050001E6F000E01010101246F01011E51175056
:104060000F0B01011F6F17380F0B0101206F0101AA
:104070001F510101205D0101216F01012151100833
:1040800001010101236F29EC1FF0E50E010101017F
:10409000256F060E0101266F9DEC21F01200010133
:1040A000246F000E01010101236F010124516AEF09
:1040B00020F0070E010101012325E96EEA6A000ED6
:1040C000EA22EF5001010101276FE0EC20F001012D
:1040D0000101232B17380F0B01010101235DD8A02B
:1040E00074EF20F076EF20F059EF20F0E50E01019B
:1040F0000101256F060E0101266F9DEC21F01200D3
:104100000101046F010E01010101246F010104513D
:104110000101056F000E01010101236F010105512D
:1041200029EC1FF0010101010351D8B49AEF20F0EE
:104130009CEF20F0A7EF20F0CC0E01010101216FD0
:10414000060E0101226FC9EC1DF0B0EF20F0A10EA8
:1041500001010101216F060E0101226FC9EC1DF062
:1041600012000101046F000E496E010104510101AA
:10417000046F100E416E0101045101010101035150
:10418000D8B4C5EF20F0C7EF20F0CDEF20F001014B
:10419000046F000E416E010104510101046F000E15
:1041A0004B6E010104510101046F000E4A6E0101C2
:1041B000045193948A9493968A960F0E8A1612004D
:1041C000E4EF20F0E4EF20F042C028F10101296B78
:1041D000010E01012827000E29230F0E01012817C7
:1041E000000E29174450010128192911D8B4FBEFFA
:1041F00020F0FDEF20F0E2EF20F0F29E1B0E4224B3
:10420000E96EEA6A000EEA22010127C1EFFF4228A7
:104210000F0B426E9D88F28E12001FEF21F00101FC
:1042200023C1F6FF010124C1F7FF08000101F5CF0A
:104230004DF165EC1EF001010101234B242B01011E
:1042400023C1F6FF010124C1F7FF0800F550000962
:10425000D8A42DEF21F02FEF21F00FEF21F031EF57
:1042600021F012001FC12BF120C12CF121C12DF131
:1042700098EC10F02BC143F12CC144F12DC145F154
:104280005C0E01010101466FDE0E01010101476F65
:104290003E0E01010101486FE9EC0DF043C11FF131
:1042A00044C120F145C121F156EF21F01200010176
:1042B0000101495101014A1101014B11D8B463EFC9
:1042C00021F065EF21F071EF21F0000E01010101F5
:1042D000491B000E010101014A1B800E0101010171
:1042E0004B1B49C149F14AC14AF14BC14BF179EF2E
:1042F00021F01200000E010101013C1B000E010122
:1043000001013D1B800E010101013E1B3CC146F134
:104310003DC147F13EC148F139C143F13AC144F1D1
:104320003BC145F169EC08F043C139F144C13AF1B0
:1043300045C13BF19CEF21F01200AFEF21F00101EC
:1043400025C1F6FF010126C1F7FF08000101F5CFE5
:1043500027F1E0EC20F001010101254B262B0101A2
:1043600025C1F6FF010126C1F7FF0800F55000093D
:10437000D8A4BDEF21F0BFEF21F09FEF21F0120094
:1043800036C146F137C147F138C148F134C1E9FFC0
:1043900035C1EAFF0101EECF43F10101EECF44F157
:1043A0000101EDCF45F1E9EC0DF034C1E9FF35C174
:1043B000EAFF43C1EEFF44C1EEFF45C1EDFFED5200
:1043C000E2EF21F0120036C13CF137C13DF138C1B6
:1043D0003EF134C1E9FF35C1EAFF0101EECF39F109
:1043E0000101EECF3AF10101EDCF3BF17AEC21F082
:1043F00034C1E9FF35C1EAFF39C1EEFF3AC1EEFF32
:104400003BC1EDFFED5205EF22F012000101010169
:104410002D51D8B40EEF22F010EF22F013EF22F05E
:104420008A8414EF22F08A94010101012C390F0BC8
:10443000010101012E6F38EC22F02CC12EF138EC75
:1044400022F012000101066F010E010101012A6F25
:10445000010106515BEC22F0100E0101066F940E73
:10446000E82E30EF22F0062F30EF22F00400120089
:104470000F0E8A16010101012E39F00B8A128A866D
:10448000080EE82E41EF22F08A96C80EE82E46EF7D
:1044900022F012000101246F010E010101012D6FB4
:1044A0000101245123C12CF106EC22F023C127F194
:1044B000E0EC20F0120001012B6F000E0101010160
:1044C0002D6F01012B512AC12CF106EC22F01200B4
:1044D00017901792179417960B000E001798179ABB
:0C44E000179C179E0B000E00120012002B
:00000001FF
