:040000000AEF00F013
:10000800E9CF4EF1EACF4FF127ED0EF000EE58F0B0
:10001800EA0EF66E080EF76E10EE06F031EC00F000
:1000280000EE00F0580EEE6AE806FDE104EE00F07E
:1000380011EE00F02AEC00F00FEE70F00F0EEE6AF1
:10004800E806FDE1000EF86E56EF09F0EE6AE5509D
:10005800E150FCE1E250FAE112000900F5CFEEFFB1
:0C006800E550E150FAE1E250F8E112002E
:100800000000803F72313FFE753E58633D951D3CB0
:10081000C5AE3A79213994803793A73556153400FF
:10082000000000803FF0FFBEE2A93E8376BEAE2B03
:100830003E3CC3BDD2133D78D3BB2D204C20285560
:100840006E69743A204829202D002D204320285518
:100850006E69743A204629202D00706C65617365BD
:1008600020776169742E2E2E00496E647563746959
:1008700076697479200043616C6962726174696E93
:100880006700436170616369747920004C432D6D8A
:100890006574657220000D0A4343616C3D002020A1
:1008A00020202020000D0A46313D00467265713D32
:1008B000000D0A46333D000D0A46323D00524334D6
:1008C0003D0043696E3D007661723D002D2A2D008A
:1008D0006D46006E46007046007546006D48006E1D
:1008E00048007548000D0A00000000401454FF1F26
:1008F000000E01011E6BF5EC11F0820EA5EC13F059
:100900005DEC0BF019C105F11AC106F105C119F131
:1009100006C11AF169EC12F019C12BF01AC12CF0C2
:100920001BC12DF0C70EDEEC13F005C10AF106C1A4
:100930000BF10C6B0D6BA0EC12F0C4EC13F0A50ED8
:10094000DEEC13F018C00AF119C00BF11AC00CF15B
:10095000BFEC08F0C4EC13F0200E16EC13F018C036
:100960000AF119C00BF11AC00CF11BC00DF1A0EC7B
:1009700012F0C4EC13F0B70EDEEC13F02EC00AF147
:100980002FC00BF130C00CF1BFEC08F0C4EC13F039
:10099000200E16EC13F02EC00AF12FC00BF130C060
:1009A0000CF131C00DF1A0EC12F0C4EC13F0B10E5B
:1009B000DEEC13F02BC00AF12CC00BF12DC00CF1B2
:1009C000BFEC08F0C4EC13F0200E16EC13F02BC0B3
:1009D0000AF12CC00BF12DC00CF12EC00DF1A0ECD2
:1009E00012F0C4EC13F0960EDEEC13F000C00AF126
:1009F00001C00BF102C00CF1BFEC08F0C4EC13F025
:100A0000200E16EC13F000C00AF101C00BF102C079
:100A10000CF103C00DF1A0EC12F0C4EC13F0E50EE4
:100A2000DEEC13F02BC039F12CC03AF12DC03BF1B4
:100A300018C036F119C037F11AC038F136EC11F090
:100A400006E218C02BF019C02CF01AC02DF018C007
:100A50003EF119C03FF11AC040F118C03BF119C076
:100A60003CF11AC03DF17BEC0EF03BC101F13CC101
:100A700002F13DC103F12BC03EF12CC03FF12DC06E
:100A800040F12BC03BF12CC03CF12DC03DF17BEC83
:100A90000EF03BC136F13CC137F13DC138F101C127
:100AA00033F102C134F103C135F1D4EC12F033C19A
:100AB0003BF134C13CF135C13DF115EC0BF07BEC61
:100AC0000EF015EC0BF07BEC0EF000C03EF101C017
:100AD0003FF102C040F17BEC0EF03BC107F13CC19D
:100AE00008F13DC109F1C20EDEEC13F007C10AF1B5
:100AF00008C10BF109C10CF1BFEC08F0200E16EC97
:100B000013F007C10AF108C10BF109C10CF10AC1C8
:100B10000DF1A0EC12F0E50EDEEC13F007C139F197
:100B200008C13AF109C13BF1C00E366F790E376F3B
:100B3000440E386F36EC11F03EE207C139F108C1BE
:100B40003AF109C13BF1E60E366F730E376F490E6D
:100B5000386F36EC11F025E207C139F108C13AF1DE
:100B600009C13BF12E0E366F6E0E376F4E0E386F89
:100B700036EC11F00BE26B0E1B6F6E0E1C6F4E0EFF
:100B80000FEC0BF012EC12F0040E16D0240E1B6FBB
:100B9000740E1C6F490E0FEC0BF012EC12F0050EE8
:100BA0000BD01B6B7A0E1C6F440E0FEC0BF012EC8B
:100BB00012F0060E01D0070E046F306BC80E316FB5
:100BC000420E326F070E2E6F010E2F6F2FEC12F0B8
:100BD00007C136F108C137F109C138F1B7EC0FF0A0
:100BE00036C105F137C106F105C119F106C11AF187
:100BF000A1EC10F0045172EF13F0000E01011E6B16
:100C0000F5EC11F0690EA5EC13F05DEC0BF019C1D9
:100C10000EF11AC10FF10EC119F10FC11AF169ECF1
:100C200012F019C12BF01AC12CF01BC12DF02BC0F2
:100C300039F12CC03AF12DC03BF118C036F119C082
:100C400037F11AC038F136EC11F006E218C02BF07B
:100C500019C02CF01AC02DF018C03EF137EC0BF083
:100C60007BEC0EF03BC101F13CC102F13DC103F14F
:100C700018C03EF137EC0BF07BEC0EF03BC104F1F9
:100C80003CC105F13DC106F12BC03EF12CC03FF146
:100C90002DC040F12BC03BF12CC03CF12DC03DF1EB
:100CA0007BEC0EF03BC107F13CC108F13DC109F1FD
:100CB00007C136F108C137F109C138F104C133F178
:100CC00005C134F106C135F1D4EC12F033C10AF19B
:100CD00034C10BF135C10CF12EC036F12FC037F104
:100CE00030C038F12EC033F12FC034F130C035F1AF
:100CF000D4EC12F033C136F134C137F135C138F1DB
:100D000001C133F102C134F103C135F1D4EC12F069
:100D100033C13EF134C13FF135C140F10AC13BF16D
:100D20000BC13CF10CC13DF17BEC0EF0400E3E6F6F
:100D30001C0E3F6F460E406F7BEC0EF03BC113F173
:100D40003CC114F13DC115F118C03EF137EC0BF078
:100D50007BEC0EF030EC0BF07BEC0EF030EC0BF09B
:100D60007BEC0EF029EC0BF07BEC0EF029EC0BF099
:100D70007BEC0EF000C03EF101C03FF102C040F13B
:100D80007BEC0EF0EA0E3E6F1D0E3F6F420E406F81
:100D90007BEC0EF03BC110F13CC111F13DC112F1F1
:100DA00010C131F111C132F112C133F113C12EF171
:100DB00014C12FF115C130F1CCEC0EF02EC13BF176
:100DC0002FC13CF130C13DF1600E3E6F630E3F6FAD
:100DD000580E406F7BEC0EF03BC116F13CC117F191
:100DE0003DC118F116C139F117C13AF118C13BF1F3
:100DF000C00E366F790E376F440E386F36EC11F037
:100E00003EE216C139F117C13AF118C13BF1E60EC5
:100E1000366F730E376F490E386F36EC11F025E2DE
:100E200016C139F117C13AF118C13BF12E0E366FD8
:100E30006E0E376F4E0E386F36EC11F00BE26B0E04
:100E40001B6F6E0E1C6F4E0E23EC0BF012EC12F0AB
:100E50000D6B17D0240E1B6F740E1C6F490E23EC04
:100E60000BF012EC12F0010E0BD01B6B7A0E1C6F04
:100E7000440E23EC0BF012EC12F0020E01D0030E24
:100E80000D6F306BC80E316F420E326F160E2E6F23
:100E9000010E2F6F2FEC12F016C136F117C137F18A
:100EA00018C138F1B7EC0FF036C10EF137C10FF1B0
:100EB0000EC119F10FC11AF1A1EC10F00D5172EF32
:100EC00013F025512611271105E1256B800E266FA1
:100ED0003F0E12D025C139F126C13AF127C13BF1AD
:100EE000720E366F310E376F440E386F36EC11F0DC
:100EF00005E225697F0E266F276FA7D0490E396F4F
:100F00003A0E3A6FC40E3B6F25C136F126C137F158
:100F100027C138F136EC11F001E280D02751800A68
:100F2000800F05E1000E265D02E1000E255D02E264
:100F3000010E01D0000E2B6F2B510EE025C141F1A7
:100F400026C142F127C143F107EC14F041C125F15C
:100F500042C126F143C127F1AA0E306FB80E316F9E
:100F60003F0E326F250E2E6F010E2F6F2FEC12F0F9
:100F700025C12EF126C12FF127C130F1D2EC0BF0A3
:100F80002EC136F12FC137F130C138F1B7EC0FF077
:100F900036C12CF137C12DF12CC12EF12DC12FF10D
:100FA0006CEC10F02EC128F12FC129F130C12AF1CB
:100FB00028C130F129C131F12AC132F1250E2E6F3D
:100FC000010E2F6F4CEC12F0090E326F336B010ED5
:100FD000316F25C12EF126C12FF127C130F1CCECA4
:100FE0000DF02EC12EF12FC12FF130C130F12CC1E7
:100FF00031F12DC132F16AEC0FF02EC125F12FC174
:1010000026F130C127F12B5120E0FF0E25197F0E6C
:10101000D8B426197F0ED8B4271904E1256B266BA6
:10102000276B13D025C131F126C132F127C133F12D
:101030002E6B800E2F6F3F0E306FCCEC0EF02EC15A
:1010400025F12FC126F130C127F11200420E486F61
:10105000010E496F3B0E466F010E476F34EC10F0E6
:10106000D96E426707D03EC13BF13FC13CF140C160
:101070003DF184D0410E486F010E496F3E0E466F20
:10108000010E476F34EC10F0E16E41516BE0060E3B
:10109000E96E4151426122D04251415D436F190EC8
:1010A000435D08E33B6B3C6B3D6B41C142F1E1CFDB
:1010B000D9FF34D0D8903E373F37403741074151B0
:1010C000421908E0E92EF6D705D0D8903D333C33DD
:1010D0003B33422B41514263F8D720D04251411952
:1010E0001DE04151425D436F190E435D04E33E6BC9
:1010F0003F6B406B13D0D8903B373C373D374207AE
:101100004151421908E0E92EF6D705D0D890403376
:101110003F333E33412B41514263F8D7D95007E06A
:101120003B1F3C1F3D1F3B2B000E3C233D23E1504A
:1011300007E03E1F3F1F401F3E2B000E3F23402372
:10114000D96A3E513B273F513C2340513D233DAF9F
:1011500009D03B1F3C1F3D1F3B2B000E3C233D2372
:10116000010ED96E42C148F13B0E466F010E476F2A
:10117000A5EC0CF0D95002E0800E3D1B12000AC114
:101180001AF10BC11BF10CC11CF1D8EC11F01AC102
:1011900036F11BC137F11CC138F1B7EC0FF036C185
:1011A00015F137C116F10AC139F10BC13AF10CC181
:1011B0003BF1366B376B340E386F36EC11F075E25D
:1011C00015C12EF116C12FF16CEC10F02EC11DF1DE
:1011D0002FC11EF130C11FF11A6B200E1B6F410E83
:1011E0001C6FE2EC09F01AC117F11BC118F11CC108
:1011F00019F117C131F118C132F119C133F10AC126
:101200002EF10BC12FF10CC130F1CCEC0EF02EC140
:101210002EF12FC12FF130C130F1D2EC0BF02EC1E5
:1012200036F12FC137F130C138F1B7EC0FF036C1CC
:1012300013F137C114F113C12EF114C12FF16CEC6D
:1012400010F02EC10DF12FC10EF130C10FF10DC103
:101250003BF10EC13CF10FC13DF117C13EF118C188
:101260003FF119C140F17BEC0EF03BC110F13CC1E4
:1012700011F13DC112F110C130F111C131F112C1B2
:1012800032F10A0E2E6F010E2F6F4CEC12F013513B
:10129000300F8DEC11F01651151103E12E0E8DEC6F
:1012A00011F01507D8A016077ED712004A6A4B6ABC
:1012B0004C6A4D6A4AC04EF04BC04FF04CC050F0E3
:1012C0004DC051F04EC003F04FC004F003C005F014
:1012D00004C006F05C68006A7A0E016E440E026E6D
:1012E000CF0E926E0F0E9316680ED3EC10F0F18EA7
:1012F000BB0E946E94948B948B84800EBAEC12F097
:10130000010E94EC13F0010E016F020E3CEC0CF098
:101310009480949A8B94320E13EC14F08B84320EDA
:1013200013EC14F08B94320E13EC14F08B84320E09
:1013300013EC14F08B9460EC13F0C00EF212000E5C
:1013400001011E6BF5EC11F08C0E02EC13F000C0E5
:101350000AF101C00BF102C00CF1BFEC08F0050E60
:1013600013EC14F00CEC0DF0D1EC13F082A002D0D1
:10137000010E01D0000EF36EF3505C180FE03A0E30
:101380000101006F5C5002E04A0E006F0051DEEC7C
:1013900013F0E50EDEEC13F0F3CF5CF05C5003E0ED
:1013A00078EC04F002D0FDEC05F0010E4EEC13F0E9
:1013B0001E0E13EC14F0000E4EEC13F0140E13EC92
:1013C00014F0D4D7206B1A511B111C110DE11DC153
:1013D00039F11EC13AF11FC13BF1000E366B376B7C
:1013E000386B36EC11F037D01D511E111F1106E17C
:1013F0001A6B800E1B6F3F0E1C6F66D01C51800A4B
:10140000800F05E1000E1B5D02E1000E1A5D30E267
:101410001DC136F11EC137F11FC138F1B7EC0FF015
:1014200036C121F137C122F138C123F139C124F18C
:1014300021C125F122C126F123C127F124C128F1C0
:1014400005EC11F01F51271905E11E51261902E183
:101450001D51251904E01A6B1B6B1C6B35D02151F3
:10146000010B206F49EC0BF007EC14F042EC0BF091
:101470001AC125F11BC126F11CC127F165EC0AF048
:1014800025C13BF126C13CF127C13DF11DC13EF113
:101490001EC13FF11FC140F17BEC0EF03BC125F1B5
:1014A0003CC126F13DC127F161EC07F025C11AF1DD
:1014B00026C11BF127C11CF1205106E049EC0BF0BD
:1014C00007EC14F042EC0BF0120001012751800AE6
:1014D000800F05E1000E265D02E1000E255D04E3AC
:1014E00025512611271104E1256B266B276B69D046
:1014F000280E396F010E3A6F25C136F126C137F13A
:1015000027C138F1FCEC0FF036C13BF137C13CF19B
:1015100038C13DF13E6B3F6B400E406F7BEC0EF0EF
:101520003BC13BF13CC13CF13DC13DF13E6B800E06
:101530003F6FBF0E406F26EC08F03BC125F13CC168
:1015400026F13DC127F12807D8A02907080E326FE0
:10155000336B1F0E316F25C12EF126C12FF127C12C
:1015600030F1CCEC0DF02EC125F12FC126F130C1A8
:1015700027F128C12EF129C12FF16CEC10F02EC1FA
:101580003BF12FC13CF130C13DF1720E3E6F310E87
:101590003F6F3F0E406F7BEC0EF03BC13BF13CC117
:1015A0003CF13DC13DF125C13EF126C13FF127C1CE
:1015B00040F126EC08F03BC125F13CC126F13DC1CC
:1015C00027F1120046C1E9FF47C1EAFFEC52EC5295
:1015D000D890ED32ED32EF321200E1CFF6FF080E77
:1015E000F76E0800F55012003E5143273F51442347
:1015F000405145231200410E01011D6FEE0E1200F5
:10160000F45019251B6F1BC1F6FF080EF76E08007A
:10161000F5501200210E0101026F760E12001D6FAF
:10162000070E196F010E1A6F12002EC03EF12FC067
:101630003FF130C040F11200E1CFF6FF080EF76E27
:101640000800F55012001D6F160E196F010E1A6F6B
:1016500012002BC03EF12CC03FF12DC040F1120012
:101660002EC03EF12FC03FF130C040F1120019C032
:101670003FF11AC040F118C03BF119C03CF11AC04B
:101680003DF1120041C11AF142C11BF143C11CF1ED
:1016900012001AC141F11BC142F11CC143F11200F9
:1016A00019C119F11AC11AF112001B6F1BC1F6FF03
:1016B000080EF76E0800F5501200F2949298820E10
:1016C0001D6FDD0EE82EFED71D2FFCD700D0D66A89
:1016D000D76AFBEC0AF0E82EFED71D2FFCD70400DA
:1016E000FBEC0AF0E82EFED71D2FFCD70400FBEC24
:1016F0000AF0E82EFED71D2FFCD70400FBEC0AF001
:10170000E82EFED71D2FFCD70400FBEC0AF0E82ED4
:10171000FED71D2FFCD70400FBEC0AF0E82EFED705
:101720001D2FFCD70400FBEC0AF0E82EFED71D2F7E
:10173000FCD70400FBEC0AF0E82EFED71D2FFCD7E7
:101740000400FBEC0AF0E82EFED71D2FFCD70400A6
:10175000FBEC0AF0E82EFED71D2FFCD70400928880
:1017600063EC11F01EC11BF11FC11CF1010E1E6FB5
:10177000000EF5EC11F00EEC14F0AB0EEAEC13F0E9
:10178000050E0101216F0A0E206F1BC11EF11CC145
:101790001FF16FEC0DF083EC13F01BC119F11CC1AC
:1017A0001AF11200310E396F010E3A6F2EC136F167
:1017B0002FC137F130C138F1FCEC0FF032AF14D04B
:1017C0003051800A800F05E1000E2F5D02E1000E0E
:1017D0002E5D06E22E6B800E2F6FBF0E306F4BD04A
:1017E0002E6B2F6B306B47D0150E315D000E3259CA
:1017F00001E341D02EC136F12FC137F130C138F1AC
:10180000B7EC0FF036C136F137C137F138C138F1D6
:1018100039C139F11CEC0FF036C133F137C134F165
:1018200038C135F133C139F134C13AF135C13BF139
:101830002EC136F12FC137F130C138F136EC11F03D
:1018400014E23E6B800E3F6FBF0E406F33C13BF121
:1018500034C13CF135C13DF126EC08F03BC12EF11D
:101860003CC12FF13DC130F106D033C12EF134C15E
:101870002FF135C130F11200E8CFD9FF010ED96444
:1018800001D04186D9CF49F0015103E0D904D8B441
:101890004184620E026F650EE82EFED7022FFCD740
:1018A00000D08A948A9641B81AD0030E3CEC13F00B
:1018B0000AEC0BF0E82EFED7022FFCD70400030E33
:1018C0003CEC13F0FA0EE82EFED7030E3CEC13F0BE
:1018D000FA0EE82EFED7020E3CEC13F01AD041505F
:1018E000200900EC14F00AEC0BF0E82EFED7022FD2
:1018F000FCD704004150200900EC14F00AEC0BF076
:10190000E82EFED7022FFCD704004150200900EC3E
:1019100014F04150200900EC14F0040E486E4850B9
:10192000080900EC14F0010E00EC14F00D0E01019A
:10193000026FFB0EE82EFED7022FFCD700D0020E5E
:10194000476E4750040900EF14F0485146C1E9FFC3
:1019500008E047C1EAFFEE50EE10ED100CE146C181
:10196000E9FF47C1EAFF000EEE6AEE6AED6A53D066
:10197000482BE2EC0AF046C1E9FF47C1EAFFEE520C
:10198000EE52FE0EED140CE0F3D7482B46C1E9FFF2
:1019900047C1EAFFEE2A000EEE22ED22E2EC0AF049
:1019A00046C1E9FF47C1EAFFEE52EE52FF0EED14C9
:1019B0000AE0EBD7480746C1E9FF47C1EAFFD890E4
:1019C000EE36EE36ED3646C1E9FF47C1EAFFEECF0F
:1019D00049F1EECF4AF1EECF4BF14AAFEBD748B128
:1019E0000AD046C1E9FF47C1EAFFFF0EEE167F0E9F
:1019F000EE16FF0EED16D890483348514B6F4A6BE8
:101A0000496B46C1E9FF47C1EAFF4951EE124A510D
:101A1000EE124B51ED121200D1EC13F0000E010149
:101A20001E6BF5EC11F0760EA5EC13F0010E1E6F97
:101A3000000EF5EC11F0E50EDEEC13F05A0EA5ECFD
:101A400013F08B945DEC0BF050EC0BF069EC12F0A2
:101A500019C118F01AC119F01BC11AF0320E13EC9B
:101A600014F05DEC0BF050EC0BF069EC12F019C1C6
:101A700018F01AC119F01BC11AF08B845DEC0BF041
:101A800050EC0BF069EC12F019C12EF01AC12FF0D6
:101A90001BC130F0320E13EC14F05DEC0BF050EC87
:101AA0000BF069EC12F019C12EF01AC12FF01BC116
:101AB00030F08B941E6B0B0EF5EC11F0E96A010E01
:101AC0000101236F3D0EB6EC13F01C0E13EC14F065
:101AD000E92A050EE964F3D7E50EDEEF13F0E16ABB
:101AE000200E246F21AF03D0216D300E246F20C152
:101AF00048F1496B1EC146F11FC147F185EC12F058
:101B00004651E96E370F226F236B000E23230A0E16
:101B1000E96006D0300EE924226F236B000E2323E8
:101B2000250EE124E96EEA6A010EEA2222C1EFFFE6
:101B3000E12A20C148F1496B1EC146F11FC147F19E
:101B4000B3EC11F046C11EF147C11FF11F511E1128
:101B500004E0CDD724518DEC11F0E150800A456F9F
:101B600021072129800A455DF5E3E150800A7F0FB6
:101B700012E3E1CF45F1FF0E4527250E4525E96E1D
:101B8000EA6A010EEA22EF508DEC11F0E106E15015
:101B9000800A7F0FEEE212003251030D3151F3241F
:101BA000376F37C1F6FF080EF76E0900F5CF38F131
:101BB0000900F5CF39F10900F5CF3AF138C134F118
:101BC00039C135F13AC136F13351321139E034C1FE
:101BD0003EF135C13FF136C140F12EC13BF12FC17D
:101BE0003CF130C13DF17BEC0EF03BC13BF13CC11F
:101BF0003CF13DC13DF13207D8A03307010132511C
:101C0000030D3151F324376F37C1F6FF080EF76E1D
:101C10000900F5CF38F10900F5CF39F10900F5CF0A
:101C20003AF138C13EF139C13FF13AC140F126ECF9
:101C300008F03BC134F13CC135F13DC136F1C4D7A8
:101C400034C12EF135C12FF136C130F1120006003A
:101C50009EA22BD0062A880E055C130E065824E39C
:101C6000880E055E130E065A034A042A8B94410E11
:101C7000035C030E045802E3010E01D0000E0101C3
:101C80004D6FD8904D37D8904D358B12E80E035CD0
:101C9000030E045809E34A2A000E4B224C224D221F
:101CA000E80E035E030E045A9E929EAA0ED0435085
:101CB000310FE96EEA6AAECFEFFF43280F0B466E95
:101CC00046504518D8A446C043F09EB89DA80ED0F3
:101CD00044501B0FE96EEA6AEF50AD6E442A0F0EB6
:101CE00044164250446201D09D989E984FC1EAFF2D
:101CF0004EC1E9FF1100436B446B456B410E486FC9
:101D0000010E496F3B0E466F010E476F34EC10F029
:101D1000D96E420E486F010E496F3E0E466F010E9E
:101D2000476F34EC10F0D91A42512FE0416701D0CF
:101D30002CD042517B0F4127070E426F3BB1F4EC90
:101D40000AF0D8903D333C333B33D8903E373F3791
:101D50004037422FF3D7090E426F3BB1F4EC0AF043
:101D6000D8903D333C333B33D890453344334333F1
:101D7000422FF3D741C148F1430E466F010E476F22
:101D8000A5EC0CF0D950D8A4458F43C13BF144C118
:101D90003CF145C13DF11200366B376B386B350EA7
:101DA000486F010E496F2E0E466F010E476F34ECDF
:101DB00010F0D96E356701D038D0340E486F010E5F
:101DC000496F310E466F010E476F34EC10F0E16E33
:101DD000346701D02AD03451890F355FE150D91AC8
:101DE000180EE16ED89036373737383731512E5DBF
:101DF00032512F593351305907E331512E5F32514F
:101E00002F5B3351305B3681D8902E372F373037E8
:101E1000E12EE8D735C148F1360E466F010E476F07
:101E2000A5EC0CF0D950D8A4388F36C12EF137C1AB
:101E30002FF138C130F112003951361137113811F4
:101E400004E1366B376B386B44D0E16A39AF0AD0A6
:101E5000391F381F371F366D000E372338233923BB
:101E6000010EE16E8E0ED96E3D6B3E6B3F6B3951AC
:101E7000406F40513D113E113F1107E0D89039337A
:101E8000383337333633D92AEFD736C13AF137C131
:101E90003BF138C13CF1D9CF48F13A0E466F010E03
:101EA000476FA5EC0CF0E1500EE03AC141F13BC1A7
:101EB00042F13CC143F107EC14F041C13AF142C197
:101EC0003BF143C13CF13AC136F13BC137F13CC172
:101ED00038F112002E512F11301115E0010130514F
:101EE0007F0B336FD8903335346F356B35373451C2
:101EF0003127355132232F35E836010B3127000EBB
:101F0000322332AF04D02E6B2F6B306B2FD0325177
:101F1000800A7F0F000ED8B4315D12E33051800A81
:101F2000800F05E1000E2F5D02E1000E2E5D2E698F
:101F30007F0E2F6F02E2FF0E01D07F0E306F16D0A2
:101F400032353231346F3131336F01013051331951
:101F5000800B3319306F31C133F1010E3317333336
:101F600033332F5133197F0B33192F6F12003A0E71
:101F7000486F010E496F360E466F010E476F34EC05
:101F800010F0D96E36513B6F37513C6F38513D6F71
:101F90003E6B8E0E3A5F3AAF0CD03A51800A8F0FEB
:101FA0000BE3D8903E333D333C333B333A3FF9D7D4
:101FB00010D01F0E3A650BD0366B376B386B396B10
:101FC0001AD0D8903B373C373D373E373A073A670F
:101FD000F8D7D95008E03E1F3D1F3C1F3B6D000E57
:101FE0003C233D233E233BC136F13CC137F13DC18B
:101FF00038F13EC139F112003651371138110BE179
:1020000039C1E9FF3AC1EAFF000EEE6AED6A366BAC
:10201000376B386B28D0010138517F0B3B6FD8905C
:102020003B353C6F3D6B3D3739C1E9FF3AC1EAFFB3
:102030003CC1EEFF3DC1EDFF3735E836010B39C13C
:10204000E9FF3AC1EAFFEE12000EED1239C1E9FFD5
:102050003AC1EAFF820EEE26FF0EED223851800BC8
:102060003F09386F379F120046C1E9FF47C1EAFFB9
:10207000010EEB34020EEB34F46E48C1E9FF49C1A6
:10208000EAFFF4CFEFFFF46609D046C1E9FF47C18C
:10209000EAFF000EEE6AEE6AED6A1DD0F36A46C1F1
:1020A000E9FF47C1EAFF010EEB8E46C1E9FF47C1D8
:1020B000EAFFEECF4AF1EECF4BF1EECF4CF14CBF41
:1020C000F32A46C1E9FF47C1EAFFFF0EEE16EE16FE
:1020D000000EED16F35012002F512E1104E12E6B5D
:1020E0002F6B306B2DD02EC131F12FC132F1336BFC
:1020F00032BF33072FAF06D0331F321F316D000EB2
:10210000322333238E0E486F310E466F010E476F18
:10211000A5EC0CF02FAF0ED031C141F132C142F12C
:1021200033C143F107EC14F041C131F142C132F146
:1021300043C133F131C12EF132C12FF133C130F13E
:1021400012001E6B090EF5EC11F09F0E02EC13F05D
:102150001E6B090EF5EC11F0640E0101486F000EC4
:10216000496B19C146F11AC147F1B3EC11F046C1F0
:102170001EF147C11FF1216B0A0E206F6FEC0DF0AD
:10218000640E486F000E496B19C146F11AC147F140
:1021900085EC12F046C11EF147C11FF1216B0A0EFA
:1021A000206F6FEF0DF0E8CFD9FFD9500F0BE16E24
:1021B000D66AD76A0101016BD9AC02D0400E016F1B
:1021C0000151D512026BD9AA02D0200E026F025122
:1021D000D512036BD9A802D0100E036F0351D5128C
:1021E0000469E15002E0F70E046F0451D516F80EB1
:1021F000D516E15003E0E104070BD512F294D9AEF5
:1022000002D0F28A01D0F29A12002851251126112B
:10221000271104E1256B266B276B27D08E0ED96E14
:102220002C6B2D6B2E6B28512F6F2F512C112D11D4
:102230002E1107E0D8902833273326332533D92AA7
:10224000EFD725C129F126C12AF127C12BF1D9CF1A
:1022500048F1290E466F010E476FA5EC0CF029C11D
:1022600025F12AC126F12BC127F112000101000E30
:1022700038AF0ED03C6B3D6B800E3E6F36513C5DEF
:10228000366F37513D59376F38513E59386F000E10
:102290003BAF0ED03C6F3D6B800E3E6F39513C5DC5
:1022A000396F3A513D593A6F3B513E593B6F000EE1
:1022B000361B800E381B3B1B3951365D3A5137595E
:1022C0003B5138591200D6CFD9FFF36AF46AD58A48
:1022D00005D0000EF35C010EF4580CE2D58800F036
:1022E00000F0D59800F000F0F34AF42AD950D6183F
:1022F000D710EFE0D9500101216F206BF350205F20
:10230000F450215B000E2025F36E010E2121F46EA6
:10231000F3CF1EF1F4CF1FF11200E8CFD9FF100E5A
:102320000101466F476B17380F0B465F000E475B86
:102330004751800A800F010ED8B4465D13E3173869
:102340000F0B466F4651070FE96EEA6AD9CFEFFFD0
:1023500017380F0B466F462B463B175046190F0B8D
:102360004619176E1200F36AF46A495148111BE0CE
:10237000010ED96ED89049BF05D048374937D92AC0
:10238000F9D7D890F336F4364851465D495147594C
:1023900005E34851465F4951475BF380D890493384
:1023A0004833D92EEED7F3CF46F1F4CF47F11200E0
:1023B0001AC125F11BC126F11CC127F165EC0AF0F9
:1023C00025C13BF126C13CF127C13DF15C0E3E6FBA
:1023D000DE0E3F6F3E0E406F7BEC0EF03BC11AF1FC
:1023E0003CC11BF13DC11CF11200E8CFF3FF58C006
:1023F0001FF159C020F15AC021F15BC022F14904FC
:1024000006E1140E206F280E216F3C0E226F1F0E66
:102410001E25E96EEA6A010EEA22EF50F3248009D4
:1024200000EF14F01BC131F11CC132F11DC133F1B9
:1024300019C1E9FF1AC1EAFFEECF2EF1EECF2FF15D
:10244000EDCF30F1CCEC0EF019C1E9FF1AC1EAFF73
:102450002EC1EEFF2FC1EEFF30C1EDFF120030C1E3
:102460003EF131C13FF132C140F12EC1E9FF2FC130
:10247000EAFFEECF3BF1EECF3CF1EDCF3DF17BEC4F
:102480000EF02EC1E9FF2FC1EAFF3BC1EEFF3CC1B8
:10249000EEFF3DC1EDFF120030C136F131C137F121
:1024A00032C138F12EC1E9FF2FC1EAFFEECF33F17F
:1024B000EECF34F1EDCF35F1D4EC12F02EC1E9FFBF
:1024C0002FC1EAFF33C1EEFF34C1EEFF35C1EDFF8E
:1024D000120001011A51191104E1196B1A6B1B6BDF
:1024E00013D019C11CF11AC11DF11E6B8E0E486F5D
:1024F0001C0E466F010E476FA5EC0CF01CC119F1C4
:102500001DC11AF11EC11BF112004951481117E0FB
:10251000010ED96E49BF05D0D89048374937D92A1E
:10252000F9D74851465D4951475904E34851465F40
:102530004951475BD89049334833D92EF2D712001E
:10254000300E8DEC11F0780E8DEC11F0FC0E216F39
:10255000100E206F0CC11EF10DC11FF16FEC0DF0BC
:10256000FC0E216F100E206F0AC11EF10BC11FF16E
:102570006FEF0DF0E8CFD9FFD9500F0BE16EE96A8C
:10258000800ECA16CA50E150030BCA12CC6ACA8424
:102590009E92D9AE02D0010E01D0000E0101016F52
:1025A000D89001359D6E1200800E381B36C13EF169
:1025B00037C13FF138C140F133C13BF134C13CF187
:1025C00035C13DF126EC08F03BC133F13CC134F19B
:1025D0003DC135F11200F36AF46A01013BA104D058
:1025E0003D51F3263E51F422D8903D373E37D890E6
:1025F0003C333B333C513B11F0E1F3CF3BF1F4CFA3
:102600003CF11200E8CFE9FFF36AE950F32401013D
:1026100055EC0BF00AE0010E236FE950F32455EC62
:102620000BF0B6EC13F0F32AF0D71200E8CFD9FF85
:1026300042280F0B4418FCE0F29E42501B0FE96E3B
:10264000EA6AD9CFEFFF42280F0B426E9D88F28EC7
:102650001200E8CFE1FF0A07D8A00B0701010A2901
:10266000D8B40B2908E0E150E96EEA6AEF5016ECA5
:1026700013F0E12AF0D71200E8CFD9FF0F0E8A1627
:10268000D938F00B8A128A86060EE82EFED700D0C3
:102690008A96A60EE82EFED700D01200E8CFF4FFEF
:1026A000010E01011E6F000EF5EC11F0F45004E074
:1026B000CC0E02EC13F003D0A10E02EC13F01200CA
:1026C000949C948EAC841F0EAF6EAC9CAB9CAC986B
:1026D000AB8EAB889D98AC8AF28C446A426A456A9C
:1026E000436A12001E6B0E0EF5EC11F001011E6B19
:1026F00017380F0B196F17500F0B1A6F19511A5DFE
:10270000100FF5EF11F0E16A17380F0BE15C09E2E9
:10271000E150070FE96EEA6AEF5016EC13F0E12A78
:10272000F3D7E50EDEEF13F0E8CFD9FF486A100EBD
:10273000416ED950D8A4416A496A476A93948A94F1
:1027400093968A960F0E8A160F0CE8CFF4FF0101BC
:10275000196B1A6B00EC0BF008E000EC0BF0F6ECD8
:1027600013F00101194B1A2BF5D71200E8CFE1FF46
:10277000235102E08A8401D08A94E1380F0B3CECAB
:1027800013F0E1503CEF13F017380F0B01010A6F03
:102790000B6B070E29EC13F0F00E17160F0E171621
:1027A0000F0C010E00EC14F00D0E0101016FFB0E79
:1027B000E82EFED7012FFCD700D01200E8CFE1FFB2
:1027C0001CEC0BF006E01CEC0BF016EC13F0E12A0D
:1027D000F7D71200E8CFE1FFEDEC0AF006E0EDECF0
:1027E0000AF08DEC11F0E12AF7D71200E8CFF3FFE1
:1027F000010E236FF350B6EC13F0F35016EF13F005
:10280000E8CFE9FF0101236BE950B6EF13F0415126
:102810004211431102E0800E431B1200F00E171606
:082820000F0E17160F0C120039
:020000040030CA
:02000000004CB2
:0200060001FFF8
:00000001FF
