:040800000AEF04F007
:10080800E9CF4EF1EACF4FF185ED0EF000EE58F04A
:10081800EA0EF66E090EF76E10EE06F031EC04F0F3
:1008280000EE00F0580EEE6AE806FDE104EE00F076
:1008380011EE00F02AEC04F00FEE70F00F0EEE6AE5
:10084800E806FDE1000EF86EC4EF09F0EE6AE55027
:10085800E150FCE1E250FAE112000900F5CFEEFFA9
:0C086800E550E150FAE1E250F8E1120026
:100900000000803F72313FFE753E58633D951D3CAF
:10091000C5AE3A79213994803793A73556153400FE
:10092000000000803FF0FFBEE2A93E8376BEAE2B02
:100930003E3CC3BDD2133D78D3BB2D204C2028555F
:100940006E69743A204829202D002D204320285517
:100950006E69743A204629202D00706C65617365BC
:1009600020776169742E2E2E00496E647563746958
:1009700076697479200043616C6962726174696E92
:100980006700436170616369747920004C432D6D89
:100990006574657220000D0A4343616C3D002020A0
:1009A00020202020000D0A46313D00467265713D31
:1009B000000D0A46333D000D0A46323D00524334D5
:1009C0003D0043696E3D007661723D002D2A2D0089
:1009D0006D46006E46007046007546006D48006E1C
:1009E00048007548000D0A00000000401454FF261E
:1009F000000E01011E6B37EC12F0820ED0EC13F0EA
:100A0000C8EC0BF019C105F11AC106F105C119F1C5
:100A100006C11AF1C8EC12F019C12BF01AC12CF062
:100A20001BC12DF0C70E29EC14F005C10AF106C157
:100A30000BF10C6B0D6BFFEC12F0A50E29EC14F012
:100A400018C00AF119C00BF11AC00CF12DEC09F015
:100A5000200E88EC13F018C00AF119C00BF11AC06F
:100A60000CF11BC00DF1FFEC12F0B70E29EC14F0E5
:100A70002EC00AF12FC00BF130C00CF12DEC09F0A3
:100A8000200E88EC13F02EC00AF12FC00BF130C0FD
:100A90000CF131C00DF1FFEC12F0B10E29EC14F0A5
:100AA0002BC00AF12CC00BF12DC00CF12DEC09F07C
:100AB000200E88EC13F02BC00AF12CC00BF12DC0D6
:100AC0000CF12EC00DF1FFEC12F0960E29EC14F093
:100AD00000C00AF101C00BF102C00CF12DEC09F0CD
:100AE000200E88EC13F000C00AF101C00BF102C027
:100AF0000CF103C00DF1FFEC12F0E50E29EC14F03F
:100B00002BC039F12CC03AF12DC03BF118C036F1A1
:100B100019C037F11AC038F196EC11F006E218C08E
:100B20002BF019C02CF01AC02DF018C03EF119C0DE
:100B30003FF11AC040F118C03BF119C03CF11AC096
:100B40003DF1D9EC0EF03BC101F13CC102F13DC1D8
:100B500003F12BC03EF12CC03FF12DC040F12BC062
:100B60003BF12CC03CF12DC03DF1D9EC0EF03BC166
:100B700036F13CC137F13DC138F101C133F102C159
:100B800034F103C135F132EC13F033C13BF134C120
:100B90003CF135C13DF187EC0BF0D9EC0EF087EC60
:100BA0000BF0D9EC0EF000C03EF101C03FF102C0E5
:100BB00040F1D9EC0EF03BC107F13CC108F13DC159
:100BC00009F1C20E29EC14F007C10AF108C10BF1BA
:100BD00009C10CF12DEC09F0200E88EC13F007C1CF
:100BE0000AF108C10BF109C10CF10AC10DF1FFECCA
:100BF00012F0E50E29EC14F007C139F108C13AF101
:100C000009C13BF1C00E366F790E376F440E386F55
:100C100096EC11F03EE207C139F108C13AF109C181
:100C20003BF1E60E366F730E376F490E386F96EC58
:100C300011F025E207C139F108C13AF109C13BF1D0
:100C40002E0E366F6E0E376F4E0E386F96EC11F01B
:100C50000BE26B0E1B6F6E0E1C6F4E0E81EC0BF0D9
:100C60008EEC12F0040E16D0240E1B6F740E1C6F47
:100C7000490E81EC0BF08EEC12F0050E0BD01B6BC5
:100C80007A0E1C6F440E81EC0BF08EEC12F0060E07
:100C900001D0070E046F306BC80E316F420E326FF9
:100CA000070E2E6F010E2F6F71EC12F007C136F197
:100CB00008C137F109C138F115EC10F036C105F162
:100CC00037C106F105C119F106C11AF133EC11F073
:100CD000045160EF13F0000E01011E6B37EC12F0AF
:100CE000690ED0EC13F0C8EC0BF019C10EF11AC16B
:100CF0000FF10EC119F10FC11AF1C8EC12F019C1B0
:100D00002BF01AC12CF01BC12DF02BC039F12CC0D7
:100D10003AF12DC03BF118C036F119C037F11AC0B5
:100D200038F196EC11F006E218C02BF019C02CF047
:100D30001AC02DF018C03EF1A9EC0BF0D9EC0EF062
:100D40003BC101F13CC102F13DC103F118C03EF1CC
:100D5000A9EC0BF0D9EC0EF03BC104F13CC105F15C
:100D60003DC106F12BC03EF12CC03FF12DC040F13A
:100D70002BC03BF12CC03CF12DC03DF1D9EC0EF065
:100D80003BC107F13CC108F13DC109F107C136F192
:100D900008C137F109C138F104C133F105C134F19B
:100DA00006C135F132EC13F033C10AF134C10BF155
:100DB00035C10CF12EC036F12FC037F130C038F1FB
:100DC0002EC033F12FC034F130C035F132EC13F0C6
:100DD00033C136F134C137F135C138F101C133F1D6
:100DE00002C134F103C135F132EC13F033C13EF1ED
:100DF00034C13FF135C140F10AC13BF10BC13CF1B7
:100E00000CC13DF1D9EC0EF0400E3E6F1C0E3F6F51
:100E1000460E406FD9EC0EF03BC113F13CC114F10A
:100E20003DC115F118C03EF1A9EC0BF0D9EC0EF064
:100E3000A2EC0BF0D9EC0EF0A2EC0BF0D9EC0EF01A
:100E40009BEC0BF0D9EC0EF09BEC0BF0D9EC0EF018
:100E500000C03EF101C03FF102C040F1D9EC0EF0FC
:100E6000EA0E3E6F1D0E3F6F420E406FD9EC0EF042
:100E70003BC110F13CC111F13DC112F110C131F182
:100E800011C132F112C133F113C12EF114C12FF18E
:100E900015C130F12AEC0FF02EC13BF12FC13CF10E
:100EA00030C13DF1600E3E6F630E3F6F580E406FD4
:100EB000D9EC0EF03BC116F13CC117F13DC118F160
:100EC00016C139F117C13AF118C13BF1C00E366FA6
:100ED000790E376F440E386F96EC11F03EE216C172
:100EE00039F117C13AF118C13BF1E60E366F730EB6
:100EF000376F490E386F96EC11F025E216C139F1C3
:100F000017C13AF118C13BF12E0E366F6E0E376FD6
:100F10004E0E386F96EC11F00BE26B0E1B6F6E0EDF
:100F20001C6F4E0E95EC0BF08EEC12F00D6B17D083
:100F3000240E1B6F740E1C6F490E95EC0BF08EEC9B
:100F400012F0010E0BD01B6B7A0E1C6F440E95EC49
:100F50000BF08EEC12F0020E01D0030E0D6F306B11
:100F6000C80E316F420E326F160E2E6F010E2F6FAC
:100F700071EC12F016C136F117C137F118C138F112
:100F800015EC10F036C10EF137C10FF10EC119F199
:100F90000FC11AF133EC11F00D5160EF13F0255130
:100FA0002611271105E1256B800E266F3F0E12D00A
:100FB00025C139F126C13AF127C13BF1720E366FD6
:100FC000310E376F440E386F96EC11F005E225694B
:100FD0007F0E266F276FA7D0490E396F3A0E3A6FF2
:100FE000C40E3B6F25C136F126C137F127C138F158
:100FF00096EC11F001E280D02751800A800F05E1C4
:10100000000E265D02E1000E255D02E2010E01D018
:10101000000E2B6F2B510EE025C141F126C142F18C
:1010200027C143F13FEC14F041C125F142C126F143
:1010300043C127F1AA0E306FB80E316F3F0E326FE9
:10104000250E2E6F010E2F6F71EC12F025C12EF1BF
:1010500026C12FF127C130F132EC0CF02EC136F150
:101060002FC137F130C138F115EC10F036C12CF139
:1010700037C12DF12CC12EF12DC12FF1CAEC10F08A
:101080002EC128F12FC129F130C12AF128C130F138
:1010900029C131F12AC132F1250E2E6F010E2F6FB9
:1010A00054EC12F0090E326F336B010E316F25C113
:1010B0002EF126C12FF127C130F12AEC0EF02EC1FE
:1010C0002EF12FC12FF130C130F12CC131F12DC1E2
:1010D00032F1C8EC0FF02EC125F12FC126F130C13D
:1010E00027F12B5120E0FF0E25197F0ED8B42619C9
:1010F0007F0ED8B4271904E1256B266B276B13D01C
:1011000025C131F126C132F127C133F12E6B800E9A
:101110002F6F3F0E306F2AEC0FF02EC125F12FC13B
:1011200026F130C127F11200420E486F010E496FBF
:101130003B0E466F010E476F5AEC10F0D96E4267B6
:1011400007D03EC13BF13FC13CF140C13DF184D0ED
:10115000410E486F010E496F3E0E466F010E476FFC
:101160005AEC10F0E16E41516BE0060EE96E415110
:10117000426122D04251415D436F190E435D08E345
:101180003B6B3C6B3D6B41C142F1E1CFD9FF34D0A9
:10119000D8903E373F37403741074151421908E068
:1011A000E92EF6D705D0D8903D333C333B33422B64
:1011B00041514263F8D720D0425141191DE04151BD
:1011C000425D436F190E435D04E33E6B3F6B406B22
:1011D00013D0D8903B373C373D3742074151421935
:1011E00008E0E92EF6D705D0D89040333F333E33A0
:1011F000412B41514263F8D7D95007E03B1F3C1FB8
:101200003D1F3B2B000E3C233D23E15007E03E1FDA
:101210003F1F401F3E2B000E3F234023D96A3E5103
:101220003B273F513C2340513D233DAF09D03B1F5D
:101230003C1F3D1F3B2B000E3C233D23010ED96E6E
:1012400042C148F13B0E466F010E476F03EC0DF0B3
:10125000D95002E0800E3D1B12000AC11AF10BC1E9
:101260001BF10CC11CF1ABEC12F01AC136F11BC121
:1012700037F11CC138F115EC10F036C115F137C14A
:1012800016F10AC139F10BC13AF10CC13BF1366BD1
:10129000376B340E386F96EC11F075E215C12EF1F4
:1012A00016C12FF1CAEC10F02EC11DF12FC11EF195
:1012B00030C11FF11A6B200E1B6F410E1C6F4EECDC
:1012C0000AF01AC117F11BC118F11CC119F117C19D
:1012D00031F118C132F119C133F10AC12EF10BC13C
:1012E0002FF10CC130F12AEC0FF02EC12EF12FC1DD
:1012F0002FF130C130F132EC0CF02EC136F12FC19C
:1013000037F130C138F115EC10F036C113F137C1A7
:1013100014F113C12EF114C12FF1CAEC10F02EC13B
:101320000DF12FC10EF130C10FF10DC13BF10EC116
:101330003CF10FC13DF117C13EF118C13FF119C198
:1013400040F1D9EC0EF03BC110F13CC111F13DC1AF
:1013500012F110C130F111C131F112C132F10A0E96
:101360002E6F010E2F6F54EC12F01351300FECEC76
:1013700011F01651151103E12E0EECEC11F01507CA
:10138000D8A016077ED712004A6A4B6A4C6A4D6A8B
:101390004AC04EF04BC04FF04CC050F04DC051F021
:1013A0004EC003F04FC004F003C005F004C006F0C7
:1013B0005C68006A7A0E016E440E026ECF0E926E69
:1013C000680EFFEC10F0F18EBB0E946E94948B942B
:1013D0008B84800E19EC13F0010EE1EC13F0010E7A
:1013E000016F020E9CEC0CF09480949A8B94320E58
:1013F00052EC14F08B84320E52EC14F08B94320EBB
:1014000052EC14F08B84320E52EC14F08B949BEC63
:1014100013F0C00EF212000E01011E6B37EC12F039
:101420008C0E74EC13F000C00AF101C00BF102C085
:101430000CF12DEC09F0C80E52EC14F06AEC0DF032
:1014400010EC14F082A002D0010E01D0000EF36E59
:10145000F3505C180FE03A0E0101006F5C5002E09F
:101460004A0E006F005129EC14F0E50E29EC14F03F
:10147000F3CF5CF05C5003E0F8EC04F002D06BECCE
:1014800006F0010EADEC13F01E0E52EC14F0000E3F
:10149000ADEC13F0140E52EC14F0D4D7206B1A51AB
:1014A0001B111C110DE11DC139F11EC13AF11FC103
:1014B0003BF1000E366B376B386B96EC11F037D082
:1014C0001D511E111F1106E11A6B800E1B6F3F0E7E
:1014D0001C6F66D01C51800A800F05E1000E1B5D59
:1014E00002E1000E1A5D30E21DC136F11EC137F176
:1014F0001FC138F115EC10F036C121F137C122F1CE
:1015000038C123F139C124F121C125F122C126F1CD
:1015100023C127F124C128F165EC11F01F512719CF
:1015200005E11E51261902E11D51251904E01A6B2F
:101530001B6B1C6B35D02151010B206F5FEC0BF046
:101540003FEC14F058EC0BF01AC125F11BC126F149
:101550001CC127F1D1EC0AF025C13BF126C13CF1B9
:1015600027C13DF11DC13EF11EC13FF11FC140F138
:10157000D9EC0EF03BC125F13CC126F13DC127F16C
:10158000CFEC07F025C11AF126C11BF127C11CF1D0
:10159000205106E05FEC0BF03FEC14F058EC0BF040
:1015A00012002751800A800F05E1000E265D02E13E
:1015B000000E255D04E325512611271104E1256B5A
:1015C000266B276B69D0280E396F010E3A6F25C143
:1015D00036F126C137F127C138F192EC10F036C14F
:1015E0003BF137C13CF138C13DF13E6B3F6B400EE2
:1015F000406FD9EC0EF03BC13BF13CC13CF13DC129
:101600003DF13E6B800E3F6FBF0E406F94EC08F0D3
:101610003BC125F13CC126F13DC127F12807D8A0E7
:101620002907080E326F336B1F0E316F25C12EF163
:1016300026C12FF127C130F12AEC0EF02EC125F181
:101640002FC126F130C127F128C12EF129C12FF178
:10165000CAEC10F02EC13BF12FC13CF130C13DF17D
:10166000720E3E6F310E3F6F3F0E406FD9EC0EF0A1
:101670003BC13BF13CC13CF13DC13DF125C13EF1D7
:1016800026C13FF127C140F194EC08F03BC125F1A0
:101690003CC126F13DC127F1120046C1E9FF47C117
:1016A000EAFFEC52EC52D890ED32ED32EF321200FC
:1016B00041C11AF142C11BF143C11CF112001AC110
:1016C00041F11BC142F11CC143F112003E514327BD
:1016D0003F5144234051452312004E0E01011D6F1E
:1016E000EB0E1200F45019251B6F1BC1F6FF090EFB
:1016F000F76E0800F5501200270E0101026FF50E7B
:1017000012001D6F070E196F010E1A6F12002EC006
:101710003EF12FC03FF130C040F11200E1CFF6FFA3
:10172000090EF76E0800F55012001D6F160E196FA6
:10173000010E1A6F12002BC03EF12CC03FF12DC0DC
:1017400040F112002EC03EF12FC03FF130C040F1F9
:10175000120019C03FF11AC040F118C03BF119C086
:101760003CF11AC03DF11200E1CFF6FF090EF76E11
:101770000800F550120019C119F11AC11AF112002E
:101780001B6F1BC1F6FF090EF76E0800F550120023
:10179000F29492989C0E1D6FD70EE82EFED71D2F47
:1017A000FCD7D66AD76A6DEC0BF0E82EFED71D2F5A
:1017B000FCD76DEC0BF0E82EFED71D2FFCD76DEC9F
:1017C0000BF0E82EFED71D2FFCD76DEC0BF0E82EAA
:1017D000FED71D2FFCD76DEC0BF0E82EFED71D2F8A
:1017E000FCD76DEC0BF0E82EFED71D2FFCD76DEC6F
:1017F0000BF0E82EFED71D2FFCD76DEC0BF0E82E7A
:10180000FED71D2FFCD76DEC0BF0E82EFED71D2F59
:10181000FCD76DEC0BF0E82EFED71D2FFCD792887D
:10182000C2EC11F01EC11BF11FC11CF1010E1E6F95
:10183000000E37EC12F04DEC14F0AB0E1DEC14F072
:10184000050E0101216F0A0E206F1BC11EF11CC184
:101850001FF1CDEC0DF0BFEC13F01BC119F11CC151
:101860001AF11200310E396F010E3A6F2EC136F1A6
:101870002FC137F130C138F192EC10F032AF14D0F3
:101880003051800A800F05E1000E2F5D02E1000E4D
:101890002E5D06E22E6B800E2F6FBF0E306F4BD089
:1018A0002E6B2F6B306B47D0150E315D000E325909
:1018B00001E341D02EC136F12FC137F130C138F1EB
:1018C00015EC10F036C136F137C137F138C138F1B7
:1018D00039C139F17AEC0FF036C133F137C134F147
:1018E00038C135F133C139F134C13AF135C13BF179
:1018F0002EC136F12FC137F130C138F196EC11F01D
:1019000014E23E6B800E3F6FBF0E406F33C13BF160
:1019100034C13CF135C13DF194EC08F03BC12EF1EE
:101920003CC12FF13DC130F106D033C12EF134C19D
:101930002FF135C130F11200E8CFD9FF010ED96483
:1019400001D04186D9CF49F0015103E0D904D8B480
:101950004184750E026FE10EE82EFED7022FFCD7F0
:101960008A948A9641B81BD0030EF2EC13F07CECFB
:101970000BF0E82EFED7022FFCD7030EF2EC13F08B
:10198000E10E0400E82EFDD7030EF2EC13F0E10E99
:101990000400E82EFDD7020EF2EC13F018D04150EF
:1019A000200946EC14F07CEC0BF0E82EFED7022F59
:1019B000FCD74150200946EC14F07CEC0BF0E82EEB
:1019C000FED7022FFCD74150200946EC14F04150BD
:1019D000200946EC14F0040E486E4850080946EC05
:1019E00014F0010E46EC14F0100E0101026F940E7B
:1019F000E82EFED7022FFCD70400020E476E475098
:101A0000040946EF14F0485146C1E9FF08E047C118
:101A1000EAFFEE50EE10ED100CE146C1E9FF47C1C0
:101A2000EAFF000EEE6AEE6AED6A53D0482B4DECE9
:101A30000BF046C1E9FF47C1EAFFEE52EE52FE0E3F
:101A4000ED140CE0F3D7482B46C1E9FF47C1EAFF8C
:101A5000EE2A000EEE22ED224DEC0BF046C1E9FF1E
:101A600047C1EAFFEE52EE52FF0EED140AE0EBD74B
:101A7000480746C1E9FF47C1EAFFD890EE36EE3687
:101A8000ED3646C1E9FF47C1EAFFEECF49F1EECF9F
:101A90004AF1EECF4BF14AAFEBD748B10AD046C17D
:101AA000E9FF47C1EAFFFF0EEE167F0EEE16FF0EAE
:101AB000ED16D890483348514B6F4A6B496B46C17D
:101AC000E9FF47C1EAFF4951EE124A51EE124B516C
:101AD000ED12120010EC14F0000E01011E6B37EC39
:101AE00012F0760ED0EC13F0010E1E6F000E37ECE4
:101AF00012F0E50E29EC14F05A0ED0EC13F08B9492
:101B0000C8EC0BF0BBEC0BF0C8EC12F019C118F0EC
:101B10001AC119F01BC11AF0320E52EC14F0C8ECC5
:101B20000BF0BBEC0BF0C8EC12F019C118F01AC1A5
:101B300019F01BC11AF08B84C8EC0BF0BBEC0BF056
:101B4000C8EC12F019C12EF01AC12FF01BC130F0F1
:101B5000320E52EC14F0C8EC0BF0BBEC0BF0C8ECFE
:101B600012F019C12EF01AC12FF01BC130F08B9466
:101B70001E6B0B0E37EC12F0E96A010E0101236FA8
:101B80003D0E02EC14F01C0E52EC14F0E92A050E86
:101B9000E964F3D7E50E29EF14F0E16A200E246F13
:101BA00021AF03D0216D300E246F20C148F1496B65
:101BB0001EC146F11FC147F1E4EC12F04651E96E37
:101BC000370F226F236B000E23230A0EE96006D025
:101BD000300EE924226F236B000E2323250EE1240F
:101BE000E96EEA6A010EEA2222C1EFFFE12A20C172
:101BF00048F1496B1EC146F11FC147F112EC12F0CA
:101C000046C11EF147C11FF11F511E1104E0CDD77F
:101C10002451ECEC11F0E150800A456F2107212995
:101C2000800A455DF5E3E150800A7F0F12E3E1CFC2
:101C300045F1FF0E4527250E4525E96EEA6A010E9E
:101C4000EA22EF50ECEC11F0E106E150800A7F0F40
:101C5000EEE212003251030D3151F324376F37C1D8
:101C6000F6FF090EF76E0900F5CF38F10900F5CF40
:101C700039F10900F5CF3AF138C134F139C135F104
:101C80003AC136F13351321139E034C13EF135C138
:101C90003FF136C140F12EC13BF12FC13CF130C1C3
:101CA0003DF1D9EC0EF03BC13BF13CC13CF13DC1F3
:101CB0003DF13207D8A0330701013251030D3151F4
:101CC000F324376F37C1F6FF090EF76E0900F5CF21
:101CD00038F10900F5CF39F10900F5CF3AF138C1F3
:101CE0003EF139C13FF13AC140F194EC08F03BC1FB
:101CF00034F13CC135F13DC136F1C4D734C12EF1C8
:101D000035C12FF136C130F1120006009EA22BD052
:101D1000062A700E055C170E065824E3700E055E49
:101D2000170E065A034A042A8B94410E035C030ED5
:101D3000045802E3010E01D0000E01014D6FD8904E
:101D40004D37D8904D358B12E80E035C030E0458C6
:101D500009E34A2A000E4B224C224D22E80E035E74
:101D6000030E045A9E929EAA0ED04350310FE96E84
:101D7000EA6AAECFEFFF43280F0B466E4650451878
:101D8000D8A446C043F09EB89DA80ED044501B0F67
:101D9000E96EEA6AEF50AD6E442A0F0E44164250C7
:101DA000446201D09D989E984FC1EAFF4EC1E9FF61
:101DB0001100436B446B456B410E486F010E496F38
:101DC0003B0E466F010E476F5AEC10F0D96E420E73
:101DD000486F010E496F3E0E466F010E476F5AEC79
:101DE00010F0D91A42512FE0416701D02CD0425156
:101DF0007B0F4127070E426F3BB166EC0BF0D8908A
:101E00003D333C333B33D8903E373F374037422F4A
:101E1000F3D7090E426F3BB166EC0BF0D8903D331F
:101E20003C333B33D890453344334333422FF3D7CD
:101E300041C148F1430E466F010E476F03EC0DF0B0
:101E4000D950D8A4458F43C13BF144C13CF145C1B1
:101E50003DF11200366B376B386B350E486F010E53
:101E6000496F2E0E466F010E476F5AEC10F0D96E77
:101E7000356701D038D0340E486F010E496F310EEE
:101E8000466F010E476F5AEC10F0E16E346701D0D7
:101E90002AD03451890F355FE150D91A180EE16EFE
:101EA000D89036373737383731512E5D32512F5968
:101EB0003351305907E331512E5F32512F5B33518B
:101EC000305B3681D8902E372F373037E12EE8D768
:101ED00035C148F1360E466F010E476F03EC0DF029
:101EE000D950D8A4388F36C12EF137C12FF138C15F
:101EF00030F11200395136113711381104E1366BC7
:101F0000376B386B44D0E16A39AF0AD0391F381FBC
:101F1000371F366D000E372338233923010EE16E4B
:101F20008E0ED96E3D6B3E6B3F6B3951406F405109
:101F30003D113E113F1107E0D89039333833373324
:101F40003633D92AEFD736C13AF137C13BF138C120
:101F50003CF1D9CF48F13A0E466F010E476F03ECC2
:101F60000DF0E1500EE03AC141F13BC142F13CC1FC
:101F700043F13FEC14F041C13AF142C13BF143C19E
:101F80003CF13AC136F13BC137F13CC138F11200A6
:101F90002E512F11301115E0010130517F0B336F9D
:101FA000D8903335346F356B35373451312735514F
:101FB00032232F35E836010B3127000E322332AFA2
:101FC00004D02E6B2F6B306B2FD03251800A7F0FD5
:101FD000000ED8B4315D12E33051800A800F05E164
:101FE000000E2F5D02E1000E2E5D2E697F0E2F6F19
:101FF00002E2FF0E01D07F0E306F16D03235323143
:10200000346F3131336F010130513319800B331983
:10201000306F31C133F1010E3317333333332F5166
:1020200033197F0B33192F6F12003A0E486F010ED0
:10203000496F360E466F010E476F5AEC10F0D96E9D
:1020400036513B6F37513C6F38513D6F3E6B8E0EB2
:102050003A5F3AAF0CD03A51800A8F0F0BE3D89019
:102060003E333D333C333B333A3FF9D710D01F0E5C
:102070003A650BD0366B376B386B396B1AD0D8900A
:102080003B373C373D373E373A073A67F8D7D950A8
:1020900008E03E1F3D1F3C1F3B6D000E3C233D23CF
:1020A0003E233BC136F13CC137F13DC138F13EC161
:1020B00039F1120046C1E9FF47C1EAFF010EEB34D6
:1020C000020EEB34F46E48C1E9FF49C1EAFFF4CFD8
:1020D000EFFFF46609D046C1E9FF47C1EAFF000EF1
:1020E000EE6AEE6AED6A1DD0F36A46C1E9FF47C1A8
:1020F000EAFF010EEB8E46C1E9FF47C1EAFFEECFD2
:102100004AF1EECF4BF1EECF4CF14CBFF32A46C172
:10211000E9FF47C1EAFFFF0EEE16EE16000EED16C0
:10212000F35012003651371138110BE139C1E9FF74
:102130003AC1EAFF000EEE6AED6A366B376B386B18
:1021400028D0010138517F0B3B6FD8903B353C6F55
:102150003D6B3D3739C1E9FF3AC1EAFF3CC1EEFFB3
:102160003DC1EDFF3735E836010B39C1E9FF3AC112
:10217000EAFFEE12000EED1239C1E9FF3AC1EAFFA3
:10218000820EEE26FF0EED223851800B3F09386F8C
:10219000379F12002F512E1104E12E6B2F6B306BE5
:1021A0002DD02EC131F12FC132F1336B32BF330745
:1021B0002FAF06D0331F321F316D000E3223332371
:1021C0008E0E486F310E466F010E476F03EC0DF017
:1021D0002FAF0ED031C141F132C142F133C143F1D1
:1021E0003FEC14F041C131F142C132F143C133F14E
:1021F00031C12EF132C12FF133C130F11200E8CFDD
:10220000D9FFD9500F0BE16ED66AD76A0101016B75
:10221000D9AA02D0200E016F0151D512026BD9A8A4
:1022200002D0100E026F0251D512036BD9AC02D04E
:10223000400E036F0351D5120469E15002E0F70E1E
:10224000046F0451D516F80ED516E15003E0E104F1
:10225000070BD512F29C056BD9AE02D0200E056F8C
:102260000551F21212001E6B090E37EC12F09F0E90
:1022700074EC13F01E6B090E37EC12F0640E0101C2
:10228000486F000E496B19C146F11AC147F112ECB3
:1022900012F046C11EF147C11FF1216B0A0E206FDB
:1022A000CDEC0DF0640E486F000E496B19C146F17C
:1022B0001AC147F1E4EC12F046C11EF147C11FF10B
:1022C000216B0A0E206FCDEF0DF02851251126113C
:1022D000271104E1256B266B276B27D08E0ED96E54
:1022E0002C6B2D6B2E6B28512F6F2F512C112D1114
:1022F0002E1107E0D8902833273326332533D92AE7
:10230000EFD725C129F126C12AF127C12BF1D9CF59
:1023100048F1290E466F010E476F03EC0DF029C1FD
:1023200025F12AC126F12BC127F11200000E38AF8A
:102330000ED03C6B3D6B800E3E6F36513C5D366F70
:1023400037513D59376F38513E59386F000E3BAF0A
:102350000ED03C6F3D6B800E3E6F39513C5D396F46
:102360003A513D593A6F3B513E593B6F000E361B77
:10237000800E381B3B1B3951365D3A5137593B5162
:1023800038591200D6CFD9FFF36AF46AD58A05D03E
:10239000000EF35C010EF4580CE2D58800F000F05A
:1023A000D59800F000F0F34AF42AD950D618D71087
:1023B000EFE0D9500101216F206BF350205FF45002
:1023C000215B000E2025F36E010E2121F46EF3CF68
:1023D0001EF1F4CF1FF11200E8CFD9FF100E01015A
:1023E000466F476B17380F0B465F000E475B475130
:1023F000800A800F010ED8B4465D13E317380F0B27
:10240000466F4651070FE96EEA6AD9CFEFFF1738DA
:102410000F0B466F462B463B175046190F0B4619BC
:10242000176E1200F36AF46A495148111BE0010E5D
:10243000D96ED89049BF05D048374937D92AF9D73E
:10244000D890F336F4364851465D4951475905E373
:102450004851465F4951475BF380D8904933483330
:10246000D92EEED7F3CF46F1F4CF47F11200E8CFE3
:10247000F3FF58C01FF159C020F15AC021F15BC0D1
:1024800022F1490406E1140E206F280E216F3C0E44
:10249000226F1F0E1E25E96EEA6A010EEA22EF5036
:1024A000F324800946EF14F030C136F131C137F121
:1024B00032C138F12EC1E9FF2FC1EAFFEECF33F16F
:1024C000EECF34F1EDCF35F132EC13F02EC1E9FF50
:1024D0002FC1EAFF33C1EEFF34C1EEFF35C1EDFF7E
:1024E000120030C13EF131C13FF132C140F12EC185
:1024F000E9FF2FC1EAFFEECF3BF1EECF3CF1EDCF8C
:102500003DF1D9EC0EF02EC1E9FF2FC1EAFF3BC12E
:10251000EEFF3CC1EEFF3DC1EDFF12001BC131F1EA
:102520001CC132F11DC133F119C1E9FF1AC1EAFF23
:10253000EECF2EF1EECF2FF1EDCF30F12AEC0FF0F0
:1025400019C1E9FF1AC1EAFF2EC1EEFF2FC1EEFF4C
:1025500030C1EDFF12001AC125F11BC126F11CC1CB
:1025600027F1D1EC0AF025C13BF126C13CF127C18E
:102570003DF15C0E3E6FDE0E3F6F3E0E406FD9ECBC
:102580000EF03BC11AF13CC11BF13DC11CF1120020
:1025900001011A51191104E1196B1A6B1B6B13D04D
:1025A00019C11CF11AC11DF11E6B8E0E486F1C0E55
:1025B000466F010E476F03EC0DF01CC119F11DC1F0
:1025C0001AF11EC11BF112004951481117E0010E0A
:1025D000D96E49BF05D0D89048374937D92AF9D79D
:1025E0004851465D4951475904E34851465F4951B6
:1025F000475BD89049334833D92EF2D71200300EBA
:10260000ECEC11F0780EECEC11F0FC0E216F100EDA
:10261000206F0CC11EF10DC11FF1CDEC0DF0FC0EB1
:10262000216F100E206F0AC11EF10BC11FF1CDEFFB
:102630000DF0E8CFD9FFD9500F0BE16EE96A800E9B
:10264000CA16CA50E150030BCA12CC6ACA849E92C1
:10265000D9AE02D0010E01D0000E016FD890013525
:102660009D6E1200800E381B36C13EF137C13FF11E
:1026700038C140F133C13BF134C13CF135C13DF1CA
:1026800094EC08F03BC133F13CC134F13DC135F16C
:102690001200F36AF46A01013BA104D03D51F32614
:1026A0003E51F422D8903D373E37D8903C333B33EF
:1026B0003C513B11F0E1F3CF3BF1F4CF3CF1120080
:1026C0001E6B0E0E37EC12F001011E6B17380F0B4C
:1026D000196F17500F0B1A6F19511A5D100F37EC45
:1026E00012F0E50E29EF14F0E8CFE9FFF36AE950A4
:1026F000F3240101C0EC0BF00AE0010E236FE95056
:10270000F324C0EC0BF002EC14F0F32AF0D7120023
:10271000E8CFD9FF42280F0B4418FCE0F29E42504C
:102720001B0FE96EEA6AD9CFEFFF42280F0B426E0A
:102730009D88F28E1200949C948EAC84260EAF6E0F
:10274000AC9CAB9CAC98AB8EAB889D98AC8AF28C61
:10275000446A426A456A436A1200E8CFF4FF010EF8
:1027600001011E6F000E37EC12F0F45004E0CC0EA5
:1027700074EC13F003D0A10E74EC13F01200E16AB4
:1027800017380F0BE15C09E2E150070FE96EEA6AC6
:10279000EF5088EC13F0E12AF3D7E50E29EF14F09F
:1027A000E8CFF4FF0101196B1A6B72EC0BF008E033
:1027B00072EC0BF035EC14F00101194B1A2BF5D724
:1027C0001200E8CFD9FF486A100E416ED950D8A444
:1027D000416A496A476A93948A9493968A960F0E3F
:1027E0008A160F0CE8CFD9FF0F0E8A16D938F00BD6
:1027F0008A128A86080EE82EFED78A96C80EE82E20
:10280000FED71200E8CFE1FF235102E08A8401D015
:102810008A94E1380F0BF2EC13F0E150F2EF13F071
:10282000010E46EC14F0100E0101016F940EE82E1B
:10283000FED7012FFCD704001200E8CFE1FFB4EC73
:102840000BF006E0B4EC0BF0ECEC11F0E12AF7D75A
:102850001200E8CFE1FF8EEC0BF006E08EEC0BF0FF
:1028600088EC13F0E12AF7D71200E8CFF3FF010E4E
:10287000236FF35002EC14F0F35088EF13F0415142
:102880004211431102E0800E431B1200E8CFE9FF22
:102890000101236BE95002EF14F0F00E17160F0E32
:0628A00017160F0C1200D8
:00000001FF
