:1000000000F06EEF00F0FF00FFFFD9CF01F0DACF74
:1000100002F09EA236D00001F72B880EF65D130E7B
:10002000F7592EE3880EF65F130EF75BF84BF92BAA
:10003000DF2B000EE023E123E223EC5105E1C90EA2
:10004000EB5D02E2828601D08296FFFF900E0001F6
:10005000EB5D010EEC5904E3900EEB5F010EEC5BDF
:10006000EB4BEC2BE80EF85D030EF95909E3E32B9B
:10007000000EE423E523E623E80EF85F030EF95BA8
:100080009E92FFFF9EAA11D0000E7624D96EDA6AE6
:10009000010EDA22AECFDFFF76280F0B0001ED6FE5
:1000A0007750ED19D8A4EDC076F0FFFF9EB89DA85B
:1000B0000ED07950C70FD96EDA6ADF50AD6E792A4B
:1000C0000F0E791678507918D8B49D989E98FFFF36
:1000D00002C0DAFF01C0D9FF1100FFFF64EF12F088
:10060000000000803F1872313FF0FD753E4758638F
:100610003D58951D3C82C4AE3AA8782139EF9380AD
:1006200037A092A7354656153400000000C4FF7F5E
:100630003F80EFFFBE90E1A93EEC8276BE82AD2BFB
:100640003E0E3CC3BD87D1133D4178D3BB0D0A4359
:1006500043616C3D002E2E2E0D0A000D0A46313DE1
:10066000000D0A46323D000D0A46333D0043696ED7
:100670003D007661723D0000FFFF60EC10F003C0AA
:10068000A5F004C0A6F0A5C00DF0A6C00EF0D9ECF0
:1006900012F00DC0DBF00EC0DCF00FC0DDF010C0BA
:1006A000DEF0EEC003F0EFC004F0F0C005F0F1C0E2
:1006B00006F0DBC007F0DCC008F0DDC009F0DEC0EA
:1006C0000AF076EC11F008E2EEC0DBF0EFC0DCF0EF
:1006D000F0C0DDF0F1C0DEF0D7C047F0D8C048F080
:1006E000D9C049F0DAC04AF0D7C043F0D8C044F0CE
:1006F000D9C045F0DAC046F040EC12F043C088F0B3
:1007000044C089F045C08AF046C08BF088C047F0ED
:1007100089C048F08AC049F08BC04AF0EEC020F092
:10072000EFC021F0F0C022F0F1C023F0EEC01CF0C9
:10073000EFC01DF0F0C01EF0F1C01FF0D6EC09F0C4
:100740001CC043F01DC044F01EC045F01FC046F061
:1007500040EC12F043C099F044C09AF045C09BF0C1
:1007600046C09CF0DBC020F0DCC021F0DDC022F0F0
:10077000DEC023F0DBC01CF0DCC01DF0DDC01EF0CD
:10078000DEC01FF0D6EC09F01CC047F01DC048F0D9
:100790001EC049F01FC04AF0EEC020F0EFC021F0AB
:1007A000F0C022F0F1C023F0EEC01CF0EFC01DF04D
:1007B000F0C01EF0F1C01FF0D6EC09F01CC043F0F1
:1007C0001DC044F01EC045F01FC046F040EC12F0C2
:1007D00043C09DF044C09EF045C09FF046C0A0F0CD
:1007E00099C020F09AC021F09BC022F09CC023F059
:1007F0009DC01CF09EC01DF09FC01EF0A0C01FF049
:10080000D6EC09F01CC0A1F01DC0A2F01EC0A3F0E0
:100810001FC0A4F0A1C01CF0A2C01DF0A3C01EF018
:10082000A4C01FF0000E206E400E216E1C0E226E22
:10083000460E236ED6EC09F01CC080F01DC081F07E
:100840001EC082F01FC083F0EEC020F0EFC021F088
:10085000F0C022F0F1C023F0EEC01CF0EFC01DF09C
:10086000F0C01EF0F1C01FF0D6EC09F01CC08CF0F7
:100870001DC08DF01EC08EF01FC08FF0D7C020F0BD
:10088000D8C021F0D9C022F0DAC023F08CC01CF00F
:100890008DC01DF08EC01EF08FC01FF0D6EC09F089
:1008A0001CC099F01DC09AF01EC09BF01FC09CF0A8
:1008B000D7C020F0D8C021F0D9C022F0DAC023F090
:1008C00099C01CF09AC01DF09BC01EF09CC01FF088
:1008D000D6EC09F01CC09DF01DC09EF01EC09FF01C
:1008E0001FC0A0F0DBC020F0DCC021F0DDC022F092
:1008F000DEC023F09DC01CF09EC01DF09FC01EF006
:10090000A0C01FF0D6EC09F01CC0A1F01DC0A2F0E1
:100910001EC0A3F01FC0A4F0DBC020F0DCC021F09B
:10092000DDC022F0DEC023F0A1C01CF0A2C01DF08B
:10093000A3C01EF0A4C01FF0D6EC09F01CC090F0BC
:100940001DC091F01EC092F01FC093F0F2C020F0C5
:10095000F3C021F0F4C022F0F5C023F090C01CF0E9
:1009600091C01DF092C01EF093C01FF0D6EC09F0AC
:100970001CC094F01DC095F01EC096F01FC097F0EB
:1009800094C01CF095C01DF096C01EF097C01FF0DB
:10099000E60E206EE90E216E1D0E226E420E236EB3
:1009A000D6EC09F01CC084F01DC085F01EC086F096
:1009B0001FC087F084C011F085C012F086C013F00C
:1009C00087C014F080C00DF081C00EF082C00FF01F
:1009D00083C010F063EC0FF00DC01CF00EC01DF0D2
:1009E0000FC01EF010C01FF0A90E206E5F0E216E0A
:1009F000630E226E580E236ED6EC09F01CC0A7F0D1
:100A00001DC0A8F01EC0A9F01FC0AAF0036AC00E46
:100A1000046E790E056E440E066EA7C007F0A8C0DE
:100A200008F0A9C009F0AAC00AF076EC11F07AE249
:100A3000800E036EE50E046E730E056E490E066E93
:100A4000A7C007F0A8C008F0A9C009F0AAC00AF022
:100A500076EC11F04CE21F0E036E2E0E046E6E0E3D
:100A6000056E4E0E066EA7C007F0A8C008F0A9C01C
:100A700009F0AAC00AF076EC11F01DE2A7C00DF053
:100A8000A8C00EF0A9C00FF0AAC010F0280E116E79
:100A90006B0E126E6E0E136E4E0E146E63EC0FF034
:100AA0000DC0A7F00EC0A8F00FC0A9F010C0AAF0AA
:100AB0000001986B3BD0A7C00DF0A8C00EF0A9C0F4
:100AC0000FF0AAC010F0000E116E240E126E740EFC
:100AD000136E490E146E63EC0FF00DC0A7F00EC03C
:100AE000A8F00FC0A9F010C0AAF0010E1CD0A7C03A
:100AF0000DF0A8C00EF0A9C00FF0AAC010F0000EB3
:100B0000116E126E7A0E136E440E146E63EC0FF0BB
:100B10000DC0A7F00EC0A8F00FC0A9F010C0AAF039
:100B2000020E01D0030EFFFF0001986FFFFFA7C068
:100B30001CF0A8C01DF0A9C01EF0AAC01FF0000E36
:100B4000206E216EC80E226E420E236ED6EC09F086
:100B50001CC0A7F01DC0A8F01EC0A9F01FC0AAF0BD
:100B6000A7C05DF0A8C05EF0A9C05FF0AAC060F0A9
:100B70000BEC0FF05DC0A5F05EC0A6F0A5C003F0C1
:100B8000A6C004F034EC13F00001985131EC13F0DE
:100B90001200FFFFFFFF60EC10F003C0C1F004C0C3
:100BA000C2F0C1C00DF0C2C00EF0D9EC12F00DC001
:100BB000DBF00EC0DCF00FC0DDF010C0DEF0080E80
:100BC0007A6E260E7B6E720EA5EC12F0C1C035F067
:100BD000C2C036F0376A386AE1EC10F05B0EA5EC63
:100BE00012F0EEC0A0F0EFC0A1F0F0C0A2F0F1C092
:100BF000A3F0F2EC08F0200E04EC13F0EEC035F098
:100C0000EFC036F0F0C037F0F1C038F0E1EC10F092
:100C1000610EA5EC12F0D7C0A0F0D8C0A1F0D9C0E9
:100C2000A2F0DAC0A3F0F2EC08F0200E04EC13F00E
:100C3000D7C035F0D8C036F0D9C037F0DAC038F0B8
:100C4000E1EC10F0670EA5EC12F0DBC0A0F0DCC008
:100C5000A1F0DDC0A2F0DEC0A3F0F2EC08F0200E9F
:100C600004EC13F0DBC035F0DCC036F0DDC037F04B
:100C7000DEC038F0E1EC10F04D0EA5EC12F0F2C041
:100C8000A0F0F3C0A1F0F4C0A2F0F5C0A3F0F2EC24
:100C900008F0200E04EC13F0F2C035F0F3C036F08B
:100CA000F4C037F0F5C038F0E1EC10F0580EA5ECC8
:100CB00012F0540E7A6E260E7B6EEEC003F0EFC07B
:100CC00004F0F0C005F0F1C006F0DBC007F0DCC0B6
:100CD00008F0DDC009F0DEC00AF076EC11F008E2A1
:100CE000EEC0DBF0EFC0DCF0F0C0DDF0F1C0DEF014
:100CF000DBC020F0DCC021F0DDC022F0DEC023F03C
:100D0000DBC01CF0DCC01DF0DDC01EF0DEC01FF03B
:100D1000D6EC09F01CC047F01DC048F01EC049F0D9
:100D20001FC04AF0EEC020F0EFC021F0F0C022F06A
:100D3000F1C023F0EEC01CF0EFC01DF0F0C01EF0BB
:100D4000F1C01FF0D6EC09F01CC043F01DC044F008
:100D50001EC045F01FC046F040EC12F043C0B4F096
:100D600044C0B5F045C0B6F046C0B7F0D7C020F0DB
:100D7000D8C021F0D9C022F0DAC023F0B4C01CF0F2
:100D8000B5C01DF0B6C01EF0B7C01FF0D6EC09F01C
:100D90001CC0B8F01DC0B9F01EC0BAF01FC0BBF037
:100DA000D7C020F0D8C021F0D9C022F0DAC023F09B
:100DB000B8C01CF0B9C01DF0BAC01EF0BBC01FF017
:100DC000D6EC09F01CC0BCF01DC0BDF01EC0BEF0CA
:100DD0001FC0BFF0BCC01CF0BDC01DF0BEC01EF0E7
:100DE000BFC01FF0F2C020F0F3C021F0F4C022F029
:100DF000F5C023F0D6EC09F01CC0C3F01DC0C4F050
:100E00001EC0C5F01FC0C6F06D0EA5EC12F0C3C029
:100E1000A0F0C4C0A1F0C5C0A2F0C6C0A3F0F2EC1F
:100E200008F0200E04EC13F0C3C035F0C4C036F057
:100E3000C5C037F0C6C038F0E1EC10F0580EA5EC94
:100E400012F0036AC00E046E790E056E440E066E33
:100E5000C3C007F0C4C008F0C5C009F0C6C00AF09E
:100E600076EC11F079E2800E036EE50E046E730EDF
:100E7000056E490E066EC3C007F0C4C008F0C5C0B9
:100E800009F0C6C00AF076EC11F04BE21F0E036EBB
:100E90002E0E046E6E0E056E4E0E066EC3C007F06B
:100EA000C4C008F0C5C009F0C6C00AF076EC11F065
:100EB0001CE2C3C00DF0C4C00EF0C5C00FF0C6C028
:100EC00010F0280E116E6B0E126E6E0E136E4E0E1B
:100ED000146E63EC0FF00DC0C3F00EC0C4F00FC071
:100EE000C5F010C0C6F0040E38D0C3C00DF0C4C0A9
:100EF0000EF0C5C00FF0C6C010F0000E116E240E2B
:100F0000126E740E136E490E146E63EC0FF00DC06A
:100F1000C3F00EC0C4F00FC0C5F010C0C6F0050E7F
:100F20001CD0C3C00DF0C4C00EF0C5C00FF0C6C0C9
:100F300010F0000E116E126E7A0E136E440E146EC7
:100F400063EC0FF00DC0C3F00EC0C4F00FC0C5F0CD
:100F500010C0C6F0060E01D0070EFFFF0001C06FE3
:100F6000C3C01CF0C4C01DF0C5C01EF0C6C01FF039
:100F7000000E206E216EC80E226E420E236ED6EC3D
:100F800009F01CC0C3F01DC0C4F01EC0C5F01FC0D6
:100F9000C6F0C3C05DF0C4C05EF0C5C05FF0C6C09F
:100FA00060F00BEC0FF05DC0C1F05EC0C2F0C1C0DC
:100FB00003F0C2C004F034EC13F00001C05131EC76
:100FC00013F01200FFFFFFFF000180518111821119
:100FD000831106E1806B816B800E826F3F0E18D00B
:100FE000180E036E720E046E310E056E440E066E00
:100FF00080C007F081C008F082C009F083C00AF009
:1010000076EC11F008E20001806981697F0E826F41
:10101000FFFF836FE4D080C003F081C004F082C082
:1010200005F083C006F0870E076E480E086E3A0E74
:10103000096EC40E0A6E76EC11F002E20001A6D031
:101040000001010E83AF000E8A6F8A5112E080C04A
:1010500003F081C004F082C005F083C006F018ECF4
:1010600013F003C080F004C081F005C082F006C018
:1010700083F080C01CF081C01DF082C01EF083C0D0
:101080001FF03B0E206EAA0E216EB80E226E3F0E90
:10109000236ED6EC09F01CC080F01DC081F01EC08C
:1010A00082F01FC083F080C06CF081C06DF082C000
:1010B0006EF083C06FF0D2EC0CF06CC084F06DC0A9
:1010C00085F06EC086F06FC087F084C05DF085C08B
:1010D0005EF086C05FF087C060F00BEC0FF05DC083
:1010E00088F05EC089F080C043F081C044F082C0C7
:1010F00045F083C046F088C00DF089C00EF085EC45
:1011000012F00DC047F00EC048F00FC049F010C0FB
:101110004AF040EC12F043C080F044C081F045C07A
:1011200082F046C083F080C043F081C044F082C0AA
:1011300045F083C046F0010E476E496A090E486EBD
:10114000A2EC0EF043C04FF044C050F045C051F047
:1011500046C052F088C053F089C054F0BAEC0FF08A
:101160004FC080F050C081F051C082F052C083F077
:1011700000018A512CE080290FE181290DE17F0EC9
:1011800082190AE17F0E8319D8A406D0FFFF806B75
:10119000816B826B836B23D0FFFF000E0D6E0E6E92
:1011A000800E0F6E3F0E106E80C011F081C012F0E5
:1011B00082C013F083C014F063EC0FF00DC080F018
:1011C0000EC081F00FC082F010C083F008D080C044
:1011D00080F081C081F082C082F083C083F0FFFF85
:1011E0001200FFFFFFFFA0C055F0A1C056F0A2C043
:1011F00057F0A3C058F047EC11F055C05DF056C051
:101200005EF057C05FF058C060F00BEC0FF05DC0AF
:10121000B2F05EC0B3F0B5D0FFFFB2C00DF0B3C006
:101220000EF085EC12F00DC0A4F00EC0A5F00FC0BA
:10123000A6F010C0A7F000018B6B8C6B200E8D6F99
:10124000410E8E6FA4C08FF0A5C090F0A6C091F0A3
:10125000A7C092F0B9EC0AF08BC0ACF08CC0ADF036
:101260008DC0AEF08EC0AFF0ACC011F0ADC012F0CA
:10127000AEC013F0AFC014F0A0C00DF0A1C00EF0CE
:10128000A2C00FF0A3C010F063EC0FF00DC06CF023
:101290000EC06DF00FC06EF010C06FF0D2EC0CF00D
:1012A0006CC0A8F06DC0A9F06EC0AAF06FC0ABF022
:1012B000A8C05DF0A9C05EF0AAC05FF0ABC060F04E
:1012C0000BEC0FF05DC0B0F05EC0B1F0A0C043F019
:1012D000A1C044F0A2C045F0A3C046F0ACC020F0CD
:1012E000ADC021F0AEC022F0AFC023F0B0C00DF011
:1012F000B1C00EF085EC12F00DC01CF00EC01DF058
:101300000FC01EF010C01FF0D6EC09F01CC047F053
:101310001DC048F01EC049F01FC04AF040EC12F05A
:1013200043C0A0F044C0A1F045C0A2F046C0A3F065
:1013300001D80FD0FFFF0500FA6E7A50FD6E7B508A
:10134000FE6EF850FF6EFA500001B051300F1200DF
:10135000FFFFFFFF0001B251B3110EE101D80CD025
:10136000FFFF0500FA6E7A50FD6E7B50FE6EF8505E
:10137000FF6EFA502E0CFFFFFFFF0001B207D8A04E
:10138000B307FFFF036A046A056A340E066EA0C045
:1013900007F0A1C008F0A2C009F0A3C00AF076ECE3
:1013A00011F0D8B01200FFFF37D7FFFFFFFF1E3448
:1013B0001F34316E315005E022342334326E325006
:1013C00005E11C6A1D6A1E6A1F6AD0D032507B0F6D
:1013D00031261FC032F02350321A800E32161E8E74
:1013E000228E236A1F6A1C502002F4CFF3FFF46A96
:1013F000F3CF33F0F4CF34F0356A366A1C50210253
:10140000F3CF24F0F4CF25F0266A1D502002F350CC
:101410002424276EF4502520286E000E2620296EE5
:1014200027502A6E28502B6E29502C6E2D6A2A5078
:1014300033262B5034222C5035222D503622345056
:10144000336E3550346E3650356E366A1C5022027B
:10145000F3CF24F0F4CF25F0266A1D502102F3507B
:101460002424276EF4502520286E000E2620296E95
:101470001E502002F35027242A6EF45028202B6E91
:10148000000E29202C6E2A502D6E2B502E6E2C50C3
:101490002F6E306A2D5033262E5034222F50352295
:1014A000305036221E502102F3CF24F0F4CF25F025
:1014B000266A330E276E286A2728D96E000E282048
:1014C000DA6E2450DE262550DE222650DE221D5004
:1014D0002202F3CF24F0F4CF25F0266A330E276ED4
:1014E000286A2728D96E000E2820DA6E2450DE26BE
:1014F0002550DE222650DE221E502202F3CF24F099
:10150000F4CF25F0266A330E276E286A020E2724B0
:10151000D96E000E2820DA6E2450DE262550DE22F9
:101520002650DE2236AE06D0D890363235323432EE
:101530003332312AFFFFD8903632353234323332EB
:1015400033C003F034C004F035C005F036C006F0F7
:1015500031C007F032C008F037EC0EF003C01CF0C9
:1015600004C01DF005C01EF006C01FF0FFFF1200F2
:10157000FFFFFFFF9B6B8B518C118D118E1110E1C2
:10158000036A046A056A066A8FC007F090C008F013
:1015900091C009F092C00AF076EC11F0000137D04A
:1015A0008F5190119111921107E18B6B8C6B800E12
:1015B0008D6F3F0E8E6FA3D08EAF44D08FC05DF085
:1015C00090C05EF091C05FF092C060F00BEC0FF045
:1015D0005DC09CF05EC09DF05FC09EF060C09FF05B
:1015E0009CC00DF09DC00EF09EC00FF09FC010F08B
:1015F000C0EC12F000018F510D1809E190510E1846
:1016000006E191510F1803E19251101806E0FFFF17
:101610008B6B8C6B8D6B8E6B72D09C51010B9B6FA7
:101620008BC003F08CC004F08DC005F08EC006F0B6
:1016300018EC13F003C08BF004C08CF005C08DF0E3
:1016400006C08EF0FFFF8BC04FF08CC050F08DC0F5
:1016500051F08EC052F041EC0CF04FC093F050C0EE
:1016600094F051C095F052C096F093C01CF094C015
:101670001DF095C01EF096C01FF08FC020F090C0E6
:1016800021F091C022F092C023F0D6EC09F01CC0EA
:1016900097F01DC098F01EC099F01FC09AF097C037
:1016A00080F098C081F099C082F09AC083F0E3EC9A
:1016B00007F080C08BF081C08CF082C08DF083C0B9
:1016C0008EF000019B5113E08BC003F08CC004F03E
:1016D0008DC005F08EC006F018EC13F003C08BF03F
:1016E00004C08CF005C08DF006C08EF008D08BC011
:1016F0008BF08CC08CF08DC08DF08EC08EF0FFFF13
:101700001200FFFFFFFF39343A34426E3D343E345D
:10171000416E425009E04150425C0FE24250415C50
:101720003F6E200E3F6409D03BC037F03CC038F01C
:101730003DC039F03EC03AF0A1D0FFFF415009E072
:101740004250415C0FE24150425C3F6E200E3F64CC
:1017500009D037C037F038C038F039C039F03AC056
:101760003AF08CD0FFFF060E406E3ABE408E3EBE71
:10177000408C398E3A6A3D8E3E6A4150425C1CE292
:10178000FFFFD8903B363C363D363E364106425050
:1017900041180EE0400640C03FF0070E3F1608E03B
:1017A000EFD7FFFFD8903A32393238323732422AF7
:1017B000415042181EE0F5D74250415C1AE2FFFF4B
:1017C000D8903736383639363A36420642504118C4
:1017D0000DE0400640C03FF0070E3F1607E0EFD790
:1017E000D8903E323D323C323B32412A4150421881
:1017F000F7E140AE09D0371E381E391E3A1E372A8F
:10180000000E382239223A22FFFF40AC09D03B1E9D
:101810003C1E3D1E3E1E3B2A000E3C223D223E2227
:10182000FFFF406A37503B2638503C2239503D225A
:101830003A503E223EAE0BD03B1E3C1E3D1E3E1E8D
:101840003B2A000E3C223D223E22010E406EFFFF4D
:101850003BC003F03CC004F03DC005F03EC006F0C4
:1018600042C007F040C008F037EC0EF003C037F07C
:1018700004C038F005C039F006C03AF0FFFF12008E
:10188000FFFFFFFF52BE05D04F50501051105210B5
:1018900006E1FFFF4F6A506A516A526A80D0206A9F
:1018A000216A226A400E236E530E076E4FC003F06A
:1018B00050C004F051C005F052C006F0A2EC10F088
:1018C00003C01CF004C01DF005C01EF006C01FF0D0
:1018D000D6EC09F01CC037F01DC038F01EC039F03E
:1018E0001FC03AF0000E3B6E3C6E800E3D6EBF0E88
:1018F0003E6E82EC0BF037C04FF038C050F039C06C
:1019000051F03AC052F05306D8A054064FC043F0ED
:1019100050C044F051C045F052C046F0290E476E09
:10192000496A080E486EA2EC0EF043C04FF044C066
:1019300050F045C051F046C052F0180E206E720EA5
:10194000216E310E226E3F0E236E53C00DF054C037
:101950000EF085EC12F00DC01CF00EC01DF00FC093
:101960001EF010C01FF0D6EC09F01CC037F01DC0EF
:1019700038F01EC039F01FC03AF04FC03BF050C0E5
:101980003CF051C03DF052C03EF082EC0BF037C04D
:101990004FF038C050F039C051F03AC052F0FFFF5C
:1019A0001200FFFFFFFF6CC003F06DC004F06EC0BB
:1019B00005F06FC006F0740E076EA2EC10F075AE65
:1019C0000FD06FAE07D06C6A6D6A800E6E6EBF0E60
:1019D0006F6E66D0FFFF6C6A6D6A6E6A6F6A60D068
:1019E000FFFF755003E11D0E745C09E36CC06CF0E1
:1019F0006DC06DF06EC06EF06FC06FF051D06CC0F6
:101A00005DF06DC05EF06EC05FF06FC060F00BEC1B
:101A10000FF05DC067F05EC068F05FC069F060C045
:101A20006AF0F5EC11F067C070F068C071F069C041
:101A300072F06AC073F06CC003F06DC004F06EC049
:101A400005F06FC006F070C007F071C008F072C0FA
:101A500009F073C00AF076EC11F01AE270C037F0AA
:101A600071C038F072C039F073C03AF0000E3B6EAE
:101A70003C6E800E3D6EBF0E3E6E82EC0BF037C0AA
:101A80006CF038C06DF039C06EF03AC06FF008D01D
:101A900070C06CF071C06DF072C06EF073C06FF00A
:101AA000FFFF1200FFFFFFFF346A200E326E0DAE03
:101AB00003D00D6C300E326EFFFF0AC003F00BC076
:101AC00004F00CC005F0066A1CEC12F00350336EF3
:101AD000090E336402D0370E02D0FFFF300EFFFF35
:101AE0003324306E316A000E31223450100FD96E1B
:101AF000DA6A30C0DFFF342A0AC003F00BC004F0FA
:101B00000CC005F0066ACBEC11F003C00AF004C06B
:101B10000BF00A500B1010E0CFD701D80DD0FFFF0B
:101B20000500FA6E7A50FD6E7B50FE6EF850FF6E27
:101B3000FA5032501200FFFFFFFF0D060D280E6E07
:101B40003450800A0F6E0E50800A0F5CE6E3FFFFF0
:101B50003450800A7F0F19E301D814D0FFFF05002D
:101B6000FA6E7A50FD6E7B50FE6EF850FF6EFA50A2
:101B700034C00EF00E060E50100FD96EDA6ADF5028
:101B80001200FFFFFFFF3406E2D71200FFFFFFFF46
:101B90000001E36BE46BE56BE66BE3C0DFF0E4C0F0
:101BA000E0F0E5C0E1F0E6C0E2F0DFC0F8F0E0C050
:101BB000F9F0F8C0F6F0F9C0F7F0F26BF36B7A0EBB
:101BC000F46F440EF56FCF0E926ED58AD588F19ED4
:101BD00094968296C69A800EA1EC11F094929496F7
:101BE000948094849488949A829A046A320E036E44
:101BF00016EC11F0828A046A320E036E16EC11F0B4
:101C0000829A046A320E036E16EC11F0828A046A1C
:101C1000320E036E16EC11F0829AF0EC12F0949CE6
:101C2000F28CF28E046AC80E036E16EC11F00DEC05
:101C300010F0FFFF550EA5EC12F082A803D0CAECFD
:101C400005F003D0FFFF3CEC03F0FFFF010E3AEC80
:101C500013F0046A1E0E036E16EC11F0000E3AEC3F
:101C600013F0046A140E036E16EC11F0E2D7FFFFB6
:101C7000075005E003500410051006100CE1036A3C
:101C8000046A056A066A5BD0FFFF072AD89006320D
:101C9000053204320332096A0A6A0B6AFE0E061420
:101CA0000C6E09500A100B100C100DE0EDD7FFFF61
:101CB000072A032A000E042205220622D8900632A3
:101CC000053204320332096A0A6A0B6A06500C6E46
:101CD00009500A100B100C1008E0E9D7FFFF0706A7
:101CE000D890033604360536063605BE03D0020EFC
:101CF0000760F4D7FFFF07B002D07F0E0516FFFF85
:101D0000D890073207C009F00A6A0B6A0C6A09C04A
:101D10000CF00B6A0A6A096A095003120A5004128D
:101D20000B5005120C5006120850D8A4068E03C0A2
:101D300003F004C004F005C005F006C006F0FFFF84
:101D40001200FFFFFFFF4850040D4750F3244A6E76
:101D50004AC0F6FF060EF76E0900FFFFF5CF4BF005
:101D60000900FFFFF5CF4CF00900FFFFF5CF4DF064
:101D70000A00FFFFF5CF4EF040D04BC020F04CC022
:101D800021F04DC022F04EC023F043C01CF044C0EF
:101D90001DF045C01EF046C01FF0D6EC09F01CC077
:101DA00037F01DC038F01EC039F01FC03AF04806A9
:101DB000D8A049064850040D4750F3244A6E4AC043
:101DC000F6FF060EF76E0900FFFFF5CF3BF00900A6
:101DD000FFFFF5CF3CF00900FFFFF5CF3DF00A0013
:101DE000FFFFF5CF3EF082EC0BF037C04BF038C070
:101DF0004CF039C04DF03AC04EF0FFFF485049104A
:101E0000BCE14BC043F04CC044F04DC045F04EC067
:101E100046F01200FFFFFFFF5F346034666E6650CD
:101E200006E1FFFF5D6A5E6A5F6A606A49D05DC075
:101E300061F05EC062F05FC063F060C064F0200ECD
:101E400006D0FFFFD8906432633262326132FFFF06
:101E5000E82EF7D76150656E5F8E606A960E665EFB
:101E600066AE0DD06650800A970FDBE3FFFFD89077
:101E700060325F325E325D32663EF8D70ED0FFFFD1
:101E80001F0E666407D0CDD7D8905D365E365F36BC
:101E900060366606FFFF6650F7E1FFFF655008E019
:101EA000601E5F1E5E1E5D6C000E5E225F22602261
:101EB0005DC05DF05EC05EF05FC05FF060C060F06E
:101EC000FFFF1200FFFFFFFF0F3410341A6E1A508D
:101ED00005E0133414341B6E1B5005E10D6A0E6AC5
:101EE0000F6A106A44D01B50890F1A5E10C01BF095
:101EF00014501B1A800E1B160F8E106A138E146A54
:101F0000200E196EFFFFD890153616361736183684
:101F100011500D5C12500E5813500F581450105899
:101F200009E311500D5E12500E5A13500F5A1450FF
:101F3000105A1580D8900D360E360F361036192EE1
:101F4000E1D715C003F016C004F017C005F018C0A3
:101F500006F01AC007F01BC008F037EC0EF003C003
:101F60000DF004C00EF005C00FF006C010F0FFFF2A
:101F70001200FFFFFFFF4F5050105110521013E09E
:101F800052507F0B556E566AD8905536563655507E
:101F9000532656505422010E51AE000E5326000E09
:101FA000542254AE05D04F6A506A516A526A32D0F8
:101FB000FFFF54BE12D0540410E352AE06D04F6857
:101FC00050687F0E516EFF0E05D0FFFF4F685068BE
:101FD0007F0E516EFFFF526E1DD0FFFF5434543000
:101FE000566E5330556E5218800B5518526E53C0B2
:101FF00055F0010E551655325532515055187F0B7C
:102000005518516E4FC04FF050C050F051C051F0B4
:1020100052C052F0FFFF1200FFFFFFFF829A60ECF8
:1020200010F003C00DF004C00EF0D9EC12F00DC09A
:10203000EEF00EC0EFF00FC0F0F010C0F1F0046A47
:10204000320E036E16EC11F060EC10F003C00DF0D0
:1020500004C00EF0D9EC12F00DC0EEF00EC0EFF09F
:102060000FC0F0F010C0F1F0828A60EC10F003C0F5
:102070000DF004C00EF0D9EC12F00DC0D7F00EC078
:10208000D8F00FC0D9F010C0DAF0046A320E036E37
:1020900016EC11F060EC10F003C00DF004C00EF06F
:1020A000D9EC12F00DC0D7F00EC0D8F00FC0D9F0A7
:1020B00010C0DAF0829A580EA5EC12F01200FFFF61
:1020C000FFFFF2949298620E056E760EFFFFE82EE7
:1020D000FDD7052EFBD700D0D66AD76A086AFFFF66
:1020E000310E056EBB0EFFFFE82EFDD7052EFBD788
:1020F000082A090E0864F3D79288D6CF07F0096A38
:102100000A6AD58800F000F0D59800F000F0094A7E
:102110000A2A0750D618D71002E10A04F2E3075042
:10212000066E056A0950055E0A50065A000E05241F
:10213000096E010E06200A6E09C003F00AC004F001
:102140001200FFFFFFFF03500410051006100BE103
:102150000750D96EDA6A000EDE6ADD6A036A046A25
:10216000056A066A2BD006507F0B086E096AD89064
:10217000083609360750D96EDA6A08C0DEFF09C092
:10218000DDFF0750D96EDA6A010E05AE000EDE12D1
:10219000000EDD120750D96EDA6A820EDE26FF0EBF
:1021A000DD220650800B3F09066E059E03C003F03A
:1021B00004C004F005C005F006C006F0FFFF1200E1
:1021C000FFFFFFFF01D80CD0FFFF0500FA6E7A5029
:1021D000FD6E7B50FE6EF850FF6EFA50300CFFFF24
:1021E000FFFF01D80CD0FFFF0500FA6E7A50FD6E9C
:1021F0007B50FE6EF850FF6EFA50780CFFFFFFFF29
:1022000037C00AF038C00BF0100E0C6EFC0E0D6ECD
:1022100053EC0DF035C00AF036C00BF0100E0C6E0A
:10222000FC0E0D6E53EC0DF01200FFFFFFFF010ED0
:102230000B6EF29EDFC007F0E0C008F0E1C009F0CD
:10224000E2C00AF0F28E0A0E0302F3CF05F0F4CFDB
:1022500006F00402F3500626055007260650082211
:10226000000E09220A22FFFFF29E07500001DF5DE7
:102270000850E0590950E1590A50E259D8B00B6AA8
:10228000F28E0B50D8B41200FFFFEDD7FFFFFFFF17
:1022900055C04FF056C050F057C051F058C052F0E2
:1022A00041EC0CF04FC059F050C05AF051C05BF0F7
:1022B00052C05CF059C01CF05AC01DF05BC01EF04B
:1022C0005CC01FF0D90E206E5B0E216EDE0E226EFA
:1022D0003E0E236ED6EC09F01CC055F01DC056F022
:1022E0001EC057F01FC058F01200FFFFFFFF06AEE0
:1022F00009D0036C041ED8B0042A051ED8B0052AE4
:10230000800E0656FFFF0AAE09D0076C081ED8B033
:10231000082A091ED8B0092A800E0A56FFFF800E2F
:10232000061A0A1A0750035C085004580950055849
:102330000A50065802E2D89001D0D880FFFF120060
:10234000FFFFFFFF046E04500F0B056ECA96CA987C
:10235000CA9A05C003F0D89003320330D8B002D037
:10236000CA9001D0CA8005C003F0D8900332D8903B
:1023700003320330D8B002D0CA9201D0CA82CC6AEC
:10238000CA849E9204AE02D09D8202D0FFFF9D922D
:10239000FFFF1200FFFFFFFF076A086A05500610E3
:1023A0001EE0010E096E05D0FFFFD89005360636F7
:1023B000092AFFFF06AEF8D7FFFFD8900736083688
:1023C0000550035C0650045805E30550035E0650B3
:1023D000045A0780D89006320532092EEDD707C07F
:1023E00003F008C004F01200FFFFFFFF6B6A6AAE43
:1023F0000AD06A1E691E681E676C000E6822692278
:102400006A22010E6B6EFFFF67C003F068C004F024
:1024100069C005F06AC006F0960E076E6BC008F042
:1024200037EC0EF003C067F004C068F005C069F037
:1024300006C06AF01200FFFFFFFF055006101AE009
:10244000010E076E05D0FFFFD89005360636072A25
:10245000FFFF06AEF8D7FFFF0550035C0650045897
:1024600004E30550035E0650045AD8900632053244
:10247000072EF1D703C003F004C004F01200FFFFE1
:10248000FFFF4750481049104A1002E0800E4A1AD8
:1024900043C037F044C038F045C039F046C03AF088
:1024A00047C03BF048C03CF049C03DF04AC03EF058
:1024B00082EC0BF037C043F038C044F039C045F02F
:1024C0003AC046F01200FFFF01EE00F0100EEE6A77
:1024D000E806FDE100EEC7F02B0EEE6AE806FDE12E
:1024E000796A786A776A766A7A0EF66E260EF76EE1
:1024F000000EF86E0900F5CF7AF00900F5CF7BF0F9
:10250000000EF86E0001C7EF0DF0FFFF116A0EAE6E
:1025100005D00D6C0E1ED8B00E2A112AFFFF0DC07B
:1025200003F00EC004F0056A066A960E076E11C02D
:1025300008F037EC0EF003C00DF004C00EF005C03B
:102540000FF006C010F01200FFFFFFFF046E0BD06B
:10255000FFFF04C0F6FF060EF76E0800FFFFF55000
:1025600004EC13F0042AFFFF04C0F6FF060EF76E1A
:102570000800FFFFF550D8B41200FFFFE9D7FFFFB6
:10258000FFFF0DC003F00EC004F00FC005F010C037
:1025900006F0960E076E000E086E37EC0EF003C0C4
:1025A0000DF004C00EF005C00FF006C010F01200D0
:1025B000FFFFFFFF0DC003F00EC004F0056A066ABE
:1025C000960E076E000E086E37EC0EF003C00DF08D
:1025D00004C00EF005C00FF006C010F01200FFFF9F
:1025E000FFFF948C828EAC841F0EAF6EAC9CAB9CB4
:1025F000AC98AB8EAB889D98AC8AF28C796A786A7D
:10260000776A766A1200FFFFFFFF036E78280F0BD0
:102610007918FCE0F29E7850C70FD96EDA6A03C0D1
:10262000DFFF78280F0B786E9D88F28E1200FFFF77
:10263000FFFF035004100510061002E0800E061A7A
:1026400003C003F004C004F005C005F006C006F0A6
:102650001200FFFFFFFF046E045004EC13F01200A1
:10266000FFFFFFFF1200FFFFFFFF1200FFFFFFFF52
:102670001200FFFFFFFF1200FFFF6E26FFFFFF00AB
:020000040020DA
:08000000FFFFFFFFFFFFFFFF00
:020000040030CA
:0E000000FF260A0EFF0180FF0FC00FE00F4029
:00000001FF
