:100000000A128A111028FF3FFE00030E8312031309
:10001000A1000408A2000A08A3000A128A11ED2E0A
:100020000A128A111328831603174030DE01DF00FD
:100030001430E0005430E1000313FF30E80090304A
:1000400083178400D5300A128A11F1270A128A1107
:10005000DC3083138400E8300A128A11F127F7019B
:10006000F801F901FA0183010A128A112E2C0930D4
:10007000A9010A168A11BE270A128A119F3002248A
:100080000930A9010A168A11BE270A128A116430A2
:1000900083120313A400A5015608A7005508A60063
:1000A00094220A128A112508D8002408D70058087B
:1000B000AC005708AB000A30AD00AE0138220A127E
:1000C0008A116430A400A5015608A7005508A600AF
:1000D000BE220A128A112508DA002408D9005A081B
:1000E000AC005908AB000A30AD00AE01382ADB2164
:1000F000831203130030A9010A168A11BE270A12BF
:100100008A117630BB210030A901A90A0A168A118A
:10011000BE270A128A11E5300A168A11FE260A1233
:100120008A115A30BB210A128A11871213215608EC
:10013000DC005508DB000A168A11D6230A128A1140
:100140005B088316E50083125C088316E6008312C1
:100150005D088316E7003230BA210A128A11132192
:100160005608DC005508DB000A168A11D6230A124D
:100170008A115B088316E50083125C088316E6008B
:1001800083125D088316E700831287161321560831
:10019000DC005508DB000A168A11D6230A128A11E0
:1001A0005B088316DF0083125C088316E00083126D
:1001B0005D088316E1003230BA210A128A11132138
:1001C0005608DC005508DB000A168A11D6230A12ED
:1001D0008A115B088316DF0083125C088316E00037
:1001E00083125D088316E100831287120B30A90188
:1001F0000A168A11BE270A128A1183120313DE011E
:100200003D301C230A128A111C30BA210A128A11AD
:10021000831203130630DE0A5E02031C0029E53058
:100220000A168A11FE2E0B11831603130512823053
:1002300083120313D800DD30D700D70B1D29D80B4C
:100240001D29831203138101413083120313D80047
:10025000ED30D700D70B2A29D80B2A292F29413076
:1002600083120313D800ED30D700D70B3529D80BF4
:1002700035293A29413083120313D800ED30D700D5
:10028000D70B4029D80B402945294130831203134D
:10029000D800ED30D700D70B4B29D80B4B2950296C
:1002A000413083120313D800ED30D700D70B562905
:1002B000D80B56295B29413083120313D800ED3047
:1002C000D700D70B6129D80B6129662941308312E9
:1002D0000313D800ED30D700D70B6C29D80B6C294D
:1002E0007129413083120313D800ED30D700D70BAA
:1002F0007729D80B77297C29413083120313D80042
:10030000ED30D700D70B8229D80B822987294130BD
:1003100083120313D800ED30D700D70B8D29D80BEB
:100320008D299229831603130516E2222508DA0087
:100330002408D9000030A901A90A0A168A11BE278B
:100340000A128A11EA210A128A11B730EB210A1225
:100350008A115A08AC005908AB000A30AD000530CC
:10036000AE0038220A128A11EA235A08D600590828
:10037000D5000800080083120313AC00AA01AB01EA
:100380002A082C0784000A128A1100260A128A11F0
:10039000003A031908002A082C0784000A128A115F
:1003A00000260A128A1122230A128A118312AA0A2B
:1003B0000319AB0AC0290130BA230A128A110D3081
:1003C00083120313AA00FB30A900A90BE529AA0B8D
:1003D000E5290800272C83120313A80028088400AD
:1003E0000A128A1100260A128A11003A031908001B
:1003F000280884000A128A1100260A128A1106228D
:100400000A128A1183120313A80AEE298312031316
:10041000A70020240A128A11A400A601103CA500FE
:10042000031CA6032608803AFF0080307F02031DCC
:100430001B2A01302502031C080083160317540EE3
:100440000F39C43E840083120313270883178000EA
:100450002024A400A40AA40E8316031754088312B0
:10046000031324060F39240683160317D40008004B
:100470002030D401D000AE1F412A3030AE09AE0A80
:10048000D0002D08A400A5012C08A7002B08A60069
:10049000BE220A128A112408D3000A3053025308DC
:1004A000D100031C552A3730562A3030D201D107EB
:1004B0000318D20A5408303E840051088313800088
:1004C000D40A2D08A400A5012C08A7002B08A6001B
:1004D00094220A128A112508AC002408AB002C04CF
:1004E0000319772A412A500806220A128A11831218
:1004F00003135408803AAF002E08AE03803AAF02CF
:10050000031C732A5408803A7F3E031C08005408D9
:10051000FF3E303E84008313000806220A128A112F
:1005200083120313D403822AA901AA0124082504F3
:100530000319B92AA801A80AA51BA22A0310A40D11
:10054000A50D9B2A0310A90DAA0D25082702031D3E
:10055000AB2A24082602031CB52A2408A602250873
:10056000031CA703A70229140310A50CA40CA80BB5
:10057000A22A2A08A5002908A400080024082504A6
:100580000319DD2AA801A80AA51BCA2A0310A40D75
:10059000A50DC32A25082702031DD02A24082602F8
:1005A000031CD92A2408A6022508031CA703A702B6
:1005B0000310A50CA40CA80BCA2A2708A50026081E
:1005C000A400080083120108AA00AB01AC01831645
:1005D0008116F12A01302C02003003192B02031876
:1005E000032B83160116000000008316031301126B
:1005F0000000000083120313AB0A0319AC0A2A0897
:1006000001060319EA2A2A08A600A701A700A601E5
:100610002B082602A8002C08031C2C0A2702A9007C
:100620002808003EAB0029080318013E013EAC003B
:10063000A5002B08A400080083120313A800A6013C
:10064000A60ADA2BA9001C238312031329080A1611
:100650008A11182FAC0002302C020318F7152C0851
:1006600083160317C20083120313290803193C2BB6
:100670002C03031D3C2B7715623083120313AB0050
:100680006530AA00AA0B422BAB0B422B831203133B
:1006900006118611771A742B0330BF230A128A11B0
:1006A000213083120313AB007530AA00AA0B562B1E
:1006B000AB0B562B5B2B0330BF230A128A11F93088
:1006C00083120313AA00AA0B632B0330BF230A1261
:1006D0008A11F93083120313AA00AA0B6D2B023082
:1006E000BF230A128A11992B77082038BA230A12DD
:1006F0008A11213083120313AB007530AA00AA0BB4
:100700007F2BAB0B7F2B842B77082038BA230A1260
:100710008A11213083120313AB007530AA00AA0B93
:100720008F2BAB0B8F2B942B77082038BA230A1210
:100730008A1177082038BA230A128A1104308316E6
:100740000313E2000838BA230A128A110130BA23CF
:100750000A128A110D3083120313AB00FB30AA007A
:10076000AA0BB02BAB0BB02B023083160317C300C0
:100770000438BA2B83120313A800A601DA2B8312C4
:100780000313A5000F308605250EF0398604861563
:10079000053083120313A400A40BCC2BCF2B8312A0
:1007A00003138611A53083120313A400A40BD62BC8
:1007B000D92B0800A70026080319E02B0615E12B0A
:1007C0000611270E0F39BF230A128A118312031351
:1007D0002708BF2BA60120240A128A11260203181B
:1007E000FE2B2608C43E8400831700080A168A11CF
:1007F00018270A128A118312A60AEB2BE5300A1673
:100800008A11FE2E83120313AA00A90129082A07C0
:1008100084000A128A1100260A128A11003A03196A
:10082000080029082A0784000A128A1100260A12E1
:100830008A111C230A128A1183120313A90A062C97
:1008400083160317540E0F39831203130800F03078
:1008500083160317D4050F30D40508008316031739
:10086000B801B901BA01BB013B08B7003A08B600AC
:100870003908B5003808B4003508C1003408C00094
:100880004008D5004108D600D701D801FF30031336
:10089000E80003177A30D901DA004430DB00BE01EA
:1008A000BF01F430DC000130DD00053003139C0093
:1008B000CF3085000F30860568300A128A11B627BE
:1008C0000A128A1184300A128A1177250A128A11B3
:1008D0008112B330870083128715831607118312A4
:1008E0000711071580300A128A1177250A128A111A
:1008F00001300A128A1159250A128A110230A901FF
:10090000A90A0A128A112A230A128A1183160313CA
:10091000071687128312871232300A128A11BA21FF
:100920000A128A1183120313871632300A128A11AF
:10093000BA210A128A1183120313871232300A1263
:100940008A11BA210A128A118312031387163230D0
:100950000A128A11BA210A128A118312031387120A
:100960000A128A11C0250A128A11C0308B04831220
:100970000030A9010A168A11BE270A128A118C308A
:100980000A128A1102240A128A11831603175908BF
:100990000313CA0003175A080313CB0003175B089D
:1009A0000313CC000A128A150A200A128A11053094
:1009B0000A128A11BA210A128A110A128A117720A0
:1009C0000A128A110A128A11DB210A128A11831271
:1009D0000313071EED2C0130EE2C00308316DB00D4
:1009E00068060319082D6808031DF82C4A30F92CF5
:1009F0003A30DA000A168A11FE260A128A11E53008
:100A00000A168A11FE260A128A1183165B08E8006C
:100A100003175D083F02031D0F2D5C083E02031CF7
:100A2000132DBE01BF010313680803191D2D0A16FB
:100A30008A11E8230A128A11222D0A168A1115201A
:100A40000A128A1101300A128A1190250A128A119B
:100A50001E300A128A11BA210A128A1100300A12B3
:100A60008A1190250A128A1114300A128A11BA21A9
:100A70000A128A11E72C831203130E30A9010A16F9
:100A80008A11BE2783120313A90183160317540E7C
:100A90000F3983120313AF008316031754080F395D
:100AA00083120313B0002F083002103E0A168A1179
:100AB000BE2F8312A4008316E20183122408031DB3
:100AC000642D1030A500652DA501A6012508F700AD
:100AD00083160317C201C301031306118312061103
:100AE00083168611831286110F3086050800831243
:100AF0000313A700A6000F30A60580309205120848
:100B0000260803399204910112158C10A71F8A2D13
:100B100001308B2D0030A400240783168C000800C0
:100B200083120313AF000030A901A90A0A168A1123
:100B3000BE270A128A11831203132F080319A42D4A
:100B4000CC300A128A11022CA1300A128A11022C0E
:100B5000A7000130A5020030031CA603A602250F42
:100B6000B42D260A031908002708840083170008FB
:100B70000A168A1118270A128A118312A70AA92DA8
:100B800083160713871718151F309900181383123F
:100B900018138316181283129817181683160C123E
:100BA00098160B17F901F801E301FA010800FF3F5D
:100C000006308A000408840A8207003400348034E5
:100C10003F34723431343F34FE3475343E3458340A
:100C200063343D3495341D343C34C534AE343A34E9
:100C30007934213439349434803437349334A734BC
:100C40003534563415343434003400340034003430
:100C500080343F34F034FF34BE34E234A9343E34BF
:100C600083347634BE34AE342B343E343C34C33417
:100C7000BD34D23413343D347834D334BB342D34C2
:100C8000203443342034283455346E346934743479
:100C90003A3420344634293420342D3400342D3471
:100CA00020344C342034283455346E346934743450
:100CB0003A3420344834293420342D34003470340C
:100CC0006C34653461347334653420347734613482
:100CD000693474342E342E342E34003449346E3456
:100CE00064347534633474346934763469347434F8
:100CF000793420340034433461346C3469346234E0
:100D000072346134743469346E346734003443347B
:100D10006134703461346334693474347934203428
:100D200000344C3443342D346D34653474346534BC
:100D30007234203400340D340A3443344334613483
:100D40006C343D34003420342034203420342034BA
:100D5000203400340D340A34463431343D34003408
:100D60000D340A34463432343D3400340D340A3400
:100D7000463433343D34003446347234653471348F
:100D80003D340034433469346E343D3400347634B9
:100D9000613472343D3400345234433434343D349D
:100DA00000342D342A342D3400346D34463400346C
:100DB0006E3446340034703446340034753446346E
:100DC00000346D34483400346E34483400347534A3
:100DD000483400340D340A3400348C1C572F8316E9
:100DE0000317D60A0319D70A0319D80A5808031D8E
:100DF000042F5708031D042F13305602031D022F22
:100E000088305502031C542F8830D5021330031C40
:100E10001430D6020030031C0130D7020030031C0E
:100E20000130D802C00A0319C10ABE0A0319BF0A59
:100E30008312031307110630F000F1018316031724
:100E40005D08F3005C08F2008C270A128A11710811
:100E50003F02031D2D2F70083E020318312F013071
:100E6000322F003083120313A00001300310A00DB5
:100E7000FF3E0310031D372F200D87040330831618
:100E800003174102E83003194002031C542FB80A2B
:100E90000319B90A0319BA0A0319BB0AE830C002D8
:100EA0000330031CC103C102831203138C108C1E78
:100EB0006B2F7A08A03E84001A08831780007A08F6
:100EC000013E8316E4000F30E4056408630603194D
:100ED0006B2F6408FA0083120C1E822F83160C1EDF
:100EE000822F7908903E84008317000883129900AE
:100EF000F90A0F30F90579087806831603190C12E0
:100F000083120C12831223088A0022088400210E07
:100F10008300FE0E7E0E0900F401F50170087104D5
:100F20000319B12FF601F60AF11B9A2F0310F00DE9
:100F3000F10D932F0310F40DF50D71087302031DCD
:100F4000A32F70087202031CAD2F7008F202710803
:100F5000031CF303F30274140310F10CF00CF60BF2
:100F60009A2F7508F1007408F00008008312A6009B
:100F7000A5000F30A5058101A61EC22F83160313FD
:100F80008116C52F8316031381128312261ECC2FC0
:100F9000831603130116CF2F831603130112831236
:100FA00025080319E92F25080319DA2F83160313DF
:100FB0008115DD2F831603138111FF30831225075E
:100FC000A4008316010883122406F8392406831628
:100FD00081000B118312A61FEF2F8B1608008B12B6
:100FE000080064008001840A040603190034040622
:100FF000F22FFF3FFF3FFF3FFF3FFF3FFF3FFF3F1E
:10101000FF3FFF3F4A088312DB0083164B08831211
:10102000DC0083164C088312DD0006210A128A15A3
:101030005B08E1005C08E2005D08E3002925620826
:101040008316D900831261088316D80083123830C2
:10105000A401A501A60083164A088312A7008316DF
:101060004B088312A80083164C088312A9000A16A5
:101070008A118D230A128A1503180800831659084D
:101080008312AD00831658088312AC00A4230A1201
:101090008A152C088316CD0083122D088316CE00E6
:1010A00083122E088316CF002030B901BA004130D8
:1010B000BB004D08BC004E08BD004F08BE00CF2647
:1010C0000A128A153908D3003A08D4003B08D50023
:1010D0004A088312AF0083164B088312B0008316B0
:1010E0004C088312B100831653088312AC00831698
:1010F00054088312AD00831655088312AE00F02108
:101100000A128A152C088316A80083122D0883164C
:10111000A90083122E088316AA0095250A128A15A3
:101120002808D0002908D1002A08D20050088312CC
:10113000E100831651088312E200831652088312DD
:10114000E30029250A128A1562088316D700831244
:1011500061088316D60057088312AD00831656081F
:101160008312AC00A4232C08BF002D08C0002E0859
:10117000C100831653088312BC00831654088312DF
:10118000BD00831655088312BE000A168A11312746
:101190000A128A153C08CB003D08CC003E08CD0061
:1011A00083164A088312CE0083164B088312CF00A1
:1011B00083164C088312D0000A168A11B9230A122A
:1011C0008A154B088316CA0083124C088316CB007D
:1011D00083124D088316CC005608303E0A128A113D
:1011E00006220A128A158316031358085904031D90
:1011F000FF282E300A128A1106220A128A15FF30A1
:1012000083160313D807031CD90326285B08D600CE
:101210005C08D7005D08D80029215608DE00570871
:10122000DF005808E0005C30BC00DE30BD003E301E
:10123000BE005E08BF005F08C0006008C1000A165B
:101240008A1131273C08DB003D08DC003E08DD0048
:1012500008005608A4005708A5005808A600A701D2
:10126000A801A9010A168A118D230A128A150318EA
:101270003D29D601D701D801080058085704560463
:10128000031D4629D601D701D80108008030B001DE
:10129000B100BF30B2004030BC01BD01BE005930CA
:1012A000A7005608A4005708A5005808A600B421B6
:1012B0002408BF002508C0002608C1000A168A11AC
:1012C00031270A128A153C08B3003D08B4003E08D5
:1012D000B5001F240A128A153008D6003108D7003D
:1012E0003208D800FF30D907031CDA035608CB00B8
:1012F0005708CC005808CD001F30CE000830CF0072
:10130000D001BF230A128A154B08D6004C08D7001B
:101310004D08D8005608B0005708B1005808B20070
:101320007230BC003130BD003F30BE005A08AD0005
:101330005908AC00A4232C08BF002D08C0002E08BB
:10134000C1000A168A1131270A128A153C08B30017
:101350003D08B4003E08B5001F243008D60031080F
:10136000D7003208D8000800260825042404031DED
:10137000C3292708840083138001840A8001A40103
:10138000A501A601080026087F39A800A9010310BD
:10139000A80DA90D27088400280883138000840A5B
:1013A00029088000250D250D0139A800A90127086D
:1013B000840028088004840A2908800427088400FF
:1013C00082308007840F00080318000AFF00FF3EE8
:1013D00080008403260880393F38A600A513080042
:1013E0002F08B2003008B3003108B4000310330DE9
:1013F000340DB9003908031D012AAC01AD01AE015D
:1014000008002C08B2002D08B3002E08B400031009
:10141000330D340DBA003A08031D122AAC01AD0198
:10142000AE0108008930B601B701B8013A07B20031
:10143000B9023108BA002E08BA068030BA05183051
:10144000B017B101AD17AE01B5000310B60DB70D61
:10145000B80D2E083102031D332A2D083002031D5A
:10146000332A2C082F02031C412A2C08AF022D0816
:10147000031C2D0FB0022E08031C2E0AB1023614D5
:101480000310AF0DB00DB10DB50B252A3608A40021
:101490003708A5003808A6003908A7003A08A800B0
:1014A000DF242408AC002508AD002608AE000800A3
:1014B000320831043004031D632A8030B001B100CA
:1014C0003F30B200080072308312A4003130A50012
:1014D0004430A600831630088312A7008316310813
:1014E0008312A800831632088312A9000A168A11F3
:1014F0008D230A128A150318842AFF308316B00040
:101500007F30B100B2000800831630088312A400B7
:10151000831631088312A500831632088312A600B1
:101520004930A7003A30A800C430A9000A168A1131
:101530008D230A128A150318A22A8316B001B1015D
:10154000B2010800831630088312A4008316310804
:101550008312A500831632088312A600A701A801F2
:10156000A9010A168A118D230A128A150318BA2AAC
:101570000130BB2A00308316B80038080319D72A77
:1015800030088312A400831631088312A500831645
:1015900032088312A600212524088316B000831286
:1015A00025088316B100831226088316B200AA30DC
:1015B0008312BC00B830BD003F30BE008316300837
:1015C0008312BF00831631088312C00083163208CD
:1015D0008312C1000A168A1131270A128A153C08A3
:1015E0008316B00083123D088316B10083123E08B3
:1015F0008316B2003008A8003108A9003208AA00FA
:1016000095250A128A152808B3002908B4002A086B
:10161000B50033088312E100831634088312E20018
:10162000831635088312E30029250A128A156208F9
:101630008316B700831261088316B6003708831239
:10164000AD00831636088312AC00A4232C08CB000F
:101650002D08CC002E08CD00831630088312CE0052
:10166000831631088312CF00831632088312D0000C
:101670000A168A11B9230A128A154B088316B0007C
:1016800083124C088316B10083124D088316B200F2
:1016900030088312CB00831631088312CC008316E6
:1016A00032088312CD000130CE000930CF00D001C6
:1016B000BF230A128A154B08D6004C08D7004D08E4
:1016C000D800831637088312DA008316360883128F
:1016D000D9006E260A128A1556088316B0008312A6
:1016E00057088316B100831258088316B2003808D1
:1016F00003190800300A7F30031931067F300319BF
:101700003206031D872BB001B101B2010800300879
:101710008312AC00831631088312AD0083163208A1
:101720008312AE008030AF01B0003F30B100F02135
:101730002C088316B00083122D088316B100831283
:101740002E088316B2000800AF01AD1FAE2BAC0906
:10175000AD09AC0A0319AD0AAF01AF0A2C08A40009
:101760002D08A5008E30A601A7002F08A800DF24B1
:101770002408AC002508AD002608AE0008004F087C
:101780004F074F074E0784000A128A1100260A12DB
:101790008A15D3000A128A1100260A128A15D4006B
:1017A0000A128A1100260A128A15D5004F08500421
:1017B0000319182CFF30CF07031CD0035008D200A8
:1017C0004F08D100510751074E0784000A128A11B1
:1017D00000260A128A15B0000A128A1100260A127F
:1017E0008A15B1000A128A1100260A128A15B2005F
:1017F0005308BC005408BD005508BE004B08BF008C
:101800004C08C0004D08C1000A168A1131270A127F
:101810008A153C08B3003D08B4003E08B5001F24FB
:101820000A128A153008D3003108D4003208D52BAB
:101830005308CB005408CC005508CD0008003008F0
:10184000B6003108B7003208B8000310370D380D64
:10185000BB003308B6003408B7003508B8000310E1
:10186000370D380DBA003B080319422C3A083B02E9
:101870003A0803184A2CB6003B08B6021930360263
:10188000031C492C3308B0003408B1003508B200FD
:1018900008003A08031908003B083A020318582CBC
:1018A0003B08B6003A08B6021930360203180800A1
:1018B0000630B900B21BB917B51B3917B117B20101
:1018C000B417B5013A083B0203187F2C0310B30D7F
:1018D000B40DB50DBA033A083B0603197A2CB903C7
:1018E0003908073903197A2C662C0310B20CB10C95
:1018F000B00CBB0A3B083A0603199B2C752C3B081D
:101900003A0203189B2C0310B00DB10DB20DBB03AE
:101910003A083B060319972CB9033908073903190C
:10192000972C832C0310B50CB40CB30CBA0A3B08EB
:101930003A06031D922CB91FA62CFF30B006B10643
:10194000B206B00A0319B10A0319B20A391FB12C41
:10195000FF30B306B406B506B30A0319B40A031977
:10196000B50AB9013008B307310803110318310A69
:10197000031DB407320803110318320A031DB5070B
:10198000B51FCD2CFF30B306B406B506B30A031954
:10199000B40A0319B50AB901B90A3308A400340816
:1019A000A5003508A6003B08A7003908A800DF24D9
:1019B0002408B0002508B1002608B2000800270856
:1019C0000319E72C260825042404031DF02CA40188
:1019D000A501A6010800A70A0310A60CA50CA40CDB
:1019E000FE3026050319FF2CEB2CA70AA40A0319C5
:1019F000A50A0319A60A0310A60CA50CA40CFF3017
:101A0000260503190D2DF52C02302702031C0F2D7E
:101A1000A7030310A40DA50DA60DA51F042D271CBB
:101A2000A5130310A70C2708AB00AA01A9012908D8
:101A3000A4042A08A5042B08A6042808031DA61739
:101A40000800260825042404031908008030A6068F
:101A50000800F9270A128A150310660D670D831610
:101A6000A5002508031D3A2D8312E101E201E301DF
:101A7000E40108008312F9270A128A1517300310AF
:101A8000E70CE60CE50CFF3E031D3F2D65088316B1
:101A9000A0008312E217E30161088316A1008312FC
:101AA00062088316A200831263088316A3008E3097
:101AB000A401A502A51F692D2508803A8F3E031CAD
:101AC000342D0310A40CA30CA20CA10CA50F612DA6
:101AD000772D183025020318342D25080319772D8A
:101AE0000310A10DA20DA30DA40DA5036D2D2008BB
:101AF0000319852DA109A209A309A409A10A0319A3
:101B0000A20A0319A30A0319A40A24088312E400F1
:101B1000831623088312E300831622088312E2004F
:101B2000831621088312E100080028088312A4000C
:101B3000831629088312A50083162A088312A6009B
:101B4000AE30A700B4210A128A158316AF1FC92D23
:101B500028088312A400831629088312A50083167F
:101B60002A088312A600A701A801A9010A168A1152
:101B70008D230A128A150318C42D83168030A801FC
:101B8000A900BF30AA0008008316A801A901AA0174
:101B9000080000302F02153003192E020318080028
:101BA00028088312E100831629088312E2008316B5
:101BB0002A088312E30029250A128A156408EB001B
:101BC0006308EA006208E9006108E8003626680850
:101BD0008316AB00831269088316AC0083126A086F
:101BE0008316AD0028088312A400831629088312E7
:101BF000A50083162A088312A60083162B088312D9
:101C0000A70083162C088312A80083162D088312C0
:101C1000A9000A168A118D230A128A1503182E2E7E
:101C20008030B001B100BF30B20083162B088312A0
:101C3000B30083162C088312B40083162D08831278
:101C4000B5001F2430088316A800831231088316BC
:101C5000A900831232088316AA00080083162B08F5
:101C6000A8002C08A9002D08AA00080083168E30B1
:101C7000A701A6008312EB1F4B2EE809E909EA0928
:101C8000EB09E80A0319E90A0319EA0A0319EB0A3E
:101C90008316A701A70AFF3083126B050319582E7C
:101CA0000310EB0CEA0CE90CE80C8316A60A4B2E89
:101CB0006808A4006908A5006A08A600831626081B
:101CC0008312A700831627088312A800DF242408A4
:101CD000E8002508E9002608EA000800580857042B
:101CE0005604031D772ED601D701D80108005808E5
:101CF0007F39DB00DC010310DB0DDC0D5B08D9074D
:101D00000318DA0A5C08DA07570D570D0139D907AD
:101D10000318DA0ADA1F902ED601D701D80108007D
:101D20005A08803AFF0081307F02031D992E00304F
:101D30005902031CB62E831203135608A400570839
:101D4000A5005808A600A701A801A9010A168A1132
:101D50008D230A128A15FF30D6007F30D700031872
:101D6000B42EFF30D8000800D800080083120313F7
:101D70005A08DC005908DB005C0DDC0CDB0C580851
:101D80005B0680395B06D80059080139DB00DB0CA3
:101D9000DB0C57085B067F395B06D7000800C501DE
:101DA0003B083A043904031DED2E8312A401A5015A
:101DB000A60183163C088312A70083163D088312F0
:101DC000A80083163E088312A9000A168A118D23E3
:101DD0008316B901BA01BB0108003E083D043C046A
:101DE000031DF82E8030B901BA003F30BB00080057
:101DF00039088312A40083163A088312A5008316BB
:101E00003B088312A600A701A801A9010A168A119E
:101E10008D230A128A150318722F83163C08831229
:101E2000E10083163D088312E20083163E08831208
:101E3000E30029250A128A1564088316C900831253
:101E400063088316C800831262088316C7008312D2
:101E500061088316C60049088312AF00831648083C
:101E60008312AE00831647088312AD00831646081E
:101E70008312AC00DB270A128A1583163E088312F0
:101E80002E06031D4D2F83163D0883122D06031DBC
:101E90004D2F83163C0883122C060319542F8316EA
:101EA000B901BA01BB01080083164608C50001301C
:101EB000C50539088312A40083163A088312A500C9
:101EC00083163B088312A60021250A128A152408CE
:101ED0008316B900831225088316BA0083122608D8
:101EE0008316BB00831639088312D60083163A087E
:101EF0008312D70083163B088312D8002921560885
:101F00008316BF00831257088316C0008312580837
:101F10008316C1003C088312BC0083163D0883125F
:101F2000BD0083163E088312BE0083163F0883124D
:101F3000BF00831640088312C00083164108831235
:101F4000C1000A168A1131270A128A153C08831625
:101F5000C20083123D088316C30083123E08831615
:101F6000C4004208B0004308B1004408B20058223F
:101F70000A128A153008B9003108BA003208BB00CD
:101F800045080319080039088312A40083163A088B
:101F90008312A50083163B088312A600212524087E
:101FA0008316B900831225088316BA008312260807
:101FB0008316BB0008008E30B000FF302F050319D8
:101FC000E82F0310AF0CAE0CAD0CAC0CB00ADD2F3B
:101FD0002C08A4002D08A5002E08A6003008A70094
:101FE000A801DF242408AC002508AD002608AE00B7
:101FF00008006108E5006208E6006308E7000800E1
:10202000FF3FFF3FFF3FFF3FFF3F83120030A9010B
:10203000BE2769300A128A11BB210A168A110A12B8
:102040008A1113210A168A1156088316C3008312B7
:1020500055088316C20043088312DC008316420829
:102060008312DB00D6230A168A115B088316DC0074
:1020700083125C088316DD0083125D088316DE0080
:1020800065088312A400831666088312A5008316D0
:1020900067088312A60083165C088312A7008316C4
:1020A0005D088312A80083165E088312A9008D23A1
:1020B0000A168A110318632883166508DC0066086F
:1020C000DD006708DE0083165F088312CB008316ED
:1020D00060088312CC00831661088312CD0083163A
:1020E0005F088312CE00831660088312CF00831628
:1020F00061088312D000B9230A168A114B0883168F
:10210000AC0083124C088316AD0083124D08831671
:10211000AE002C088312CB0083162D088312CC004E
:1021200083162E088312CD00831665088312BC0027
:10213000831666088312BD00831667088312BE00EB
:10214000831665088312BF00831666088312C000D9
:10215000831667088312C10031270A168A113C08CA
:10216000CE003D08CF003E08D000B9230A168A11E0
:102170004B088316B90083124C088316BA008312E9
:102180004D088316BB005C088312BC0083165D08F3
:102190008312BD0083165E088312BE0083165C089E
:1021A0008312BF0083165D088312C00083165E0889
:1021B0008312C10031270A168A113C08CB003D0862
:1021C000CC003E08CD00831665088312BC00831640
:1021D00066088312BD00831667088312BE0083164B
:1021E00065088312BF00831666088312C000831639
:1021F00067088312C10031270A168A113C08CE00F5
:102200003D08CF003E08D000B9230A168A114B08BA
:102210008316BC0083124C088316BD0083124D0840
:102220008316BE0039088312BC0083163A08831255
:10223000BD0083163B088312BE0083163C08831240
:10224000BF0083163D088312C00083163E08831228
:10225000C10031270A168A113C088316BF00831279
:102260003D088316C00083123E088316C10040302B
:102270008312BC001C30BD004630BE0083163F08F0
:102280008312BF00831640088312C00083164108E2
:102290008312C10031270A168A113C088316A60052
:1022A00083123D088316A70083123E088316A800F8
:1022B00065088312BC00831666088312BD0083166E
:1022C00067088312BE00831665088312BF00831659
:1022D00066088312C000831667088312C100312785
:1022E0000A168A113C088316AF0083123D08831634
:1022F000B00083123E088316B1005F088312BC0051
:10230000831660088312BD00831661088312BE0025
:1023100083162F088312BF00831630088312C00073
:10232000831631088312C10031270A168A113C082E
:102330008316B90083123D088316BA0083123E0843
:102340008316BB005F088312BC00831660088312EB
:10235000BD00831661088312BE00831639088312FC
:10236000BF0083163A088312C00083163B0883120D
:10237000C10031270A168A113C088316BC0083125B
:102380003D088316BD0083123E088316BE005C081C
:102390008312BC0083165D088312BD0083165E089D
:1023A0008312BE0083163C088312BF0083163D08CB
:1023B0008312C00083163E088312C10031270A161B
:1023C0008A113C088316BF0083123D088316C000A3
:1023D00083123E088316C1005C088312BC0083167A
:1023E0005D088312BD0083165E088312BE0083164B
:1023F0003F088312BF00831640088312C000831673
:1024000041088312C10031270A168A113C0883163D
:10241000B20083123D088316B30083123E08831670
:10242000B4000317590883120313BC008316031763
:102430005A0883120313BD00831603175B08831227
:102440000313BE00831632088312BF0083163308BD
:102450008312C000831634088312C10031270A1684
:102460008A113C088316B50083123D088316B60016
:1024700083123E088316B700EA308312BC001D3079
:10248000BD004230BE00831635088312BF0083169C
:1024900036088312C000831637088312C100312723
:1024A0000A168A113C088316A90083123D08831678
:1024B000AA0083123E088316AB0060308312BC0072
:1024C0006330BD005830BE00831629088312AC006B
:1024D00083162A088312AD0083162B088312AE00E0
:1024E000831626088312AF00831627088312B000D4
:1024F000831628088312B1000A128A15F0210A16E1
:102500008A112C08BF002D08C0002E08C1003127F9
:102510000A168A113C088316C40083123D088316EC
:10252000C50083123E088316C600C0308312A40083
:102530007930A5004430A600831644088312A70012
:10254000831645088312A800831646088312A90043
:102550008D230A168A110318472BE630A400733026
:10256000A5004930A600831644088312A7008316ED
:1025700045088312A800831646088312A9008D23FC
:102580000A168A110318242B2E30A4006E30A500E1
:102590004E30A600831644088312A7008316450810
:1025A0008312A800831646088312A9008D230A16F9
:1025B0008A110318FF2A6B30AC006E30AD004E302C
:1025C000AE00831644088312AF00831645088312B9
:1025D000B000831646088312B1000A128A15F02152
:1025E0000A168A112C088316C40083122D0883163C
:1025F000C50083122E088316C600B8014A2B24306A
:10260000AC007430AD004930AE008316440883122C
:10261000AF00831645088312B00083164608831264
:10262000B1000A128A15F0210A168A112C088316A5
:10263000C40083122D088316C50083122E0883164A
:10264000C600B801B80A4A2B7A30AC01AD0044305C
:10265000AE00831644088312AF0083164508831228
:10266000B000831646088312B1000A128A15F021C1
:102670000A168A112C088316C40083122D088316AB
:10268000C50083122E088316C6000230492B033082
:102690008316B8008312C830BC01BD004230BE00B2
:1026A000831644088312BF00831645088312C000B6
:1026B000831646088312C10031273C088316C400E4
:1026C00083123D088316C50083123E088316C60098
:1026D00044088312E100831645088312E200831642
:1026E00046088312E3000A128A1529250A168A1160
:1026F00062088316C300831261088316C200430870
:102700008312D600831642088312D5000A128A115A
:10271000372083160A128A113B2DA61F9C2B2408F2
:10272000003CA4002508031C250F003CA50026083A
:10273000031C260F803CA600A91FAB2B2708003CDA
:10274000A7002808031C280F003CA8002908031C28
:10275000290F803CA9008030A606A9062908260278
:10276000031D080028082502031D0800270824026D
:1027700008004D084C044B040319C02B8030CD06D3
:102780004E08B0004F08B1005008B2004B08B3002B
:102790004C08B4004D08B5000A128A151F243008F1
:1027A000CB003108CC003208CD0008005B08A40043
:1027B0005C08A5008E30A601A700A8010A128A15A0
:1027C000DF242408DB002508DC002608DD000800E3
:1027D00083120030A901BE2782300A128A11BB2160
:1027E0000A168A110A128A1113210A168A1156082A
:1027F00003179B000313550803179A001B080313C4
:10280000DC0003171A080313DB00D6230A168A110B
:102810005B088316DC0083125C088316DD008312DC
:102820005D088316DE00C230FE260A168A110317E1
:102830001A080313D50003171B080313D600D7018A
:10284000D801A0270A168A11EE260A168A11A53089
:10285000FE2683166508CA006608CB006708CC0010
:102860000A128A150A200A168A11EE260A168A11F9
:10287000203018270A168A11E530840083130008D7
:102880008312D500840A0008D600840A0008D70005
:10289000840A0008D800A0270A168A11EE260A1614
:1028A0008A11AB30FE2683165F08CA006008CB0091
:1028B0006108CC000A128A150A200A168A11EE262F
:1028C0000A168A11203018270A168A11DF30840070
:1028D000831300088312D500840A0008D600840AF6
:1028E0000008D700840A0008D800A0270A168A1119
:1028F000EE260A168A11B130FE2683165C08CA003D
:102900005D08CB005E08CC000A128A150A200A1660
:102910008A11EE260A168A11203018270A168A1103
:10292000DC308400831300088312D500840A000879
:10293000D600840A0008D700840A0008D800A0271F
:102940000A168A11EE260A168A119630FE2683167A
:10295000031759080313CA0003175A080313CB00BF
:1029600003175B080313CC000A128A150A200A1603
:102970008A11EE260A168A11203018270A168A11A3
:10298000D930840000088312D500840A0008D600DC
:10299000840A0008D700840A0008D800A0270A1675
:1029A0008A11EE260A168A11E530FE260A168A11C9
:1029B000831665088312A400831666088312A50097
:1029C000831667088312A60083165C088312A7008B
:1029D00083165D088312A80083165E088312A9007F
:1029E0008D230A168A110318FC2C83166508DC0057
:1029F0006608DD006708DE0083165C088312BC00F1
:102A000083165D088312BD0083165E088312BE0024
:102A100083165C088312BF0083165D088312C00012
:102A200083165E088312C10031270A168A113C08FA
:102A3000CB003D08CC003E08CD008316650883120C
:102A4000BC00831666088312BD00831667088312D4
:102A5000BE00831665088312BF00831666088312C2
:102A6000C000831667088312C10031270A168A1135
:102A70003C08CE003D08CF003E08D000B9230A161E
:102A80008A114B080317900003134C080317910099
:102A900003134D0803179200831603135F08831274
:102AA000BC00831660088312BD0083166108831280
:102AB000BE00031710080313BF0003171108031308
:102AC000C000031712080313C10031270A168A1128
:102AD0003C080317930003133D08031794000313E6
:102AE0003E0803179500831603135F088312BC008A
:102AF000831660088312BD00831661088312BE002E
:102B0000031713080313BF00031714080313C000AF
:102B1000031715080313C10031270A168A113C0850
:102B20000317960003133D080317970003133E088D
:102B3000031798008316590883120313BC008316E9
:102B400003175A0883120313BD00831603175B088B
:102B500083120313BE00031716080313BF000317E5
:102B600017080313C000031718080313C100312707
:102B70000A168A113C0803179C0003133D0803172B
:102B80009D0003133E0803179E00BD30FE26031769
:102B90001C0883160313CA00831203171D0883162B
:102BA0000313CB00831203171E0883160313CC00F4
:102BB0000A128A150A200A168A11203018270A16C6
:102BC0008A111C30840000088312D500840A000892
:102BD000D600840A0008D700840A0008D800A0277D
:102BE0000A168A11E530FE260A168A11C030A400A2
:102BF0007930A5004430A60003171C080313A70072
:102C000003171D080313A80003171E080313A900C8
:102C10008D230A168A110318A62EE630A4007330FD
:102C2000A5004930A60003171C080313A7000317CB
:102C30001D080313A80003171E080313A9008D2302
:102C40000A168A110318832E2E30A4006E30A500B8
:102C50004E30A60003171C080313A70003171D0816
:102C60000313A80003171E080313A9008D230A16D7
:102C70008A1103185F2E6B30AC006E30AD004E3001
:102C8000AE0003171C080313AF0003171D0803133E
:102C9000B00003171E080313B1000A128A15F021B1
:102CA0000A168A112C0803179C0003132D0803171A
:102CB0009D0003132E0803179E000430A82E243015
:102CC000AC007430AD004930AE0003171C0803138C
:102CD000AF0003171D080313B00003171E080313EA
:102CE000B1000A128A15F0210A168A112C0803175E
:102CF0009C0003132D0803179D0003132E080317D0
:102D00009E000530A82E7A30AC01AD004430AE00F4
:102D100003171C080313AF0003171D080313B000AB
:102D200003171E080313B1000A128A15F0210A16B0
:102D30008A112C0803179C0003132D0803179D000C
:102D400003132E0803179E000630A82E0730031722
:102D500099000313C830BC01BD004230BE00031708
:102D60001C080313BF0003171D080313C00003173B
:102D70001E080313C10031273C0803179C000313EE
:102D80003D0803179D0003133E0803179E001C080F
:102D90000313E10003171D080313E20003171E08C5
:102DA0000313E3000A128A1529250A168A116208FC
:102DB00003179B000313610803179A001B080313F2
:102DC000D60003171A080313D5000A128A113720F8
:102DD0000A168A1103170A128A113B2D0A128A1148
:102DE00020240A168A11A500C430A6010A128A11ED
:102DF000A8250A168A110A128A11272C8312031396
:102E0000A500250884000A128A1100260A168A11D4
:102E1000003A03190800250884000A128A110026C6
:102E20000A168A1118270A168A118312A50A012F79
:102E300083120313A4007808013E0F3979060319A1
:102E40001B2F8B137808903E8400831203132408F1
:102E500083178000F80A0F30F80583160C168B17BD
:102E600008003C08C2003D08C3003E08C40003102F
:102E7000430D440DC5004508031D422FBC01BD0193
:102E8000BE0108003F08C2004008C3004108C4005A
:102E90000310430D440DCA004A08031D532FBC0103
:102EA000BD01BE0108004A087B3EC5073E08CA00B6
:102EB0004108CA068030CA050730BD17C017C101D6
:102EC000C601C701C801C9003C1C6D2FEF270A16B7
:102ED0008A110318410A031DC8070310BE0CBD0C5C
:102EE000BC0C0310BF0DC00DC10DC90B642F093000
:102EF000C9003C1C822FEF270A168A110318410AC9
:102F0000031DC8070310BE0CBD0CBC0C0310C80C7D
:102F1000C70CC60CC90B792F4608A4004708A500AA
:102F20004808A6004508A7004A08A8000A128A1502
:102F3000DF242408BC002508BD002608BE000800C8
:102F400030300A128A1106220A168A1178300A12C3
:102F50008A1106220A168A11831203135808AC003C
:102F60005708FA270A128A1138220A168A115608B7
:102F7000AC005508FA270A128A11382AAA008316CB
:102F80000317610883120313AE008316031760084A
:102F900083120313AD00831603175F088312031314
:102FA000AC00831603175E0883120313AB0083166D
:102FB0000317420BE32F143083120313AC002830A5
:102FC000AD003C30AE008312031329082B3E840071
:102FD0002A088313000780380A128A11BA2B3F0887
:102FE000C607400803110318400A031DC70741081C
:102FF00003110800AB001030AD00FC30AE0008003B
:02400E007AF73F
:00000001FF
