:100000000A128A110C28FF3FFE00030EF1000A08B5
:10001000F2000A128A1560280A128A110F28831624
:100020004030DF01E0001430E1005430E200FF30E6
:10003000E300903083178400A5300A128A150C2043
:100040000A128A11C23083138400D8300A128A152A
:100050000C20F801F901FA0183010A128A15BF2860
:10006000460846074607450784000A128A114127B9
:100070000A128A11CA000A128A1141270A128A1129
:10008000CB000A128A1141270A128A11CC004608B5
:10009000470403198428FF30C607031CC703470819
:1000A000C9004608C80048074807450784000A12E7
:1000B0008A1141270A128A11A7000A128A114127C0
:1000C0000A128A11A8000A128A1141270A128A11FB
:1000D000A9004A08B3004B08B4004C08B500420818
:1000E000B6004308B7004408B800EB240A128A158A
:1000F000D7270A128A118B200A128A112708CA00F0
:100100002808CB00290846284A08C2004B08C3002B
:100110004C08C40008002708AD002808AE002908D4
:10012000AF0003102E0D2F0DB2002A08AD002B08D2
:10013000AE002C08AF0003102E0D2F0DB1003208B9
:100140000319AE283108320231080318B628AD0071
:100150003208AD0219302D02031CB5282A08A70069
:100160002B08A8002C08A900080031080319080072
:10017000320831020318C4283208AD003108AD023C
:1001800019302D02031808000630B000A91BB01763
:10019000AC1B3017A817A901AB17AC01310832020C
:1001A0000318EB280310AA0DAB0DAC0DB1033108F9
:1001B00032060319E628B003300807390319E62888
:1001C000D2280310A90CA80CA70CB20A32083106D9
:1001D00003190729E12832083102031807290310FF
:1001E000A70DA80DA90DB203310832060319032982
:1001F000B0033008073903190329EF280310AC0CAA
:10020000AB0CAA0CB10A32083106031DFE28B01F40
:100210001229FF30A706A806A906A70A0319A80AEB
:100220000319A90A301F1D29FF30AA06AB06AC0628
:10023000AA0A0319AB0A0319AC0AB0012708AA07D6
:10024000280803110318280A031DAB072908031106
:100250000318290A031DAC07AC1F3929FF30AA0671
:10026000AB06AC06AA0A0319AB0A0319AC0AB00123
:10027000B00A2A08F3002B08F4002C08F500320815
:10028000F6003008F7000A128A1509277308A7003C
:100290007408A8007508A900080083120030A001A6
:1002A000C42549300A168A11B1250A128A110A1684
:1002B0008A1107250A128A114E088316BD0083127F
:1002C0004D088316BC003D088312D40083163C08F9
:1002D0008312D300B6230A128A1102260A128A1147
:1002E0006F230A128A110318782914270A128A1117
:1002F00083164D088312C20083164E088312C30072
:1003000083164F088312C40083164D088312C5005C
:1003100083164E088312C60083164F088312C70047
:100320009B230A128A1142088316A60083124308EF
:100330008316A700831244088316A8002608831298
:10034000C200831627088312C3008316280883126D
:10035000C4008316EA250A128A11EB240A128A11B4
:10036000FB260A128A119B230A128A11420883165D
:10037000B300831243088316B40083124408831623
:10038000B5002B260A128A11AE260A128A11EB2416
:100390000A128A113308C20025260A128A11EA2598
:1003A0000A128A11EB240A128A11FB260A128A11F8
:1003B0009B230A128A1142088316B600831243084F
:1003C0008316B700831244088316B80033088312DB
:1003D000B300831634088312B400831635088312E1
:1003E000B5008316C6260A128A11EB240A128A1156
:1003F000BA260A128A1140308312B3001C30B400AE
:100400004630B5008316D2260A128A11EB240A124E
:100410008A1133088316A000831234088316A100C2
:10042000831235088316A200EA250A128A11EB24EA
:100430000A128A1133088316A9008312340883161E
:10044000AA00831235088316AB0038260A128A11D7
:1004500029088312B60083162A088312B700831670
:100460002B088312B800EB240A128A113308831672
:10047000B300831234088316B40083123508831640
:10048000B50038260A128A1133088312B600831683
:1004900034088312B700831635088312B800EB24A2
:1004A0000A128A1133088316B600831234088316A1
:1004B000B700831235088316B8002B260A128A115A
:1004C000C6260A128A11EB240A128A11BA260A12C7
:1004D0008A112B260A128A11D2260A128A11EB24BB
:1004E0000A128A1133088316AC008312340883166B
:1004F000AD00831235088316AE0095260A128A11C4
:100500002C088312B60083162D088312B7008316B9
:100510002E088312B800EB240A128A1133088316BE
:10052000AF00831234088316B00083123508831697
:10053000B100EA308312B3001D30B4004230B50080
:1005400083162F088312B600831630088312B70073
:10055000831631088312B800EB240A128A1133087B
:100560008316A300831234088316A400831235086F
:100570008316A50060308312B3006330B400583096
:10058000B500831623088312A30083162408831260
:10059000A400831625088312A50083162008831261
:1005A000A600831621088312A7008316220883124F
:1005B000A8005A250A128A112308B6002408B70099
:1005C0002508B800EB240A128A11A2260A128A1101
:1005D000F5260A128A1145260A128A116F230A1279
:1005E0008A110318352B02270A128A1145260A128E
:1005F0008A116F230A128A110318262B07270A1261
:100600008A1145260A128A116F230A128A110318C9
:10061000172B21270A128A1161260A128A115A25DC
:100620000A128A1189260A128A11B201382B1C2754
:100630000A128A1161260A128A115A250A128A118F
:1006400089260A128A11B201B20A382B7A30A30124
:10065000A400443061260A128A115A250A128A110E
:1006600089260A128A110230372B03308316B20012
:100670000C270A128A113E088312B60083163F081F
:100680008312B700831640088312B800EB240A12C5
:100690008A11A2263E088312D80083163F088312CF
:1006A000D900831640088312DA000A128A15BD2584
:1006B0000A128A1159088316BD008312580883163E
:1006C000BC003D088312CE0083163C088312CD0087
:1006D0000A168A1156240A128A118316262FA21F7F
:1006E0007E2B2008003CA0002108031C210F003CA9
:1006F000A1002208031C220F803CA200A51F8D2B05
:100700002308003CA3002408031C240F003CA40081
:100710002508031C250F803CA5008030A206A506F5
:1007200025082202031D080024082102031D0800D9
:100730002308200208004408430442040319A22BA2
:100740008030C4064508A7004608A8004708A9004D
:100750004208AA004308AB004408AC008B202708DD
:10076000C2002808C3002908C40008005308F30089
:100770005408F4008E30F501F600F7010A128A15CC
:1007800009277308D3007408D4007508D500080041
:1007900083120030A001C42562300A168A11B125E7
:1007A0000A128A110A168A1107250A128A114E089E
:1007B0008316AB0083124D088316AA002B08831200
:1007C000D40083162A088312D300B6230A128A1192
:1007D00002260A128A116F230A128A110318F32BB8
:1007E00014270A128A1183162B260A128A11AE26A2
:1007F0000A128A11EB240A128A113308C200252634
:100800000A128A11EA250A128A11EB240A128A11A5
:10081000FB260A128A119B230A128A1142088316A8
:10082000A000831243088316A10083124408831694
:10083000A20038260A128A1120088312B6008316F5
:1008400021088312B700831622088312B800EB2414
:100850000A128A1133088316A30083123408831600
:10086000A400831235088316A50038260A128A11BF
:1008700023088312B600831624088312B700831658
:1008800025088312B800EB240A128A113308831654
:10089000A600831234088316A70083123508831636
:1008A000A80095260A128A1126088312B60083161C
:1008B00027088312B700831628088312B800EB2498
:1008C0000A128A11DE260A128A11F5260A128A11E4
:1008D0006F260A128A116F230A128A110318B12C8B
:1008E00002270A128A116F260A128A116F230A122E
:1008F0008A110318A22C07270A128A116F260A12DE
:100900008A116F230A128A110318942C21270A12C4
:100910008A1153260A128A115A250A128A117D2633
:100920000A128A110430B32C1C270A128A1153268A
:100930000A128A115A250A128A117D260A128A1170
:100940000530B32C7A30A301A400443053260A1298
:100950008A115A250A128A117D260A128A11063036
:10096000B32C07308316A9000C270A128A112C0811
:100970008312B60083162D088312B70083162E0843
:100980008312B800EB240A128A11DE262C08831287
:10099000D80083162D088312D90083162E088312DF
:1009A000DA000A128A15BD250A128A11590883161F
:1009B000AB00831258088316AA002B088312CE00BE
:1009C00083162A088312CD000A168A1156240A12A9
:1009D0008A118316262F3308B9003408BA00350867
:1009E000BB0003103A0D3B0DBC003C08031DFC2C62
:1009F000B301B401B50108003608B9003708BA00E0
:100A00003808BB0003103A0D3B0DC1004108031D1F
:100A10000D2DB301B401B501080041087B3EBC07B0
:100A20003508C1003808C1068030C1050730B41749
:100A3000B717B801BD01BE01BF01C000331C272D8F
:100A4000EA260A128A110318380A031DBF07031089
:100A5000B50CB40CB30C0310B60DB70DB80DC00B2C
:100A60001E2D0930C000331C3C2DEA260A128A11C3
:100A70000318380A031DBF070310B50CB40CB30CE0
:100A80000310BF0CBE0CBD0CC00B332D3D08F30092
:100A90003E08F4003F08F5003C08F6004108F70066
:100AA0000A128A1509277308B3007408B400750880
:100AB000B50008002608A9002708AA002808AB00EE
:100AC00003102A0D2B0DB0003008031D6B2DA30160
:100AD000A401A50108002308A9002408AA002508EC
:100AE000AB0003102A0D2B0DB1003108031D7C2D26
:100AF000A301A401A50108008930AD01AE01AF0139
:100B00003107A900B0022808B1002508B1068030DD
:100B1000B1051830A717A801A417A501AC00031050
:100B2000AD0DAE0DAF0D25082802031D9D2D240827
:100B30002702031D9D2D23082602031CAB2D23082D
:100B4000A6022408031C240FA7022508031C250A5B
:100B5000A8022D140310A60DA70DA80DAC0B8F2D08
:100B60002D08F3002E08F4002F08F5003008F600D9
:100B70003108F7000A128A1509277308A3007408C0
:100B8000A4007508A5000800A1008316620883125E
:100B9000A500831661088312A400831660088312DF
:100BA000A30083165F088312A2008316540BDF2D67
:100BB00014308312A3002830A4003C30A500831217
:100BC0002008223E840021088313000780380A167B
:100BD0008A119D2F55088312B3008316560883127D
:100BE000B400831657088312B50083165508831284
:100BF000B600831656088312B7008316570883126F
:100C0000B800080053088316CA00831254088316DC
:100C1000CB00831255088316CC0055088312A00020
:100C2000831656088312A100831657088312A20068
:100C300083164A088312A30083164B088312A4006C
:100C400083164C088312A50008003408C300350839
:100C5000C400831608004A088312B30083164B08A9
:100C60008312B40083164C088312B5008316080063
:100C70004D088312B30083164E088312B400831606
:100C80004F088312B50083160800A20083163E08A1
:100C90008312A30083163F088312A4008316400822
:100CA0008312A5000800A50083162C088312A60055
:100CB00083162D088312A70083162E088312A8001E
:100CC0000800A50083163E088312A60083163F087D
:100CD0008312A700831640088312A8000800A20010
:100CE00083162C088312A30083162D088312A400F8
:100CF00083162E088312A500080023088316AC0073
:100D0000831224088316AD00831225088316AE00D3
:100D1000080023088316BE00831224088316BF0030
:100D2000831225088316C00008005C088312B300F4
:100D300083165D088312B40083165E088312B50023
:100D40008316080033088316BE0083123408831606
:100D5000BF00831235088316C00008004A088312BA
:100D6000B60083164B088312B70083164C08831213
:100D7000B800080033088316B900831234088316BC
:100D8000BA00831235088316BB00080036088312A8
:100D9000B600831637088312B7008316380883120B
:100DA000B800080039088312B60083163A08831287
:100DB000B70083163B088312B80008003308831677
:100DC000AC00831234088316AD00831235088316F5
:100DD000AE0008003608BD07370803110318370AAC
:100DE000031DBE07380803110800C0308312A0009D
:100DF0007930A10044343308C5003408C6003508F2
:100E0000C7000800E630A0007330A10049342E303E
:100E1000A0006E30A1004E348312C830B301B4007C
:100E20004230B5008316080083165508CA005608DC
:100E3000CB005708CC0008002430A3007430A40075
:100E400049346B30A3006E30A4004E3483120E3050
:100E5000A001C4250A128A1183120313A00183166C
:100E60000317200E0F3983120313A60083160317EE
:100E700020080F3983120313A70026082702103E0B
:100E8000C42D07308A000408840A82070034003425
:100E900080343F34723431343F34FE3475343E3460
:100EA000583463343D3495341D343C34C534AE3449
:100EB0003A347934213439349434803437349334A7
:100EC000A734353456341534343400340034003407
:100ED000003480343F34F034FF34BE34E234A9347B
:100EE0003E3483347634BE34AE342B343E343C341A
:100EF000C334BD34D23413343D347834D334BB34AA
:100F000070346C3465346134733465342034773430
:100F10006134693474342E342E342E340034493420
:100F20006E346434753463347434693476346934BB
:100F30007434793420340034433461346C3469348B
:100F4000623472346134743469346E34673400341A
:100F500043346134703461346334693474347934C3
:100F6000203400344C3443342D346D3465347434BF
:100F7000653472342034003420342034203420345A
:100F800020342034003446347234653471343D34B6
:100F900000345234433434343D3400342D342A3454
:100FA0002D3400346D34463400346E34463400340D
:100FB0007034463400347534463400346D3448346B
:100FC00000346E3448340034753448340034F6004C
:100FD000F5000F30F50580308312031392051208D7
:100FE000750803399204910112158C10F61FFA2F1F
:100FF0000130FB2F0030F300730783168C000800CC
:10101000FF3FFF3FFF3FFF3F64008001840A04065B
:101020000319003404060D28F300F9017308031DA9
:101030001C281030F4001D28F401F5017408FA0092
:10104000D401F8010611831206118316861183124A
:1010500086110F3086050800F500F4000F30F40506
:1010600083128101F51E38288316031381163B284D
:10107000831603138112751E41288316031301166C
:10108000442883160313011274080319592874089D
:1010900003194E2883160313811551288316031351
:1010A0008111FF307407F30001087306F8397306E5
:1010B00081000B11F51F5E288B1608008B120800AB
:1010C000831203138C1CB8288316D90A0319DA0A71
:1010D0000319DB0A5B08031D78285A08031D7828CA
:1010E00013305902031D762888305802031CB62895
:1010F0008830D8021330031C1430D9020030031C8E
:101100000130DA020030031C0130DB02D20A03197D
:10111000D30A831207110330831653024130031997
:101120005202031C9528013096280030F00001304F
:101130000310F00DFF3E0310031D9928700D83125C
:101140008704033083165302E83003195202031C4C
:10115000B628C60A0319C70A0319C80A0319C90A17
:10116000E830D2020330031CD303D30283128C1065
:1011700072088A00710E8300FE0E7E0E090083162F
:10118000C601C701C801C9014908C5004808C40013
:101190004708C3004608C2004308D3004208D200F3
:1011A0005208D8005308D900DA01DB01FF30E30010
:1011B0007A30DC01DD004430DE0005309C00CF30A9
:1011C00085000F30860568300A128A152C200A1215
:1011D0008A1584300A128A11E7270A128A158112A9
:1011E000B330870083128715831607118312071106
:1011F000071580300A128A11E7270A128A15013072
:101200000A128A1514200A128A150230A001A00AB7
:101210000A168A1113270A128A1583160313071652
:1012200087128312871232300A168A11B0250A12E9
:101230008A1583120313871632300A168A11B025D5
:101240000A128A1583120313871232300A168A1182
:10125000B0250A128A1583120313871632300A1634
:101260008A11B0250A128A15831203138712C0301F
:101270008B040030A0010A128A11C4250A128A15B3
:101280006C300A168A11CA270A128A1583165C085E
:10129000BF005D08C0005E08C1000A128A159921CE
:1012A0000A128A1505300A168A11B0250A128A1503
:1012B0000A168A1196240A128A150A168A11D2254C
:1012C0000A128A1583120313071E6829013069293F
:1012D0000030EE00831663060319722983126E082C
:1012E0008316E300630803197B290A128A11C823B5
:1012F0000A128A1580290A128A114D210A128A15AA
:1013000001300A168A1142240A128A151E300A1662
:101310008A11B0250A128A1500300A168A11422451
:101320000A128A1514300A168A11B0250A128A1573
:1013300062293F088312D200831640088312D3002B
:10134000831641088312D400CC220A128A1552084F
:10135000D8005308D9005408DA00BD25590883166F
:101360000317B10083120313580883160317B00044
:10137000831203133830A001A101A20083163F0895
:101380008312A300831640088312A4008316410829
:101390008312A5000A128A116F230A128A150318F4
:1013A000080083160317310883120313A400831661
:1013B0000317300883120313A3009A250A128A1513
:1013C000230883160317A50083120313240883162A
:1013D0000317A60083120313250883160317A7001B
:1013E00003132030AE01AF004130B00003172508D1
:1013F0000313B100031726080313B20003172708CD
:101400000313B30073230A128A152E080317AB00C7
:1014100003132F080317AC00031330080317AD00A4
:1014200003133F088312A600831640088312A70007
:10143000831641088312A800831603172B08831212
:101440000313A300831603172C0883120313A400AD
:10145000831603172D0883120313A5000A128A119D
:101460005A250A128A152308EB002408EC002508E7
:10147000ED0018260A128A1583126B0883160317CB
:10148000A800831203136C0883160317A9008312A4
:1014900003136D0883160317AA0028088312031389
:1014A000D80083160317290883120313D900831663
:1014B00003172A0883120313DA00BD250A128A15BE
:1014C000590883160317AF008312031358088316B5
:1014D0000317AE002F0883120313A400831603170B
:1014E0002E0883120313A3009A250A128A15F427E3
:1014F000831603172B0883120313B30083160317F5
:101500002C0883120313B400831603172D088312CB
:101510000313B5000A128A11EB240A128A15330844
:10152000C2003408C3003508C40083163F08831284
:10153000C500831640088312C60083164108831233
:10154000C7000A128A119B230A128A1542088316C1
:10155000BF00831243088316C00083124408831619
:10156000C10003172E08303E0A168A11FF250A1201
:101570008A158316031730083104031DC52A2E303F
:101580000A168A11FF250A128A15FF3083160317DF
:10159000B007031CB103B8295208CD005308CE0090
:1015A0005408CF00EF224D08D5004E08D6004F0852
:1015B000D7005C30B300DE30B4003E30B5005508D3
:1015C000B6005608B7005708B8000A128A11EB2473
:1015D0003308D2003408D3003508D40008004D0881
:1015E000A0004E08A1004F08A200A301A401A5017C
:1015F0000A128A116F230A128A150318032BCD01D0
:10160000CE01CF0108004F084E044D04031D0C2BE2
:10161000CD01CE01CF0108008030A701A800BF3066
:10162000A9004030B301B401B5005030F6004D08B8
:10163000F3004E08F4004F08F5009E267308B6002C
:101640007408B7007508B8000A128A11EB240A1250
:101650008A15D7270A128A118B200A128A152708A1
:10166000CD002808CE002908CF00FF30D007031C8A
:10167000D1034D08C2004E08C3004F08C4001F30FC
:10168000C5000830C600C7010A128A1130200A12AC
:101690008A154208CD004308CE004408CF004D080B
:1016A000A7004E08A8004F08A9007230B3003130DF
:1016B000B4003F30B5005108A4005008A3009A259B
:1016C0000A128A15F4270A128A11EB240A128A15C3
:1016D000D7270A128A118B202708CD002808CE00B0
:1016E0002908CF000800BA0130082F042E04031D7A
:1016F0008F2B8312A001A101A2018316310883124E
:10170000A300831632088312A400831633088312C1
:10171000A5000A128A116F230A128A15FB2F3308BB
:1017200032043104031D9A2B8030AE01AF003F30EC
:10173000B00008002E088312A00083162F08831221
:10174000A100831630088312A200A301A401A50101
:101750000A128A116F230A128A150318032C8316A2
:1017600031088312D800831632088312D9008316F9
:1017700033088312DA00BD250A128A155B08831626
:10178000BE0083125A088316BD00831259088316BF
:10179000BC00831258088316BB003E088312A600C3
:1017A00083163D088312A50083163C088312A4000B
:1017B00083163B088312A300AC270A128A158316EE
:1017C000330883122506031DEF2B8316320883127C
:1017D0002406031DEF2B83163108831223060319F9
:1017E000F22BFB2F83163B08BA000130BA05E6271F
:1017F0000A128A15B5250A128A157308AE007408F4
:10180000AF007508B00083162E088312CD00831632
:101810002F088312CE00831630088312CF00EF22E8
:101820004D088316B40083124E088316B500831248
:101830004F088316B60031088312B30083163208AE
:101840008312B400831633088312B500831634085C
:101850008312B600831635088312B7008316360844
:101860008312B8000A128A11EB240A128A1533086F
:101870008316B700831234088316B8008312350824
:101880008316B9003708A5003808A6003908A70054
:101890005F240A128A152508AE002608AF00270823
:1018A000B0003A0803190800E6270A128A15B52580
:1018B0007308AE007408AF007508B0000800270870
:1018C00026042504031D6A2C8030A501A6003F30A4
:1018D000A700080072308312A0003130A10044300C
:1018E000A200831625088312A300831626088312FC
:1018F000A400831627088312A5000A128A116F23F9
:101900000A128A1503188B2CFF308316A5007F302E
:10191000A600A7000800CA274930A3003A30A40057
:10192000C430A5000A128A116F230A128A150318FF
:101930009E2C8316A501A601A7010800CA27A301B2
:10194000A401A5010A128A116F230A128A1503182D
:10195000AB2C0130AC2C00308316AD002D080319E0
:10196000BE2C2508F3002608F4002708F500B5254D
:101970007308A5007408A6007508A700AA30831292
:10198000B300B830B4003F30B50083162508831289
:10199000B600831626088312B70083162708831221
:1019A000B8000A128A11EB240A128A15330883162A
:1019B000A500831234088316A60083123508831607
:1019C000A70025088312EB00831626088312EC007B
:1019D000831627088312ED0018260A128A1583122F
:1019E0006B088316A80083126C088316A900831263
:1019F0006D088316AA0028088312D80083162908C8
:101A00008312D90083162A088312DA00BD250A1230
:101A10008A1559088316AC00831258088316AB0048
:101A20002C088312A40083162B088312A3009A2586
:101A30002308C2002408C3002508C4008316250813
:101A40008312C500831626088312C6008316270852
:101A50008312C7000A128A119B230A128A154208B0
:101A60008316A500831243088316A6008312440838
:101A70008316A70025088312C20083162608831246
:101A8000C300831627088312C4000130C500093043
:101A9000C600C7010A128A1130200A128A154208AC
:101AA000CD004308CE004408CF0083162C088312D3
:101AB000D10083162B088312D0004B270A128A15F7
:101AC0004D088316A50083124E088316A6008312C4
:101AD0004F088316A7002D0803190800250A7F3038
:101AE000031926067F3003192706031D7B2DA50148
:101AF000A601A701080025088312A3008316260863
:101B00008312A400831627088312A5008030A60143
:101B1000A7003F30A8000A128A115A25230883160D
:101B2000A500831224088316A600831225088316B5
:101B3000A7000800A601A41FA42DA309A409A30AB5
:101B40000319A40AA601A60A2308F3002408F40036
:101B50008E30F501F6002608F70009277308A30068
:101B60007408A4007508A5000800750874047304BF
:101B7000031908008030F5060800ED270A128A15BF
:101B800003105D0D5E0DE4006408031DCC2DD8012B
:101B9000D901DA01DB010800ED270A128A15173096
:101BA0000310DE0CDD0CDC0CFF3E031DD02D5C08A9
:101BB000DF00D917DA015808E0005908E1005A0897
:101BC000E2008E30E301E402E41FF32D6408803A62
:101BD0008F3E031CC72D0310E30CE20CE10CE00C5C
:101BE000E40FEB2D012E183064020318C72D640892
:101BF0000319012E0310E00DE10DE20DE30DE403E6
:101C0000F72D5F0803190F2EE009E109E209E30946
:101C1000E00A0319E10A0319E20A0319E30A630857
:101C2000DB006208DA006108D9006008D80008000B
:101C30006B08F3006C08F4006D08F500A330F600A3
:101C40009E260A128A158316A41F3B2EDE27A301A7
:101C5000A401A5010A128A116F230A128A1503181A
:101C6000372E8030EB01EC00BF30ED000800EB01B7
:101C7000EC01ED01080000302402153003192302A5
:101C80000318080083126B08D8006C08D9006D088F
:101C9000DA00BD250A128A155B08E8005A08E70039
:101CA0005908E6005808E500DA260A128A15650880
:101CB0008316A000831266088316A10083126708AA
:101CC0008316A200DE27831620088312A300831642
:101CD00021088312A400831622088312A5000A1289
:101CE0008A116F230A128A150318912E8030A701DA
:101CF000A800BF30A900831620088312AA0083160B
:101D000021088312AB00831622088312AC000A124A
:101D10008A118B202708EB002808EC002908ED0029
:101D20000800831620088312EB0083162108831213
:101D3000EC00831622088312ED0008007508740475
:101D40007304031DAD2E7608840083138001840A7A
:101D50008001F301F401F501080075087F39A00046
:101D6000A1010310A00DA10D7608840020088313A3
:101D70008000840A21088000740D740D0139A000D0
:101D8000A1017608840020088004840A21088004C8
:101D90007608840082308007840F00080318000A48
:101DA000FF00FF3E80008403750880393F38F5004E
:101DB000F41308008E30EA01E900E81FEC2EE50973
:101DC000E609E709E809E50A0319E60A0319E70A3B
:101DD0000319E80AEA01EA0AFF3068050319F72E39
:101DE0000310E80CE70CE60CE50CE90AEC2E65089C
:101DF000F3006608F4006708F5006908F6006A0851
:101E0000F70009277308E5007408E6007508E70085
:101E1000080076080319112F750874047304031D54
:101E20001A2FF301F401F5010800F60A0310F50C6E
:101E3000F40CF30CFE3075050319292F152FF60A43
:101E4000F30A0319F40A0319F50A0310F50CF40C4C
:101E5000F30CFF3075050319372F1F2F0230760260
:101E6000031C392FF6030310F30DF40DF50DF41FC9
:101E70002E2F761CF4130310F60C7608A200A10195
:101E8000A0012008F3042108F4042208F5047708CF
:101E9000031DF51708004F084E044D04031D542F71
:101EA000CD01CE01CF0108004F087F39D200D30108
:101EB0000310D20DD30D5208D0070318D10A5308CE
:101EC000D1074E0D4E0D0139D0070318D10AD11F8D
:101ED0006D2FCD01CE01CF0108005108803AFF00DF
:101EE00081307F02031D762F00305002031C932F98
:101EF000831203134D08A0004E08A1004F08A20052
:101F0000A301A401A5010A128A116F230A128A15DE
:101F1000FF30CD007F30CE000318912FFF30CF006F
:101F20000800CF000800831203135108D3005008A3
:101F3000D200530DD30CD20C4F08520680395206F2
:101F4000CF0050080139D200D20CD20C4E085206F4
:101F50007F395206CE0008008E30A700FF302605DC
:101F60000319B92F0310A60CA50CA40CA30CA70AE7
:101F7000AE2F2308F3002408F4002508F5002708F5
:101F8000F600F70109277308A3007408A400750878
:101F9000A5000800831625088312A00083162608D2
:101FA0008312A100831627088312A20008003308B9
:101FB000AA003408AB003508AC00080083126B0897
:101FC000A0006C08A1006D08A20008002E08F30014
:101FD0002F08F4003008F50008005808DC00590804
:101FE000DD005A08DE0008002308B6002408B70008
:101FF0002508B80008008316AE01AF01B001080043
:10288000FF3FFF3F83120313A6000030A001A00A00
:102890000A128A11C4250A168A1183120313260804
:1028A0000319542C8830CA2F7930CA2F0930A0015F
:1028B0000A128A11C4250A168A117730CA270930EC
:1028C000A0010A128A11C4250A168A116430F30085
:1028D000F401831203134E08F6004D08F500852617
:1028E0000A168A117408D0007308CF005008A4009B
:1028F0004F08A3000A30A500A60129260A168A114E
:102900006430F300F4014E08F6004D08F500AF26E0
:102910000A168A117408D2007308D1005208A40064
:102920005108A3000A30A500A601292ED225831242
:1029300003130030A0010A128A11C4250A168A1155
:102940005630B1250030A001A00A0A128A11C42510
:102950000A168A113A30B1250A168A1187120725FC
:102960004E08D4004D08D3000A128A11B6230A1665
:102970008A11F4270A168A113230B0250A168A11F4
:1029800007254E08D4004D08D3000A128A11B62339
:102990000A168A11F4270A168A1183128716072548
:1029A0004E08D4004D08D3000A128A11B6230A1625
:1029B0008A11E8270A168A113230B0250A168A11C0
:1029C00007254E08D4004D08D3000A128A11B623F9
:1029D0000A168A11E827831287120B30A0010A1207
:1029E0008A11C4250A168A1183120313D6013D30B9
:1029F0000D270A168A111C30B0250A168A11831277
:102A000003130630D60A560203180800F72C0B11E0
:102A1000831603130512823083120313D000DD30B6
:102A2000CF00CF0B112DD00B112D83120313810179
:102A3000413083120313D000ED30CF00CF0B1E2D99
:102A4000D00B1E2D232D413083120313D000ED3007
:102A5000CF00CF0B292DD00B292D2E2D41308312E5
:102A60000313D000ED30CF00CF0B342DD00B342D1D
:102A7000392D413083120313D000ED30CF00CF0B3E
:102A80003F2DD00B3F2D442D413083120313D00036
:102A9000ED30CF00CF0B4A2DD00B4A2D4F2D4130BA
:102AA00083120313D000ED30CF00CF0B552DD00B88
:102AB000552D5A2D413083120313D000ED30CF0035
:102AC000CF0B602DD00B602D652D41308312031389
:102AD000D000ED30CF00CF0B6B2DD00B6B2D702DB8
:102AE000413083120313D000ED30CF00CF0B762D91
:102AF000D00B762D7B2D413083120313D000ED30A7
:102B0000CF00CF0B812DD00B812D862D8316031383
:102B10000516D3267408D2007308D1000030A00136
:102B2000A00A0A128A11C4250A168A11E1250A167A
:102B30008A117D30E8250A168A1183120313520880
:102B4000A4005108A3000A30A5000530A6002926DC
:102B50000A168A11C9275208CE005108CD00080074
:102B6000080083120313A300A101A2012108230777
:102B700084000A128A1141270A168A11003A0319A1
:102B800008002108230784000A128A1141270A1627
:102B90008A1111270A168A1183120313A10A031935
:102BA000A20AB62D01309D270A168A110D30831214
:102BB0000313A100FB30A000A00BDC2DA10BDC2D2A
:102BC0000800F03083160317A0050F30A005080099
:102BD000F700770884000A128A1141270A168A1121
:102BE000003A03190800770884000A128A11412765
:102BF0000A168A11FF250A168A11F70AE92DF6002E
:102C000083160317200E0F39F300F501103CF40072
:102C1000031CF5037508803AFF0080307F02031D16
:102C2000132E01307402031C080083160317200EB4
:102C30000F39903E8400760883178000200E0F39EC
:102C4000F300F30AF30E200873060F397306A00091
:102C500008002030CC01C800A61F322E3030A60953
:102C6000A60AC8002508F300F4012408F60023088A
:102C7000F500AF260A168A117308CB000A304B0202
:102C80004B08C900031C462E3730472E3030CA018E
:102C9000C9070318CA0A4C08283E84004908831350
:102CA0008000CC0A2508F300F4012408F60023086C
:102CB000F50085260A168A117408A4007308A3007B
:102CC00024040319682E322E4808FF250A168A119B
:102CD000831203134C08803AA7002608A603803A03
:102CE000A702031C642E4C08803A7F3E031C080098
:102CF0004C08FF3E283E840083130008FF250A1677
:102D00008A1183120313CC03732EA101A20173084D
:102D100074040319AA2EA001A00AF41B932E031019
:102D2000F30DF40D8C2E0310A10DA20D7408760284
:102D3000031D9C2E73087502031CA62E7308F50252
:102D40007408031CF603F60221140310F40CF30CB0
:102D5000A00B932E2208F4002108F300080073084A
:102D600074040319CE2EF701F70AF41BBB2E0310CF
:102D7000F30DF40DB42E74087602031DC12E7308F2
:102D80007502031CCA2E7308F5027408031CF603AF
:102D9000F6020310F40CF30CF70BBB2E7608F400CC
:102DA0007508F300080083120108F500F601F70129
:102DB00083168116E22E0130770200300319760265
:102DC0000318F42E83160116000000008316031367
:102DD000011200000000F60A0319F70A75088312B1
:102DE000031301060319DB2E7508A000A101A10041
:102DF000A00176082002A2007708031C770A2102AE
:102E0000A3002208003EF60023080318013E013EFD
:102E1000F700F4007608F3000800F700F501F50A62
:102E2000B72FA0000D2FA300023023020318FA15BC
:102E300023088316D400831220080319232F2303A9
:102E4000031D232F7A15623083120313A20065300D
:102E5000A100A10B292FA20B292F83120313061106
:102E600086117A1A5B2F0330A0270A168A112130A7
:102E700083120313A2007530A100A10B3D2FA20BFA
:102E80003D2F422F0330A0270A168A11F9308312F2
:102E90000313A100A10B4A2F0330A0270A168A11A1
:102EA000F93083120313A100A10B542F0230A02785
:102EB0000A168A11802F7A0820389D270A168A114F
:102EC000213083120313A2007530A100A10B662FDD
:102ED000A20B662F6B2F7A0820389D270A168A11BD
:102EE000213083120313A2007530A100A10B762FAD
:102EF000A20B762F7B2F7A0820389D270A168A117D
:102F00007A0820389D270A168A110430F9000838FB
:102F10009D270A168A1101309D270A168A110D3045
:102F200083120313A200FB30A100A10B952FA20B6B
:102F3000952F0230F80004389D2FF700F501B72FC8
:102F4000F4000F30831203138605740EF0398604E3
:102F500086150630F300F30BAB2F0000831203132A
:102F60008611A630F300F30BB32F00000800F60023
:102F700075080319BF2F831203130615C22F83127E
:102F800003130611760E0F39A0270A168A11760848
:102F9000A02F080083120313A100A001200821071D
:102FA00084000A128A1141270A168A11003A03196D
:102FB00008002008210784000A128A1141270A16F6
:102FC0008A110D270A168A1183120313A00ACE2F25
:102FD00053088316CD00831254088316CE00831243
:102FE00055088316CF00080053088316D5008312B6
:102FF00054088316D600831255088316D70008009C
:02400E007AF73F
:00000001FF
