:060000000A128A110E280D
:10000800FE00030EF0000408F1000A08F2000A16C8
:100018008A15762F0A128A11A92883160317BC019C
:10002800BD01BE01BF013F08BB003E08BA003D0844
:10003800B9003C08B8003908DE003808DD005E0861
:10004800DC005D08DB004430DA007A30D900053086
:10005800D801D70103139C00CF3085008116011603
:100068008113871183128030871194120A128A1122
:10007800C1270A128A118710871107140715071656
:100088008712831232308712A200A3010A128A1142
:100098003F270A128A1132308716A200A3010A12DA
:1000A8008A113F270A128A1132308712A200A3014F
:1000B8000A128A113F270A128A1132308716A200C3
:1000C800A3010A128A113F270A128A1187120A12FB
:1000D8008A11C2200A128A110713C8300B178B170E
:1000E8008312A200A3010A128A113F270A128A1159
:1000F8000A128A1198260A128A1155300A128A158C
:10010800BA240A128A1183120313071E91280A12AD
:100118008A151B200A128A1196280A168A11CA21E2
:100128000A128A111E3083120313A200A3010A12B5
:100138008A113F270A128A111430A200A3010A1259
:100148008A113F270A128A118128F801F901FA0158
:100158008313E6308400EE300A128A11F1270A125E
:100168008A11831790308400C4300A128A11F1274B
:100178000730EF0083010A128A1111288316071726
:100188008312871783161F301815990018138312C6
:1001980018138316181283129817181683160C1240
:0E01A80098160B17FA01F901EC01F801080096
:10020000FF0001308A007F08820705290A128A153B
:1002100018280A128A15D22C0A128A11F92F3D08C1
:100220003C043B043A04031D1D293F30BD008030CF
:10023000BC000030BB01BA01080044308312A300A7
:100240003130A2007230A1001830A00083163D08A2
:100250008312A70083163C088312A60083163B086E
:100260008312A50083163A088312A4000A168A1185
:100270000E270A128A11031845297F308316BD0004
:10028000BC00FF30BB00BA00080083163D08831293
:10029000A30083163C088312A20083163B08831236
:1002A000A10083163A088312A000C430A7003A3098
:1002B000A6004830A5008730A4000A168A110E2730
:1002C0000A128A1103186A298316BA01BB01BC01FC
:1002D000BD01080083163D088312A30083163C0865
:1002E0008312A20083163B088312A10083163A08EA
:1002F0008312A000A401A501A601A7010A168A1174
:100300000E270A128A110030031C01308316C40024
:10031000440803199C293D08F6003C08F5003B08F9
:10032000F4003A08F300A7227608BD007508BC0067
:100330007408BB007308BA003F308312C800B8309D
:10034000C700AA30C6003B30C50083163D088312A3
:10035000CC0083163C088312CB0083163B08831223
:10036000CA0083163A088312C9000A168A11782631
:100370000A128A1148088316BD00831247088316A3
:10038000BC00831246088316BB00831245088316FF
:10039000BA003D088312EA0083163C088312E90084
:1003A00083163B088312E80083163A088312E7009D
:1003B0002E2383126A08AB006908AA006808A90006
:1003C0006708A8000A128A15A6260A128A112908A7
:1003D0008316C300831228088316C20043088312C1
:1003E000B300831642088312B2000A128A15FD2652
:1003F0000A128A113508EA003408E9003308E800D7
:100400003208E70083163D088312EE0083163C088D
:100410008312ED0083163B088312EC0083163A0822
:100420008312EB000A128A151C270A128A116A0825
:100430008316BD00831269088316BC008312680806
:100440008316BB00831267088316BA003D08A70015
:100450003C08A6003B08A5003A08A4000130A8000B
:100460000930A900AA010A168A1148200A128A1125
:1004700027088312EA00831626088312E9008316F0
:1004800025088312E800831624088312E7008316E8
:1004900043088312EC00831642088312EB00B0225B
:1004A0000A128A116A088316BD008312690883162E
:1004B000BC00831268088316BB008312670883168A
:1004C000BA004408031908007F30C100C000FF30A3
:1004D000BF00BE003D084106031D782A3C084006C7
:1004E000031D782A3B083F06031D782A3A083E067A
:1004F000031D7F2ABA01BB01BC01BD0108003D08F4
:100500008312B50083163C088312B40083163B089F
:100510008312B30083163A088312B2003F30B90049
:100520008030B800B701B6010A128A152B263508AB
:100530008316BD00831234088316BC00831233086F
:100540008316BB00831232088316BA0008007608AF
:10055000750474047304031908008030F60608005B
:100560006A08690468046704031DBB2AE701E801FF
:10057000E901EA0108006A087F39ED00EE01031085
:10058000ED0DEE0D6D08EB070318EC0A6E08EC0795
:10059000690D690D0139EB070318EC0AEC1FD52A28
:1005A000E701E801E901EA0108006C08803AFF0070
:1005B00081307F02031DDE2A00306B02031C152BE5
:1005C000831203136A08A3006908A2006808A10047
:1005D0006708A000A401A501A601A7010A168A11B7
:1005E0000E270A128A117F3003180F2B8316A300DF
:1005F000A200FF30A100A0002308F6002208F500A9
:100600002108F4002008F300A72276088312EA00EC
:100610007508E9007408E8007308E7000800EA00BC
:10062000E900FF30E800E7000800831203136C08BC
:10063000EE006B08ED006E0DEE0CED0C6A086D0619
:1006400080396D06EA006B080139ED00ED0CED0C08
:1006500069086D067F396D06E90008006A08F60032
:100660006908F5006808F4006708F300A430F70093
:100670000A128A1159260A128A118316A51F612BA4
:1006800083126A08A3006908A2006808A10067082D
:10069000A000A401A501A601A7010A168A110E2730
:1006A0000A128A1103185C2BBF30EA008030E9007F
:1006B0000030E801E7010800E701E801E901EA018B
:1006C0000800003025021D30031924020318080019
:1006D00083126A08AB006908AA006808A9006708C5
:1006E000A8000A128A15A6260A128A112B08B5003C
:1006F0002A08B4002908B3002808B200E12335080D
:100700008316A300831234088316A20083123308D1
:100710008316A100831232088316A00083126A0890
:10072000A3006908A2006808A1006708A00083165A
:1007300023088312A700831622088312A6008316BB
:1007400021088312A500831620088312A4000A162C
:100750008A110E270A128A110318D02BBF30DB0032
:100760008030DA00D901D801831623088312DF0014
:10077000831622088312DE00831621088312DD000F
:10078000831620088312DC000A168A11ED205B080C
:10079000EA005A08E9005908E8005808E70008008C
:1007A000831623088312EA00831622088312E900C5
:1007B000831621088312E800831620088312E700BD
:1007C0000800B601B51FF12BB209B309B409B50988
:1007D000B20A0319B30A0319B40A0319B50AB60118
:1007E000B60A3508A3003408A2003308A100320875
:1007F000A0009630A4003608A5000A168A115A27D0
:100800002308B5002208B4002108B3002008B20074
:1008100008003D08B7003C08B6003B08B5003A08A0
:10082000B40081253708C1003608C0003508BF0074
:100830003408BE003E308312C800DE30C7005B3093
:10084000C600D930C500831641088312CC00831638
:1008500040088312CB0083163F088312CA00831618
:100860003E088312C9000A168A11782648088316A2
:10087000BD00831247088316BC0083124608831606
:10088000BB00831245088316BA000800D10148084E
:10089000470446044504031D6B2C8312A001A101EB
:1008A000A201A30183164C088312A70083164B08EC
:1008B0008312A60083164A088312A50083164908EE
:1008C0008312A4000A168A110E278316C501C601D9
:1008D000C701C80108004C084B044A044904031D21
:1008E000792C3F30C8008030C7000030C601C501F8
:1008F000080048088312A300831647088312A20049
:10090000831646088312A100831645088312A000AF
:10091000A401A501A601A7010A168A110E270A1231
:100920008A110318012D83164C088312AB0083161D
:100930004B088312AA0083164A088312A900831663
:1009400049088312A8000A128A15A6260A128A11DB
:100950002B088316D50083122A088316D40083122D
:1009600029088316D300831228088316D20055085D
:100970008312A900831654088312A8008316530813
:100980008312A700831652088312A6006A250A1252
:100990008A1183164C0883122906031DDF2C831647
:1009A0004B0883122806031DDF2C83164A08831286
:1009B0002706031DDF2C8316490883122606031918
:1009C000E72C8316C501C601C701C80108008316BC
:1009D0005208D1000130D1054808F6004708F5005B
:1009E0004608F4004508F3000A128A11A7220A12E9
:1009F0008A117608C8007508C7007408C600730815
:100A0000C50083164808B7004708B6004608B50079
:100A10004508B40081253708D0003608CF003508D6
:100A2000CE003408CD004C088312C80083164B0852
:100A30008312C70083164A088312C600831649082A
:100A40008312C500831650088312CC0083164F080A
:100A50008312CB0083164E088312CA0083164D08FA
:100A60008312C9000A168A1178260A128A114808C8
:100A70008316BD00831247088316BC008312460804
:100A80008316BB00831245088316BA000A128A1126
:100A90000F210A128A113D08C8003C08C7003B0814
:100AA000C6003A08C5005108031908004808F600B6
:100AB0004708F5004608F4004508F3000A128A11B9
:100AC000A7227608C8007508C7007408C600730816
:100AD000C50008002908A3002808A2002708A100D3
:100AE0002608A0009630A400A5010A168A115A27EC
:100AF0002308A9002208A8002108A7002008A600B2
:100B0000080037088312A300831636088312A20058
:100B1000831635088312A100831634088312A000BF
:100B2000A401A501A601A7010A168A110E270A121F
:100B30008A110318A12D8316B401B501B601B701BE
:100B4000080083163708360435043404031DAD2D20
:100B5000B401B501B601B7010800BF308312DB0054
:100B60008030DA004030D901D801C800B830C70160
:100B7000C601C501F70083163708F6003608F500F0
:100B80003508F4003408F300592676088312CC00A7
:100B90007508CB007408CA007308C9000A168A11C8
:100BA00078260A128A114808DF004708DE00460846
:100BB000DD004508DC000A168A11ED200A128A11B0
:100BC0005B088316B70083125A088316B600831297
:100BD00059088316B500831258088316B400FF30F5
:100BE000B807031CB9033708A7003608A600350864
:100BF000A5003408A4002930A8000830A900AA01E3
:100C00000A168A1148200A128A112708B7002608F6
:100C1000B6002508B5002408B40037088312DB00AD
:100C2000831636088312DA00831635088312D9003A
:100C3000831634088312D8003F30C8003130C70013
:100C40007230C6001830C500831639088312B3000D
:100C5000831638088312B2000A128A15FD260A127A
:100C60008A113508CC003408CB003308CA0032089A
:100C7000C9000A168A1178260A128A114808DF006C
:100C80004708DE004608DD004508DC000A168A1128
:100C9000ED205B088316B70083125A088316B6004E
:100CA000831259088316B500831258088316B400BE
:100CB00008007608750474047304031D6A2E77080F
:100CC000840083138001840A8001F301F401F5019B
:100CD000F601080076087F398312A000A1010310F5
:100CE000A00DA10D77088400200883138000840ADA
:100CF00021088000750D750D0139A000A10177084C
:100D0000840020088004840A210880047708840075
:100D100082308007840F00080318000AFF00FF3E9E
:100D200080008403760880393F38F600F513080008
:100D300087120A168A11A5270A128A117408A900B7
:100D40007308A8000A128A15EA270A128A112B08CA
:100D500083160317C300831203132A08831603178D
:100D6000C20083120313290883160317C1008312DC
:100D70000313280883160317C000323083120313AD
:100D8000A200A3013F270A168A11A5270A128A1179
:100D90007408A9007308A8000A128A15EA270A1223
:100DA0008A112B0883160317C300831203132A0822
:100DB00083160317C200831203132908831603172F
:100DC000C10083120313280883160317C00083127F
:100DD000031387160A168A11A5270A128A117408A6
:100DE000A9007308A8000A128A15EA270A128A11B4
:100DF0002B0883160317B300831203132A088316E4
:100E00000317B20083120313290883160317B100D6
:100E100083120313280883160317B000323083129D
:100E20000313A200A3013F270A168A11A5270A125D
:100E30008A117408A9007308A8000A128A15EA2703
:100E40000A128A112B0883160317B30083120313A7
:100E50002A0883160317B200831203132908831686
:100E60000317B10083120313280883160317B00079
:100E700083120313583087120A128A15BA2CAC0158
:100E8000AC0A8B13831603173B0883120313AB00C2
:100E9000831603173A0883120313AA008316031755
:100EA000390883120313A900831603173808831225
:100EB0000313A8008B172308F4002208F3000A305C
:100EC000F500F601A8270A128A117308A400740815
:100ED000A500A601A7012408A807250803110318E7
:100EE000013E031DA907260803110318013E031D37
:100EF000AA07270803110318013E031DAB078B1334
:100F00002B08831603173B02031D9C2F8312031328
:100F10002A08831603173A02031D9C2F831203131A
:100F20002908831603173902031D9C2F831203130C
:100F30002808831603173802031CA12F83120313FA
:100F4000AC018B1783120313AC08031908007F2F21
:100F5000A001A101731CB22F7508A0070318A10AF4
:100F60007608A1070310F50DF60D0310F40CF30C31
:100F700074087304031DAA2F2108F4002008F3004D
:100F80000800F400F5000F30F505921112129212CC
:100F90007508F3000310F30C731CD22F8312031394
:100FA0001214D52F8312031312107508F3000310C7
:100FB000F30C0310F30C731CE12F83120313921430
:100FC000E42F831203139210910112158C10F41F59
:100FD000ED2F831603138C140800831603138C1053
:100FE000080064008001840A040603190034040622
:080FF000F22F080008000800C0
:101030007308F300D22C0A168A11A5270A128A1502
:10104000740883160317D2007308D1005208831264
:101050000313A90083160317510883120313A80072
:10106000EA270A128A152B0883160317B700831282
:1010700003132A0883160317B600831203132908E3
:1010800083160317B500831203132808831603176A
:10109000B400043083120313EF007230BA240A1232
:1010A0008A1583160317510883120313CD00831684
:1010B0000317520883120313CE00CF01D001E62498
:1010C0000A128A155B30BA240A128A15831603178E
:1010D00043080313D900031742080313D80003176A
:1010E00041080313D700031740080313D6000C254B
:1010F0000A128A152030F300D2240A128A15031727
:10110000430883120313D000831603174208831287
:101110000313CF0083160317410883120313CE0075
:1011200083160317400883120313CD00E6240A1226
:101130008A156130BA240A128A15831603173308F8
:101140000313D900031732080313D800031731081B
:101150000313D700031730080313D6000C250A1217
:101160008A152030F300D2240A128A150317330897
:1011700083120313D000831603173208831203135C
:10118000CF0083160317310883120313CE00831692
:101190000317300883120313CD00E6240A128A15C0
:1011A0006730BA240A128A15831603173708031307
:1011B000D900031736080313D800031735080313A3
:1011C000D700031734080313D6000C250A128A151A
:1011D0002030F300D2240A128A150317370883122D
:1011E0000313D00083160317360883120313CF00AE
:1011F00083160317350883120313CE0083160317D3
:10120000340883120313CD00E6240A128A154D30E8
:10121000BA240A128A15831603175A080313D90031
:10122000031759080313D800031758080313D700EE
:10123000031757080313D6000C250A128A1520300D
:10124000F300D2240A128A1503175A0883120313D3
:10125000D00083160317590883120313CF00831697
:101260000317580883120313CE0083160317570879
:1012700083120313CD00E6240A128A155830BA24CB
:101280000A128A15013083120313EF008316031725
:10129000430883120313A300831603174208831223
:1012A0000313A20083160317410883120313A1003E
:1012B00083160317400883120313A0008316031735
:1012C000370883120313A700831603173608831207
:1012D0000313A60083160317350883120313A50012
:1012E00083160317340883120313A4000A168A1105
:1012F0000E270A128A150318872983160317430835
:10130000B7004208B6004108B5004008B400831693
:101310000317370883120313C80083160317360810
:1013200083120313C70083160317350883120313B0
:10133000C60083160317340883120313C5008316EF
:101340000317370883120313CC00831603173608DC
:1013500083120313CB00831603173508831203137C
:10136000CA0083160317340883120313C9000A1630
:101370008A1178260A128A154808EA004708E90007
:101380004608E8004508E700831603174308831260
:101390000313C80083160317420883120313C70000
:1013A00083160317410883120313C600831603171D
:1013B000400883120313C5008316031743088312E2
:1013C0000313CC0083160317420883120313CB00C8
:1013D00083160317410883120313CA0083160317E9
:1013E000400883120313C9000A168A1178260A12CC
:1013F0008A154808EE004708ED004608EC0045084D
:10140000EB001C270A128A156A0883160317C70007
:1014100083120313690883160317C600831203138C
:10142000680883160317C500831203136708831621
:101430000317C400330883120313C800831603176D
:10144000320883120313C70083160317310883126F
:101450000313C60083160317300883120313C50055
:1014600083160317470883120313CC008316031750
:10147000460883120313CB00831603174508831213
:101480000313CA0083160317440883120313C90009
:101490000A168A1178260A128A1548088316031735
:1014A000CB0083120313470883160317CA00831265
:1014B0000313460883160317C90083120313450854
:1014C00083160317C800330883120313C80083165A
:1014D0000317320883120313C7008316031731085A
:1014E00083120313C60083160317300883120313F5
:1014F000C500831603174B0883120313CC00831611
:1015000003174A0883120313CB00831603174908F5
:1015100083120313CA0083160317480883120313A8
:10152000C9000A168A1178260A128A1548088316F5
:101530000317CF0083120313470883160317CE0047
:1015400083120313460883160317CD008312031377
:10155000450883160317CC005A0883120313C800EA
:1015600083160317590883120313C7008316031742
:10157000580883120313C6008316031757088312F3
:101580000313C500831603174F0883120313CC00FF
:10159000831603174E0883120313CB008316031719
:1015A0004D0883120313CA00831603174C088312D5
:1015B0000313C9000A168A1178260A128A154808E8
:1015C00083160317D60083120313470883160317E5
:1015D000D50083120313460883160317D400831221
:1015E0000313450883160317D3006D30BA240A127B
:1015F0008A158316031756080313D90003175508D5
:101600000313D800031754080313D7000317530814
:101610000313D6000C250A128A152030F300D224B9
:101620000A128A150317560883120313D000831673
:101630000317550883120313CF00831603175408AA
:1016400083120313CE008316031753088312031368
:10165000CD00E6240A128A155830BA244430831289
:101660000313A3007930A200C030A100A0018316AB
:101670000317560883120313A70083160317550890
:1016800083120313A600831603175408831203134F
:10169000A50083160317530883120313A4000A1628
:1016A0008A110E270A128A150318522C4930A300FA
:1016B0007330A200E530A1008030A000831603172C
:1016C000560883120313A7008316031755088312C5
:1016D0000313A60083160317540883120313A500EF
:1016E00083160317530883120313A4000A168A11E2
:1016F0000E270A128A150318192C4E30A3006E30DB
:10170000A2002E30A1001F30A00083160317560838
:1017100083120313A70083160317550883120313BC
:10172000A60083160317540883120313A50083161B
:101730000317530883120313A4000A168A110E27F5
:101740000A128A150318DF2B4E30B5006E30B40034
:101750006B30B3002830B20083160317560883128B
:101760000313B90083160317550883120313B80037
:1017700083160317540883120313B7008316031745
:10178000530883120313B6002B260A128A15350854
:1017900083160317D6008312031334088316031726
:1017A000D50083120313330883160317D400831262
:1017B0000313320883160317D3000430552C493025
:1017C000B5007430B4002430B300B201831603179F
:1017D000560883120313B9008316031755088312A2
:1017E0000313B80083160317540883120313B700BA
:1017F00083160317530883120313B6002B260A120D
:101800008A15350883160317D6008312031334088C
:1018100083160317D50083120313330883160317A7
:10182000D40083120313320883160317D300053044
:10183000552C4430B5007A30B400B301B2018316A0
:101840000317560883120313B900831603175508AC
:1018500083120313B800831603175408831203136B
:10186000B70083160317530883120313B6002B2601
:101870000A128A15350883160317D600831203133C
:10188000340883160317D500831203133308831615
:101890000317D40083120313320883160317D300EF
:1018A0000630552C073083160317D00042308312C0
:1018B0000313C800C830C700C601C501831603174B
:1018C000560883120313CC0083160317550883129E
:1018D0000313CB0083160317540883120313CA00A3
:1018E00083160317530883120313C9000A168A11BB
:1018F00078260A128A15480883160317D600831221
:101900000313470883160317D500831203134608F1
:1019100083160317D4008312031345088316031795
:10192000D300560883120313AB0083160317550820
:1019300083120313AA008316031754088312031398
:10194000A90083160317530883120313A800A626C1
:101950000A128A15290883160317D200831203136B
:10196000280883160317D1005208F4005108F30029
:101970005008FF2FF400740884000A168A1500200E
:101980000A128A15003803190800740884000A1620
:101990008A1500200A128A15F300D2240A128A1529
:1019A000F40ABB2C790A0F397A060319D22C8B134F
:1019B0007908A03E8400730883178000F90A0F306D
:1019C000F905831603130C168B1708003030F3004B
:1019D0006F080A128A1100210A128A157830F30062
:1019E00083126F080A128A1100210A128A158312C3
:1019F0005008A4004F08A3001030A500FC30A6003A
:101A00003A270A128A154E08A4004D08A300103088
:101A1000A500FC30A6003A2F5908BD005808BC00AC
:101A20005708BB005608BA000A128A1109240A1284
:101A30008A153D088312AB0083163C088312AA0066
:101A400083163B088312A90083163A088312A80064
:101A5000A62629088316E500831228088316E400C9
:101A600034308312A300A201A101A00183165908FA
:101A70008312A700831658088312A60083165708FE
:101A80008312A500831656088312A4000A168A1131
:101A90000E270A128A150318080083166508831298
:101AA000B300831664088312B200FD26350883163E
:101AB000DD00831234088316DC008312330883169A
:101AC000DB00831232088316DA004130C800203070
:101AD000C700C601C5015D08CC005C08CB005B08EF
:101AE000CA005A08C9000A128A1146240A128A1525
:101AF0004808E1004708E0004608DF004508DE002E
:101B000059088312B900831658088312B800831647
:101B100057088312B700831656088312B60083163F
:101B200061088312B500831660088312B40083161F
:101B30005F088312B30083165E088312B2002B265F
:101B40003508EA003408E9003308E8003208E70005
:101B50000A128A112E230A128A1583126A08AB0010
:101B60006908AA006808A9006708A800A6260A1242
:101B70008A1529088316E300831228088316E200D9
:101B800063088312B300831662088312B200FD2635
:101B90003508CC003408CB003308CA003208C9002D
:101BA000831661088312C800831660088312C70079
:101BB00083165F088312C60083165E088312C50071
:101BC0000A168A1178260A128A154808EA00470878
:101BD000E9004608E8004508E70083165908831223
:101BE000EE00831658088312ED00831657088312FF
:101BF000EC00831656088312EB001C276A08831634
:101C0000D900831269088316D800831268088316E6
:101C1000D700831267088316D6006208303EF300AF
:101C200083126F080A128A1100210A128A1583167C
:101C300065086404031D252E2E30F30083126F08FF
:101C40000A128A1100210A128A15FF308316E4074E
:101C5000031CE503302D3608BA003708BB003808EE
:101C6000BC003908BD0003103C0D3D0DC300C30886
:101C7000031D3F2EB201B301B401B50108003208C3
:101C8000BA003308BB003408BC003508BD0003109F
:101C90003C0D3D0DC400C408031D532EB201B30119
:101CA000B401B501080089304407BA00C3023908FD
:101CB000C4003508C4068030C4052030B817B90107
:101CC000B417B501C2000310BE0DBF0DC00DC10D8C
:101CD00035083902031D762E34083802031D762E8E
:101CE00033083702031D762E32083602031C882E75
:101CF0003208B6023308031C330FB7023408031C42
:101D0000340FB8023508031C350FB9023E14031016
:101D1000B60DB70DB80DB90DC20B632E4108A30067
:101D20004008A2003F08A1003E08A0004308A4000C
:101D30004408A5000A168A115A272308B50022086C
:101D4000B4002108B3002008B20008002808AC0045
:101D50002908AD002A08AE002B08AF0003102E0D95
:101D60002F0DB100B108031DBA2EA801A901AA01C7
:101D7000AB0108002808AC002908AD002A08AE0015
:101D80002B08AF001F300310AF0CAE0CAD0CAC0C29
:101D9000FF3E031DC32E2C08B0009630AA17AB01DE
:101DA000B102B11FE02E3108803A973E031CB52ED8
:101DB0000310AB0CAA0CA90CA80CB10FD82EEE2E58
:101DC000203031020318B52EB1080319EE2E03108E
:101DD000A80DA90DAA0DAB0DB103E42E300803190F
:101DE0000800A809A909AA09AB09A80A0319A90AA0
:101DF0000319AA0A0319AB0A0800B601B31F062F7C
:101E0000B209B309B20A0319B30AB60A3208A0002C
:101E10003308A1009630A201A301A4003608A50052
:101E20000A168A115A272308B5002208B40021088F
:101E3000B3002008B20008008030EA066A08DB0020
:101E40006908DA006808D9006708D8006E08DF0062
:101E50006D08DE006C08DD006B08DC000A168A11D4
:101E6000ED205B08EA005A08E9005908E800580824
:101E7000E70008002030CC01C800A61F432F3030F7
:101E8000A609A60AC8002508F300F4012408F600F4
:101E90002308F500C6270A128A157308CB000A30FA
:101EA0004B024B08C900031C572F3730582F3030D6
:101EB000CA01C9070318CA0A4C08283E8400490809
:101EC00083138000CC0A2508F300F4012408F600EF
:101ED0002308F5009C270A128A157408A4007308C9
:101EE000A300240403197D2F432F4808F3006F0833
:101EF0000A128A1100210A128A1583124C08803AAC
:101F0000A7002608A603803AA702031C752F4C08D9
:101F1000803A7F3E031C08004C08FF3E283E8400A8
:101F200083130008F3006F080A128A1100210A12B5
:101F30008A158312CC03872FA101A20174087304B0
:101F40000319C12FA001A00AF41BAA2F0310F30D3F
:101F5000F40DA32F0310A10DA20D74087602031D2A
:101F6000B32F73087502031CBD2F7308F5027408A4
:101F7000031CF603F60221140310F40CF30CA00B5F
:101F8000AA2F2208F4002108F30008007408730443
:101F90000319E52FF701F70AF41BD22F0310F30DF5
:101FA000F40DCB2F74087602031DD82F7308750229
:101FB000031CE12F7308F5027408031CF603F602F4
:101FC0000310F40CF30CF70BD22F7608F40075080D
:101FD000F30008002808A0002908A1009630A201FB
:101FE000A301A400A5010A168A115A272308AB00F1
:101FF0002208AA002108A9002008A800080008005B
:102090002908AB000310AB0D03102B0D280784009B
:1020A0000A168A1500200A168A11AC000A168A152B
:1020B00000200A168A11AD000A168A1500200A1699
:1020C0008A11AE000A168A1500200A168A11AF007E
:1020D0002F08B3002E08B2002D08B1002C08B00064
:1020E0002A0829040319E428FF30A907031CAA03BE
:1020F0002908AB000310AB0D03102B0D280784003B
:102100000A168A1500200A168A11AC000A168A15CA
:1021100000200A168A11AD000A168A1500200A1638
:102120008A11AE000A168A1500200A168A11AF001D
:102130002F088312DB0083162E088312DA00831621
:102140002D088312D90083162C088312D800831619
:1021500033088312C800831632088312C70083161F
:1021600031088312C600831630088312C500831617
:1021700027088312CC00831626088312CB0083160F
:1021800025088312CA00831624088312C900782602
:102190000A168A114808DF004708DE004608DD00FD
:1021A0004508DC00ED200A168A115B088316B3008F
:1021B00083125A088316B200831259088316B1009D
:1021C0008312580883166F283308A7003208A60028
:1021D0003108A5003008A40008005808E00059089C
:1021E000E1005A08E2005B08E3000310620D630D92
:1021F000E6005C08E0005D08E1005E08E2005F08C0
:10220000E3000310620D630DE5006608031914294D
:1022100065086602650803181E29E0006608E002EA
:1022200021306002031C1D295F08DB005E08DA0014
:102230005D08D9005C08D80008006508031908008B
:102240006608650203182C296608E0006508E002AC
:1022500021306002031808000630E400DB1BE4179D
:10226000DF1B6417DA17DB01DE17DF016508660282
:10227000031855290310DC0DDD0DDE0DDF0DE50320
:102280006508660603195029E40364080739031931
:1022900050293A290310DB0CDA0CD90CD80CE60AC9
:1022A00066086506031973294A296608650203183A
:1022B00073290310D80DD90DDA0DDB0DE60365087F
:1022C000660603196F29E4036408073903196F29A7
:1022D00059290310DF0CDE0CDD0CDC0CE50A660866
:1022E0006506031D6929E41F8129FF30D806D90638
:1022F000DA06DB06D80A0319D90A0319DA0A031920
:10230000DB0A641F8F29FF30DC06DD06DE06DF06F0
:10231000DC0A0319DD0A0319DE0A0319DF0AE401E6
:102320005808DC07590803110318013E031DDD0797
:102330005A0803110318013E031DDE075B08031151
:102340000318013E031DDF07DF1FB429FF30DC0641
:10235000DD06DE06DF06DC0A0319DD0A0319DE0AE4
:102360000319DF0AE401E40A5F08A3005E08A20083
:102370005D08A1005C08A0006608A4006408A50030
:102380005A272308DB002208DA002108D900200898
:10239000D8000800A52774088316C2007308C1007E
:1023A00042088312A900831641088312A8000A126A
:1023B0008A15EA270A168A112B0883160317B70015
:1023C000831203132A0883160317B600831203131C
:1023D000290883160317B5008312031328088316F0
:1023E0000317B400430883120313A30083160317D3
:1023F000420883120313A2008316031741088312B5
:102400000313A10083160317400883120313A000CF
:1024100083160317370883120313A70083160317C5
:10242000360883120313A600831603173508831298
:102430000313A50083160317340883120313A400A3
:102440000E270A168A1103182F2A8316031743082A
:10245000B7004208B6004108B5004008B400831632
:102460000317370883120313C800831603173608AF
:1024700083120313C700831603173508831203134F
:10248000C60083160317340883120313C50083168E
:102490000317370883120313CC008316031736087B
:1024A00083120313CB00831603173508831203131B
:1024B000CA0083160317340883120313C900782651
:1024C0000A168A114808EA004708E9004608E800A9
:1024D0004508E70083160317430883120313C80057
:1024E00083160317420883120313C70083160317CA
:1024F000410883120313C600831603174008831292
:102500000313C50083160317430883120313CC007B
:1025100083160317420883120313CB008316031795
:10252000410883120313CA0083160317400883125D
:102530000313C90078264808EE004708ED00460856
:10254000EC004508EB000A128A151C270A168A11AE
:102550006A088316BC00831269088316BB008312C5
:1025600068088316BA00831267088316B900031738
:10257000330883120313EA00831603173208831209
:102580000313E90083160317310883120313E800CD
:1025900083160317300883120313E700831603170B
:1025A000330883120313EE008316031732088312D5
:1025B0000313ED0083160317310883120313EC0095
:1025C00083160317300883120313EB000A128A15CF
:1025D0001C270A168A118316031743088312031354
:1025E000C80083160317420883120313C70083161B
:1025F0000317410883120313C6008316031740080C
:1026000083120313C50083160317430883120313B1
:10261000CC0083160317420883120313CB008316E2
:102620000317410883120313CA00831603174008D7
:1026300083120313C90078264808EE004708ED000E
:102640004608EC004508EB000A128A151C270A16FA
:102650008A116A08C8006908C7006808C6006708C8
:10266000C50083163C088312CC0083163B088312F6
:10267000CB0083163A088312CA00831639088312E6
:10268000C90078260A168A1148088316C0008312EA
:1026900047088316BF00831246088316BE008312C4
:1026A00045088316BD0046308312C8001C30C700A1
:1026B0004030C600C501831640088312CC00831643
:1026C0003F088312CB0083163E088312CA0083168C
:1026D0003D088312C90078260A168A114808831615
:1026E000A300831247088316A200831246088316AC
:1026F000A100831245088316A00003174308831224
:102700000313C80083160317420883120313C7007C
:1027100083160317410883120313C6008316031799
:10272000400883120313C50083160317430883125E
:102730000313CC0083160317420883120313CB0044
:1027400083160317410883120313CA008316031765
:10275000400883120313C90078260A168A11480814
:102760008316BC00831247088316BB0083124608F9
:102770008316BA00831245088316B900031733087D
:1027800083120313C800831603173208831203133E
:10279000C70083160317310883120313C60083167C
:1027A0000317300883120313C50083163C088312F5
:1027B000CC0083163B088312CB0083163A088312A1
:1027C000CA00831639088312C90078260A168A11AE
:1027D00048088316C000831247088316BF0083127F
:1027E00046088316BE00831245088316BD000317F2
:1027F000330883120313C8008316031732088312A9
:102800000313C70083160317310883120313C6008E
:1028100083160317300883120313C500831640087C
:102820008312CC0083163F088312CB0083163E0828
:102830008312CA0083163D088312C90078260A163F
:102840008A1148088316AB00831247088316AA0032
:10285000831246088316A900831245088316A80030
:102860000317370883120313C800831603173608AB
:1028700083120313C700831603173508831203134B
:10288000C60083160317340883120313C50083168A
:102890002B088312CC0083162A088312CB008316E0
:1028A00029088312CA00831628088312C9007826D3
:1028B0000A168A1148088316AF0083124708831648
:1028C000AE00831246088316AD00831245088316B6
:1028D000AC000317370883120313C80083160317CD
:1028E000360883120313C7008316031735088312B3
:1028F0000313C60083160317340883120313C5009D
:1029000083162F088312CC0083162E088312CB0067
:1029100083162D088312CA0083162C088312C9005F
:1029200078260A168A1148088316B30083124708CE
:102930008316B200831246088316B100831245083D
:102940008316B00003175A0883120313C8008316B6
:102950000317590883120313C70083160317580877
:1029600083120313C6008316031757088312031339
:10297000C500831633088312CC00831632088312F5
:10298000CB00831631088312CA00831630088312E5
:10299000C90078260A168A1148088316B7008312E0
:1029A00047088316B600831246088316B5008312C3
:1029B00045088316B40042308312C8001D30C7009A
:1029C000E930C600E630C500831637088312CC0014
:1029D000831636088312CB00831635088312CA008B
:1029E000831634088312C90078260A168A1148080B
:1029F0008316A700831247088316A6008312460891
:102A00008316A500831245088316A400583083124C
:102A1000C8006330C7005F30C600A930C500831608
:102A200027088312B500831626088312B400831684
:102A300025088312B300831624088312B20083167C
:102A400023088312B900831622088312B800831664
:102A500021088312B700831620088312B6000A12D9
:102A60008A152B260A168A113508CC003408CB00AB
:102A70003308CA003208C90078260A168A114808A5
:102A80008316C600831247088316C50083124608C2
:102A90008316C400831245088316C3004430831292
:102AA000A3007930A200C030A100A001831646081F
:102AB0008312A700831645088312A60083164408D4
:102AC0008312A500831643088312A4000E270A165A
:102AD0008A1103182D2E4930A3007330A200E5306F
:102AE000A1008030A000831646088312A700831639
:102AF00045088312A600831644088312A500831696
:102B000043088312A4000E270A168A110318012E07
:102B10004E30A3006E30A2002E30A1001F30A00066
:102B2000831646088312A700831645088312A60061
:102B3000831644088312A500831643088312A40059
:102B40000E270A168A110318D32D4E30B5006E30A9
:102B5000B4006B30B3002830B200831646088312ED
:102B6000B900831645088312B800831644088312FF
:102B7000B700831643088312B6000A128A152B2663
:102B80000A168A1135088316C60083123408831684
:102B9000C500831233088316C400831232088316DB
:102BA000C300B801302E4930B5007430B400243071
:102BB000B300B201831646088312B9008316450894
:102BC0008312B800831644088312B70083164308A3
:102BD0008312B6000A128A152B260A168A113508A6
:102BE0008316C600831234088316C5008312330887
:102BF0008316C400831232088316C300B801B80AD2
:102C0000302E4430B5007A30B400B301B2018316DF
:102C100046088312B900831645088312B80083164C
:102C200044088312B700831643088312B6000A12C1
:102C30008A152B260A168A1135088316C6008312B8
:102C400034088316C500831233088316C400831228
:102C500032088316C30002302F2E03308316B800CB
:102C600042308312C800C830C700C601C5018316B0
:102C700046088312CC00831645088312CB008316C6
:102C800044088312CA00831643088312C9007826B9
:102C900048088316C600831247088316C5008312AE
:102CA00046088316C400831245088316C3004608ED
:102CB0008312AB00831645088312AA0083164408CA
:102CC0008312A900831643088312A8000A128A15EA
:102CD000A62629088316C200831228088316C1007D
:102CE0004208F4004108F30038080A128A15FF2F41
:102CF0004508CD004608CE004708CF004808D00060
:102D000003104F0D500DD100D108031D8C2EC501AD
:102D1000C601C701C80108004908CD004A08CE0015
:102D20004B08CF004C08D00003104F0D500DD700BA
:102D3000D708031DA02EC501C601C701C8010800A0
:102D400057087B3ED1074808D7004C08D70680308B
:102D5000D7050730C717CB17CC01D201D301D40157
:102D6000D501D600451CC82E4908D2074A080311D0
:102D70000318013E031DD3074B0803110318013E3E
:102D8000031DD4074C0803110318013E031DD5078A
:102D90000310C80CC70CC60CC50C0310C90DCA0D16
:102DA000CB0DCC0DD60BB22E1130D600451CEC2E1F
:102DB0004908D2074A0803110318013E031DD3072F
:102DC0004B0803110318013E031DD4074C080311DF
:102DD0000318013E031DD5070310C80CC70CC60C11
:102DE000C50C0310D50CD40CD30CD20CD60BD62E9C
:102DF0005508A3005408A2005308A1005208A000DF
:102E00005108A4005708A5005A272308C800220823
:102E1000C7002108C6002008C5000800A31F2B2FEB
:102E20008030F301F401F501F6002008F3022108D7
:102E3000031C210FF4022208031C220FF5022308B1
:102E4000031C230FF6027608A3007508A20074087D
:102E5000A1007308A000A71F482F8030F301F401E0
:102E6000F501F6002408F3022508031C250FF402DF
:102E70002608031C260FF5022708031C270FF6025D
:102E80007608A7007508A6007408A5007308A400BA
:102E90008030A306A70627082302031D0800260882
:102EA0002202031D080025082102031D0800240832
:102EB0002002080024080319632F23082204210498
:102EC0002004031D6E2FA001A101A201A30108008F
:102ED000A40A0310A30CA20CA10CA00CFE30230525
:102EE0000319802F682FA40AA00A0319A10A031945
:102EF000A20A0319A30A0310A30CA20CA10CA00C94
:102F0000FF30230503198B2F732FA4030310A00D8B
:102F1000A10DA20DA30DA21F852F2418922F7F3083
:102F2000A205FF300310A40C2408F600F501F401FB
:102F3000F3017308A0047408A1047508A2047608BC
:102F4000A3042508031DA31708000B1183160512FF
:102F500082308312A100DD30A000A00BAD2FA10BA9
:102F6000AD2FB22F831203138101A5014130A100BF
:102F7000EE30A000A00BBA2FA10BBA2F6400831271
:102F800003130A30A50A2502031CB62F8316051663
:102F900083120108A400A601A701D52F0130270242
:102FA0000030031926020318E72F831601160000CC
:102FB00000008316031301120000000083120313A4
:102FC000A60A0319A70A240801060319CE2F24080C
:102FD000A000A101A100A00126082002A20027084C
:102FE000031C270A2102A3002208003EA600230892
:102FF0000318013E013EA700F4002608F300080074
:1030000018308A000408840A82070034003400342F
:1030100080343F341834723431343F34F034FD346A
:1030200075343E344734583463343D345834953421
:103030001D343C348234C434AE343A34A834783449
:1030400021343934EF34933480343734A03492341B
:10305000A73435344634563415343434003400340F
:1030600000340034C434FF347F343F348034EF34D0
:10307000FF34BE349034E134A9343E34EC3482342D
:103080007634BE348234AD342B343E340E343C348A
:10309000C334BD348734D13413343D3441347834AF
:1030A000D334BB340D340A344334433461346C3488
:1030B0003D3400342E342E342E340D340A34003492
:1030C0000D340A34463431343D3400340D340A347E
:1030D000463432343D3400340D340A34463433340B
:1030E0003D340034433469346E343D340034763436
:0830F000613472343D340034F8
:103EEC00831203138C1CCD2F013083160317DC07B0
:103EFC0013305C02883003195B02031CCA2F883014
:103F0C00DB021330031CDC03DC02DD0A0319DE0ABE
:103F1C00B80A0319B90A0319BA0A0319BB0A003003
:103F2C0003136B02C93003196A020318A12F831201
:103F3C0003138715A42F83120313871101308316E3
:103F4C006B02903003196A02031CB22F9030EA0204
:103F5C000130031CEB03EB02EA0A0319EB0A0330F2
:103F6C0003175E02E83003195D02031CCA2FBC0A5A
:103F7C000319BD0A0319BE0A0319BF0AE830DD0292
:103F8C000330031CDE03DE02831203138C108C1E21
:103F9C00E02F7808903E84001A0883178000780A76
:103FAC008316ED000F30ED056D086C060319E02F3C
:103FBC006D08F80083120C1EF72F83160C1EF72FBA
:103FCC007A08A03E84008317000883129900FA0A2D
:103FDC000F30FA057A087906831603190C1283122E
:103FEC000C1272088A0071088400700E8300FE0E99
:043FFC007E0E09002C
:02400E0072FF3F
:00000001FF
