:100000000A128A110E28FF3FFE00030EF0000408BA
:10001000F1000A08F2000A168A118E290A168A11BE
:10002000452987121F260A128A115308CE0052084A
:10003000CD000A260A128A1151200A128A11323082
:100040001F260A128A115308CE005208CD000A2634
:100050000A128A1151200A128A117F2087161F2640
:100060000A128A115308CE005208CD000A260A123D
:100070008A1168200A128A1132301F260A128A1148
:100080005308CE005208CD000A260A128A116820B1
:100090000A128A117F20871297300A128A15372C8C
:1000A0000800500883160317D000831203134F086B
:1000B00083160317CF00831203134E08831603170A
:1000C000CE00831203134D0883160317CD000800DA
:1000D000500883160317B300831203134F088316C7
:1000E0000317B200831203134E0883160317B100DF
:1000F000831203134D0883160317B0000800831200
:10010000031308008316031708008316031708005B
:1001100083120313080083160317080083120313C6
:100120000800290876270A168A1100200A128A1167
:10013000AC000A168A1100200A128A11AD000A16B4
:100140008A1100200A128A11AE000A168A110020B4
:100150000A128A11AF002F08B3002E08B2002D0832
:10016000B1002C08B0002A08290403192129FF3006
:10017000A907031CAA03290876270A168A1100205A
:100180000A128A11AC000A168A1100200A128A117A
:10019000AD000A168A1100200A128A11AE000A1652
:1001A0008A1100200A128A11AF002F088312DB0087
:1001B00083162E088312DA0083162D088312D900C5
:1001C00083162C088312D800831633088312C800C4
:1001D000831632088312C700831631088312C600C3
:1001E000831630088312C500831627088312CC00BB
:1001F000831626088312CB00831625088312CA00B3
:10020000831624088312C9003E250A128A11480861
:10021000DF004708DE004608DD004508DC002A2133
:100220000A128A115B088316B30083125A088316D8
:10023000B200831259088316B1008312580883163E
:10024000B2283308A7003208A6003108A5003008FC
:10025000A40008005808E0005908E1005A08E2002C
:100260005B08E3000310620D630DE6005C08E0002C
:100270005D08E1005E08E2005F08E3000310620D24
:10028000630DE500660803195129650866026508D3
:1002900003185B29E0006608E00221306002031CBD
:1002A0005A295F08DB005E08DA005D08D9005C08A7
:1002B000D8000800650803190800660865020318DD
:1002C00069296608E0006508E00221306002031831
:1002D00008000630E400DB1BE417DF1B6417DA17A5
:1002E000DB01DE17DF01650866020318922903109F
:1002F000DC0DDD0DDE0DDF0DE50365086606031977
:100300008D29E4036408073903198D29772903101F
:10031000DB0CDA0CD90CD80CE60A66086506031962
:10032000B0298729660865020318B0290310D80D83
:10033000D90DDA0DDB0DE603650866060319AC2955
:10034000E403640807390319AC2996290310DF0C6C
:10035000DE0CDD0CDC0CE50A66086506031DA6292B
:10036000E41FBE29FF30D806D906DA06DB06D80A14
:100370000319D90A0319DA0A0319DB0A641FCC2905
:10038000FF30DC06DD06DE06DF06DC0A0319DD0AC7
:100390000319DE0A0319DF0AE4015808DC075908CB
:1003A00003110318013E031DDD075A08031103184A
:1003B000013E031DDE075B0803110318013E031D08
:1003C000DF07DF1FF129FF30DC06DD06DE06DF0672
:1003D000DC0A0319DD0A0319DE0A0319DF0AE40146
:1003E000E40A5F08A3005E08A2005D08A1005C08A3
:1003F000A0006608A4006408A5000A128A15A527B3
:100400002308DB002208DA002108D9002008D800E0
:1004100008001F260A128A1153088316C20083128D
:1004200052088316C10042088312CE008316410889
:100430008312CD000A260A128A1150088B27B700B2
:100440008E274F088B27B6008E274E088B27B500C6
:100450008E274D088B27B40050088E27A3008B27CA
:100460004F088E27A2008B274E088E27A1008B27CE
:100470004D088E27A0008B2737088E27A7008B27D3
:1004800036088E27A6008B2735088E27A5008B27D8
:1004900034088E27A400BE250A128A110318592A8F
:1004A0008B275008B7004F08B6004E08B5004D081E
:1004B000B4008B2737088E27C8008B2736088E2775
:1004C000C7008B2735088E27C6008B2734088E2758
:1004D000C5008B2737088E27CC008B2736088E2740
:1004E000CB008B2735088E27CA008B2734088E2730
:1004F000C9003E250A128A114808EA004708E900A7
:100500004608E8004508E7008B2750088E27C800FA
:100510008B274F088E27C7008B274E088E27C600D3
:100520008B274D088E27C5008B2750088E27CC00BF
:100530008B274F088E27CB008B274E088E27CA00AB
:1005400067270A128A113E250A128A115E270A12AB
:100550008A15DC260A128A116A088316BC008312E7
:1005600069088316BB00831268088316BA008312D9
:10057000670884270A128A11EA008B2732088E271F
:10058000E9008B2731088E27E8008B2730088E275B
:10059000E7008B2733088E27EE008B2732088E2743
:1005A000ED008B2731088E27EC008B2730088E2733
:1005B000EB000A128A15DC260A128A118B275008D2
:1005C0008E27C8008B274F088E27C7008B274E0821
:1005D0008E27C6008B274D088E27C5008B27500815
:1005E0008E27CC008B274F088E27CB008B274E08F9
:1005F0008E27CA0067270A128A113E250A128A111D
:100600005E270A128A15DC260A128A116A08C800B7
:100610006908C7006808C60067080B270A128A1114
:100620003E250A128A113E270A128A114630831289
:10063000C8001C30C7004030C600C5011D270A1283
:100640008A113E250A128A1148088316A3008312D4
:1006500047088316A200831246088316A10083125E
:1006600045088316A000031750088E27C8008B2763
:100670004F088E27C7008B274E088E27C6008B2772
:100680004D088E27C5008B2750088E27CC008B275E
:100690004F088E27CB008B274E088E27CA0067276E
:1006A0000A128A113E250A128A1148088316BC00D4
:1006B000831247088316BB00831246088316BA00CC
:1006C0008312450884270A128A11C8008B27320832
:1006D0008E27C7008B2731088E27C6007E270A1277
:1006E0008A110B270A128A113E250A128A113E2707
:1006F0000A128A11031733088E27C8008B27320885
:100700008E27C7008B2731088E27C6007E270A1246
:100710008A11C5001D270A128A113E250A128A1164
:1007200048088316AB00831247088316AA00831279
:1007300046088316A900831245088316A8000317EC
:1007400037088E27C8008B2736088E27C7008B27CF
:1007500035088E27C6006E270A128A112B088312CD
:10076000CC0083162A088312CB0083162908831233
:10077000CA00831628088312C9003E250A128A116E
:1007800048088316AF00831247088316AE00831211
:1007900046088316AD00831245088316AC00031784
:1007A00037088E27C8008B2736088E27C7008B276F
:1007B00035088E27C6006E270A128A112F08831269
:1007C000CC0083162E088312CB0083162D088312CB
:1007D000CA0083162C088312C9003E250A128A110A
:1007E00048088316B300831247088316B2008312A9
:1007F00046088316B100831245088316B00003171C
:1008000060088E27C8008B275F088E27C7008B27BC
:100810005E088E27C6008B275D088E27C5008316CD
:1008200033088312CC00831632088312CB00831660
:1008300031088312CA00831630088312C9003E258E
:100840000A128A1148088316B700831247088316D4
:10085000B600831246088316B50083124508831636
:10086000B40042308312C8001D30C700E930C60012
:10087000E630C500831637088312CC00831636088D
:100880008312CB00831635088312CA0083163408FE
:100890008312C9003E250A128A1148088316A70050
:1008A000831247088316A600831246088316A50004
:1008B000831245088316A40058308312C8006330A1
:1008C000C7005F30C600A930C50083162708831211
:1008D000B500831626088312B400831625088312F8
:1008E000B300831624088312B200831623088312F0
:1008F000B900831622088312B800831621088312D8
:10090000B700831620088312B6000A128A15F9254B
:100910000A128A113508CC003408CB003308CA000B
:100920003208C9003E250A128A114E270A128A117E
:1009300044308312A3007930A200C030A100A0018E
:10094000D9260A128A11BE250A128A110318FF2C11
:100950004930A3007330A200E530A1008030A00030
:10096000D9260A128A11BE250A128A110318EE2C02
:100970004E30A3006E30A2002E30A1001F30A00028
:10098000D9260A128A11BE250A128A110318DB2CF5
:100990004E30B5006E30B4006B30B3002830B2007A
:1009A000EA260A128A15F9250A128A11FB260A126A
:1009B0008A11B801022D4930B5007430B4002430DA
:1009C000B300B201EA260A128A15F9250A128A1121
:1009D000FB260A128A11B801B80A022D4430B5006C
:1009E0007A30B400B301B201EA260A128A15F92559
:1009F0000A128A11FB260A128A110230012D0330D5
:100A00008316B80042308312C800C830C700C60140
:100A1000C501831646088312CC008316450883124D
:100A2000CB00831644088312CA008316430883123E
:100A3000C9003E250A128A114E2746088312AB00D0
:100A4000831645088312AA00831644088312A9005E
:100A5000831643088312A8000A128A1572262908F1
:100A60008316C200831228088316C1004208F400CE
:100A70004108F30038080A128A15F02F4508CD0006
:100A80004608CE004708CF004808D00003104F0D9D
:100A9000500DD100D108031D522DC501C601C7015B
:100AA000C80108004908CD004A08CE004B08CF0015
:100AB0004C08D00003104F0D500DD700D708031D70
:100AC000662DC501C601C701C801080057087B3E55
:100AD000D1074808D7004C08D7068030D705073023
:100AE000C717CB17CC01D201D301D401D501D60051
:100AF000451C822D49082E270A128A110318013E2F
:100B0000031DD5070310C80CC70CC60CC50C031079
:100B1000C90DCA0DCB0DCC0DD60B782D1130D600DA
:100B2000451C9A2D49082E270A128A110318013EE6
:100B3000031DD5070310C80CC70CC60CC50C031049
:100B4000D50CD40CD30CD20CD60B902D5508A30089
:100B50005408A2005308A1005208A0005108A400A4
:100B60005708A5000A128A15A5272308C8002208DD
:100B7000C7002108C6002008C5000800A31FDB2D00
:100B80008030F301F401F501F6002008F30221089A
:100B9000031C210FF4022208031C220FF502230874
:100BA000031C230FF6027608A3007508A200740840
:100BB000A1007308A000A71FF82D8030F301F401F5
:100BC000F501F6002408F3022508031C250FF402A2
:100BD0002608031C260FF5022708031C270FF60220
:100BE0007608A7007508A6007408A5007308A4007D
:100BF0008030A306A70627082302031D0800260845
:100C00002202031D080025082102031D08002408F4
:100C1000200208004D08A0004E08A1009630A20155
:100C2000A301A400A5010A128A15A5272308D00054
:100C30002208CF002108CE002008CD0008000B11AB
:100C400083160313051282308312D500DD30D400E1
:100C5000D40B282ED50B282E2D2E8E278101413026
:100C6000D500EE30D400D40B332ED50B332E6400D8
:100C700041308E27D500EE30D400D40B3D2ED50B5D
:100C80003D2E640041308E27D500EE30D400D40BC9
:100C9000472ED50B472E640041308E27D500EE300D
:100CA000D400D40B512ED50B512E640041308E2729
:100CB000D500EE30D400D40B5B2ED50B5B2E640038
:100CC00041308E27D500EE30D400D40B652ED50BE5
:100CD000652E640041308E27D500EE30D400D40B51
:100CE0006F2ED50B6F2E640041308E27D500EE306D
:100CF000D400D40B792ED50B792E640041308E2789
:100D0000D500EE30D400D40B832ED50B832E640097
:100D100041308E27D500EE30D400D40B8D2ED50B6C
:100D20008D2E640083160313051691270A128A116B
:100D30007408D7007308D600BA260A128A118730C1
:100D4000C0260A128A118E275708A4005608A3004D
:100D50000A30A5000530A6000A128A15FA260A12E2
:100D60008A11CE270A128A118E275708D3005608F7
:100D7000D2000800F0308B27CC050F30CC050800DE
:100D8000F700770884000A168A1100200A128A11D7
:100D9000003803190800770884000A168A11002019
:100DA0000A128A110A128A15CF250A128A11F70A25
:100DB000C12E831646088312A700831645088312A6
:100DC000A600831644088312A500831643088312E5
:100DD000A4000800831646088312B900831645084C
:100DE0008312B800831644088312B70083164308A1
:100DF0008312B600080035088316C6008312340833
:100E00008316C500831233088316C4008312320888
:100E10008316C3000800C50083163C088312CC006B
:100E200083163B088312CB0083163A088312CA004C
:100E3000831639088312C9000800831640088312FC
:100E4000CC0083163F088312CB0083163E08831222
:100E5000CA0083163D088312C9000800D2074A0859
:100E600003110318013E031DD3074B080311031898
:100E7000013E031DD4074C080311080048088316DF
:100E8000C000831247088316BF00831246088316EA
:100E9000BE00831245088316BD000800480883166B
:100EA000C600831247088316C500831246088316BE
:100EB000C400831245088316C30008004808EE00EA
:100EC0004708ED004608EC004508EB0008008316D3
:100ED00003174D0883120313C90008008316031774
:100EE000340883120313C50083160800AB000310F7
:100EF000AB0D03102B0D2807840008008316031781
:100F000030088312031308008316B900031733084F
:100F100083120313080083160317080083120313B8
:100F2000080083120108F500F601F7018316811607
:100F3000A02F013077020030031976020318B22F78
:100F4000831601160000000083160313011200002F
:100F50000000F60A0319F70A750883120313010645
:100F60000319992F7508A000A101A100A00176081E
:100F70002002A2007708031C770A2102A30022089E
:100F8000003EF60023080318013E013EF700F4007E
:100F90007608F3000800831203130800D1018316BA
:100FA00003174C0E0F398312031351020318E52F58
:100FB0005108BC3E8400831700080A128A154E248B
:100FC0000A128A118312D10ACF2F97300A128A157A
:100FD000372C8312031308008316031708008312AB
:100FE0000313080064008001840A04060319003416
:100FF0000406F32FFF340800FF3FFF3FFF3FFF3F92
:10101000FF3FFF3FFF3FFF3FFF3F0A128A111F269E
:101020000A128A15530803179E0003135208031768
:101030009D001E080313CE0003171D080313CD00E7
:101040000A128A110A260A128A15500883160317F3
:10105000B700831203134F0883160317B6008312D9
:1010600003134E0883160317B500831203134D08AC
:1010700083160317B400923037240A128A1583129C
:1010800003171D080313CD0003171E080313CE001A
:10109000CF01D00163240A128A1527240A128A1567
:1010A000753037240A128A15831603175008031364
:1010B000D90003174F080313D80003174E08031372
:1010C000D70003174D080313D6007D240A128A1592
:1010D00027240A128A1520304E240A128A15031773
:1010E000500883120313D000831603174F0883128E
:1010F0000313CF00831603174E0883120313CE0089
:10110000831603174D0883120313CD0063240A12BC
:101110008A1527240A128A157B3037240A128A1569
:101120008316031733080313D90003173208031378
:10113000D800031731080313D7000317300803132F
:10114000D6007D240A128A1527240A128A15203017
:101150004E240A128A150317330883120313D00092
:1011600083160317320883120313CF008316031765
:10117000310883120313CE0083160317300883123D
:101180000313CD0063240A128A1527240A128A1534
:10119000813037240A128A15831603173708031380
:1011A000D900031736080313D800031735080313B3
:1011B000D700031734080313D6007D240A128A15BA
:1011C00027240A128A1520304E240A128A15031782
:1011D000370883120313D0008316031736088312CF
:1011E0000313CF0083160317350883120313CE00B1
:1011F00083160317340883120313CD0063240A12E5
:101200008A1527240A128A156D3037240A128A1586
:101210008316031760080313D90003175F0803132D
:10122000D80003175E080313D70003175D080313E4
:10123000D6007D240A128A1527240A128A15203026
:101240004E240A128A150317600883120313D00074
:10125000831603175F0883120313CF008316031747
:101260005E0883120313CE00831603175D088312F2
:101270000313CD0063240A128A1527240A128A1543
:10128000973037240A128A158316031750088312E1
:101290000313A300831603174F0883120313A2003E
:1012A000831603174E0883120313A1008316031736
:1012B0004D0883120313A000831603173708831207
:1012C0000313A70083160317360883120313A6001F
:1012D00083160317350883120313A500831603171B
:1012E000340883120313A4000A128A11BE250A12BD
:1012F0008A1503188529831603175008B7004F086D
:10130000B6004E08B5004D08B40083160317370821
:1013100083120313C80083160317360883120313BE
:10132000C70083160317350883120313C6008316FC
:101330000317340883120313C500831603173708F5
:1013400083120313CC00831603173608831203138A
:10135000CB0083160317350883120313CA008316C4
:101360000317340883120313C9000A128A113E2599
:101370000A128A154808EA004708E9004608E8000A
:101380004508E70083160317500883120313C800AB
:10139000831603174F0883120313C700831603171E
:1013A0004E0883120313C600831603174D088312D9
:1013B0000313C50083160317500883120313CC00D0
:1013C000831603174F0883120313CB0083160317EA
:1013D0004E0883120313CA00831603174D088312A5
:1013E0000313C9000A128A113E250A128A154808F9
:1013F000EE004708ED004608EC004508EB00DC264F
:101400000A128A156A080317930003136908031761
:10141000920003136808031791000313670803176A
:1014200090008316330883120313C8008316031732
:10143000320883120313C70083160317310883127F
:101440000313C60083160317300883120313C50065
:10145000031713080313CC00031712080313CB0060
:10146000031711080313CA00031710080313C90058
:101470000A128A113E250A128A1548080317970096
:101480000313470803179600031346080317950034
:1014900003134508031794008316330883120313BC
:1014A000C80083160317320883120313C70083167C
:1014B0000317310883120313C6008316031730087D
:1014C00083120313C500031717080313CC00031777
:1014D00016080313CB00031715080313CA000317DC
:1014E00014080313C9000A128A113E250A128A152C
:1014F000480803179B000313470803179A000313B8
:10150000460803179900031345080317980083162C
:10151000600883120313C800831603175F08831241
:101520000313C700831603175E0883120313C60054
:10153000831603175D0883120313C50003171B08E6
:101540000313CC0003171A080313CB000317190861
:101550000313CA00031718080313C9000A128A11DB
:101560003E250A128A1548080317A20003134708EC
:101570000317A100031346080317A000031345082F
:1015800003179F008D3037240A128A158312031720
:10159000220883160313D900831203172108831628
:1015A0000313D80083120317200883160313D700F0
:1015B000831203171F0883160313D6007D240A1213
:1015C0008A1520304E240A128A1583120317220826
:1015D0000313D000031721080313CF0003172008BB
:1015E0000313CE0003171F080313CD0063240A1250
:1015F0008A1597303724443083120313A3007930BF
:10160000A200C030A100A001031722080313A70005
:10161000031721080313A600031720080313A500CE
:1016200003171F080313A4000A128A11BE250A1209
:101630008A150318DA2B4930A3007330A200E53075
:10164000A1008030A000031722080313A70003178E
:1016500021080313A600031720080313A50003178E
:101660001F080313A4000A128A11BE250A128A1544
:101670000318B02B4E30A3006E30A2002E30A10014
:101680001F30A000031722080313A7000317210827
:101690000313A600031720080313A50003171F0850
:1016A0000313A4000A128A11BE250A128A15031810
:1016B000852B4E30B5006E30B4006B30B30028304F
:1016C000B200031722080313B900031721080313FC
:1016D000B800031720080313B70003171F080313EC
:1016E000B600F9250A128A1535080317A20003135C
:1016F00034080317A100031333080317A0000313D2
:10170000320803179F000430DC2B4930B5007430D9
:10171000B4002430B300B201031722080313B90048
:10172000031721080313B800031720080313B70099
:1017300003171F080313B600F9250A128A15350886
:101740000317A200031334080317A100031333087F
:101750000317A0000313320803179F000530DC2B8A
:101760004430B5007A30B400B301B2010317220847
:101770000313B900031721080313B8000317200847
:101780000313B70003171F080313B600F9250A1245
:101790008A1535080317A200031334080317A100A4
:1017A000031333080317A0000313320803179F0025
:1017B0000630DC2B073003179C0042300313C800AF
:1017C000C830C700C601C501031722080313CC00A7
:1017D000031721080313CB00031720080313CA00C3
:1017E00003171F080313C9000A128A113E250A12A3
:1017F0008A1548080317A200031347080317A1001E
:10180000031346080317A0000313450803179F009E
:1018100022080313AB00031721080313AA000317C0
:1018200020080313A90003171F080313A80072263A
:101830000A128A15290803179E00031328080317A4
:101840009D001E08F4001D08F3001C08F02F8316ED
:1018500003174C0E0F39F400BC30F5010A168A113B
:101860001621F0300317CC050F30CC050800F4002A
:10187000740884000A168A1100200A128A1500389A
:1018800003190800740884000A168A1100200A123D
:101890008A154E240A128A15F40A382CF300790AA4
:1018A0000F397A0603194F2C8B137908A03E840058
:1018B000730883178000F90A0F30F90583160313A4
:1018C0000C168B1708003030CF250A128A15783095
:1018D000CF250A128A15831203135008A4004F085B
:1018E000FA270A128A15FA260A128A154E08A40047
:1018F0004D08FA270A128A15FA2E5908BD00580811
:10190000BC005708BB005608BA000A168A117A2292
:101910000A128A153D088312AB0083163C08831215
:10192000AA0083163B088312A90083163A08831283
:10193000A8007226290883160317DC0083120313FC
:10194000280883160317DB00343083120313A30027
:10195000A201A101A001831659088312A7008316D2
:1019600058088312A600831657088312A500831611
:1019700056088312A4000A128A11BE250A128A157B
:1019800003180800831603175C0883120313B300BF
:10199000831603175B0883120313B200BF260A12D3
:1019A0008A15350883160317D400831203133408ED
:1019B00083160317D3008312031333088316031708
:1019C000D20083120313320883160317D10041306B
:1019D0000313C8002030C700C601C501031754080F
:1019E0000313CC00031753080313CB00031752084B
:1019F0000313CA00031751080313C9000A168A11FA
:101A0000B7220A128A1548080317D800031347089B
:101A10000317D700031346080317D600031345081E
:101A20000317D500031359088312B9008316580809
:101A30008312B800831657088312B700831656081E
:101A40008312B60083160317580883120313B500D8
:101A500083160317570883120313B4008316031762
:101A6000560883120313B300831603175508831215
:101A70000313B200F9253508EA003408E9003308F9
:101A8000E8003208E7000A168A1128270A128A1588
:101A900083126A08AB006908AA006808A9006708F1
:101AA000A80072260A128A15290883160317DA007D
:101AB00083120313280883160317D9005A088312C8
:101AC0000313B30083160317590883120313B200DC
:101AD000BF263508CC003408CB003308CA003208D2
:101AE000C90083160317580883120313C80083160E
:101AF0000317570883120313C700831603175608EA
:101B000083120313C60083160317550883120313A9
:101B1000C5000A128A113E250A128A154808EA00F1
:101B20004708E9004608E8004508E7008316590819
:101B30008312EE00831658088312ED0083165708AF
:101B40008312EC00831656088312EB00DC260A127F
:101B50008A156A088316D900831269088316D8008B
:101B6000831268088316D700831267088316D6008D
:101B700003175908303ECF250A128A15831603171A
:101B80005C085B04031DC82D2E30CF250A128A1570
:101B9000FF3083160317DB07031CDC03A42CF600BD
:101BA000831603174C0E0F39F300F501103CF400B7
:101BB000031CF5037508803AFF0080307F02031D87
:101BC000E32D01307402031C0800831603174C0E2A
:101BD0000F39BC3E84007608831780004C0E0F3905
:101BE000F300F30AF30E4C0873060F397306CC00AA
:101BF00008003608BA003708BB003808BC003908AE
:101C0000BD0003103C0D3D0DC300C308031D0D2E88
:101C1000B201B301B401B50108003208BA003308BB
:101C2000BB003408BC003508BD0003103C0D3D0D61
:101C3000C400C408031D212EB201B301B401B501D3
:101C4000080089304407BA00C3023908C4003508C7
:101C5000C4068030C4052030B817B901B417B501E7
:101C6000C2000310BE0DBF0DC00DC10D35083902F5
:101C7000031D442E34083802031D442E3308370256
:101C8000031D442E32083602031C562E3208B602BB
:101C90003308031C330FB7023408031C340FB80297
:101CA0003508031C350FB9023E140310B60DB70DED
:101CB000B80DB90DC20B312E4108A3004008A20097
:101CC0003F08A1003E08A0004308A4004408A50066
:101CD000A5272308B5002208B4002108B300200876
:101CE000B2000800F1270A128A1503102E0D2F0DDD
:101CF000B100B108031D812EA801A901AA01AB0101
:101D00000800F1270A128A151F300310AF0CAE0C21
:101D1000AD0CAC0CFF3E031D852E2C08B000963098
:101D2000AA17AB01B102B11FA22E3108803A973E2B
:101D3000031C7C2E0310AB0CAA0CA90CA80CB10F31
:101D40009A2EB02E2030310203187C2EB1080319D0
:101D5000B02E0310A80DA90DAA0DAB0DB103A62E30
:101D6000300803190800A809A909AA09AB09A80A9B
:101D70000319A90A0319AA0A0319AB0A0800B60134
:101D8000B31FC82EB209B309B20A0319B30AB60ABF
:101D90003208A0003308A1009630A201A301A400DC
:101DA0003608A500A5272308B5002208B40021089D
:101DB000B3002008B20008008030EA066A08DB00A1
:101DC0006908DA006808D9006708D8006E08DF00E3
:101DD0006D08DE006C08DD006B08DC000A128A1159
:101DE0002A215B08EA005A08E9005908E800580867
:101DF000E70008002030CC01C800A61F032F3030B8
:101E0000A609A60AC8002508F300F4012408F60074
:101E10002308F50081270A128A157308CB000A30BF
:101E20004B024B08C900031C172F3730182F3030D6
:101E3000CA01C9070318CA0A4C08283E8400490889
:101E400083138000CC0A2508F300F4012408F6006F
:101E50002308F50057270A128A157408A40073088E
:101E6000A30024040319392F032F4808CF250A1291
:101E70008A15831203134C08803AA7002608A6038C
:101E8000803AA702031C352F4C08803A7F3E031C82
:101E900008004C08FF3E283E840083130008CF252D
:101EA0000A128A1583120313CC03442F0800A101E0
:101EB000A2017408730403197C2FA001A00AF41B6B
:101EC000652F0310F30DF40D5E2F0310A10DA20D6D
:101ED00074087602031D6E2F73087502031C782F99
:101EE0007308F5027408031CF603F60221140310AC
:101EF000F40CF30CA00B652F2208F4002108F3006A
:101F00000800740873040319A02FF701F70AF41BE3
:101F10008D2F0310F30DF40D862F74087602031D28
:101F2000932F73087502031C9C2F7308F502740825
:101F3000031CF603F6020310F40CF30CF70B8D2FC1
:101F40007608F4007508F300080024080319AE2F82
:101F50002308220421042004031DB92FA001A1019C
:101F6000A201A3010800A40A0310A30CA20CA10C57
:101F7000A00CFE3023050319CB2FB32FA40AA00A0F
:101F80000319A10A0319A20A0319A30A0310A30C37
:101F9000A20CA10CA00CFF3023050319D62FBE2FD5
:101FA000A4030310A00DA10DA20DA30DA21FD02FFD
:101FB0002418DD2F7F30A205FF300310A40C240865
:101FC000F600F501F401F3017308A0047408A104FC
:101FD0007508A2047608A3042508031DA3170800AA
:101FE00008002808AC002908AD002A08AE002B081C
:101FF000AF000800A3001030A500FC30A6000800C8
:1020000010308A000408840A820700340034003447
:1020100080343F341834723431343F34F034FD347A
:1020200075343E344734583463343D345834953431
:102030001D343C348234C434AE343A34A834783459
:1020400021343934EF34933480343734A03492342B
:10205000A73435344634563415343434003400341F
:1020600000340034C434FF347F343F348034EF34E0
:10207000FF34BE349034E134A9343E34EC3482343D
:102080007634BE348234AD342B343E340E343C349A
:10209000C334BD348734D13413343D3441347834BF
:1020A000D334BB342D3420344334203428345534D5
:1020B0006E34693474343A3420344634293420344C
:1020C0002D3400342D3420344C342034283455340D
:1020D0006E34693474343A3420344834293420342A
:1020E0002D3400340D340A344334433461346C34B9
:1020F0003D3400340D340A34463431343D34003438
:102100000D340A34463432343D3400340D340A344C
:10211000463433343D3400344634723465347134DB
:102120003D340034433469346E343D340034763405
:10213000613472343D3400340D340A340034FF3FCE
:10222000FF3FFF3FFF3FFF3FFF3FFF3FF600013013
:10223000F4020030031CF503F502740A0319750A51
:102240000319080076088400831700080A128A150B
:102250004E240A168A11F60A1729831607138717C0
:102260001F301815990018138312181383161812AB
:1022700083129817181683160C1298160B17FA016A
:10228000F9018312EF01F8010800DC30F801F901CF
:10229000FA01EF0183138400E7300A128A11F22752
:1022A0000A168A11903083178400D1300A128A11DD
:1022B000F22783010A168A11C529F500F4000F30B0
:1022C000F40583128101F51E68298B2181166A2984
:1022D0008B218112751E6F298B21011671298B218B
:1022E0000112740803198429F40803197A298B212F
:1022F00081157C298B218111FF307407F3000108BF
:102300007306F839730681000B11F51F89298B16A6
:1023100008008B12080083160313080083120313AE
:102320008C1EA5297808903E84001A088317800027
:10233000780A8316E6000F30E605660883126F06FA
:102340000319A52983166608F80083120C1EBC2900
:1023500083160C1EBC297A08A03E8400831700084F
:1023600083129900FA0A0F30FA057A087906831663
:1023700003190C1283120C1272088A00710884006F
:10238000700E8300FE0E7E0E09008316E001E1014F
:10239000E201E3016308DF006208DE006108DD009E
:1023A0006008DC005D080317E40003135C080317F2
:1023B000E3006408E2006308E100FF300313E70074
:1023C00044300317E0007A30DF000530DE01DD0124
:1023D00003139C00CF3085000F30860568300A1645
:1023E0008A115D210A168A11831603138112B330F4
:1023F00087008312871583160711831207110715AB
:102400008316071687128312871232300A128A1136
:1024100050200A168A11871632300A128A1150206B
:102420000A168A11871232300A128A1150200A16AF
:102430008A11871632300A128A1150200A168A1120
:1024400087120A168A112D210A168A11C0308B04B0
:1024500005300A128A1150200A168A110A128A11AE
:1024600011200A168A11003083120313071A013053
:102470008316DB0067060319532AE708031D422A67
:102480005D30432A4D30DA000A128A1537240A16C5
:102490008A1197300A128A1537240A168A11831670
:1024A00003135B08E700670803195C2A0A128A1500
:1024B0000D200A168A11612A0A128A1109220A16A7
:1024C0008A1101300A128A11FB270A168A111E305E
:1024D0000A128A1150200A168A1100300A128A1133
:1024E000FB270A168A1114300A128A1150200A1684
:1024F0008A11332A3D08B7003C08B6003B08B500F6
:102500003A08B400F2233708C1003608C000350885
:10251000BF003408BE003E308312C800DE30C70062
:102520005B30C600D930C500831641088312CC0049
:10253000831640088312CB0083163F088312CA001B
:1025400083163E088312C9000A128A113E254808E4
:102550008316BD00831247088316BC008312460809
:102560008316BB00831245088316BA000800D10108
:102570004808470446044504031DDC2A8312A001D1
:10258000A101A201A30183164C088312A7008316A0
:102590004B088312A60083164A088312A5008316EF
:1025A00049088312A4000A128A11BE258316C501A8
:1025B000C601C701C80108004C084B044A0449047D
:1025C000031DEA2A3F30C8008030C7000030C60132
:1025D000C501080048088312A30083164708831228
:1025E000A200831646088312A100831645088312B1
:1025F000A000A401A501A601A7010A128A11BE2507
:102600000A168A110318722B83164C088312AB002A
:1026100083164B088312AA0083164A088312A90066
:10262000831649088312A8000A128A1572260A1610
:102630008A112B088316D50083122A088316D4002A
:10264000831229088316D300831228088316D20028
:1026500055088312A900831654088312A800831614
:1026600053088312A700831652088312A600DB23A7
:102670000A168A1183164C0883122906031D502B53
:1026800083164B0883122806031D502B83164A0815
:1026900083122706031D502B831649088312260632
:1026A0000319582B8316C501C601C701C8010800CC
:1026B00083165208D1000130D1054808F6004708BA
:1026C000F5004608F4004508F3000A168A11A12611
:1026D0000A168A117608C8007508C7007408C60073
:1026E0007308C50083164808B7004708B6004608B7
:1026F000B5004508B400F2233708D0003608CF00F3
:102700003508CE003408CD004C088312C80083166B
:102710004B088312C70083164A088312C60083162B
:1027200049088312C500831650088312CC00831613
:102730004F088312CB0083164E088312CA008316FB
:102740004D088312C9000A128A113E250A168A1101
:1027500048088316BD00831247088316BC00831205
:1027600046088316BB00831245088316BA000A1672
:102770008A1109250A168A113D08C8003C08C700BD
:102780003B08C6003A08C50051080319080048086C
:10279000F6004708F5004608F4004508F3000A165D
:1027A0008A11A1267608C8007508C7007408C600FB
:1027B0007308C50008002908A3002808A2002708FC
:1027C000A1002608A0009630A400A5010A128A15CF
:1027D000A5272308A9002208A8002108A70020088F
:1027E000A600080037088312A30083163608831258
:1027F000A200831635088312A100831634088312C1
:10280000A000A401A501A601A7010A128A11BE25F4
:102810000A168A110318122C8316B401B501B601E9
:10282000B701080083163708360435043404031D45
:102830001E2CB401B501B601B7010800BF308312E8
:10284000DB008030DA004030D901D801C800B83050
:10285000C701C601C501F70083163708F600360820
:10286000F5003508F4003408F300CA247608831212
:10287000CC007508CB007408CA007308C9000A129E
:102880008A113E250A168A114808DF004708DE0033
:102890004608DD004508DC000A128A112A210A16C2
:1028A0008A115B088316B70083125A088316B60094
:1028B000831259088316B500831258088316B40092
:1028C000FF30B807031CB9033708A7003608A60075
:1028D0003508A5003408A4002930A8000830A90054
:1028E000AA010A128A1191200A168A112708B70034
:1028F0002608B6002508B5002408B400370883125E
:10290000DB00831636088312DA008316350883123B
:10291000D900831634088312D8003F30C800313004
:10292000C7007230C6001830C500831639088312FC
:10293000B300831638088312B2000A128A15BF2624
:102940000A168A113508CC003408CB003308CA00B7
:102950003208C9000A128A113E250A168A1148084F
:10296000DF004708DE004608DD004508DC000A12EB
:102970008A112A215B088316B70083125A0883162E
:10298000B600831259088316B500831258088316BF
:10299000B40008007608750474047304031DDB2C6E
:1029A0007708840083138001840A8001F301F40115
:1029B000F501F601080076087F398312A000A10115
:1029C0000310A00DA10D7708840020088313800058
:1029D000840A21088000750D750D0139A000A10140
:1029E0007708840020088004840A2108800477087E
:1029F000840082308007840F00080318000AFF005B
:102A0000FF3E80008403760880393F38F600F513D6
:102A100008003D083C043B043A04031D172D3F30D9
:102A2000BD008030BC000030BB01BA01080044305A
:102A30008312A3003130A2007230A1001830A00030
:102A400083163D088312A70083163C088312A60054
:102A500083163B088312A50083163A088312A4004C
:102A60000A128A11BE250A168A1103183F2D7F30DB
:102A70008316BD00BC00FF30BB00BA0008008316FF
:102A80003D088312A30083163C088312A20083161C
:102A90003B088312A10083163A088312A000C430B9
:102AA000A7003A30A6004830A5008730A4000A12DB
:102AB0008A11BE250A168A110318642D8316BA01DD
:102AC000BB01BC01BD01080083163D088312A300B1
:102AD00083163C088312A20083163B088312A100D0
:102AE00083163A088312A000A401A501A601A7013C
:102AF0000A128A11BE250A168A110030031C013001
:102B00008316C40044080319962D3D08F6003C08BE
:102B1000F5003B08F4003A08F300A1267608BD0052
:102B20007508BC007408BB007308BA003F308312FC
:102B3000C800B830C700AA30C6003B30C5008316B5
:102B40003D088312CC0083163C088312CB00831609
:102B50003B088312CA0083163A088312C9000A127E
:102B60008A113E250A168A1148088316BD00831271
:102B700047088316BC00831246088316BB008312E5
:102B800045088316BA003D088312EA0083163C0804
:102B90008312E90083163B088312E80083163A0883
:102BA0008312E700282783126A08AB006908AA008D
:102BB0006808A9006708A8000A128A1572260A1672
:102BC0008A1129088316C300831228088316C200BD
:102BD00043088312B300831642088312B2000A121C
:102BE0008A15BF260A168A113508EA003408E9005A
:102BF0003308E8003208E70083163D088312EE0030
:102C000083163C088312ED0083163B088312EC0008
:102C100083163A088312EB000A128A15DC260A167C
:102C20008A116A088316BD00831269088316BC00E6
:102C3000831268088316BB00831267088316BA00E4
:102C40003D08A7003C08A6003B08A5003A08A400E0
:102C50000130A8000930A900AA010A128A119120A6
:102C60000A168A1127088312EA008316260883129F
:102C7000E900831625088312E800831624088312CE
:102C8000E700831643088312EC0083164208831280
:102C9000EB00AA260A168A116A088316BD00831261
:102CA00069088316BC00831268088316BB00831270
:102CB00067088316BA004408031908007F30C10072
:102CC000C000FF30BF00BE003D084106031D722E4C
:102CD0003C084006031D722E3B083F06031D722E62
:102CE0003A083E06031D792EBA01BB01BC01BD01A5
:102CF00008003D088312B50083163C088312B40017
:102D000083163B088312B30083163A088312B2007D
:102D10003F30B9008030B800B701B6010A128A15F9
:102D2000F92535088316BD00831234088316BC00CC
:102D3000831233088316BB00831232088316BA004D
:102D400008007608750474047304031908008030C1
:102D5000F60608006A08690468046704031DB52EB6
:102D6000E701E801E901EA0108006A087F39ED009E
:102D7000EE010310ED0DEE0D6D08EB070318EC0AE4
:102D80006E08EC07690D690D0139EB070318EC0AB1
:102D9000EC1FCF2EE701E801E901EA0108006C0809
:102DA000803AFF0081307F02031DD82E00306B0275
:102DB000031C0F2F831203136A08A3006908A200E3
:102DC0006808A1006708A000A401A501A601A70149
:102DD0000A128A11BE250A168A117F300318092F9C
:102DE0008316A300A200FF30A100A0002308F60074
:102DF0002208F5002108F4002008F300A126760837
:102E00008312EA007508E9007408E8007308E70017
:102E10000800EA00E900FF30E800E700080083123C
:102E200003136C08EE006B08ED006E0DEE0CED0C5C
:102E30006A086D0680396D06EA006B080139ED00FD
:102E4000ED0CED0C69086D067F396D06E900080090
:102E50006A08F6006908F5006808F4006708F300DE
:102E6000A430F7000A168A11CA240A168A1183169A
:102E7000A51F542F8312F727A401A501A601A701BE
:102E80000A128A11BE250A168A1103184F2FBF3065
:102E9000EA008030E9000030E801E7010800E701BE
:102EA000E801E901EA010800003025021D3003199C
:102EB00024020318080083126A08AB006908AA00FC
:102EC0006808A9006708A8000A128A1572260A165F
:102ED0008A112B08B5002A08B4002908B300280875
:102EE000B200CF270A168A1135088316A300831271
:102EF00034088316A200831233088316A1008312BC
:102F000032088316A0008312F72783162308831242
:102F1000A700831622088312A600831621088312B5
:102F2000A500831620088312A4000A128A11BE2568
:102F30000A168A110318BE2FBF30DB008030DA007A
:102F4000D901D801831623088312DF0083162208D3
:102F50008312DE00831621088312DD008316200809
:102F60008312DC000A128A112A215B08EA005A083F
:102F7000E9005908E8005808E7000800831623080C
:102F80008312EA00831622088312E90083162108BF
:102F90008312E800831620088312E7000800B601B8
:102FA000B51FDF2FB209B309B409B509B20A031975
:102FB000B30A0319B40A0319B50AB601B60A3508EB
:102FC000A3003408A2003308A1003208A000963004
:102FD000A4003608A5000A128A15A5272308B50003
:102FE0002208B4002108B3002008B20008006A08D3
:102FF000A3006908A2006808A1006708A0000800F3
:02400E0072F747
:00000001FF
