:040000000CEF00F011
:10000800FACF59F1FBCF5AF1E9CF5BF1ECEF13F0DE
:1000180000EE5DF0EA0EF66E030EF76E10EE16F0C7
:1000280033EC00F000EE00F010EE5DF02CEC00F088
:1000380004EE00F011EE00F02CEC00F00FEE70F082
:1000480010EE0FF02CEC00F0000EF86E1FEF0AF027
:10005800EE6AE550E150FCE1E250FAE112000900D5
:10006800F5CFEEFFE550E150FAE1E250F8E1120079
:1000780036C13CF137C13DF138C13EF134C1E9FF29
:1000880035C1EAFF0101EECF39F10101EECF3AF1B6
:100098000101EDCF3BF15FEC00F034C1E9FF35C160
:1000A800EAFF39C1EEFF3AC1EEFF3BC1EDFFED5269
:1000B8005EEF00F01200000E010101013C1B000E72
:1000C800010101013D1B800E010101013E1B3CC1E4
:1000D80046F13DC147F13EC148F139C143F13AC14A
:1000E80044F13BC145F1E9EC06F043C139F144C1A3
:1000F8003AF145C13BF181EF00F012000101010125
:10010800495101014A1101014B11D8B48EEF00F099
:1001180090EF00F09CEF00F0000E01010101491B77
:10012800000E010101014A1B800E010101014B1B58
:1001380049C149F14AC14AF14BC14BF1A4EF00F062
:100148001200010101012D51D8B4ADEF00F0AFEF5D
:1001580000F0B2EF00F08A84B3EF00F08A94010156
:1001680001012C390F0B010101012E6FEDEC00F09C
:100178002CC12EF1EDEC00F01200949C948EAC840E
:1001880072C0AFFFAC9CAB9CAC98AB8EAB889D9813
:10019800AC8AF28C000E446E44C042F042C046F075
:1001A80046C043F012000101066F010E0101010172
:1001B8002A6F010106510EEC01F00B0E0101066FCA
:1001C800620EE82EE5EF00F0062FE5EF00F00400E0
:1001D80012000F0E8A16010101012E39F00B8A1246
:1001E8008A86050EE82EF6EF00F004008A96850E42
:1001F800E82EFCEF00F004001200179017921794F5
:1002080017960B000E001798179A179C179E0B004D
:100218000E00120001012B6F000E010101012D6F6C
:1002280001012B512AC12CF1A5EC00F0120012009B
:100300000000803F72313FFE753E58633D951D3CB5
:10031000C5AE3A79213994803793A7355615340004
:10032000000000803FF0FFBEE2A93E8376BEAE2B08
:100330003E3CC3BDD2133D78D3BB2D204C20285565
:100340006E69743A204829202D002D20432028551D
:100350006E69743A204629202D00706C65617365C2
:1003600020776169742E2E2E00496E64756374695E
:1003700076697479200043616C6962726174696E98
:100380006700436170616369747920004C432D6D8F
:100390006574657220000D0A4343616C3D002020A6
:1003A00020202020000D0A46313D00467265713D37
:1003B000000D0A46333D000D0A46323D00524334DB
:1003C0003D0043696E3D007661723D002D2A2D008F
:1003D0006D46006E46007046007546006D48006E22
:1003E00048007548000D0A000000DD03DC03E2034D
:1003F000DF03D003D903D303D60300401454FF19FD
:1004000001010C6F000E01010101246F01010C516B
:1004100001010D6F000E01010101236F01010D515A
:10042000B5EC1DF0820E010101011D6F030E0101EB
:100430001E6FA7EC1CF02AEC13F01DC107F11EC1C2
:1004400008F107C11DF108C11EF175EC1DF01DC1B9
:100450002BF01EC12CF01FC12DF0C70E01010101B0
:10046000256F030E0101266FA9EC1FF001010101A8
:1004700007C10EF10101010108C10FF101010101E4
:10048000106B0101116B34EC1DF0A50E010101018F
:10049000256F030E0101266FA9EC1FF018C00EF1A5
:1004A00019C00FF11AC010F162EC12F001010C6FCB
:1004B000200E01010101276F01010C5132EC1FF0E8
:1004C00018C00EF119C00FF11AC010F11BC011F1C4
:1004D00034EC1DF0B70E01010101256F030E01017F
:1004E000266FA9EC1FF02EC00EF12FC00FF130C007
:1004F00010F162EC12F001010C6F200E01010101FC
:10050000276F01010C5132EC1FF02EC00EF12FC0ED
:100510000FF130C010F131C011F134EC1DF0B10E0B
:1005200001010101256F030E0101266FA9EC1FF0E7
:100530002BC00EF12CC00FF12DC010F162EC12F0A7
:1005400001010C6F200E01010101276F01010C5107
:1005500032EC1FF02BC00EF12CC00FF12DC010F1AA
:100560002EC011F134EC1DF0960E01010101256F32
:10057000030E0101266FA9EC1FF000C00EF101C0AF
:100580000FF102C010F162EC12F001010C6F200EAD
:1005900001010101276F01010C5132EC1FF000C075
:1005A0000EF101C00FF102C010F103C011F134ECE3
:1005B0001DF0E50E01010101256F030E0101266FFB
:1005C000A9EC1FF02BC03FF12CC040F12DC041F130
:1005D00018C03CF119C03DF11AC03EF1A3EC18F06F
:1005E000D8B0F5EF02F0F7EF02F0FDEF02F018C01F
:1005F0002BF019C02CF01AC02DF018C046F119C00C
:1006000047F11AC048F118C043F119C044F11AC0AB
:1006100045F169EC0CF043C103F144C104F145C15B
:1006200005F12BC046F12CC047F12DC048F12BC07D
:1006300043F12CC044F12DC045F169EC0CF043C1ED
:100640003CF144C13DF145C13EF103C139F104C162
:100650003AF105C13BF15FEC00F039C143F13AC119
:1006600044F13BC145F12EC046F12FC047F130C0E7
:1006700048F169EC0CF043C143F144C144F145C178
:1006800045F12EC046F12FC047F130C048F169EC6A
:100690000CF043C143F144C144F145C145F100C0F0
:1006A00046F101C047F102C048F169EC0CF043C1CA
:1006B00009F144C10AF145C10BF1C20E010101016A
:1006C000256F030E0101266FA9EC1FF009C10EF181
:1006D0000AC10FF10BC110F162EC12F001010C6FB5
:1006E000200E01010101276F01010C5132EC1FF0B6
:1006F00009C10EF10AC10FF10BC110F10CC111F1CA
:1007000034EC1DF0E50E01010101256F030E01011E
:10071000266FA9EC1FF009C13FF10AC140F10BC1DE
:1007200041F1C00E010101013C6F790E010101018F
:100730003D6F440E010101013E6FA3EC18F0D8B0EB
:10074000A4EF03F0A6EF03F048EF04F009C13FF176
:100750000AC140F10BC141F1E60E010101013C6FFC
:10076000730E010101013D6F490E010101013E6F50
:10077000A3EC18F0D8B0BFEF03F0C1EF03F024EF03
:1007800004F009C13FF10AC140F10BC141F12E0E45
:10079000010101013C6F6E0E010101013D6F4E0E22
:1007A000010101013E6FA3EC18F0D8B0DAEF03F0BD
:1007B000DCEF03F000EF04F06B0E01010101376F75
:1007C0006E0E01010101386F4E0E01010101396FFA
:1007D00009C134F10AC135F10BC136F141EC0EF01B
:1007E00034C109F135C10AF136C10BF101010C6FB9
:1007F000040E01010101066F01010C5122EF04F00A
:10080000240E01010101376F740E01010101386FDF
:10081000490E01010101396F09C134F10AC135F1F5
:100820000BC136F141EC0EF034C109F135C10AF1CA
:1008300036C10BF101010C6F050E01010101066FBC
:1008400001010C5146EF04F0000E01010101376F68
:100850007A0E01010101386F440E01010101396F67
:1008600009C134F10AC135F10BC136F141EC0EF08A
:1008700034C109F135C10AF136C10BF101010C6F28
:10088000060E01010101066F01010C5150EF04F049
:1008900001010C6F070E01010101066F01010C51EE
:1008A000000E01010101466FC80E01010101476FF1
:1008B000420E01010101486F09C143F10AC144F12F
:1008C0000BC145F169EC0CF043C109F144C10AF1D7
:1008D00045C10BF109C13CF10AC13DF10BC13EF12B
:1008E000A8EC14F03CC107F13DC108F107C11DF1AE
:1008F00008C11EF11AEC19F006C11DF12DEC1EF015
:10090000120001011B6F000E01010101246F0101A2
:100910001B5101011C6F000E01010101236F010138
:100920001C51B5EC1DF0690E010101011D6F030E94
:1009300001011E6FA7EC1CF02AEC13F01DC110F191
:100940001EC111F110C11DF111C11EF175EC1DF098
:100950001DC12BF01EC12CF01FC12DF02BC03FF18B
:100960002CC040F12DC041F118C03CF119C03DF13F
:100970001AC03EF1A3EC18F0D8B0C1EF04F0C3EFF9
:1009800004F0C9EF04F018C02BF019C02CF01AC005
:100990002DF018C046F119C047F11AC048F118C02F
:1009A00043F119C044F11AC045F169EC0CF043C1A0
:1009B00003F144C104F145C105F118C046F119C065
:1009C00047F11AC048F118C043F119C044F11AC0E8
:1009D00045F169EC0CF043C106F144C107F145C192
:1009E00008F12BC046F12CC047F12DC048F12BC0B7
:1009F00043F12CC044F12DC045F169EC0CF043C12A
:100A000009F144C10AF145C10BF109C13CF10AC128
:100A10003DF10BC13EF106C139F107C13AF108C100
:100A20003BF15FEC00F039C10CF13AC10DF13BC173
:100A30000EF12EC03CF12FC03DF130C03EF12EC072
:100A400039F12FC03AF130C03BF15FEC00F039C111
:100A50003CF13AC13DF13BC13EF103C139F104C162
:100A60003AF105C13BF15FEC00F039C146F13AC102
:100A700047F13BC148F10CC143F10DC144F10EC136
:100A800045F169EC0CF043C143F144C144F145C167
:100A900045F1400E01010101466F1C0E01010101EB
:100AA000476F460E01010101486F69EC0CF043C12C
:100AB00015F144C116F145C117F118C046F119C02E
:100AC00047F11AC048F118C043F119C044F11AC0E7
:100AD00045F169EC0CF043C143F144C144F145C117
:100AE00045F12EC046F12FC047F130C048F169EC06
:100AF0000CF043C143F144C144F145C145F12EC05E
:100B000046F12FC047F130C048F169EC0CF043C109
:100B100043F144C144F145C145F12BC046F12CC01D
:100B200047F12DC048F169EC0CF043C143F144C1D9
:100B300044F145C145F12BC046F12CC047F12DC011
:100B400048F169EC0CF043C143F144C144F145C1A3
:100B500045F100C046F101C047F102C048F169EC1F
:100B60000CF043C143F144C144F145C145F1EA0EE3
:100B700001010101466F1D0E01010101476F420E87
:100B800001010101486F69EC0CF043C112F144C14D
:100B900013F145C114F112C137F113C138F114C179
:100BA00039F115C134F116C135F117C136F141ECF7
:100BB0000EF034C143F135C144F136C145F1600E48
:100BC00001010101466F630E01010101476F580EDB
:100BD00001010101486F69EC0CF043C118F144C1F7
:100BE00019F145C11AF118C13FF119C140F11AC1FB
:100BF00041F1C00E010101013C6F790E01010101BB
:100C00003D6F440E010101013E6FA3EC18F0D8B016
:100C10000CEF06F00EEF06F0B0EF06F018C13FF152
:100C200019C140F11AC141F1E60E010101013C6F09
:100C3000730E010101013D6F490E010101013E6F7B
:100C4000A3EC18F0D8B027EF06F029EF06F08CEFF0
:100C500006F018C13FF119C140F11AC141F12E0E41
:100C6000010101013C6F6E0E010101013D6F4E0E4D
:100C7000010101013E6FA3EC18F0D8B042EF06F07D
:100C800044EF06F068EF06F06B0E01010101376FCB
:100C90006E0E01010101386F4E0E01010101396F25
:100CA00018C134F119C135F11AC136F141EC0EF019
:100CB00034C118F135C119F136C11AF101011B6FA8
:100CC000000E010101010F6F01011B518AEF06F0B7
:100CD000240E01010101376F740E01010101386F0B
:100CE000490E01010101396F18C134F119C135F103
:100CF0001AC136F141EC0EF034C118F135C119F1C9
:100D000036C11AF101011B6F010E010101010F6FC4
:100D100001011B51AEEF06F0000E01010101376F1A
:100D20007A0E01010101386F440E01010101396F92
:100D300018C134F119C135F11AC136F141EC0EF088
:100D400034C118F135C119F136C11AF101011B6F17
:100D5000020E010101010F6F01011B51B8EF06F0F6
:100D600001011B6F030E010101010F6F01011B51F6
:100D7000000E01010101466FC80E01010101476F1C
:100D8000420E01010101486F18C143F119C144F13C
:100D90001AC145F169EC0CF043C118F144C119F1D5
:100DA00045C11AF118C13CF119C13DF11AC13EF11A
:100DB000A8EC14F03CC110F13DC111F110C11DF1BE
:100DC00011C11EF11AEC19F00FC11DF12DEC1EF02E
:100DD0001200EBEF06F001014D0E01010101526F0F
:100DE0000101010E0101536F0101430E01010101D7
:100DF000506F0101010E0101516FA0EC1BF00101C8
:100E000001014B6F010101014D6709EF07F00BEF85
:100E100007F013EF07F046C143F147C144F148C161
:100E200045F1B9EF08F001014C0E01010101526FCB
:100E30000101010E0101536F0101460E0101010183
:100E4000506F0101010E0101516FA0EC1BF0010177
:100E50000101496F010101014C51D8B432EF07F093
:100E600034EF07F08EEF08F001014E6F060E01011E
:100E700001014A6F01014E51010101014C51010173
:100E800001014D6146EF07F048EF07F0A4EF07F0CE
:100E9000010101014D51010101014C5D01014E6F44
:100EA000190E01014E5DD8A058EF07F05AEF07F078
:100EB0006CEF07F0000E01010101436F000E01010C
:100EC0000101446F000E01010101456F4CC14DF15C
:100ED00049C14BF1A2EF07F00101D890010146375B
:100EE0000101473701014837010101014C070101A8
:100EF00001014C51010101014D19D8B482EF07F0F5
:100F000084EF07F089EF07F0010101014A2F6CEF30
:100F100007F096EF07F00101D89001014533010178
:100F2000443301014333010101014D2B0101010152
:100F30004C51010101014D63A0EF07F0A2EF07F052
:100F40008BEF07F007EF08F0010101014D5101019E
:100F500001014C19D8B4AFEF07F0B1EF07F007EF7C
:100F600008F0010101014C51010101014D5D010138
:100F70004E6F190E01014E5DD8A0C1EF07F0C3EF0F
:100F800007F0D1EF07F0000E01010101466F000EDE
:100F900001010101476F000E01010101486F07EFD8
:100FA00008F00101D89001014337010144370101E4
:100FB0004537010101014D07010101014C510101BA
:100FC00001014D19D8B4E7EF07F0E9EF07F0EEEFB4
:100FD00007F0010101014A2FD1EF07F0FBEF07F005
:100FE0000101D89001014833010147330101463323
:100FF000010101014C2B010101014C5101010101D1
:101000004D6305EF08F007EF08F0F0EF07F001017E
:1010100001014B51D8B40FEF08F011EF08F029EFA0
:1010200008F0FF0E01010101431BFF0E0101010148
:10103000441BFF0E01010101451B010E01010101CD
:101040004327000E010101014423000E01010101AB
:101050004523010101014951D8B431EF08F033EFC4
:1010600008F04BEF08F0FF0E01010101461BFF0ED7
:1010700001010101471BFF0E01010101481B010E87
:10108000010101014627000E010101014723000E65
:1010900001010101482301014E6F000E0101010110
:1010A0004B6F01014E510101010146510101010146
:1010B00043270101010147510101010144230101BD
:1010C000010148510101010145230101010145AF21
:1010D0006CEF08F06EEF08F08EEF08F0FF0E0101E4
:1010E0000101431BFF0E01010101441BFF0E010121
:1010F0000101451B010E010101014327000E010101
:1011000001014423000E01010101452301014E6F3D
:10111000010E010101014B6F01014E514DC152F110
:101120000101430E01010101506F0101010E010196
:10113000516F5FEC15F0010101014B51D8B4A3EFE1
:1011400008F0A5EF08F0B1EF08F0000E0101010171
:10115000431B000E01010101441B800E010101012E
:10116000451B43C143F144C144F145C145F1B9EFC9
:1011700008F01200010101012B5101012C110101A4
:101180002D11D8A4C6EF08F0C8EF08F0D6EF08F08C
:10119000000E010101012B6F800E010101012C6F76
:1011A0003F0E010101012D6F1EEF0AF02BC13FF12F
:1011B0002CC140F12DC141F1720E010101013C6FC2
:1011C000310E010101013D6F440E010101013E6F2D
:1011D000A3EC18F0D8B0EFEF08F0F1EF08F003EF50
:1011E00009F0220E596E000E5A6EFF0E0101010128
:1011F0002B6F7F0E010101012C6F7F0E0101010198
:101200002D6F1EEF0AF0490E010101013F6F3A0EEA
:1012100001010101406FC40E01010101416F2BC1A9
:101220003CF12CC13DF12DC13EF1A3EC18F0D8B03A
:101230001CEF09F01EEF09F030EF09F0220E596E95
:10124000000E5A6E000E010101012B6F000E01010C
:1012500001012C6F000E010101012D6F1EEF0AF03C
:10126000010101012D51800A800F07E1000E0101EB
:101270002C5D03E1000E01012B5DD8A042EF09F0C7
:1012800045EF09F0010E46EF09F0000E01010101E2
:10129000316F010101013151D8B451EF09F053EF21
:1012A00009F061EF09F02BC149F12CC14AF12DC1C0
:1012B0004BF182EC00F049C12BF14AC12CF14BC13A
:1012C0002DF1AA0E01010101366FB80E01010101D5
:1012D000376F3F0E01010101386F01012B0E010133
:1012E0000101346F0101010E0101356FCCEC1FF0DB
:1012F0002BC134F12CC135F12DC136F114EC16F0AF
:1013000034C13CF135C13DF136C13EF1A8EC14F0D9
:101310003CC132F13DC133F132C134F133C135F159
:10132000FFEC19F034C12EF135C12FF136C130F187
:101330002EC136F12FC137F130C138F101012B0E2A
:1013400001010101346F0101010E0101356F3CEC17
:1013500000F0090E01010101396F000E01013A6F21
:10136000010E01010101376F030E0101386F2BC11E
:1013700034F12CC135F12DC136F123EC18F034C114
:1013800034F135C135F136C136F132C137F133C1EF
:1013900038F195EC11F034C12BF135C12CF136C187
:1013A0002DF1010101013151D8B4D9EF09F0DBEF82
:1013B00009F016EF0AF0FF0E010101012B197F0E53
:1013C000D8B42C197F0ED8B42D19D8A4EAEF09F09F
:1013D000ECEF09F0FAEF09F0000E010101012B6FAB
:1013E000000E010101012C6F000E010101012D6FA2
:1013F0001EEF0AF02BC137F12CC138F12DC139F1A4
:10140000000E01010101346F800E01010101356FF1
:101410003F0E01010101366F41EC0EF034C12BF19A
:1014200035C12CF136C12DF11EEF0AF02BC12BF185
:101430002CC12CF12DC12DF11EEF0AF01200000E6F
:101440004E6E000E4F6E000E506E000E516E4EC06E
:1014500052F04FC053F050C054F051C055F052C03C
:1014600003F053C004F003C005F004C006F000010F
:1014700000017169000E006E7A0E016E440E026E5C
:10148000CF0E926E0101016F680E01010101036F21
:101490000101015178EC17F0F18EBB0E946E94941B
:1014A0008B948B840101016F800E01010101036F98
:1014B00001010151F2EC1DF00101016F010E01016A
:1014C0000101036F0101015103EC1FF00101016FE4
:1014D000010E01010101046F010101510101026FBF
:1014E000020E01010101036F01010251EFEC0FF047
:1014F0009488949A8B9A0101016F320E01010101C7
:10150000066F010101511BEC01F08B8A0101016F93
:10151000320E01010101066F010101511BEC01F0C6
:101520008B9A0101016F320E01010101066F010169
:1015300001511BEC01F08B8A0101016F320E010198
:101540000101066F010101511BEC01F08B9AC1EC06
:1015500000F0C00EF2120101016F000E0101010145
:10156000246F010101510101026F000E010101010F
:10157000236F01010251B5EC1DF08C0E0101010138
:10158000216F030E0101226F55EC1CF000C00EF11B
:1015900001C00FF102C010F162EC12F00101016F05
:1015A000C80E01010101066F010101511BEC01F0A0
:1015B00058EC0DF0D7EC00F082B8E1EF0AF0E4EF60
:1015C0000AF0010EE5EF0AF0000E01010101006FC3
:1015D000010101010051000100017119D8B4F3EFBC
:1015E0000AF0F5EF0AF01AEF0BF03A0E01010101D3
:1015F000256F030E0101266F000100017151D8B45F
:1016000004EF0BF006EF0BF00DEF0BF04A0E0101AB
:101610000101256F030E0101266FA9EC1FF0E50EF5
:1016200001010101256F030E0101266FA9EC1FF0D6
:1016300000C171F0000100017151D8B422EF0BF02C
:1016400024EF0BF028EF0BF000EC02F02AEF0BF088
:1016500081EC04F00101016F010E01010101036F32
:1016600001010151D2EC1EF00101016F1E0E0101BA
:101670000101066F010101511BEC01F00101016F35
:10168000000E01010101036F01010151D2EC1EF0B6
:101690000101016F140E01010101066F01010151E9
:1016A0001BEC01F0DCEF0AF00CEF00F001012A6FF7
:1016B000000E01010101256F01012A510101010103
:1016C0001F510101201101012111D8A46AEF0BF073
:1016D0006CEF0BF099EF0BF022C13FF123C140F109
:1016E00024C141F1000E010101013C6F000E010116
:1016F00001013D6F000E010101013E6FA3EC18F0E6
:10170000D8A085EF0BF087EF0BF08BEF0BF0210EDD
:10171000596E000E5A6E000E010101011F6F000E7E
:1017200001010101206F000E01010101216F68EF2D
:101730000CF00101010122510101231101012411C9
:10174000D8A4A5EF0BF0A7EF0BF0B5EF0BF0000E50
:10175000010101011F6F800E01010101206F3F0E89
:1017600001010101216F68EF0CF00101010121511C
:10177000800A800F07E1000E0101205D03E1000EE9
:1017800001011F5DD8B0C7EF0BF0C9EF0BF022EFDE
:101790000CF022C13CF123C13DF124C13EF1A8EC83
:1017A00014F03CC126F13DC127F13EC128F13FC1F3
:1017B00029F126C12BF127C12CF128C12DF129C116
:1017C0002EF18EEC19F001010101245101012D19B6
:1017D0000BE101010101235101012C1905E1010176
:1017E0000101225101012B19D8B4F9EF0BF0FBEFE5
:1017F0000BF00DEF0CF0210E596E000E5A6E000E1C
:10180000010101011F6F000E01010101206F000E97
:1018100001010101216F68EF0CF001010101265166
:10182000010B01010101256F1FC149F120C14AF1DE
:1018300021C14BF182EC00F049C11FF14AC120F1F6
:101840004BC121F11FC12BF120C12CF121C12DF180
:1018500018EC0FF02BC143F12CC144F12DC145F11F
:1018600022C146F123C147F124C148F169EC0CF0D3
:1018700043C12BF144C12CF145C12DF1BAEC08F064
:101880002BC11FF12CC120F12DC121F1010101015A
:101890002551D8B44EEF0CF050EF0CF060EF0CF087
:1018A0001FC149F120C14AF121C14BF182EC00F086
:1018B00049C11FF14AC120F14BC121F168EF0CF081
:1018C0001FC11FF120C120F121C121F168EF0CF0EF
:1018D0001200000E010101014C6F000E0101010117
:1018E0004D6F000E010101014E6F01014A0E010111
:1018F0000101526F0101010E0101536F0101430EFD
:1019000001010101506F0101010E0101516FA0ECB5
:101910001BF001010101496F01014B0E01010101A1
:10192000526F0101010E0101536F0101460E0101C9
:101930000101506F0101010E0101516FA0EC1BF07C
:1019400001010101491B010101014B51D8B4ABEF69
:101950000CF0ADEF0CF0B6EF0CF0010101014A679D
:10196000B4EF0CF0B6EF0CF0BEEF0CF04CC143F14D
:101970004DC144F14EC145F157EF0DF00101010198
:101980004B517B0F010101014A2701014F6F070EE7
:10199000010101014B6F01014F510101010143A1FF
:1019A000D4EF0CF0D6EF0CF0E8EF0CF001010101E0
:1019B0004651010101014C2701010101475101017B
:1019C00001014D23010101014851010101014E2393
:1019D0000101D89001014533010144330101433332
:1019E0000101D8900101463701014737010148370D
:1019F000010101014B2FCDEF0CF001014F6F090EDA
:101A0000010101014B6F01014F510101010143A18E
:101A10000CEF0DF00EEF0DF020EF0DF001010101C4
:101A20004651010101014C2701010101475101010A
:101A300001014D23010101014851010101014E2322
:101A40000101D890010145330101443301014333C1
:101A50000101D89001014E3301014D3301014C3396
:101A6000010101014B2F05EF0DF04AC152F10101B7
:101A70004C0E01010101506F0101010E0101516F76
:101A80005FEC15F0010101014951D8B44AEF0DF0A6
:101A90004CEF0DF04FEF0DF0010101014E8F4CC1E5
:101AA00043F14DC144F14EC145F157EF0DF0120025
:101AB000D7EC00F00101046F000E01010101246F59
:101AC000010104510101056F000E01010101236FA5
:101AD00001010551B5EC1DF0760E010101011D6FEC
:101AE000030E01011E6FA7EC1CF00101046F010E33
:101AF00001010101246F010104510101056F000E74
:101B000001010101236F01010551B5EC1DF0E50E46
:101B100001010101256F030E0101266FA9EC1FF0E1
:101B20005A0E010101011D6F030E01011E6FA7EC8A
:101B30001CF08B9A2AEC13F01DC11DF11EC11EF181
:101B400075EC1DF01DC118F01EC119F01FC11AF06F
:101B50000101046F320E01010101066F0101045100
:101B60001BEC01F02AEC13F01DC11DF11EC11EF18A
:101B700075EC1DF01DC118F01EC119F01FC11AF03F
:101B80008B8A2AEC13F01DC11DF11EC11EF175ECEC
:101B90001DF01DC12EF01EC12FF01FC130F001013C
:101BA000046F320E01010101066F010104511BECAB
:101BB00001F02AEC13F01DC11DF11EC11EF175ECE0
:101BC0001DF01DC12EF01EC12FF01FC130F08B9AE9
:101BD0000101046F000E01010101246F0101045194
:101BE0000101056F0B0E01010101236F0101055178
:101BF000B5EC1DF00101046F000E01010101036F3E
:101C000001010451050E0101010103650AEF0EF007
:101C10000CEF0EF00EEF0EF037EF0EF00101046F37
:101C2000010E010101012D6F010104510101056F38
:101C30003D0E010101012C6F01010551A5EC00F0E1
:101C40000101046F1C0E01010101066F0101045125
:101C50001BEC01F001010101032B050E0101010143
:101C6000036535EF0EF037EF0EF00EEF0EF0E50ED8
:101C700001010101256F030E0101266FA9EC1FF080
:101C80001200000E010101013E6F000E0101010171
:101C90003F6F000E01010101406F01013C0E010187
:101CA0000101526F0101010E0101536F0101340E58
:101CB00001010101506F0101010E0101516FA0EC02
:101CC0001BF0010101013B6F010101013C676BEF5A
:101CD0000EF06DEF0EF075EF0EF03EC134F13FC126
:101CE00035F140C136F117EF0FF001013A0E010155
:101CF0000101526F0101010E0101536F0101370E05
:101D000001010101506F0101010E0101516FA0ECB1
:101D10001BF0010101013D6F010101013A6793EFE1
:101D20000EF095EF0EF09DEF0EF03EC134F13FC185
:101D300035F140C136F117EF0FF0010101013A51C1
:101D4000890F010101013C5F010101013D510101C8
:101D500001013B1B0101416F180E010101013D6FA3
:101D6000010141510101D89001013E3701013F3786
:101D70000101403701010101375101010101345DC9
:101D80000101010138510101010135590101010130
:101D90003951010101013659D8A0D1EF0EF0D3EF2E
:101DA0000EF0E8EF0EF001010101375101010101D0
:101DB000345F01010101385101010101355B01016D
:101DC0000101395101010101365B010101013E812F
:101DD0000101D8900101343701013537010136374F
:101DE000010101013D2FB2EF0EF03CC152F10101A2
:101DF0003E0E01010101506F0101010E0101516F01
:101E00005FEC15F0010101013B51D8B40AEF0FF06E
:101E10000CEF0FF00FEF0FF001010101408F3EC1F9
:101E200034F13FC135F140C136F117EF0FF0120028
:101E3000010101012D51800A800F07E1000E01010F
:101E40002C5D03E1000E01012B5DD8B02AEF0FF0ED
:101E50002CEF0FF03EEF0FF0210E596E000E5A6E70
:101E6000000E010101012B6F000E010101012C6F19
:101E7000000E010101012D6FEEEF0FF001010101D4
:101E80002B5101012C1101012D11D8A44AEF0FF0A3
:101E90004CEF0FF05EEF0FF0220E596E000E5A6EEF
:101EA000000E010101012B6F000E010101012C6FD9
:101EB000000E010101012D6FEEEF0FF001012E0E5A
:101EC000010101013F6F0101010E0101406F2BC1B2
:101ED0003CF12CC13DF12DC13EF16EEC1AF03CC13C
:101EE00043F13DC144F13EC145F1000E0101010144
:101EF000466F000E01010101476F400E0101010113
:101F0000486F69EC0CF043C143F144C144F145C151
:101F100045F1000E01010101466F800E0101010132
:101F2000476FBF0E01010101486FE9EC06F043C1A4
:101F30002BF144C12CF145C12DF1010101012E0706
:101F4000D8A02F07080E01010101396F000E010111
:101F50003A6F1F0E01010101376F030E0101386F47
:101F60002BC134F12CC135F12DC136F123EC18F021
:101F700034C12BF135C12CF136C12DF12EC134F114
:101F80002FC135F1FFEC19F034C143F135C144F1F3
:101F900036C145F1720E01010101466F310E01019A
:101FA0000101476F3F0E01010101486F69EC0CF020
:101FB00043C143F144C144F145C145F12BC146F150
:101FC0002CC147F12DC148F1E9EC06F043C12BF1DA
:101FD00044C12CF145C12DF1EEEF0FF01200010EBE
:101FE000010101010365F7EF0FF0F9EF0FF0FAEFD0
:101FF0000FF0418603C149F0010101010451D8B439
:1020000004EF10F006EF10F011EF10F001010101E4
:102010000305D8A40EEF10F010EF10F011EF10F040
:1020200041844E0E0101056FEB0EE82E15EF10F006
:10203000052F15EF10F08A948A9641B822EF10F020
:1020400024EF10F061EF10F00101056F030E0101A4
:1020500001012E6F01010551EDEC00F01A0E010196
:10206000056FF80EE82E32EF10F0052F32EF10F06A
:1020700004000101056F030E010101012E6F010132
:102080000551EDEC00F0C80EE82E44EF10F0010110
:10209000056F030E010101012E6F01010551EDECE9
:1020A00000F0C80EE82E52EF10F00101056F020E8D
:1020B000010101012E6F01010551EDEC00F08CEFE3
:1020C00010F041502009010101012A6F0EEC01F0CE
:1020D0001A0E0101056FF80EE82E6CEF10F0052FB7
:1020E0006CEF10F0040041502009010101012A6F3A
:1020F0000EEC01F01A0E0101056FF80EE82E7EEFCE
:1021000010F0052F7EEF10F004004150200901016E
:1021100001012A6F0EEC01F041502009010101017B
:102120002A6F0EEC01F00101056F040E476E0101EC
:10213000055147500809010101012A6F0EEC01F019
:102140000101056F010E010101012A6F0101055115
:102150000EEC01F00B0E0101056F620EE82EAEEFE2
:1021600010F0052FAEEF10F004000101056F020E14
:10217000486E0101055148500409010101012A6F0F
:102180000EEC01F0120001014C6F000E0101010183
:102190002B6F01014C5101014C6F200E0101010117
:1021A000296F01014C510101010126AFDAEF10F056
:1021B000DCEF10F0E7EF10F001010101266D0101E5
:1021C0004C6F300E01010101296F01014C510101D9
:1021D000010125C14FF101010101506B23C14DF1F6
:1021E00024C14EF1FDEC1BF0010101014D51010133
:1021F00001012A6F370E010101012A2501010101A8
:10220000276F0101286B000E010128230A0E01012E
:1022100001012A610EEF11F010EF11F01CEF11F027
:10222000300E010101012A2501010101276F010181
:10223000286B000E0101282301012C0E0101010170
:102240002B25E96EEA6A0101010EEA22010127C18C
:10225000EFFF010101012B2B0101010125C14FF10C
:1022600001010101506B23C14DF124C14EF1DAECA3
:102270001AF04DC123F14EC124F101010101245195
:102280002311D8A446EF11F048EF11F0E7EF10F05A
:102290004EEF11F029C14DF1F1EC1CF001010101EB
:1022A0002B51800A01014C6F010101012607010138
:1022B0002629800A01014C5DD8A061EF11F063EF7F
:1022C00011F04AEF11F0010101012B51800A7F0F3B
:1022D000D8B06DEF11F06FEF11F071EF11F094EFD6
:1022E00011F02BC14CF1FF0E01014C2701012C0E06
:1022F00001014C25E96EEA6A0101010EEA22EF5064
:10230000010101014D6FF1EC1CF0010101012B07EE
:10231000010101012B51800A7F0FD8B092EF11F01B
:1023200094EF11F071EF11F012000101010134512D
:102330000101351101013611D8A4A1EF11F0A3EF6D
:1023400011F0B1EF11F0000E01010101346F000E28
:1023500001010101356F000E01010101366F61EFCE
:1023600012F0010136517F0B0101396FD890010144
:10237000393501013A6F01013B6B01013B37010126
:102380003A5101010101372701013B5101010101CE
:10239000382301013535E836010B0101396F0101A0
:1023A0003951010101013727000E010138230101D4
:1023B000010138AFDEEF11F0E0EF11F0F2EF11F0B4
:1023C000220E596E000E5A6E000E01010101346F8B
:1023D000000E01010101356F000E01010101366F90
:1023E00061EF12F0010101013851800A7F0F000EE8
:1023F000D8B4375DD8A0FFEF11F001EF12F035EF40
:1024000012F0220E596E000E5A6E01010101365172
:10241000800A800F07E1000E0101355D03E1000E27
:102420000101345DD8B017EF12F019EF12F027EF69
:1024300012F0FF0E01010101346F7F0E0101010155
:10244000356FFF0E01010101366F61EF12F0FF0ED3
:1024500001010101346F7F0E01010101356F7F0E13
:1024600001010101366F61EF12F001010101383500
:102470000101383101013A6F0101010137310101D8
:10248000396F0101365101013919800B39190101E8
:10249000366F37C139F1010E0101391701013933A6
:1024A000393301013551010139197F0B3919010106
:1024B000356F34C134F135C135F136C136F161EFD4
:1024C00012F012000EC11FF10FC120F110C121F155
:1024D0005FEC1FF01FC13CF120C13DF121C13EF175
:1024E000A8EC14F03CC119F13DC11AF10EEF13F044
:1024F00019C134F11AC135F1FFEC19F034C122F1E0
:1025000035C123F136C124F1000E010101011F6F15
:10251000200E01010101206F410E01010101216F17
:1025200056EC0BF01FC11BF120C11CF121C11DF1A4
:102530001BC137F11CC138F11DC139F10EC134F195
:102540000FC135F110C136F141EC0EF034C134F158
:1025500035C135F136C136F114EC16F034C13CF119
:1025600035C13DF136C13EF1A8EC14F03CC117F184
:102570003DC118F117C134F118C135F1FFEC19F064
:1025800034C111F135C112F136C113F111C143F15A
:1025900012C144F113C145F11BC146F11CC147F101
:1025A0001DC148F169EC0CF043C114F144C115F1AF
:1025B00045C116F114C136F115C137F116C138F114
:1025C00001010E0E01010101346F0101010E010133
:1025D000356F3CEC00F0010101011751300F010192
:1025E00001014D6FF1EC1CF0010101011A511911AB
:1025F000D8A4FDEF12F0FFEF12F009EF13F0010184
:102600001E6F2E0E010101014D6F01011E51F1ECF3
:102610001CF0010101011907D8A01A070EC13FF1F2
:102620000FC140F110C141F1000E010101013C6FE9
:10263000000E010101013D6F340E010101013E6FE9
:10264000A3EC18F0D8A027EF13F029EF13F078EFE0
:1026500012F01200F2949298680E0101216FE40EBC
:10266000E82E30EF13F0212F30EF13F00400000EAE
:10267000D66E000ED76E340E0101216FF10EE82EDA
:102680003FEF13F0212F3FEF13F000D0340E010184
:10269000216FF10EE82E4AEF13F0212F4AEF13F0CD
:1026A00000D0340E0101216FF10EE82E55EF13F02A
:1026B000212F55EF13F000D0340E0101216FF10EE0
:1026C000E82E60EF13F0212F60EF13F000D0340EEE
:1026D0000101216FF10EE82E6BEF13F0212F6BEF4C
:1026E00013F000D0340E0101216FF10EE82E76EFC9
:1026F00013F0212F76EF13F000D0340E0101216F7B
:10270000F10EE82E81EF13F0212F81EF13F000D0AE
:10271000340E0101216FF10EE82E8CEF13F0212F02
:102720008CEF13F000D0340E0101216FF10EE82E72
:1027300097EF13F0212F97EF13F000D0340E010123
:10274000216FF10EE82EA2EF13F0212FA2EF13F06C
:1027500000D0928842EC1BF023C11FF124C120F16C
:102760000101216F010E01010101246F01012151BD
:102770000101226F000E01010101236F01012251AD
:10278000B5EC1DF001EC01F0AB0E01010101236F6E
:10279000030E0101246F84EC1FF00101216F050E6F
:1027A00001010101266F010121510101226F0A0E71
:1027B00001010101256F010122511FC123F120C137
:1027C00024F1C3EC10F0A1EC1EF01FC11DF120C1DB
:1027D0001EF1EBEF13F01200EACF5CF1E1CF5DF1F7
:1027E000E2CF5EF1D9CF5FF1DACF60F1F3CF61F1E3
:1027F000F4CF62F1F6CF63F1F7CF64F1F8CF65F172
:10280000F5CF66F19EA207EF14F009EF14F04BEF3D
:1028100014F0010E0626A00E055C0F0E0658D8A077
:1028200014EF14F016EF14F04AEF14F0A00E055E4A
:102830000F0E065A034A042A8B94410E035C030EC2
:102840000458D8B026EF14F029EF14F0010E2AEF47
:1028500014F0000E0101586F0101D89058370101A2
:10286000D89058358B12E80E035C030E0458D8A09C
:102870003CEF14F03EEF14F04AEF14F0010E4E2638
:10288000000E4F22000E5022000E5122E80E035E71
:10289000030E045A9E929EAA50EF14F052EF14F0C9
:1028A00068EF14F0310E4324E96EEA6A000EEA2262
:1028B000AECFEFFF43280F0B456E45504618D8B4F6
:1028C00064EF14F066EF14F068EF14F045C043F0C5
:1028D0009EA86DEF14F06FEF14F08BEF14F09DA82D
:1028E00074EF14F076EF14F08BEF14F01B0E442409
:1028F000E96EEA6A000EEA22EF50AD6E442A0F0E2E
:1029000044164250446287EF14F089EF14F08AEFC6
:1029100014F09D989E9866C1F5FF65C1F8FF64C1EB
:10292000F7FF63C1F6FF62C1F4FF61C1F3FF60C14D
:10293000DAFF5FC1D9FF5EC1E2FF5DC1E1FF5CC1AB
:10294000EAFF5BC1E9FF5AC1FBFF59C1FAFF110061
:102950000101410E01010101526F0101010E01014E
:10296000536F01013C0E01010101506F0101010E85
:102970000101516FA0EC1BF001010101406F010149
:1029800001013C5101010101426F010101013D5171
:102990000101436F01013E510101446F0101456B8B
:1029A0008E0E01010101415F0101010141AFDBEF29
:1029B00014F0DDEF14F009EF15F0010101014151B0
:1029C000800A8F0FD8B0E7EF14F0E9EF14F0F8EFBA
:1029D00014F0000E010101013C6F000E01013D6F7A
:1029E000000E01013E6F000E01013F6F5EEF15F01A
:1029F0000101D89001014533010144330101433302
:102A00000101423301010101413FF8EF14F03AEFB7
:102A100015F01F0E01010101416511EF15F013EFD3
:102A200015F022EF15F0000E010101013C6F000EC0
:102A300001013D6F000E01013E6F000E01013F6F6D
:102A40005EEF15F031EF15F00101D890010142372A
:102A500001014337010144370101453701010101FB
:102A6000410701010101416738EF15F03AEF15F018
:102A700024EF15F0010101014051D8B442EF15F0E7
:102A800044EF15F054EF15F001010101451F01015C
:102A9000441F0101431F0101426D000E0101432348
:102AA000010144230101452342C13CF143C13DF1F1
:102AB00044C13EF145C13FF15EEF15F01200010146
:102AC00001015251D8B467EF15F069EF15F077EFB7
:102AD00015F050C1E9FF51C1EAFFEE50EE10ED10C4
:102AE000D8A475EF15F077EF15F084EF15F050C10D
:102AF000E9FF51C1EAFF000EEE6E000EEE6E000E11
:102B0000ED6EED5213EF16F093EF15F00101010198
:102B1000522B50C1E9FF51C1EAFFEC52EC52D89060
:102B2000ED32ED32EF3250C1E9FF51C1EAFFEE5212
:102B3000EE52FE0EED14D8A4A0EF15F0A2EF15F0A2
:102B400086EF15F0BAEF15F001010101522B50C1CB
:102B5000E9FF51C1EAFFEE2A000EEE22ED22ED520E
:102B600050C1E9FF51C1EAFFEC52EC52D890ED326E
:102B7000ED32EF3250C1E9FF51C1EAFFEE52EE52A1
:102B8000FF0EED14D8A4C7EF15F0C9EF15F0A4EFB0
:102B900015F0D7EF15F001010101520750C1E9FF0F
:102BA00051C1EAFFD890EE36EE36ED36ED5250C107
:102BB000E9FF51C1EAFFEECF53F1EECF54F1EECF72
:102BC00055F1010154AFE7EF15F0E9EF15F0CBEF48
:102BD00015F00101010152B1F0EF15F0F2EF15F01F
:102BE000FDEF15F050C1E9FF51C1EAFFFF0EEE16EF
:102BF0007F0EEE16FF0EED16ED520101D890523306
:102C00000101010152510101556F546B536B50C1C9
:102C1000E9FF51C1EAFF01015351EE125451EE1286
:102C20005551ED12ED5212000101370E0101010163
:102C30003F6F0101010E0101406F34C13CF135C10C
:102C40003DF136C13EF16EEC1AF00101010138AFE1
:102C50002CEF16F02EEF16F05EEF16F001010101D9
:102C60003651800A800F07E1000E0101355D03E156
:102C7000000E0101345DD8B040EF16F042EF16F0BF
:102C800050EF16F0000E01010101346F800E0101BA
:102C90000101356FBF0E01010101366FC5EF16F05E
:102CA000000E01010101346F000E01010101356FB9
:102CB000000E01010101366FC5EF16F0150E01017E
:102CC0000101375D000E01013859D8A06AEF16F0F6
:102CD0006CEF16F074EF16F034C134F135C135F1F4
:102CE00036C136F1C5EF16F034C13CF135C13DF1C6
:102CF00036C13EF1A8EC14F03CC13CF13DC13DF1C0
:102D00003EC13EF13FC13FF1C6EC16F03CC139F186
:102D10003DC13AF13EC13BF139C13FF13AC140F109
:102D20003BC141F134C13CF135C13DF136C13EF109
:102D3000A3EC18F0D8B09FEF16F0A1EF16F0BDEF9E
:102D400016F0000E01010101466F800E0101010124
:102D5000476FBF0E01010101486F39C143F13AC10C
:102D600044F13BC145F1E9EC06F043C134F144C103
:102D700035F145C136F1C5EF16F039C134F13AC12C
:102D800035F13BC136F1C5EF16F0120001013F519C
:102D90003C113D113E11D8A4D0EF16F0D2EF16F041
:102DA000E0EF16F0000E010101013C6F000E010181
:102DB00001013D6F000E010101013E6F77EF17F039
:102DC0000101456F000E01010101406F01014551F4
:102DD000010101013FAFEFEF16F0F1EF16F009EF3F
:102DE00017F0010101013F1F01013E1F01013D1FBD
:102DF00001013C6D000E01013D2301013E23010153
:102E00003F230101456F010E01010101406F0101E6
:102E100045510101456F8E0E01010101416F010114
:102E2000455120EF17F00101D89001013F33010116
:102E30003E3301013D3301013C3301010101412BCE
:102E4000000E010101013C150101456F000E010159
:102E500001013D150101466F000E010101013E1502
:102E60000101476FFF0E010101013F150101486F8C
:102E700001014851451146114711D8A442EF17F0FE
:102E800044EF17F013EF17F03CC142F13DC143F19D
:102E90003EC144F141C152F10101420E0101010163
:102EA000506F0101010E0101516F5FEC15F001013E
:102EB00001014051D8B45FEF17F061EF17F06FEFE9
:102EC00017F042C149F143C14AF144C14BF182ECD0
:102ED00000F049C142F14AC143F14BC144F142C142
:102EE0003CF143C13DF144C13EF177EF17F01200D0
:102EF0000101010103510F0B01010101096F000ED6
:102F0000D66E000ED76E01010A6F000E010101019D
:102F1000046F01010A510101010103AB92EF17F0A7
:102F200094EF17F09CEF17F001010A6F200E0101DA
:102F30000101046F01010A51010101010451D5127F
:102F400001010A6F000E01010101056F01010A5123
:102F50000101010103A9AFEF17F0B1EF17F0B9EFCD
:102F600017F001010A6F100E01010101056F010147
:102F70000A51010101010551D51201010A6F000E2C
:102F800001010101066F01010A510101010103ADB7
:102F9000CCEF17F0CEEF17F0D6EF17F001010A6F64
:102FA000400E01010101066F01010A5101010101F9
:102FB0000651D51201010101076901010101095101
:102FC000D8B4E5EF17F0E7EF17F0EFEF17F00101D6
:102FD0000A6FF70E01010101076F01010A5101019A
:102FE00001010751D516F80ED5160101010109514D
:102FF000D8B4FDEF17F0FFEF17F004EF18F0010160
:1030000001010905070BD512F29C01010A6F000EA0
:1030100001010101086F01010A510101010103AF22
:1030200014EF18F016EF18F01EEF18F001010A6FF8
:10303000200E01010101086F01010A510101010186
:103040000851F2121200010101013951030DF35030
:1030500001010101372501013E6FE86AF3BEE8680E
:1030600001010101382101013F6F3EC1F6FF3FC15F
:10307000F7FF0900F5CF40F10900F5CF41F1090054
:10308000F5CF42F140C13BF141C13CF142C13DF1BC
:103090008FEF18F03BC146F13CC147F13DC148F10B
:1030A00034C143F135C144F136C145F169EC0CF04E
:1030B00043C143F144C144F145C145F1010101015E
:1030C0003907D8A03A0701013951030DF350010126
:1030D0000101372501013E6FE86AF3BEE86801018E
:1030E0000101382101013F6F3EC1F6FF3FC1F7FFEB
:1030F0000900F5CF40F10900F5CF41F10900F5CF06
:1031000042F140C146F141C147F142C148F1E9EC09
:1031100006F043C13BF144C13CF145C13DF1010121
:1031200001013A513911D8A498EF18F09AEF18F02C
:103130004AEF18F03BC134F13CC135F13DC136F1E5
:10314000A2EF18F01200010101013EAFAAEF18F042
:10315000ACEF18F0C8EF18F0000E426F000E436F8E
:10316000800E446F010101013C510101425D0101EA
:1031700001013C6F010101013D5101014359010170
:103180003D6F010101013E510101445901013E6FB2
:103190000101010141AFCFEF18F0D1EF18F0EDEFD1
:1031A00018F0000E426F000E436F800E446F010155
:1031B00001013F510101425D010101013F6F010128
:1031C00001014051010143590101406F0101010119
:1031D0004151010144590101416F000E01010101FA
:1031E0003C1B000E010101013D1B800E010101018C
:1031F0003E1B000E010101013F1B000E01010101F8
:10320000401B800E01010101411B010101013F51E1
:10321000010101013C5D0101010140510101010178
:103220003D59010101014151010101013E5919EFCF
:1032300019F0120001011F6F000E01010101246F3E
:1032400001011F510101206F090E01010101236FCE
:1032500001012051B5EC1DF09F0E01010101216F0C
:10326000030E0101226F55EC1CF001011F6F000ECF
:1032700001010101246F01011F510101206F090E9D
:1032800001010101236F01012051B5EC1DF0640E15
:10329000010101014F6F000E0101506F1DC14DF181
:1032A0001EC14EF1DAEC1AF04DC123F14EC124F1EA
:1032B00001011F6F000E01010101266F01011F5165
:1032C0000101206F0A0E01010101256F010120514A
:1032D000C3EC10F0640E010101014F6F000E0101FB
:1032E000506F1DC14DF11EC14EF1FDEC1BF04DC1E3
:1032F00023F14EC124F101011F6F000E01010101F4
:10330000266F01011F510101206F0A0E0101010109
:10331000256F01012051C3EC10F0120001012E5164
:103320002B112C112D11D8A498EF19F09AEF19F048
:10333000A8EF19F0000E010101012B6F000E010131
:1033400001012C6F000E010101012D6FFEEF19F03C
:103350000101336F8E0E010101012F6F0101335105
:10336000BFEF19F00101D89001012E3301012D3377
:1033700001012C3301012B33010101012F2B000E20
:10338000010101012B150101336F000E0101010143
:103390002C150101346F000E010101012D150101F1
:1033A000356FFF0E010101012E150101366F01017C
:1033B0003651331134113511D8A4E1EF19F0E3EF90
:1033C00019F0B2EF19F02BC130F12CC131F12DC140
:1033D00032F12FC152F10101300E01010101506F94
:1033E0000101010E0101516F5FEC15F030C12BF1AD
:1033F00031C12CF132C12DF1FEEF19F012000101A3
:10340000010135513411D8A408EF1AF00AEF1AF06F
:1034100018EF1AF0000E01010101346F000E0101D6
:103420000101356F000E01010101366F6DEF1AF0D9
:103430000101010134C137F10101010135C138F148
:1034400001010101396B010138BF39070101010197
:1034500035AF2DEF1AF02FEF1AF03BEF1AF0010104
:103460000101391F0101381F0101376D000E0101F3
:1034700038230101392301013A6F8E0E0101010148
:10348000526F01013A510101370E01010101506FE4
:103490000101010E0101516F5FEC15F00101010105
:1034A00035AF55EF1AF057EF1AF065EF1AF037C144
:1034B00049F138C14AF139C14BF182EC00F049C100
:1034C00037F14AC138F14BC139F137C134F138C154
:1034D00035F139C136F16DEF1AF012000101010129
:1034E0003C5101013D1101013E11D8A47AEF1AF0BF
:1034F0007CEF1AF092EF1AF03FC1E9FF40C1EAFFFA
:10350000000EEE6E000EED6E000E010101013C6F2B
:10351000000E010101013D6F000E010101013E6F2E
:10352000D9EF1AF001013E517F0B0101416FD89094
:10353000010141350101426F0101436B0101433734
:103540003FC1E9FF40C1EAFF42C1EEFF43C1EDFFC9
:1035500001013D35E836010B0101416F0101415187
:103560003FC1E9FF40C1EAFFEE12000EED123FC17C
:10357000E9FF40C1EAFF820EEE26FF0EED220101B7
:103580003E8101013E8301013E8501013E8701012B
:103590003E8901013E8B01013E9D0B000E000101A1
:1035A0003D9F3CC13CF13DC13DF13EC13EF1D9EFF3
:1035B0001AF01200000E01010101526F000E01010C
:1035C000536F0101010150514F11D8B4EAEF1AF0C5
:1035D000ECEF1AF03BEF1BF00101546F010E0101FB
:1035E0000101516F01015451FFEF1AF00101D89010
:1035F00001014F370101503701010101512B010138
:10360000010150AF06EF1BF008EF1BF0F6EF1AF0C8
:103610000101D89001015237010153370101010125
:103620004F51010101014D5D0101010150510101A5
:1036300001014E59D8A01FEF1BF021EF1BF030EF16
:103640001BF0010101014F51010101014D5F010119
:1036500001015051010101014E5B01010101528143
:103660000101D8900101503301014F3301010101E3
:10367000512F08EF1BF052C14DF153C14EF141EFF4
:103680001BF01200D6CF25F1000E01010101266FBB
:10369000000E0101276FD58AD58800F000F0D5987B
:1036A00000F000F001010101264B272B010125C18B
:1036B00028F10101296BD7500101291903E1D650E6
:1036C00001012819D8A467EF1BF069EF1BF077EF11
:1036D0001BF0000E01010101265D010E01012759B9
:1036E000D8A075EF1BF077EF1BF04CEF1BF0000E2E
:1036F0000101286F010E296F01010101265101010D
:10370000285F0101010127510101295B010101012C
:10371000255101012B6F2A6B0101285101012A2536
:1037200001010101266F0101295101012B21010134
:10373000276F26C123F127C124F19FEF1BF0120050
:1037400050C1E9FF51C1EAFF010EEB34020EEB3428
:1037500001010101546F52C1E9FF53C1EAFF0101A8
:1037600054C1EFFF010101015467B9EF1BF0BBEF3A
:103770001BF0C9EF1BF050C1E9FF51C1EAFF000E79
:10378000EE6E000EEE6E000EED6EED52000EFCEFD2
:103790001BF00101556F000E01010101546F010181
:1037A000555150C1E9FF51C1EAFF010EEB8E50C1E6
:1037B000E9FF51C1EAFFEECF55F1EECF56F1EECF62
:1037C00057F1010157AFE7EF1BF0E9EF1BF0ECEF0A
:1037D0001BF001010101542B50C1E9FF51C1EAFF67
:1037E000FF0EEE16FF0EEE16000EED16ED52010165
:1037F00001015451FCEF1BF0120001010101505175
:103800004F11D8B406EF1CF008EF1CF04EEF1CF07F
:103810000101526F010E01010101516F010152516D
:103820001BEF1CF00101D89001014F370101503707
:1038300001010101512B0101010150AF22EF1CF0E8
:1038400024EF1CF012EF1CF0010101014F510101A6
:1038500001014D5D010101015051010101014E596C
:10386000D8A035EF1CF037EF1CF043EF1CF001013E
:1038700001014F51010101014D5F01010101505151
:10388000010101014E5B0101D8900101503301019A
:103890004F3301010101512F24EF1CF04DC14DF1B7
:1038A0004EC14EF154EF1CF012000101246F000EC6
:1038B00001010101236F0101245186EF1CF0010178
:1038C000246F010E010101012D6F0101245101013D
:1038D000010123510101010121250101256FE86A40
:1038E0000101010123BFE868010101012221010159
:1038F000266F25C1F6FF26C1F7FF08000101F5CFAD
:103900002CF1A5EC00F001010101232B01010101C3
:1039100023510101010121250101246FE86A010100
:10392000010123BFE8680101010122210101256F86
:1039300024C1F6FF25C1F7FF0800F5500009D8A4FF
:10394000A4EF1CF0A6EF1CF05FEF1CF01200000EBD
:10395000010101011F6F000E0101206FD0EF1CF06B
:10396000010101011F51010101011D250101216F0B
:10397000E86A010101011FBFE868010101011E2180
:103980000101226F21C1F6FF22C1F7FF08000101EA
:10399000F5CF23F1EFEC1FF0010101011F4B202BAC
:1039A000010101011F51010101011D250101216FCB
:1039B000E86A010101011FBFE868010101011E2140
:1039C0000101226F21C1F6FF22C1F7FF0800F55067
:1039D0000009D8A4EEEF1CF0F0EF1CF0B0EF1CF0E3
:1039E0001200100E01014E6F4F6B17380F0B0101C3
:1039F000506F0101505101014E5F000E4F5B0101FC
:103A00004F51800A800F010ED8B44E5DD8B00BEF35
:103A10001DF00DEF1DF00FEF1DF033EF1DF0173807
:103A20000F0B01014E6F070E01014E25E96EEA6A88
:103A3000000EEA2201014DC1EFFF010E01014E6FA0
:103A400017380F0B01014F6F01014E5101014F2734
:103A500001014F3B175001014F190F0B01014F1985
:103A6000176E33EF1DF012000101126F300E0101CD
:103A700001014D6F01011251F1EC1CF00101126FB7
:103A8000780E010101014D6F01011251F1EC1CF0A2
:103A90000101126FFC0E01010101266F010112519B
:103AA0000101136F100E01010101256F0101135176
:103AB00010C123F111C124F1C3EC10F00101126F08
:103AC000FC0E01010101266F010112510101136F6A
:103AD000100E01010101256F010113510EC123F1E7
:103AE0000FC124F1C3EC10F01200010101011E51BD
:103AF0001D11D8A47EEF1DF080EF1DF08EEF1DF09C
:103B0000000E010101011D6F000E010101011E6F78
:103B1000000E010101011F6FB4EF1DF00101010151
:103B20001DC120F1010101011EC121F101010101AD
:103B3000226B0101236F8E0E01010101526F010101
:103B400023510101200E01010101506F0101010EFD
:103B50000101516F5FEC15F020C11DF121C11EF173
:103B600022C11FF1B4EF1DF012006DC025F16EC02F
:103B700026F16FC027F170C028F14904D8A4C3EF23
:103B80001DF0C5EF1DF0DDEF1DF00101296F140ED2
:103B900001010101266F010129510101296F280E40
:103BA00001010101276F010129510101296F3C0E1B
:103BB00001010101286F010129510101250E0101B7
:103BC00001012425E96EEA6A0101010EEA22EF50A3
:103BD0000101010123258009010101012A6F0EEC79
:103BE00001F012000101010103510F0B010101015C
:103BF000056F0101066F000E01010101046F010153
:103C00000651800ECA1604C106F10F0E01010617F7
:103C10000101D89006370101D89006370101D890EC
:103C20000635CA12010101010551030BCA12000E2B
:103C3000CC6ECA849E920101010103BF22EF1EF0E7
:103C400025EF1EF0010E26EF1EF0000E0101066F9B
:103C50000101D89006359D6E120001011E6F000E05
:103C600001010101246F01011E5101011F6F0E0EA0
:103C700001010101236F01011F51B5EC1DF001018C
:103C80001E6F000E01010101246F01011E5117502A
:103C90000F0B01011F6F17380F0B0101206F01017E
:103CA0001F510101205D0101216F01012151100807
:103CB00001010101236FB5EC1DF0E50E01010101C9
:103CC000256F030E0101266FA9EC1FF01200000EF4
:103CD00001010101476F000E0101486F010101015F
:103CE00043A175EF1EF077EF1EF083EF1EF0010188
:103CF000010145510101010147270101010146511F
:103D00000101010148230101D8900101453701015A
:103D100046370101D89001014433010143330101C9
:103D2000010144514311D8A498EF1EF09AEF1EF000
:103D30006EEF1EF047C143F148C144F1A0EF1EF001
:103D400012000101246F000E01010101236F010126
:103D50002451BCEF1EF0070E010101012325E96E7D
:103D6000EA6A000EEA22EF5001010101276F32ECEE
:103D70001FF001010101232B17380F0B0101010175
:103D8000235DD8A0C6EF1EF0C8EF1EF0ABEF1EF00B
:103D9000E50E01010101256F030E0101266FA9EC5B
:103DA0001FF012000101046F010E01010101246FD7
:103DB000010104510101056F000E01010101236F92
:103DC00001010551B5EC1DF0010101010351D8B409
:103DD000ECEF1EF0EEEF1EF0F9EF1EF0CC0E01013D
:103DE0000101216F030E0101226F55EC1CF002EF5F
:103DF0001FF0A10E01010101216F030E0101226FCD
:103E000055EC1CF012000101046F000E476E010119
:103E100004510101046F100E416E010104510101B2
:103E200001010351D8B417EF1FF019EF1FF01FEF76
:103E30001FF00101046F000E416E010104510101E8
:103E4000046F000E496E010104510101046F000E60
:103E5000486E0101045193948A9493968A960F0EAA
:103E60008A16120036EF1FF036EF1FF042C028F11D
:103E70000101296B010E01012827000E29230F0ED5
:103E800001012817000E2917445001012819291192
:103E9000D8B44DEF1FF04FEF1FF034EF1FF0F29E3C
:103EA0001B0E4224E96EEA6A000EEA22010127C1D4
:103EB000EFFF42280F0B426E9D88F28E12001FC149
:103EC0002BF120C12CF121C12DF118EC0FF02BC1E9
:103ED00043F12CC144F12DC145F15C0E01010101FA
:103EE000466FDE0E01010101476F3E0E0101010127
:103EF000486F69EC0CF043C11FF144C120F145C18A
:103F000021F183EF1FF0120096EF1FF0010123C192
:103F1000F6FF010124C1F7FF08000101F5CF4DF1C3
:103F2000F1EC1CF001010101234B242B010123C101
:103F3000F6FF010124C1F7FF0800F5500009D8A4DD
:103F4000A4EF1FF0A6EF1FF086EF1FF0A8EF1FF001
:103F50001200BBEF1FF0010125C1F6FF010126C1D0
:103F6000F7FF08000101F5CF27F132EC1FF0010146
:103F70000101254B262B010125C1F6FF010126C1B8
:103F8000F7FF0800F5500009D8A4C9EF1FF0CBEFE8
:103F90001FF0ABEF1FF0120036C146F137C147F1F9
:103FA00038C148F134C1E9FF35C1EAFF0101EECF64
:103FB00043F10101EECF44F10101EDCF45F169EC90
:103FC0000CF034C1E9FF35C1EAFF43C1EEFF44C143
:103FD000EEFF45C1EDFFED52EEEF1FF012000101C3
:103FE000246F010E010101012D6F0101245123C134
:103FF0002CF1A5EC00F023C127F132EC1FF01200E8
:00000001FF
