:060000000A128A110E280D
:10000800FE00030EF1000408F2000A08F3000A16C5
:100018008A11D42A0A128A1506284108AA00420819
:10002800AB004308AC0043220A128A112A08831243
:10003800A80083162B088312A90083162C088312A4
:10004800AA00BD2329088316CD0083122808831629
:10005800CC0083123830A001A101A2008316410808
:100068008312A300831642088312A4008316430850
:100078008312A5000A128A15C8260A128A110318C3
:10008800080083164D088312B60083164C088312A5
:10009800B50090240A128A1135088316C400831209
:1000A80036088316C500831237088316C600203029
:1000B800B301B4004130B5004408B6004508B700A4
:1000C8004608B800D6260A128A113308C700340831
:1000D800C8003508C90041088312B80083164208D1
:1000E8008312B900831643088312BA00831647089F
:1000F8008312B500831648088312B6008316490890
:100108008312B700FD200A128A113508DF0036086D
:10011800E0003708E10065210A128A115F08A8008B
:100128006008A9006108AA00BD230A128A112908DB
:100138008316CB00831228088316CA004B08831243
:10014800B60083164A088312B50090243508C70004
:100158003608C8003708C900831647088312C40048
:10016800831648088312C500831649088312C600FF
:100178000A128A1557260A128A114408DF00450810
:10018800E0004608E100831641088312E200831666
:1001980042088312E300831643088312E4000A121C
:1001A8008A15F4260A128A115F088316C100831281
:1001B80060088316C200831261088316C3004A08C8
:1001C800303E0A128A150C270A128A118316031365
:1001D8004D084C04031DF6282E300A128A150C27E8
:1001E8000A128A11FF3083160313CC07031CCD03B0
:1001F8002D283808BB003908BC003A08BD00031098
:100208003C0D3D0DC200C208031D0E29B501B60103
:10021800B70108003508BB003608BC003708BD0028
:1002280003103C0D3D0DC300C308031D1F29B50174
:10023800B601B70108008930BF01C001C1014307F9
:10024800BB00C2023A08C3003708C3068030C305A2
:100258001830B917BA01B617B701BE000310BF0DA1
:10026800C00DC10D37083A02031D4029360839026E
:10027800031D402935083802031C4E293508B802E9
:100288003608031C360FB9023708031C370ABA02AE
:100298003F140310B80DB90DBA0DBE0B32293F0833
:1002A800A0004008A1004108A2004208A30043089A
:1002B800A400E2252008B5002108B6002208B700EE
:1002C80008005F08A0006008A1006108A20065306E
:1002D800A300D8210A128A11E61F8C295F08A00002
:1002E8006008A1006108A200A301A401A5010A12E7
:1002F8008A15C8260A128A11031888298030DF0156
:10030800E000BF30E1000800DF01E001E101080082
:1003180000306602153003196502031808005F08EB
:10032800A8006008A9006108AA00BD230A128A1162
:100338002B08B8002A08B7002908B6002808B50015
:1003480014223508E2003608E3003708E4005F08A5
:10035800A0006008A1006108A2006208A300630869
:10036800A4006408A5000A128A15C8260A128A1170
:100378000318D1298030D301D400BF30D5006208DA
:10038800D6006308D7006408D80022255308DF0088
:100398005408E0005508E10008006208DF0063081F
:1003A800E0006408E1000800220821042004031D7D
:1003B800E7292308840083138001840A8001A001AF
:1003C800A101A201080022087F39F400F5010310F9
:1003D800F40DF50D23088400740883138000840A43
:1003E80075088000210D210D0139F400F50123085D
:1003F800840074088004840A750880042308840033
:1004080082308007840F00080318000AFF00FF3EAF
:1004180080008403220880393F38A200A113080015
:100428008E30BA01B900B81F262AB509B609B7092E
:10043800B809B50A0319B60A0319B70A0319B80A9D
:10044800BA01BA0AFF3038050319312A0310B80C6B
:10045800B70CB60CB50CB90A262A3508A000360820
:10046800A1003708A2003908A3003A08A400E22531
:100478002008B5002108B6002208B70008002A089D
:10048800A5002B08A6002C08A70020262508AD00EB
:100498002608AE002708AF005C308312C400DE30A7
:1004A800C5003E30C60083162D088312C700831688
:1004B8002E088312C80083162F088312C9000A1257
:1004C8008A15572644088316AA00831245088316FE
:1004D800AB00831246088316AC0008002C082B04D6
:1004E8002A04031D7D2A8030AA01AB003F30AC00EE
:1004F800080072308312A0003130A1004430A200FD
:1005080083162A088312A30083162B088312A400DB
:1005180083162C088312A5000A128A15C8260A1207
:100528008A1103189E2AFF308316AA007F30AB0079
:10053800AC00080083162A088312A00083162B0833
:100548008312A10083162C088312A2004930A3004D
:100558003A30A400C430A5000A128A15C8260A1227
:100568008A110318BC2A8316AA01AB01AC01080042
:1005780083162A088312A00083162B088312A10071
:1005880083162C088312A200A301A401A5010A1254
:100598008A15C8260A128A110030031C01308316F6
:1005A800B20032080319EF2A2A088312A000831622
:1005B8002B088312A10083162C088312A20018248A
:1005C80020088316AA00831221088316AB00831221
:1005D80022088316AC00AA308312C400B830C500C4
:1005E8003F30C60083162A088312C70083162B08DB
:1005F8008312C80083162C088312C9000A128A15B0
:1006080057260A128A1144088316AA00831245083D
:100618008316AB00831246088316AC002A0883129F
:10062800DF0083162B088312E00083162C08831240
:10063800E10065210A128A115F08A8006008A90074
:100648006108AA00BD230A128A1129088316B1007D
:10065800831228088316B00031088312B600831667
:1006680030088312B50090243508DF003608E00012
:100678003708E10083162A088312E20083162B0844
:100688008312E30083162C088312E4000A128A15E9
:10069800F4260A128A115F088316AA0083126008DA
:1006A8008316AB00831261088316AC002A088312F4
:1006B800E90083162B088312EA0083162C0883129C
:1006C800EB000130EC000930ED00EE01AB240A121A
:1006D8008A116908DF006A08E0006B08E1008316E8
:1006E80031088312E300831630088312E2002024C5
:1006F8000A128A115F088316AA00831260088316FB
:10070800AB00831261088316AC0032080319080095
:10071800FF30AD007F30AE00AF002C06031D9A2BD2
:100728002B082E06031D9A2B2A082D06031DA02B25
:10073800AA01AB01AC0108002A088312B500831690
:100748002B088312B60083162C088312B70080305A
:10075800B801B9003F30BA00FD2035088316AA0059
:10076800831236088316AB00831237088316AC0051
:100778000800F0270A128A1103102D0D2E0DB4005F
:10078800B408031DCC2BA801A901AA01AB010800DC
:10079800F0270A128A1117300310AE0CAD0CAC0CFE
:1007A800FF3E031DD02B2C08AF00A917AA0128086B
:1007B800B0002908B1002A08B2008E30B301B40293
:1007C800B41FF32B3408803A8F3E031CC72B031049
:1007D800B30CB20CB10CB00CB40FEB2B012C1830CD
:1007E80034020318C72BB4080319012C0310B00DE9
:1007F800B10DB20DB30DB403F72B2F0803190F2C4D
:10080800B009B109B209B309B00A0319B10A031949
:10081800B20A0319B30A3308AB003208AA00310838
:10082800A9003008A80008002208210420040319A0
:1008380008008030A2060800610860045F04031DF8
:10084800292CDF01E001E101080061087F39E4009B
:10085800E5010310E40DE50D6408E2070318E30A57
:100868006508E307600D600D0139E2070318E30A24
:10087800E31F422CDF01E001E10108006308803A30
:10088800FF0081307F02031D4B2C00306202031CE5
:10089800772C831203135F08A0006008A100610889
:1008A800A200A301A401A5010A128A15C8260A12EA
:1008B8008A11FF300318722CE6007F30E700E80049
:1008C8006608A0006708A1006808A200182420088C
:1008D800DF002108E0002208E1000800DF007F3087
:1008E800E000E1000800831203136308E5006208D2
:1008F800E400650DE50CE40C6108640680396406C3
:10090800E10062080139E400E40CE40C60086406C4
:100918007F396406E0000800B801B61F9A2CB509B3
:10092800B609B50A0319B60AB801B80A3508A0000D
:100938003608A1008E30A201A3003808A400E225E1
:100948002008B5002108B6002208B70008006D0885
:100958006D076D076C0784000A168A1100200A12B9
:100968008A118316A2000A168A1100200A128A1117
:10097800A3000A168A1100200A128A11A400831201
:100988006E086D040319152DFF30ED07031CEE03E7
:100998006E088316A10083126D088316A000200735
:1009A800200783126C0784000A168A1100200A1295
:1009B8008A11D3000A168A1100200A128A11D4005B
:1009C8000A168A1100200A128A11D50083162208F5
:1009D8008312C400831623088312C50083162408D3
:1009E8008312C6006908C7006A08C8006B08C900F6
:1009F8000A128A1557260A128A114408D600450891
:100A0800D7004608D80022250A128A1153088316EF
:100A1800A200831254088316A30083125508831674
:100A2800C22C831622088312E90083162308831236
:100A3800EA00831624088312EB0008005308D90043
:100A48005408DA005508DB0003105A0D5B0DDE0070
:100A58005608D9005708DA005808DB0003105A0D69
:100A68005B0DDD005E080319452D5D085E025D081B
:100A780003184D2DD9005E08D90219305902031CFC
:100A88004C2D5608D3005708D4005808D500080044
:100A98005D08031908005E085D0203185B2D5E08F7
:100AA800D9005D08D9021930590203180800063028
:100AB800DC00D51BDC17D81B5C17D417D501D7175A
:100AC800D8015D085E020318822D0310D60DD70DDC
:100AD800D80DDD035D085E0603197D2DDC035C0877
:100AE800073903197D2D692D0310D50CD40CD30CAF
:100AF800DE0A5E085D0603199E2D782D5E085D02EC
:100B080003189E2D0310D30DD40DD50DDE035D08FB
:100B18005E0603199A2DDC035C08073903199A2D20
:100B2800862D0310D80CD70CD60CDD0A5E085D069E
:100B3800031D952DDC1FA92DFF30D306D406D5063D
:100B4800D30A0319D40A0319D50A5C1FB42DFF3040
:100B5800D606D706D806D60A0319D70A0319D80A1B
:100B6800DC015308D607540803110318540A031D5F
:100B7800D707550803110318550A031DD807D81FAE
:100B8800D02DFF30D606D706D806D60A0319D70ABD
:100B98000319D80ADC01DC0A5608A0005708A1008E
:100BA8005808A2005E08A3005C08A400E2252008FB
:100BB800D3002108D4002208D5000800230803190F
:100BC800EA2D220821042004031DF32DA001A10110
:100BD800A2010800A30A0310A20CA10CA00CFE306D
:100BE80022050319022EEE2DA30AA00A0319A10A51
:100BF8000319A20A0310A20CA10CA00CFF302205B5
:100C080003190C2EF82DA3030310A00DA10DA20D9E
:100C1800A11F072E231CA1130310A30C2308A70050
:100C2800A601A5012508A0042608A1042708A204F6
:100C38002408031DA217080025088312A0008316A4
:100C480026088312A100831627088312A200A30195
:100C5800A401A5010A128A15C8260A128A110318C6
:100C68003A2E8316A501A601A701080083162708B6
:100C780026042504031D442EA501A601A70108008A
:100C880083128030D301D400BF30D5004030C40176
:100C9800C501C600A830A300831625088312A0004A
:100CA800831626088312A100831627088312A20040
:100CB800D8212008C7002108C8002208C9000A1244
:100CC8008A1557260A128A114408D6004508D70003
:100CD8004608D80022250A128A1153088316A5004F
:100CE800831254088316A600831255088316A7009A
:100CF800FF30A807031CA90325088312E9008316FF
:100D080026088312EA00831627088312EB001F3097
:100D1800EC000830ED00EE01AB240A128A116908D4
:100D28008316A50083126A088316A60083126B082F
:100D38008316A70025088312D3008316260883127A
:100D4800D400831627088312D5007230C4003130CE
:100D5800C5003F30C600831629088312B6008316E3
:100D680028088312B50090243508C7003608C80043
:100D78003708C9000A128A1557260A128A11440828
:100D8800D6004508D7004608D80022255308831600
:100D9800A500831254088316A600831255088316EB
:100DA800A7000800BC01350834043304031DF42EE1
:100DB8008312A001A101A201831636088312A300A1
:100DC800831637088312A400831638088312A500F7
:100DD8000A128A15C8268316B301B401B5010800A2
:100DE800380837043604031DFF2E8030B301B400E1
:100DF8003F30B500080033088312A000831634087A
:100E08008312A100831635088312A200A301A4014E
:100E1800A5010A128A15C8260A128A110318792F01
:100E2800831636088312A800831637088312A90090
:100E3800831638088312AA00BD230A128A112B08C8
:100E48008316C00083122A088316BF00831229085C
:100E58008316BE00831228088316BD00400883123B
:100E6800AB0083163F088312AA0083163E0883123C
:100E7800A90083163D088312A800D2270A128A11F6
:100E88008316380883122A06031D542F8316370841
:100E980083122906031D542F831636088312280649
:100EA80003195B2F8316B301B401B501080083163B
:100EB8003D08BC000130BC0533088312A00083162E
:100EC80034088312A100831635088312A20018245F
:100ED8000A128A1120088316B30083122108831688
:100EE800B400831222088316B50083163308A500C0
:100EF8003408A6003508A70020262508B9002608CA
:100F0800BA002708BB0036088312C40083163708C6
:100F18008312C500831638088312C6008316390861
:100F28008312C70083163A088312C80083163B0849
:100F38008312C9000A128A1557260A128A11440810
:100F48008316AA00831245088316AB00831246084D
:100F58008316AC0072220A128A112A08B3002B08E1
:100F6800B4002C08B5003C080319080033088312A4
:100F7800A000831634088312A10083163508831253
:100F8800A200182420088316B300831221088316B0
:100F9800B400831222088316B50008008E30F400CE
:100FA800FF302B050319DF2F0310AB0CAA0CA90C7B
:100FB800A80CF40AD42F2808A0002908A1002A08A0
:100FC800A2007408A300A401E2252008A8002108B3
:100FD800A9002208AA0008002808AC002908AD00CA
:100FE8002A08AE00080064008001840A0406031978
:060FF80000340406F82F8E
:10100C00D030F601F701F801F901EF0183138400E8
:10101C00DF300A128A11F7270A128A1590308317CB
:10102C008400CD300A128A11F7278316031740303B
:10103C00DC01DD001430DE005430DF000313FF3020
:10104C00E40083010A168A114C2B8312A900A80014
:10105C000F30A8058101A91A3528A00137282030A6
:10106C00A000A1012008831681048312291A4028AC
:10107C00A20142281030A200A30122088316810489
:10108C008312A808031D4D28FF30A4005028F73008
:10109C00A400FF30A500240883168105F8308105D3
:1010AC008312280803195F282808FF3E0739831686
:1010BC0081040B138312A91B6528A6016728203015
:1010CC00A600A70126088B04080083120030D60165
:1010DC000A168A1195250A128A1582300A168A1167
:1010EC00BA250A128A150A168A11F7240A128A15C9
:1010FC005D0883160317D800831203135C0883164C
:10110C000317D700580883120313D1008316031753
:10111C00570883120313D0000A168A11E5240A1209
:10112C008A1550088316D300831251088316D400F5
:10113C00831252088316D500C230CD230A128A15A9
:10114C0083160317570883120313D0008316031753
:10115C00580883120313D100D201D301F9230A12C8
:10116C008A15A530CD23831603135C08C1005D08D6
:10117C00C2005E08C3000A128A1111200A128A15D5
:10118C002030E4230A128A15DC3084008313000813
:10119C008312D000840A0008D100840A0008D2000F
:1011AC00840A0008D300F9230A128A15AB30CD2328
:1011BC00831603135008C1005108C2005208C30023
:1011CC000A128A1111200A128A152030E4230A12FD
:1011DC008A15D0308400831300088312D000840A4F
:1011EC000008D100840A0008D200840A0008D30049
:1011FC00F9230A128A15B130CD2383160313530831
:10120C00C1005408C2005508C3000A128A111120EB
:10121C000A128A152030E4230A128A15D33084006E
:10122C00831300088312D000840A0008D100840ABA
:10123C000008D200840A0008D300F9230A128A1588
:10124C009630CD23831603135F08C1006008C200DB
:10125C006108C3000A128A1111200A128A15203063
:10126C00E4230A128A15DF308400831300088312EA
:10127C00D000840A0008D100840A0008D200840A35
:10128C000008D300F9230A128A15E530CD230A127F
:10129C008A15831603135C088312A00083165D085D
:1012AC008312A10083165E088312A20083165308D2
:1012BC008312A300831654088312A40083165508C6
:1012CC008312A500C8260A128A15031874298316DE
:1012DC005C08D3005D08D4005E08D5008316530863
:1012EC008312C400831654088312C5008316550854
:1012FC008312C600831653088312C7008316540842
:10130C008312C800831655088312C90057260A1287
:10131C008A154408DF004508E0004608E100831602
:10132C005C088312C40083165D088312C500831603
:10133C005E088312C60083165C088312C7008316EE
:10134C005D088312C80083165E088312C9005726F5
:10135C000A128A154408E2004508E3004608E40036
:10136C00F4260A128A155F0883160317CD00831220
:10137C000313600883160317CE008312031361084E
:10138C0083160317CF00031350088312C40083166F
:10139C0051088312C500831652088312C6008316A7
:1013AC0003174D0883120313C700831603174E0847
:1013BC0083120313C800831603174F0883120313F9
:1013CC00C90057260A128A15440883160317D00041
:1013DC0083120313450883160317D10083120313DA
:1013EC00460883160317D200031350088312C40057
:1013FC00831651088312C500831652088312C60047
:10140C0083160317500883120313C70083160317A0
:10141C00510883120313C800831603175208831252
:10142C000313C90057260A128A154408831603179A
:10143C00D30083120313450883160317D4008312B9
:10144C000313460883160317D50003135F08831292
:10145C00C400831660088312C500831661088312CA
:10146C00C60083160317530883120313C700831691
:10147C000317540883120313C80083160317550867
:10148C0083120313C90057260A128A1544088316BF
:10149C000317D90083120313450883160317DA00C8
:1014AC0083120313460883160317DB00BD30CD23CC
:1014BC008316031759080313C10003175A080313A3
:1014CC00C20003175B080313C3000A128A11112010
:1014DC000A128A152030E4230A128A15D9308400A6
:1014EC0000088312D000840A0008D100840A000886
:1014FC00D200840A0008D300F9230A128A15E530B9
:10150C00CD230A128A15C03083120313A000793040
:10151C00A1004430A2008316031759088312031349
:10152C00A300831603175A0883120313A40083160F
:10153C0003175B0883120313A500C8260A128A1529
:10154C0003186E2BE630A0007330A1004930A200C6
:10155C0083160317590883120313A300831603176A
:10156C005A0883120313A400831603175B08831213
:10157C000313A500C8260A128A150318402B2E3017
:10158C00A0006E30A1004E30A2008316031759083C
:10159C0083120313A300831603175A088312031331
:1015AC00A400831603175B0883120313A500C82637
:1015BC000A128A150318112B6B30B5006E30B60069
:1015CC004E30B70083160317590883120313B80063
:1015DC00831603175A0883120313B90083160317D3
:1015EC005B0883120313BA000A128A11FD200A1237
:1015FC008A15350883160317D9008312031336088E
:10160C0083160317DA0083120313370883160317A4
:10161C00DB000430712B2430B5007430B600493037
:10162C00B70083160317590883120313B8008316E7
:10163C0003175A0883120313B900831603175B08A8
:10164C0083120313BA000A128A11FD200A128A159A
:10165C00350883160317D900831203133608831633
:10166C000317DA0083120313370883160317DB0002
:10167C000530712B7A30B501B6004430B7008316B3
:10168C000317590883120313B800831603175A085B
:10169C0083120313B900831603175B088312031319
:1016AC00BA000A128A11FD200A128A15350883160F
:1016BC000317D90083120313360883160317DA00B5
:1016CC0083120313370883160317DB000630712BC4
:1016DC00073083160317D60083120313C830C401D6
:1016EC00C5004230C6008316031759088312031332
:1016FC00C700831603175A0883120313C8008316F6
:10170C0003175B0883120313C9005726440883167A
:10171C000317D90083120313450883160317DA0045
:10172C0083120313460883160317DB005908831230
:10173C000313A800831603175A0883120313A90076
:10174C00831603175B0883120313AA000A128A116B
:10175C00BD230A128A15290883160317D800831291
:10176C000313280883160317D70058088312031392
:10177C00DD0083160317570883120313DC000A16C7
:10178C008A1142240A128A1583160317DC2FF500DE
:10179C00750884000A168A1100200A128A1500386E
:1017AC0003190800750884000A168A1100200A1211
:1017BC008A15E4230A128A15F50ACE2BF400780A4E
:1017CC000F3979060319E52B8B137808B13E840089
:1017DC00740883178000F80A0F30F805831603137A
:1017EC000C168B17080030300C270A128A1578302B
:1017FC000C270A128A15FA275308A8005208D62774
:10180C000A168A11DF250A128A155108A8005008F9
:10181C00D6270A168A11DF2D83120030D6010A163C
:10182C008A1195250A128A1569300A168A11BA2569
:10183C000A128A150A168A11F7240A128A155D08EB
:10184C008316BA0083125C088316B9003A08831217
:10185C00D100831639088312D0000A168A11E524A8
:10186C000A128A1550088316D30083125108831666
:10187C00D400831252088316D5005C088312A00092
:10188C0083165D088312A10083165E088312A200E2
:10189C00831653088312A300831654088312A400E2
:1018AC00831655088312A500C8260A128A15031838
:1018BC00662C83165C08D3005D08D4005E08D50046
:1018CC0083166D270A128A1553088312C7008316D4
:1018DC0054088312C800831655088312C900572672
:1018EC000A128A154408DF004508E0004608E100AA
:1018FC00831639270A128A1557260A128A15CF27FA
:10190C000A128A15F4260A128A155F088316B30088
:10191C00831260088316B400831261088316B50025
:10192C0050088312DF00831651088312E0008316DF
:10193C0052088312E100831650088312E2008316CA
:10194C0051088312E300831652088312E400F42634
:10195C000A128A15831639270A128A1557260A1273
:10196C008A15CF270A128A15F4260A128A155F08DF
:10197C00C4006008C500610894270A128A1557260E
:10198C000A128A15AD270A128A1540308312C40038
:10199C001C30C500463086270A128A1557260A12B3
:1019AC008A1544088316A000831245088316A100EB
:1019BC00831246088316A20039270A128A15572665
:1019CC000A128A1544088316B3008312450883163D
:1019DC00B400831246088316B500A2270A128A1592
:1019EC0094270A128A1557260A128A15AD270A124D
:1019FC008A15A2270A128A1586270A128A155726D3
:101A0C000A128A1544088316A60083124508831609
:101A1C00A700831246088316A8006D270A128A15A0
:101A2C0026088312C700831627088312C800831662
:101A3C0028088312C90057260A128A1544088316EF
:101A4C00A900831245088316AA0083124608831640
:101A5C00AB006D270A128A1529088312C70083165A
:101A6C002A088312C80083162B088312C900572634
:101A7C000A128A1544088316AC0083124508831693
:101A8C00AD00831246088316AE005F088312C400B3
:101A9C00831660088312C500831661088312C60082
:101AAC0083162C088312C70083162D088312C800D6
:101ABC0083162E088312C90057260A128A15440869
:101ACC008316AF00831245088316B00083124608B4
:101ADC008316B100EA308312C4001D30C5004230B9
:101AEC00C60083162F088312C70083163008831292
:101AFC00C800831631088312C90057260A128A15AA
:101B0C0044088316A300831245088316A40083128D
:101B1C0046088316A50060308312C4006330C500EC
:101B2C005830C600831623088312B5008316240888
:101B3C008312B600831625088312B700831620087B
:101B4C008312B800831621088312B9008316220869
:101B5C008312BA000A128A11FD200A128A1535085E
:101B6C00C7003608C8003708C90057260A128A155C
:101B7C00B9270A128A15C0308312A0007930A1004F
:101B8C00443051270A128A15C8260A128A150318DE
:101B9C00192EE630A0007330A100493051270A12EB
:101BAC008A15C8260A128A1503180A2E2E30A00090
:101BBC006E30A1004E3051270A128A15C8260A121F
:101BCC008A150318F92D6B30B5006E30B6004E3007
:101BDC005F270A128A11FD200A128A157A270A1227
:101BEC008A15B2011C2E2430B5007430B600493071
:101BFC005F270A128A11FD200A128A157A270A1207
:101C0C008A15B201B20A1C2E7A30B501B6004430E6
:101C1C005F270A128A11FD200A128A157A270A12E6
:101C2C008A1502301B2E03308316B2008312C83083
:101C3C00C401C5004230C60083163B088312C7009E
:101C4C0083163C088312C80083163D088312C90012
:101C5C0057260A128A15B9273B088312A800831647
:101C6C003C088312A90083163D088312AA000A12AD
:101C7C008A11BD230A128A1529088316BA00831209
:101C8C0028088316B9003A088312DD008316390838
:101C9C008312DC000A168A1142240A128A15831652
:101CAC00DC2F4408CA004508CB004608CC000310C2
:101CBC004B0D4C0DCD00CD08031D682EC401C50184
:101CCC00C60108004708CA004808CB004908CC00E8
:101CDC0003104B0D4C0DD200D208031D792EC401FC
:101CEC00C501C601080052087B3ECD074608D2004C
:101CFC004908D2068030D2050730C517C817C9016C
:101D0C00CE01CF01D001D100441C942E4708C52729
:101D1C000A128A150318490A031DD0070310C60CB2
:101D2C00C50CC40C0310C70DC80DC90DD10B8A2EE0
:101D3C000930D100441CAA2E4708C5270A128A155F
:101D4C000318490A031DD0070310C60CC50CC40C9C
:101D5C000310D00CCF0CCE0CD10BA02E4E08A00033
:101D6C004F08A1005008A2004D08A3005208A4007F
:101D7C000A128A11E2252008C4002108C500220895
:101D8C00C6000800A21FD72E2008003CA000210886
:101D9C00031C210F003CA1002208031C220F803CD5
:101DAC00A200A51FE62E2308003CA3002408031C58
:101DBC00240F003CA4002508031C250F803CA50023
:101DCC008030A206A50625082202031D080024085F
:101DDC002102031D08002308200208008030E106C0
:101DEC006208D3006308D4006408D5005F08D600ED
:101DFC006008D7006108D8000A128A1122255308FE
:101E0C00DF005408E0005508E1000800F400FD274D
:101E1C00200E0F39FA27A000A201103CA100031CD0
:101E2C00A2032208803AFF0080307F02031D202F7E
:101E3C0001302102031C0800FD27200E0F39903EB3
:101E4C008400740883178000200E0F39FA27A00035
:101E5C00A00AA00EFD272008FA2720060F3920061D
:101E6C00FD27A00008005C088312C40083165D08DF
:101E7C008312C50083165E088312C60083165C08A5
:101E8C008312C70083165D088312C80083165E0890
:101E9C008312C9000800A20083163B088312A3001A
:101EAC0083163C088312A40083163D088312A500F8
:101EBC000800B70083163B088312B80083163C0851
:101ECC008312B90083163D088312BA000800530828
:101EDC008312C400831654088312C5008316550858
:101EEC008312C6008316080035088316BB008312C4
:101EFC0036088316BC00831237088316BD00080011
:101F0C00C600831636088312C7008316370883125F
:101F1C00C800831638088312C9000800C60083164F
:101F2C0033088312C700831634088312C800831643
:101F3C0035088312C900080050088312C4008316A8
:101F4C0051088312C50083165208831208004408F6
:101F5C008316B600831245088316B7008312460811
:101F6C008316B800080044088316BB00831245088A
:101F7C008316BC00831246088316BD000800CE07EA
:101F8C00480803110318480A031DCF074908031119
:101F9C0008004408E2004508E3004608E400080095
:101FAC00A7001030A900FC30AA000800831203130C
:101FBC000E30D6010A168A11952583120313D60109
:101FCC0083160317200E0F3983120313DC008316BC
:101FDC00031720080F3983120313DD005C085D0220
:101FEC00103E0A168A11952D8312031308008316CE
:101FFC000317080010308A000408840A8207003492
:10200C00003480343F34723431343F34FE34753410
:10201C003E34583463343D3495341D343C34C5342B
:10202C00AE343A34793421343934943480343734FE
:10203C009334A734353456341534343400340034E6
:10204C000034003480343F34F034FF34BE34E23496
:10205C00A9343E3483347634BE34AE342B343E341F
:10206C003C34C334BD34D23413343D347834D3349B
:10207C00BB342D34203443342034283455346E345E
:10208C00693474343A3420344634293420342D34B1
:10209C0000342D3420344C342034283455346E34F0
:1020AC00693474343A3420344834293420342D348F
:1020BC00003470346C3465346134733465342034DA
:1020CC0077346134693474342E342E342E34003425
:1020DC0049346E346434753463347434693476340E
:1020EC0069347434793420340034433461346C34BE
:1020FC006934623472346134743469346E346734E4
:10210C00003443346134703461346334693474346E
:10211C007934203400344C3443342D346D346534EC
:10212C00743465347234203400340D340A3443343E
:10213C00433461346C343D34003420342034203446
:10214C0020342034203400340D340A3446343134F5
:10215C003D3400340D340A34463432343D340034CA
:10216C000D340A34463433343D340034463472343E
:10217C00653471343D340034433469346E343D3449
:10218C0000347634613472343D3400345234433488
:10219C0034343D3400342D342A342D3400346D3431
:1021AC00463400346E3446340034703446340034D3
:1021BC007534463400346D34483400346E3448344D
:0E21CC0000347534483400340D340A340034C5
:10251800A200A1000F30A105803092051208210801
:1025280003399204910112158C100030A21B01305E
:10253800F400740783168C000800831607138717A6
:102548001F301815990018138312181383161812C0
:1025580083129817181683160C1298160B17F90180
:10256800F801DB01F60108008312A0008316D801E8
:102578008312A008031DC32A1030A100C42AA10198
:10258800A2012108EF008316D901DA01061183128E
:10259800061183168611831286110F3086050800EE
:1025A800831203138C1C192B013083160317E107C0
:1025B80013306102883003196002031C162B88301F
:1025C800E0021330031CE103E1020313E20A0319DA
:1025D800E30A83120711033083166302413003199B
:1025E8006202003003180130F0000310F00D0310F0
:1025F800700D83128704033083166302E8300319D1
:102608006202031C162B0317C50A0319C60A03190D
:10261800C70A0319C80AE8300313E2020330031C8F
:10262800E303E302831203138C108C1E2C2B760811
:10263800A13E84001A0883178000760AF7000F303D
:10264800F705770883165B0603192C2B7708F60025
:1026580083120C1E432B83160C1E432B7908B13EA4
:1026680084008317000883129900F90A0F30F905CE
:1026780079087806831603190C1283120C12730852
:102688008A0072088400710E8300FE0E7E0E090017
:1026980083160317C501C601C701C8014808C4004D
:1026A8004708C3004608C2004508C1004208031392
:1026B800E300031741080313E20063080317E1006E
:1026C800031362080317E000FF300313E4007A30B5
:1026D800DF01E0004430E10005309C00CF30850088
:1026E80068300A128A152B200A168A11831681125D
:1026F800BB308700071183120711071580300A16AF
:102708008A118C220A168A1101300A168A11B822F7
:102718000A168A110230D601D60A0A168A11EC2640
:102728000A168A1183160313071687128312871253
:1027380032300A168A11B9250A168A1187163230DC
:102748000A168A11B9250A168A11871232300A1612
:102758008A11B9250A168A11871632300A168A1183
:10276800B9250A168A1187120A168A11A1220A1691
:102778008A11C0308B0483120030D6010A168A11E0
:1027880095250A168A118C300A168A1191270A167D
:102798008A1183165F08C1006008C2006108C3007F
:1027A8000A128A1111200A168A1105300A168A118E
:1027B800B9250A168A110A168A1177240A168A1167
:1027C8000A168A11BA270A168A11003083120313CF
:1027D800071A01308316CF0064060319092CE40890
:1027E800031DF82B4A30F92B3A30CE000A128A150D
:1027F800CD230A168A11E5300A128A15CD230A1646
:102808008A11831603134F08E40064080319122C75
:102818000A128A156B200A168A11172C0A128A15B1
:1028280012240A168A1101300A168A1130240A164F
:102838008A111E300A168A11B9250A168A11003023
:102848000A168A1130240A168A1114300A168A11B7
:10285800B9250A168A11E92B83120313DC0000300C
:10286800D601D60A95250A168A11831203135C0825
:102878000319402CCC30912FA130912F0930D6016B
:1028880095250A168A119F3091270A168A11093050
:10289800D60195250A168A116430FA27A000A101ED
:1028A8005D08A3005C08A2003D260A168A112108CB
:1028B800A8002008A7000A30A900AA01DF250A16E7
:1028C8008A116430A000A1015D08A3005C08A20081
:1028D80067260A168A112108A8002008A7000A30CE
:1028E800A900AA01DF2DBA270A168A11FA27003093
:1028F800D60195250A168A117630BA250A168A1144
:102908000030D601D60A9525E5300A128A15CD235E
:102918000A168A115A30BA250A168A118712F7241C
:102928000A168A115D08D1005C08D000E5240A1651
:102938008A11EE270A168A113230F7240A168A11EC
:102948005D08D1005C08D000E5240A168A11EE273C
:102958000A168A1183128716F7240A168A115D0847
:10296800D1005C08D000E5240A168A11E2270A166D
:102978008A113230F7240A168A115D08D1005C08E2
:10298800D000E5240A168A11E2270A168A11831252
:1029980087120B30D60195250A168A11FA27E2010B
:1029A8003D30D301D30ADD260A168A111C30FA27D6
:1029B8000630E20A6202031CD42CE5300A128A159A
:1029C800CD2B5008A0005108A1008E30A201A30011
:1029D800A4010A128A11E2252008D0002108D1009A
:1029E8002208D20008000B118316051282308312C8
:1029F800DF00DD30DE00DE0BFF2CDF0BFF2C042DAB
:102A0800FA2781014130DF00EE30DE00DE0B0A2DAF
:102A1800DF0B0A2D64004130FA27DF00EE30DE00BC
:102A2800DE0B142DDF0B142D64004130FA27DF0074
:102A3800EE30DE00DE0B1E2DDF0B1E2D6400413054
:102A4800FA27DF00EE30DE00DE0B282DDF0B282D05
:102A580064004130FA27DF00EE30DE00DE0B322D55
:102A6800DF0B322D64004130FA27DF00EE30DE0044
:102A7800DE0B3C2DDF0B3C2D64004130FA27DF00D4
:102A8800EE30DE00DE0B462DDF0B462D64004130B4
:102A9800FA27DF00EE30DE00DE0B502DDF0B502D65
:102AA80064004130FA27DF00EE30DE00DE0B5A2DDD
:102AB800DF0B5A2D64004130FA27DF00EE30DE00CC
:102AC800DE0B642DDF0B642D6400831603130516DB
:102AD8008B260A168A117508E1007408E000003098
:102AE800D601D60A95250A168A11D9250A168A11F9
:102AF800B730C4260A168A11FA276108A8006008A8
:102B0800A7000A30A9000530AA00DF250A168A1195
:102B1800C9270A168A11FA276108DD006008DC0057
:102B28000800D700FD275F08FA27DB00FD275E08AD
:102B3800FA27DA00FD275D08FA27D900FD275C0887
:102B4800FA27D8008316590BB02D14308312D900F8
:102B58002830DA003C30DB0083125608583E8400E7
:102B68005708831300078038782F0800FA27D60003
:102B7800D701D8015708560784000A168A11002081
:102B88000A168A11003803190800570856078400E6
:102B98000A168A1100200A168A11AF270A168A1106
:102BA8008312D70A0319D80ABE2DF030FD27A005D5
:102BB8000F30A00508002030CF01CB00AA1FE82D58
:102BC8003030AA09AA0ACB002908A000A1012808C8
:102BD800A3002708A20067260A168A112008CE003B
:102BE8000A304E024E08CC00031CFC2D3730FD2D58
:102BF8003030CD01CC070318CD0A4F082B3E840096
:102C08004C0883138000CF0A2908A000A1012808D6
:102C1800A3002708A2003D260A168A112108A80049
:102C28002008A70028040319202EE82D4B080A12B3
:102C38008A150C270A168A11FA274F08803AF500D8
:102C48002A08AA03803AF502031C1A2E4F08803A74
:102C58007F3E031C08004F08FF3E2B3E8400831371
:102C680000080A128A150C270A168A11FA27CF03B8
:102C78002A2EA501A601210820040319622EA40109
:102C8800A40AA11B4B2E0310A00DA10D442E031066
:102C9800A50DA60D21082302031D542E200822028B
:102CA800031C5E2E2008A2022108031CA303A30212
:102CB80025140310A10CA00CA40B4B2E2608A10070
:102CC8002508A0000800210820040319862EF40115
:102CD800F40AA11B732E0310A00DA10D6C2E210860
:102CE8002302031D792E20082202031C822E2008AD
:102CF800A2022108031CA303A3020310A10CA00C29
:102D0800F40B732E2308A1002208A00008008312E8
:102D18000108A400A501A601831681169A2E013088
:102D280026020030031925020318AB2E831601165C
:102D38000000000083160313011200000000FA27A8
:102D4800A50A0319A60A240801060319932E2408C4
:102D5800A000A101A100A00125082002A2002608C8
:102D6800031C260A2102A3002208003EA50023080E
:102D78000318013E013EA600F5002508F4000800EE
:102D8800F500750884000A168A1100200A168A11AF
:102D9800003803190800750884000A168A110020F3
:102DA8000A168A110A128A150C270A168A11F50AB8
:102DB800C52ED40053080319E32E0615E42E061178
:102DC800540E0F397C270A168A11FA2754087C2FCB
:102DD800D900023059020318EF1559088316D90093
:102DE800831256080319FC2E5903031DFC2E6F1578
:102DF8006230D8006530D700D70B002FD80B002FD2
:102E0800052FFA27061186116F1A312F03307C27F8
:102E18000A168A112130FA27D8007630D700D70B46
:102E2800132FD80B132F640003307C270A168A113E
:102E3800F930FA27D700D70B1F2F222F03307C2712
:102E48000A168A11F930FA27D700D70B292F2C2F09
:102E580002307C270A168A11562F6F0820387827E7
:102E68000A168A112130FA27D8007630D700D70BF6
:102E78003B2FD80B3B2F6400FA276F0820387827A0
:102E88000A168A112130FA27D8007630D700D70BD6
:102E98004B2FD80B4B2F6400FA276F082038782760
:102EA8000A168A11FA276F08203878270A168A1115
:102EB800043083160313D800083878270A168A11B5
:102EC800013078270A168A110D30FA27D800FB300E
:102ED800D700D70B6D2FD80B6D2F722F02308316AA
:102EE8000313DA000438782FFA27D500D301DD2E32
:102EF800F5000F30FA278605750EF0398604861519
:102F08000630F400F40B862F6400FA278611A630E9
:102F1800F400F40B8D2F64000800FA27D500D601C1
:102F28005608550784000A168A1100200A168A11C5
:102F3800003803190800D301D30A5608550784003E
:102F48000A168A1100200A168A11DD260A168A1125
:102F5800FA27D60A942FD500D301D30ADD260A16FC
:102F68008A11FA2755080A128A15E42B01307827A6
:102F78000A168A110D30FA27D700FB30D600D60B77
:102F8800C32FD70BC32FC82F0800D301FD27200E4E
:102F98000F39FA2753020318DE2F5308903E840096
:102FA800831700080A128A15E4230A168A11831265
:102FB800D30ACA2FE5300A128A15CD2B500883167A
:102FC800D000831251088316D10083125208831649
:102FD800D200080050088316DC00831251088316BB
:102FE800DD00831252088316DE00080083120313E3
:082FF80008008316031708000E
:02400E0072FF3F
:00000001FF
